{"abi":[{"type":"function","name":"checkAdd","inputs":[{"name":"x","type":"uint256","internalType":"uint256"},{"name":"y","type":"uint256","internalType":"uint256"}],"outputs":[],"stateMutability":"pure"},{"type":"function","name":"checkAddi","inputs":[{"name":"x","type":"int256","internalType":"int256"},{"name":"y","type":"int256","internalType":"int256"}],"outputs":[],"stateMutability":"pure"},{"type":"function","name":"checkMul","inputs":[{"name":"x","type":"uint256","internalType":"uint256"},{"name":"y","type":"uint256","internalType":"uint256"}],"outputs":[],"stateMutability":"pure"},{"type":"function","name":"checkSub","inputs":[{"name":"x","type":"uint256","internalType":"uint256"},{"name":"y","type":"uint256","internalType":"uint256"}],"outputs":[],"stateMutability":"pure"},{"type":"function","name":"checkSubi","inputs":[{"name":"x","type":"int256","internalType":"int256"},{"name":"y","type":"int256","internalType":"int256"}],"outputs":[],"stateMutability":"pure"}],"bytecode":{"object":"0x608060405234801561001057600080fd5b50610368806100206000396000f3fe608060405234801561001057600080fd5b50600436106100575760003560e01c80630f9350001461005c5780630fe48c5c146100945780636d886fae146100cc5780639239e77714610104578063bd78b20d1461013c575b600080fd5b6100926004803603604081101561007257600080fd5b810190808035906020019092919080359060200190929190505050610174565b005b6100ca600480360360408110156100aa57600080fd5b8101908080359060200190929190803590602001909291905050506101a8565b005b610102600480360360408110156100e257600080fd5b8101908080359060200190929190803590602001909291905050506101f2565b005b61013a6004803603604081101561011a57600080fd5b81019080803590602001909291908035906020019092919050505061021a565b005b6101726004803603604081101561015257600080fd5b810190808035906020019092919080359060200190929190505050610253565b005b6000610180838361028c565b9050818301811461018d57fe5b82811015801561019d5750818110155b6101a357fe5b505050565b60006101b483836102a6565b905081830281146101c157fe5b60008314806101d05750600082145b806101e757508281101580156101e65750818110155b5b6101ed57fe5b505050565b60006101fe83836102d2565b9050818303811461020b57fe5b8281111561021557fe5b505050565b600061022683836102ec565b9050818301811461023357fe5b600082126102445782811215610248565b8281125b61024e57fe5b505050565b600061025f838361030f565b9050818303811461026c57fe5b6000821261027d5782811315610281565b8281135b61028757fe5b505050565b60008282840191508110156102a057600080fd5b92915050565b6000808314806102c357508183838502925082816102c057fe5b04145b6102cc57600080fd5b92915050565b60008282840391508111156102e657600080fd5b92915050565b600080821215151583838501925082121515151461030957600080fd5b92915050565b600080821215151583838503925082131515151461032c57600080fd5b9291505056fea2646970667358221220d7d1d840a201c915b04db888adb3c4d9c1e3943f718a3211a5a2f917b51f968564736f6c63430007060033","linkReferences":{}},"methodIdentifiers":{"checkAdd(uint256,uint256)":"0f935000","checkAddi(int256,int256)":"9239e777","checkMul(uint256,uint256)":"0fe48c5c","checkSub(uint256,uint256)":"6d886fae","checkSubi(int256,int256)":"bd78b20d"},"id":39}