{"abi":[{"type":"constructor","inputs":[],"stateMutability":"nonpayable"},{"type":"function","name":"advanceTime","inputs":[{"name":"by","type":"uint32","internalType":"uint32"}],"outputs":[],"stateMutability":"nonpayable"},{"type":"function","name":"checkTimeWeightedAveragesAlwaysFitsType","inputs":[{"name":"secondsAgo","type":"uint32","internalType":"uint32"}],"outputs":[],"stateMutability":"view"},{"type":"function","name":"checkTwoAdjacentObservationsTickCumulativeModTimeElapsedAlways0","inputs":[{"name":"index","type":"uint16","internalType":"uint16"}],"outputs":[],"stateMutability":"view"},{"type":"function","name":"echidna_AlwaysInitialized","inputs":[],"outputs":[{"name":"","type":"bool","internalType":"bool"}],"stateMutability":"view"},{"type":"function","name":"echidna_canAlwaysObserve0IfInitialized","inputs":[],"outputs":[{"name":"","type":"bool","internalType":"bool"}],"stateMutability":"view"},{"type":"function","name":"echidna_cardinalityAlwaysLteNext","inputs":[],"outputs":[{"name":"","type":"bool","internalType":"bool"}],"stateMutability":"view"},{"type":"function","name":"echidna_indexAlwaysLtCardinality","inputs":[],"outputs":[{"name":"","type":"bool","internalType":"bool"}],"stateMutability":"view"},{"type":"function","name":"grow","inputs":[{"name":"cardinality","type":"uint16","internalType":"uint16"}],"outputs":[],"stateMutability":"nonpayable"},{"type":"function","name":"initialize","inputs":[{"name":"time","type":"uint32","internalType":"uint32"},{"name":"tick","type":"int24","internalType":"int24"},{"name":"liquidity","type":"uint128","internalType":"uint128"}],"outputs":[],"stateMutability":"nonpayable"},{"type":"function","name":"update","inputs":[{"name":"advanceTimeBy","type":"uint32","internalType":"uint32"},{"name":"tick","type":"int24","internalType":"int24"},{"name":"liquidity","type":"uint128","internalType":"uint128"}],"outputs":[],"stateMutability":"nonpayable"}],"bytecode":{"object":"0x608060405234801561001057600080fd5b5060405161001d9061007e565b604051809103906000f080158015610039573d6000803e3d6000fd5b506000806101000a81548173ffffffffffffffffffffffffffffffffffffffff021916908373ffffffffffffffffffffffffffffffffffffffff16021790555061008b565b6122e480611a3f83390190565b6119a58061009a6000396000f3fe608060405234801561001057600080fd5b506004361061009e5760003560e01c8063ae505b5211610066578063ae505b5214610133578063de32773914610151578063e9f71da91461016f578063f7fd2cfa1461018b578063f7fe5510146101a75761009e565b80634d50e016146100a3578063761eb23e146100bf57806391e2b63c146100db578063a9583576146100f9578063ae13714b14610115575b600080fd5b6100bd60048036038101906100b891906113c8565b6101c3565b005b6100d960048036038101906100d4919061134d565b6102a3565b005b6100e3610331565b6040516100f09190611656565b60405180910390f35b610113600480360381019061010e919061139f565b610497565b005b61011d610773565b60405161012a9190611656565b60405180910390f35b61013b6108d8565b6040516101489190611656565b60405180910390f35b610159610a75565b6040516101669190611656565b60405180910390f35b6101896004803603810190610184919061134d565b610bc3565b005b6101a560048036038101906101a0919061139f565b610f1b565b005b6101c160048036038101906101bc91906113c8565b610fb2565b005b60008054906101000a900473ffffffffffffffffffffffffffffffffffffffff1673ffffffffffffffffffffffffffffffffffffffff1663daf50f6b60405180606001604052808663ffffffff1681526020018560020b8152602001846fffffffffffffffffffffffffffffffff168152506040518263ffffffff1660e01b8152600401610251919061168c565b600060405180830381600087803b15801561026b57600080fd5b505af115801561027f573d6000803e3d6000fd5b505050506001600060146101000a81548160ff021916908315150217905550505050565b60008054906101000a900473ffffffffffffffffffffffffffffffffffffffff1673ffffffffffffffffffffffffffffffffffffffff1663761eb23e826040518263ffffffff1660e01b81526004016102fc91906116c2565b600060405180830381600087803b15801561031657600080fd5b505af115801561032a573d6000803e3d6000fd5b5050505050565b60008060008054906101000a900473ffffffffffffffffffffffffffffffffffffffff1673ffffffffffffffffffffffffffffffffffffffff1663252c09d760006040518263ffffffff1660e01b815260040161038e9190611671565b60806040518083038186803b1580156103a657600080fd5b505afa1580156103ba573d6000803e3d6000fd5b505050506040513d601f19601f820116820180604052508101906103de9190611417565b935050505060008060009054906101000a900473ffffffffffffffffffffffffffffffffffffffff1673ffffffffffffffffffffffffffffffffffffffff1663dbffe9ad6040518163ffffffff1660e01b815260040160206040518083038186803b15801561044c57600080fd5b505afa158015610460573d6000803e3d6000fd5b505050506040513d601f19601f820116820180604052508101906104849190611376565b61ffff1614806104915750805b91505090565b600060149054906101000a900460ff166104b057600080fd5b60008163ffffffff16116104c357600080fd5b6000600267ffffffffffffffff811180156104dd57600080fd5b5060405190808252806020026020018201604052801561050c5781602001602082028036833780820191505090505b509050818160008151811061051d57fe5b602002602001019063ffffffff16908163ffffffff168152505060008160018151811061054657fe5b602002602001019063ffffffff16908163ffffffff168152505060008060008054906101000a900473ffffffffffffffffffffffffffffffffffffffff1673ffffffffffffffffffffffffffffffffffffffff1663883bdbfd846040518263ffffffff1660e01b81526004016105bc9190611634565b60006040518083038186803b1580156105d457600080fd5b505afa1580156105e8573d6000803e3d6000fd5b505050506040513d6000823e3d601f19601f8201168201806040525081019061061191906112e1565b9150915060008260008151811061062457fe5b60200260200101518360018151811061063957fe5b602002602001015103905060008563ffffffff1660060b8260060b8161065b57fe5b05905060008260060b12801561068a575060008663ffffffff1660060b8360060b8161068357fe5b0760060b14155b15610699578080600190039150505b627fffff60020b8160060b131580156106d857507fffffffffffffffffffffffffffffffffffffffffffffffffffffffffff80000060020b8160060b12155b6106de57fe5b60006020846000815181106106ef57fe5b60200260200101518560018151811061070457fe5b60200260200101510373ffffffffffffffffffffffffffffffffffffffff16901b73ffffffffffffffffffffffffffffffffffffffff80168863ffffffff16028161074b57fe5b0490506fffffffffffffffffffffffffffffffff801681111561076a57fe5b50505050505050565b60008060009054906101000a900473ffffffffffffffffffffffffffffffffffffffff1673ffffffffffffffffffffffffffffffffffffffff1663dbffe9ad6040518163ffffffff1660e01b815260040160206040518083038186803b1580156107dc57600080fd5b505afa1580156107f0573d6000803e3d6000fd5b505050506040513d601f19601f820116820180604052508101906108149190611376565b61ffff1660008054906101000a900473ffffffffffffffffffffffffffffffffffffffff1673ffffffffffffffffffffffffffffffffffffffff16632986c0e56040518163ffffffff1660e01b815260040160206040518083038186803b15801561087e57600080fd5b505afa158015610892573d6000803e3d6000fd5b505050506040513d601f19601f820116820180604052508101906108b69190611376565b61ffff1610806108d35750600060149054906101000a900460ff16155b905090565b60008060149054906101000a900460ff166108f65760019050610a72565b6000600167ffffffffffffffff8111801561091057600080fd5b5060405190808252806020026020018201604052801561093f5781602001602082028036833780820191505090505b50905060008160008151811061095157fe5b602002602001019063ffffffff16908163ffffffff168152505060008060009054906101000a900473ffffffffffffffffffffffffffffffffffffffff1673ffffffffffffffffffffffffffffffffffffffff1663883bdbfd60e01b836040516024016109be9190611634565b604051602081830303815290604052907bffffffffffffffffffffffffffffffffffffffffffffffffffffffff19166020820180517bffffffffffffffffffffffffffffffffffffffffffffffffffffffff8381831617835250505050604051610a28919061161d565b600060405180830381855afa9150503d8060008114610a63576040519150601f19603f3d011682016040523d82523d6000602084013e610a68565b606091505b5050905080925050505b90565b60008060009054906101000a900473ffffffffffffffffffffffffffffffffffffffff1673ffffffffffffffffffffffffffffffffffffffff1663dd158c186040518163ffffffff1660e01b815260040160206040518083038186803b158015610ade57600080fd5b505afa158015610af2573d6000803e3d6000fd5b505050506040513d601f19601f82011682018060405250810190610b169190611376565b61ffff1660008054906101000a900473ffffffffffffffffffffffffffffffffffffffff1673ffffffffffffffffffffffffffffffffffffffff1663dbffe9ad6040518163ffffffff1660e01b815260040160206040518083038186803b158015610b8057600080fd5b505afa158015610b94573d6000803e3d6000fd5b505050506040513d601f19601f82011682018060405250810190610bb89190611376565b61ffff161115905090565b60008060009054906101000a900473ffffffffffffffffffffffffffffffffffffffff1673ffffffffffffffffffffffffffffffffffffffff1663dbffe9ad6040518163ffffffff1660e01b815260040160206040518083038186803b158015610c2c57600080fd5b505afa158015610c40573d6000803e3d6000fd5b505050506040513d601f19601f82011682018060405250810190610c649190611376565b90508061ffff168261ffff16108015610d3657508061ffff16600160008054906101000a900473ffffffffffffffffffffffffffffffffffffffff1673ffffffffffffffffffffffffffffffffffffffff16632986c0e56040518163ffffffff1660e01b815260040160206040518083038186803b158015610ce557600080fd5b505afa158015610cf9573d6000803e3d6000fd5b505050506040513d601f19601f82011682018060405250810190610d1d9190611376565b0161ffff1681610d2957fe5b0661ffff168261ffff1614155b610d3f57600080fd5b60008060008060009054906101000a900473ffffffffffffffffffffffffffffffffffffffff1673ffffffffffffffffffffffffffffffffffffffff1663252c09d760008761ffff1614610d965760018703610d9b565b600186035b6040518263ffffffff1660e01b8152600401610db791906116dd565b60806040518083038186803b158015610dcf57600080fd5b505afa158015610de3573d6000803e3d6000fd5b505050506040513d601f19601f82011682018060405250810190610e079190611417565b9350509250925060008060008060009054906101000a900473ffffffffffffffffffffffffffffffffffffffff1673ffffffffffffffffffffffffffffffffffffffff1663252c09d7896040518263ffffffff1660e01b8152600401610e6d91906116dd565b60806040518083038186803b158015610e8557600080fd5b505afa158015610e99573d6000803e3d6000fd5b505050506040513d601f19601f82011682018060405250810190610ebd9190611417565b9350509250925083610ece57600080fd5b80610ed857600080fd5b6000868403905060008163ffffffff1611610eef57fe5b60008163ffffffff1687850360060b81610f0557fe5b0760060b14610f1057fe5b505050505050505050565b610f2481611080565b60008054906101000a900473ffffffffffffffffffffffffffffffffffffffff1673ffffffffffffffffffffffffffffffffffffffff1663f7fd2cfa826040518263ffffffff1660e01b8152600401610f7d91906116f8565b600060405180830381600087803b158015610f9757600080fd5b505af1158015610fab573d6000803e3d6000fd5b5050505050565b610fbb83611080565b60008054906101000a900473ffffffffffffffffffffffffffffffffffffffff1673ffffffffffffffffffffffffffffffffffffffff166365829dc560405180606001604052808663ffffffff1681526020018560020b8152602001846fffffffffffffffffffffffffffffffff168152506040518263ffffffff1660e01b815260040161104991906116a7565b600060405180830381600087803b15801561106357600080fd5b505af1158015611077573d6000803e3d6000fd5b50505050505050565b600060159054906101000a900463ffffffff1663ffffffff1681600060159054906101000a900463ffffffff160163ffffffff1610156110bf57600080fd5b80600060158282829054906101000a900463ffffffff160192506101000a81548163ffffffff021916908363ffffffff16021790555050565b600061110b61110684611744565b611713565b9050808382526020820190508285602086028201111561112a57600080fd5b60005b8581101561115a5781611140888261124e565b84526020840193506020830192505060018101905061112d565b5050509392505050565b600061117761117284611770565b611713565b9050808382526020820190508285602086028201111561119657600080fd5b60005b858110156111c657816111ac888261128d565b845260208401935060208301925050600181019050611199565b5050509392505050565b600082601f8301126111e157600080fd5b81516111f18482602086016110f8565b91505092915050565b600082601f83011261120b57600080fd5b815161121b848260208601611164565b91505092915050565b600081519050611233816118ce565b92915050565b600081359050611248816118e5565b92915050565b60008151905061125d816118fc565b92915050565b60008135905061127281611913565b92915050565b6000813590506112878161192a565b92915050565b60008151905061129c81611941565b92915050565b6000815190506112b18161192a565b92915050565b6000813590506112c681611958565b92915050565b6000815190506112db81611958565b92915050565b600080604083850312156112f457600080fd5b600083015167ffffffffffffffff81111561130e57600080fd5b61131a858286016111d0565b925050602083015167ffffffffffffffff81111561133757600080fd5b611343858286016111fa565b9150509250929050565b60006020828403121561135f57600080fd5b600061136d84828501611278565b91505092915050565b60006020828403121561138857600080fd5b6000611396848285016112a2565b91505092915050565b6000602082840312156113b157600080fd5b60006113bf848285016112b7565b91505092915050565b6000806000606084860312156113dd57600080fd5b60006113eb868287016112b7565b93505060206113fc86828701611239565b925050604061140d86828701611263565b9150509250925092565b6000806000806080858703121561142d57600080fd5b600061143b878288016112cc565b945050602061144c8782880161124e565b935050604061145d8782880161128d565b925050606061146e87828801611224565b91505092959194509250565b600061148683836115ff565b60208301905092915050565b600061149d826117ac565b6114a781856117cf565b93506114b28361179c565b8060005b838110156114e35781516114ca888261147a565b97506114d5836117c2565b9250506001810190506114b6565b5085935050505092915050565b6114f9816117eb565b82525050565b600061150a826117b7565b61151481856117e0565b9350611524818560208601611899565b80840191505092915050565b611539816117f7565b82525050565b61154881611875565b82525050565b60608201600082015161156460008501826115ff565b5060208201516115776020850182611530565b50604082015161158a60408501826115d2565b50505050565b6060820160008201516115a660008501826115ff565b5060208201516115b96020850182611530565b5060408201516115cc60408501826115d2565b50505050565b6115db81611811565b82525050565b6115ea8161182d565b82525050565b6115f981611887565b82525050565b61160881611865565b82525050565b61161781611865565b82525050565b600061162982846114ff565b915081905092915050565b6000602082019050818103600083015261164e8184611492565b905092915050565b600060208201905061166b60008301846114f0565b92915050565b6000602082019050611686600083018461153f565b92915050565b60006060820190506116a1600083018461154e565b92915050565b60006060820190506116bc6000830184611590565b92915050565b60006020820190506116d760008301846115e1565b92915050565b60006020820190506116f260008301846115f0565b92915050565b600060208201905061170d600083018461160e565b92915050565b6000604051905081810181811067ffffffffffffffff8211171561173a576117396118cc565b5b8060405250919050565b600067ffffffffffffffff82111561175f5761175e6118cc565b5b602082029050602081019050919050565b600067ffffffffffffffff82111561178b5761178a6118cc565b5b602082029050602081019050919050565b6000819050602082019050919050565b600081519050919050565b600081519050919050565b6000602082019050919050565b600082825260208201905092915050565b600081905092915050565b60008115159050919050565b60008160020b9050919050565b60008160060b9050919050565b60006fffffffffffffffffffffffffffffffff82169050919050565b600061ffff82169050919050565b600073ffffffffffffffffffffffffffffffffffffffff82169050919050565b6000819050919050565b600063ffffffff82169050919050565b60006118808261185b565b9050919050565b60006118928261182d565b9050919050565b60005b838110156118b757808201518184015260208101905061189c565b838111156118c6576000848401525b50505050565bfe5b6118d7816117eb565b81146118e257600080fd5b50565b6118ee816117f7565b81146118f957600080fd5b50565b61190581611804565b811461191057600080fd5b50565b61191c81611811565b811461192757600080fd5b50565b6119338161182d565b811461193e57600080fd5b50565b61194a8161183b565b811461195557600080fd5b50565b61196181611865565b811461196c57600080fd5b5056fea26469706673582212202e0ec4a46a2e887e0f61bbee8a3325b639da7496dad86b1172b8b21676ce6d9664736f6c63430007060033608060405234801561001057600080fd5b506122c4806100206000396000f3fe608060405234801561001057600080fd5b50600436106100ea5760003560e01c8063761eb23e1161008c578063daf50f6b11610066578063daf50f6b1461024f578063dbffe9ad1461026b578063dd158c1814610289578063f7fd2cfa146102a7576100ea565b8063761eb23e146101e6578063883bdbfd14610202578063d81740db14610233576100ea565b80632986c0e5116100c85780632986c0e51461015e5780633eaf5d9f1461017c57806365829dc51461019a57806374e69cef146101b6576100ea565b806316ada547146100ef5780631a6865021461010d578063252c09d71461012b575b600080fd5b6100f76102c3565b60405161010491906120ae565b60405180910390f35b6101156102da565b604051610122919061205d565b60405180910390f35b61014560048036038101906101409190611dd7565b6102fd565b60405161015594939291906120c9565b60405180910390f35b61016661037b565b6040516101739190612078565b60405180910390f35b610184610390565b6040516101919190612022565b60405180910390f35b6101b460048036038101906101af9190611d5c565b6103a4565b005b6101d060048036038101906101cb9190611cc5565b610518565b6040516101dd9190612093565b60405180910390f35b61020060048036038101906101fb9190611dae565b610606565b005b61021c60048036038101906102179190611cc5565b61064d565b60405161022a929190611feb565b60405180910390f35b61024d60048036038101906102489190611c80565b61071e565b005b61026960048036038101906102649190611d33565b61092c565b005b610273610aa4565b6040516102809190612078565b60405180910390f35b610291610ab9565b60405161029e9190612078565b60405180910390f35b6102c160048036038101906102bc9190611e00565b610ace565b005b61ffff60009054906101000a900463ffffffff1681565b61ffff60079054906101000a90046fffffffffffffffffffffffffffffffff1681565b60008161ffff811061030e57600080fd5b016000915090508060000160009054906101000a900463ffffffff16908060000160049054906101000a900460060b9080600001600b9054906101000a900473ffffffffffffffffffffffffffffffffffffffff169080600001601f9054906101000a900460ff16905084565b61ffff60179054906101000a900461ffff1681565b61ffff60049054906101000a900460020b81565b6103bf8160000160208101906103ba9190611e00565b610ace565b61045261ffff60179054906101000a900461ffff1661ffff60009054906101000a900463ffffffff1661ffff60049054906101000a900460020b61ffff60079054906101000a90046fffffffffffffffffffffffffffffffff1661ffff60199054906101000a900461ffff1661ffff601b9054906101000a900461ffff166000610b08909695949392919063ffffffff16565b61ffff601761ffff60198491906101000a81548161ffff021916908361ffff1602179055508391906101000a81548161ffff021916908361ffff16021790555050508060200160208101906104a79190611d0a565b61ffff60046101000a81548162ffffff021916908360020b62ffffff1602179055508060400160208101906104dc9190611d85565b61ffff60076101000a8154816fffffffffffffffffffffffffffffffff02191690836fffffffffffffffffffffffffffffffff16021790555050565b600080600080600061ffff60009054906101000a900463ffffffff1661ffff60049054906101000a900460020b61ffff60079054906101000a90046fffffffffffffffffffffffffffffffff1661ffff60179054906101000a900461ffff16935093509350935060005a90506105f485898980806020026020016040519081016040528093929190818152602001838360200280828437600081840152601f19601f8201169050808301925050505050505086858761ffff60199054906101000a900461ffff166000610d3a909695949392919063ffffffff16565b50505a81039550505050505092915050565b61062d61ffff601b9054906101000a900461ffff16826000610ef59092919063ffffffff16565b61ffff601b6101000a81548161ffff021916908361ffff16021790555050565b60608061071361ffff60009054906101000a900463ffffffff16858580806020026020016040519081016040528093929190818152602001838360200280828437600081840152601f19601f8201169050808301925050505050505061ffff60049054906101000a900460020b61ffff60179054906101000a900461ffff1661ffff60079054906101000a90046fffffffffffffffffffffffffffffffff1661ffff60199054906101000a900461ffff166000610d3a909695949392919063ffffffff16565b915091509250929050565b600061ffff60049054906101000a900460020b9050600061ffff60079054906101000a90046fffffffffffffffffffffffffffffffff169050600061ffff60179054906101000a900461ffff169050600061ffff60199054906101000a900461ffff169050600061ffff601b9054906101000a900461ffff169050600061ffff60009054906101000a900463ffffffff16905060005b88889050811015610866578888828181106107cb57fe5b90506060020160000160208101906107e39190611e00565b820191506108058583898988886000610b08909695949392919063ffffffff16565b809550819650505088888281811061081957fe5b90506060020160200160208101906108319190611d0a565b965088888281811061083f57fe5b90506060020160400160208101906108579190611d85565b955080806001019150506107b4565b508561ffff60046101000a81548162ffffff021916908360020b62ffffff1602179055508461ffff60076101000a8154816fffffffffffffffffffffffffffffffff02191690836fffffffffffffffffffffffffffffffff1602179055508361ffff60176101000a81548161ffff021916908361ffff1602179055508261ffff60196101000a81548161ffff021916908361ffff1602179055508061ffff60006101000a81548163ffffffff021916908363ffffffff1602179055505050505050505050565b600061ffff60199054906101000a900461ffff1661ffff1614610984576040517f08c379a000000000000000000000000000000000000000000000000000000000815260040161097b9061203d565b60405180910390fd5b8060000160208101906109979190611e00565b61ffff60006101000a81548163ffffffff021916908363ffffffff1602179055508060200160208101906109cb9190611d0a565b61ffff60046101000a81548162ffffff021916908360020b62ffffff160217905550806040016020810190610a009190611d85565b61ffff60076101000a8154816fffffffffffffffffffffffffffffffff02191690836fffffffffffffffffffffffffffffffff160217905550610a5f816000016020810190610a4f9190611e00565b6000610feb90919063ffffffff16565b61ffff601961ffff601b8491906101000a81548161ffff021916908361ffff1602179055508391906101000a81548161ffff021916908361ffff160217905550505050565b61ffff60199054906101000a900461ffff1681565b61ffff601b9054906101000a900461ffff1681565b8061ffff60008282829054906101000a900463ffffffff160192506101000a81548163ffffffff021916908363ffffffff16021790555050565b6000806000898961ffff1661ffff8110610b1e57fe5b016040518060800160405290816000820160009054906101000a900463ffffffff1663ffffffff1663ffffffff1681526020016000820160049054906101000a900460060b60060b60060b815260200160008201600b9054906101000a900473ffffffffffffffffffffffffffffffffffffffff1673ffffffffffffffffffffffffffffffffffffffff1673ffffffffffffffffffffffffffffffffffffffff16815260200160008201601f9054906101000a900460ff16151515158152505090508763ffffffff16816000015163ffffffff161415610c045788859250925050610d2e565b8461ffff168461ffff16118015610c2557506001850361ffff168961ffff16145b15610c3257839150610c36565b8491505b8161ffff1660018a0161ffff1681610c4a57fe5b069250610c5981898989611111565b8a8461ffff1661ffff8110610c6a57fe5b0160008201518160000160006101000a81548163ffffffff021916908363ffffffff16021790555060208201518160000160046101000a81548166ffffffffffffff021916908360060b66ffffffffffffff160217905550604082015181600001600b6101000a81548173ffffffffffffffffffffffffffffffffffffffff021916908373ffffffffffffffffffffffffffffffffffffffff160217905550606082015181600001601f6101000a81548160ff021916908315150217905550905050505b97509795505050505050565b60608060008361ffff1611610db7576040517f08c379a00000000000000000000000000000000000000000000000000000000081526004018080602001828103825260018152602001807f490000000000000000000000000000000000000000000000000000000000000081525060200191505060405180910390fd5b865167ffffffffffffffff81118015610dcf57600080fd5b50604051908082528060200260200182016040528015610dfe5781602001602082028036833780820191505090505b509150865167ffffffffffffffff81118015610e1957600080fd5b50604051908082528060200260200182016040528015610e485781602001602082028036833780820191505090505b50905060005b8751811015610ee857610e798a8a8a8481518110610e6857fe5b60200260200101518a8a8a8a6111fc565b848381518110610e8557fe5b60200260200101848481518110610e9857fe5b602002602001018273ffffffffffffffffffffffffffffffffffffffff1673ffffffffffffffffffffffffffffffffffffffff168152508260060b60060b81525050508080600101915050610e4e565b5097509795505050505050565b6000808361ffff1611610f70576040517f08c379a00000000000000000000000000000000000000000000000000000000081526004018080602001828103825260018152602001807f490000000000000000000000000000000000000000000000000000000000000081525060200191505060405180910390fd5b8261ffff168261ffff1611610f8757829050610fe4565b60008390505b8261ffff168161ffff161015610fdf576001858261ffff1661ffff8110610fb057fe5b0160000160006101000a81548163ffffffff021916908363ffffffff1602179055508080600101915050610f8d565b508190505b9392505050565b60008060405180608001604052808463ffffffff168152602001600060060b8152602001600073ffffffffffffffffffffffffffffffffffffffff1681526020016001151581525084600061ffff811061104157fe5b0160008201518160000160006101000a81548163ffffffff021916908363ffffffff16021790555060208201518160000160046101000a81548166ffffffffffffff021916908360060b66ffffffffffffff160217905550604082015181600001600b6101000a81548173ffffffffffffffffffffffffffffffffffffffff021916908373ffffffffffffffffffffffffffffffffffffffff160217905550606082015181600001601f6101000a81548160ff021916908315150217905550905050600180915091509250929050565b611119611b04565b600085600001518503905060405180608001604052808663ffffffff1681526020018263ffffffff168660020b0288602001510160060b81526020016000856fffffffffffffffffffffffffffffffff1611611176576001611178565b845b6fffffffffffffffffffffffffffffffff1660808463ffffffff1673ffffffffffffffffffffffffffffffffffffffff16901b73ffffffffffffffffffffffffffffffffffffffff16816111c857fe5b0488604001510173ffffffffffffffffffffffffffffffffffffffff16815260200160011515815250915050949350505050565b60008060008763ffffffff16141561131d576000898661ffff1661ffff811061122157fe5b016040518060800160405290816000820160009054906101000a900463ffffffff1663ffffffff1663ffffffff1681526020016000820160049054906101000a900460060b60060b60060b815260200160008201600b9054906101000a900473ffffffffffffffffffffffffffffffffffffffff1673ffffffffffffffffffffffffffffffffffffffff1673ffffffffffffffffffffffffffffffffffffffff16815260200160008201601f9054906101000a900460ff16151515158152505090508863ffffffff16816000015163ffffffff161461130957611306818a8988611111565b90505b806020015181604001519250925050611423565b600087890390506000806113368c8c858c8c8c8c61142f565b91509150816000015163ffffffff168363ffffffff161415611368578160200151826040015194509450505050611423565b806000015163ffffffff168363ffffffff161415611396578060200151816040015194509450505050611423565b60008260000151826000015103905060008360000151850390508063ffffffff168263ffffffff16856020015185602001510360060b816113d357fe5b05028460200151018263ffffffff168263ffffffff16866040015186604001510373ffffffffffffffffffffffffffffffffffffffff16028161141257fe5b048560400151019650965050505050505b97509795505050505050565b611437611b04565b61143f611b04565b888561ffff1661ffff811061145057fe5b016040518060800160405290816000820160009054906101000a900463ffffffff1663ffffffff1663ffffffff1681526020016000820160049054906101000a900460060b60060b60060b815260200160008201600b9054906101000a900473ffffffffffffffffffffffffffffffffffffffff1673ffffffffffffffffffffffffffffffffffffffff1673ffffffffffffffffffffffffffffffffffffffff16815260200160008201601f9054906101000a900460ff1615151515815250509150611521888360000151896117b9565b15611559578663ffffffff16826000015163ffffffff161415611543576117ad565b8161155083898988611111565b915091506117ad565b888361ffff166001870161ffff168161156e57fe5b0661ffff1661ffff811061157e57fe5b016040518060800160405290816000820160009054906101000a900463ffffffff1663ffffffff1663ffffffff1681526020016000820160049054906101000a900460060b60060b60060b815260200160008201600b9054906101000a900473ffffffffffffffffffffffffffffffffffffffff1673ffffffffffffffffffffffffffffffffffffffff1673ffffffffffffffffffffffffffffffffffffffff16815260200160008201601f9054906101000a900460ff1615151515815250509150816060015161171a5788600061ffff811061165757fe5b016040518060800160405290816000820160009054906101000a900463ffffffff1663ffffffff1663ffffffff1681526020016000820160049054906101000a900460060b60060b60060b815260200160008201600b9054906101000a900473ffffffffffffffffffffffffffffffffffffffff1673ffffffffffffffffffffffffffffffffffffffff1673ffffffffffffffffffffffffffffffffffffffff16815260200160008201601f9054906101000a900460ff16151515158152505091505b611729888360000151896117b9565b61179b576040517f08c379a00000000000000000000000000000000000000000000000000000000081526004018080602001828103825260038152602001807f4f4c44000000000000000000000000000000000000000000000000000000000081525060200191505060405180910390fd5b6117a88989898887611881565b915091505b97509795505050505050565b60008363ffffffff168363ffffffff16111580156117e357508363ffffffff168263ffffffff1611155b156117ff578163ffffffff168363ffffffff161115905061187a565b60008463ffffffff168463ffffffff1611611827576401000000008463ffffffff160161182f565b8363ffffffff165b64ffffffffff16905060008563ffffffff168463ffffffff1611611860576401000000008463ffffffff1601611868565b8363ffffffff165b64ffffffffff16905080821115925050505b9392505050565b611889611b04565b611891611b04565b60008361ffff166001860161ffff16816118a757fe5b0661ffff169050600060018561ffff16830103905060005b600115611af7576002828401816118d257fe5b049050898661ffff1682816118e357fe5b0661ffff81106118ef57fe5b016040518060800160405290816000820160009054906101000a900463ffffffff1663ffffffff1663ffffffff1681526020016000820160049054906101000a900460060b60060b60060b815260200160008201600b9054906101000a900473ffffffffffffffffffffffffffffffffffffffff1673ffffffffffffffffffffffffffffffffffffffff1673ffffffffffffffffffffffffffffffffffffffff16815260200160008201601f9054906101000a900460ff161515151581525050945084606001516119c5576001810192506118bf565b898661ffff1660018301816119d657fe5b0661ffff81106119e257fe5b016040518060800160405290816000820160009054906101000a900463ffffffff1663ffffffff1663ffffffff1681526020016000820160049054906101000a900460060b60060b60060b815260200160008201600b9054906101000a900473ffffffffffffffffffffffffffffffffffffffff1673ffffffffffffffffffffffffffffffffffffffff1673ffffffffffffffffffffffffffffffffffffffff16815260200160008201601f9054906101000a900460ff16151515158152505093506000611ab58a87600001518b6117b9565b9050808015611acf5750611ace8a8a87600001516117b9565b5b15611ada5750611af7565b80611aea57600182039250611af1565b6001820193505b506118bf565b5050509550959350505050565b6040518060800160405280600063ffffffff168152602001600060060b8152602001600073ffffffffffffffffffffffffffffffffffffffff1681526020016000151581525090565b60008083601f840112611b5f57600080fd5b8235905067ffffffffffffffff811115611b7857600080fd5b602083019150836060820283011115611b9057600080fd5b9250929050565b60008083601f840112611ba957600080fd5b8235905067ffffffffffffffff811115611bc257600080fd5b602083019150836020820283011115611bda57600080fd5b9250929050565b600081359050611bf08161221b565b92915050565b600060608284031215611c0857600080fd5b81905092915050565b600060608284031215611c2357600080fd5b81905092915050565b600081359050611c3b81612232565b92915050565b600081359050611c5081612249565b92915050565b600081359050611c6581612260565b92915050565b600081359050611c7a81612277565b92915050565b60008060208385031215611c9357600080fd5b600083013567ffffffffffffffff811115611cad57600080fd5b611cb985828601611b4d565b92509250509250929050565b60008060208385031215611cd857600080fd5b600083013567ffffffffffffffff811115611cf257600080fd5b611cfe85828601611b97565b92509250509250929050565b600060208284031215611d1c57600080fd5b6000611d2a84828501611be1565b91505092915050565b600060608284031215611d4557600080fd5b6000611d5384828501611bf6565b91505092915050565b600060608284031215611d6e57600080fd5b6000611d7c84828501611c11565b91505092915050565b600060208284031215611d9757600080fd5b6000611da584828501611c2c565b91505092915050565b600060208284031215611dc057600080fd5b6000611dce84828501611c41565b91505092915050565b600060208284031215611de957600080fd5b6000611df784828501611c56565b91505092915050565b600060208284031215611e1257600080fd5b6000611e2084828501611c6b565b91505092915050565b6000611e358383611f33565b60208301905092915050565b6000611e4d8383611fa0565b60208301905092915050565b6000611e648261212e565b611e6e818561215e565b9350611e798361210e565b8060005b83811015611eaa578151611e918882611e29565b9750611e9c83612144565b925050600181019050611e7d565b5085935050505092915050565b6000611ec282612139565b611ecc818561216f565b9350611ed78361211e565b8060005b83811015611f08578151611eef8882611e41565b9750611efa83612151565b925050600181019050611edb565b5085935050505092915050565b611f1e81612191565b82525050565b611f2d8161219d565b82525050565b611f3c816121aa565b82525050565b611f4b816121aa565b82525050565b6000611f5e601383612180565b91507f616c726561647920696e697469616c697a6564000000000000000000000000006000830152602082019050919050565b611f9a816121b7565b82525050565b611fa9816121e1565b82525050565b611fb8816121e1565b82525050565b611fc7816121d3565b82525050565b611fd681612201565b82525050565b611fe58161220b565b82525050565b600060408201905081810360008301526120058185611e59565b905081810360208301526120198184611eb7565b90509392505050565b60006020820190506120376000830184611f24565b92915050565b6000602082019050818103600083015261205681611f51565b9050919050565b60006020820190506120726000830184611f91565b92915050565b600060208201905061208d6000830184611fbe565b92915050565b60006020820190506120a86000830184611fcd565b92915050565b60006020820190506120c36000830184611fdc565b92915050565b60006080820190506120de6000830187611fdc565b6120eb6020830186611f42565b6120f86040830185611faf565b6121056060830184611f15565b95945050505050565b6000819050602082019050919050565b6000819050602082019050919050565b600081519050919050565b600081519050919050565b6000602082019050919050565b6000602082019050919050565b600082825260208201905092915050565b600082825260208201905092915050565b600082825260208201905092915050565b60008115159050919050565b60008160020b9050919050565b60008160060b9050919050565b60006fffffffffffffffffffffffffffffffff82169050919050565b600061ffff82169050919050565b600073ffffffffffffffffffffffffffffffffffffffff82169050919050565b6000819050919050565b600063ffffffff82169050919050565b6122248161219d565b811461222f57600080fd5b50565b61223b816121b7565b811461224657600080fd5b50565b612252816121d3565b811461225d57600080fd5b50565b61226981612201565b811461227457600080fd5b50565b6122808161220b565b811461228b57600080fd5b5056fea26469706673582212202a76e5e3f4f0b971c56f62dda073ba9302804f10655cf0e6b3de06320c01052864736f6c63430007060033","linkReferences":{}},"methodIdentifiers":{"advanceTime(uint32)":"f7fd2cfa","checkTimeWeightedAveragesAlwaysFitsType(uint32)":"a9583576","checkTwoAdjacentObservationsTickCumulativeModTimeElapsedAlways0(uint16)":"e9f71da9","echidna_AlwaysInitialized()":"91e2b63c","echidna_canAlwaysObserve0IfInitialized()":"ae505b52","echidna_cardinalityAlwaysLteNext()":"de327739","echidna_indexAlwaysLtCardinality()":"ae13714b","grow(uint16)":"761eb23e","initialize(uint32,int24,uint128)":"4d50e016","update(uint32,int24,uint128)":"f7fe5510"},"id":43}