{"abi":[{"type":"constructor","inputs":[],"stateMutability":"nonpayable"},{"type":"function","name":"createPool","inputs":[{"name":"tokenA","type":"address","internalType":"address"},{"name":"tokenB","type":"address","internalType":"address"},{"name":"fee","type":"uint24","internalType":"uint24"}],"outputs":[{"name":"pool","type":"address","internalType":"address"}],"stateMutability":"nonpayable"},{"type":"function","name":"enableFeeAmount","inputs":[{"name":"fee","type":"uint24","internalType":"uint24"},{"name":"tickSpacing","type":"int24","internalType":"int24"}],"outputs":[],"stateMutability":"nonpayable"},{"type":"function","name":"feeAmountTickSpacing","inputs":[{"name":"","type":"uint24","internalType":"uint24"}],"outputs":[{"name":"","type":"int24","internalType":"int24"}],"stateMutability":"view"},{"type":"function","name":"getPool","inputs":[{"name":"","type":"address","internalType":"address"},{"name":"","type":"address","internalType":"address"},{"name":"","type":"uint24","internalType":"uint24"}],"outputs":[{"name":"","type":"address","internalType":"address"}],"stateMutability":"view"},{"type":"function","name":"owner","inputs":[],"outputs":[{"name":"","type":"address","internalType":"address"}],"stateMutability":"view"},{"type":"function","name":"parameters","inputs":[],"outputs":[{"name":"factory","type":"address","internalType":"address"},{"name":"token0","type":"address","internalType":"address"},{"name":"token1","type":"address","internalType":"address"},{"name":"fee","type":"uint24","internalType":"uint24"},{"name":"tickSpacing","type":"int24","internalType":"int24"}],"stateMutability":"view"},{"type":"function","name":"setOwner","inputs":[{"name":"_owner","type":"address","internalType":"address"}],"outputs":[],"stateMutability":"nonpayable"},{"type":"event","name":"FeeAmountEnabled","inputs":[{"name":"fee","type":"uint24","indexed":true,"internalType":"uint24"},{"name":"tickSpacing","type":"int24","indexed":true,"internalType":"int24"}],"anonymous":false},{"type":"event","name":"OwnerChanged","inputs":[{"name":"oldOwner","type":"address","indexed":true,"internalType":"address"},{"name":"newOwner","type":"address","indexed":true,"internalType":"address"}],"anonymous":false},{"type":"event","name":"PoolCreated","inputs":[{"name":"token0","type":"address","indexed":true,"internalType":"address"},{"name":"token1","type":"address","indexed":true,"internalType":"address"},{"name":"fee","type":"uint24","indexed":true,"internalType":"uint24"},{"name":"tickSpacing","type":"int24","indexed":false,"internalType":"int24"},{"name":"pool","type":"address","indexed":false,"internalType":"address"}],"anonymous":false}],"bytecode":{"object":"0x60a060405234801561001057600080fd5b503073ffffffffffffffffffffffffffffffffffffffff1660808173ffffffffffffffffffffffffffffffffffffffff1660601b8152505033600360006101000a81548173ffffffffffffffffffffffffffffffffffffffff021916908373ffffffffffffffffffffffffffffffffffffffff1602179055503373ffffffffffffffffffffffffffffffffffffffff16600073ffffffffffffffffffffffffffffffffffffffff167fb532073b38c83145e3e5135377a08bf9aab55bc0fd7c1179cd4fb995d2a5159c60405160405180910390a3600a600460006101f462ffffff16815260200190815260200160002060006101000a81548162ffffff021916908360020b62ffffff160217905550600a6101f47fc66a3fdf07232cdd185febcc6579d408c241b47ae2f9907d84be655141eeaecc60405160405180910390a3603c60046000610bb862ffffff16815260200190815260200160002060006101000a81548162ffffff021916908360020b62ffffff160217905550603c610bb87fc66a3fdf07232cdd185febcc6579d408c241b47ae2f9907d84be655141eeaecc60405160405180910390a360c86004600061271062ffffff16815260200190815260200160002060006101000a81548162ffffff021916908360020b62ffffff16021790555060c86127107fc66a3fdf07232cdd185febcc6579d408c241b47ae2f9907d84be655141eeaecc60405160405180910390a360805160601c619fa461024560003980610b145250619fa46000f3fe608060405234801561001057600080fd5b506004361061007d5760003560e01c8063890357301161005b57806389035730146101ad5780638a7c195f146102315780638da5cb5b14610271578063a1671295146102a55761007d565b806313af4035146100825780631698ee82146100c657806322afcccb14610163575b600080fd5b6100c46004803603602081101561009857600080fd5b81019080803573ffffffffffffffffffffffffffffffffffffffff169060200190929190505050610342565b005b610137600480360360608110156100dc57600080fd5b81019080803573ffffffffffffffffffffffffffffffffffffffff169060200190929190803573ffffffffffffffffffffffffffffffffffffffff169060200190929190803562ffffff16906020019092919050505061045c565b604051808273ffffffffffffffffffffffffffffffffffffffff16815260200191505060405180910390f35b6101946004803603602081101561017957600080fd5b81019080803562ffffff1690602001909291905050506104ab565b604051808260020b815260200191505060405180910390f35b6101b56104cb565b604051808673ffffffffffffffffffffffffffffffffffffffff1681526020018573ffffffffffffffffffffffffffffffffffffffff1681526020018473ffffffffffffffffffffffffffffffffffffffff1681526020018362ffffff1681526020018260020b81526020019550505050505060405180910390f35b61026f6004803603604081101561024757600080fd5b81019080803562ffffff169060200190929190803560020b906020019092919050505061056b565b005b6102796106aa565b604051808273ffffffffffffffffffffffffffffffffffffffff16815260200191505060405180910390f35b610316600480360360608110156102bb57600080fd5b81019080803573ffffffffffffffffffffffffffffffffffffffff169060200190929190803573ffffffffffffffffffffffffffffffffffffffff169060200190929190803562ffffff1690602001909291905050506106d0565b604051808273ffffffffffffffffffffffffffffffffffffffff16815260200191505060405180910390f35b600360009054906101000a900473ffffffffffffffffffffffffffffffffffffffff1673ffffffffffffffffffffffffffffffffffffffff163373ffffffffffffffffffffffffffffffffffffffff161461039c57600080fd5b8073ffffffffffffffffffffffffffffffffffffffff16600360009054906101000a900473ffffffffffffffffffffffffffffffffffffffff1673ffffffffffffffffffffffffffffffffffffffff167fb532073b38c83145e3e5135377a08bf9aab55bc0fd7c1179cd4fb995d2a5159c60405160405180910390a380600360006101000a81548173ffffffffffffffffffffffffffffffffffffffff021916908373ffffffffffffffffffffffffffffffffffffffff16021790555050565b6005602052826000526040600020602052816000526040600020602052806000526040600020600092509250509054906101000a900473ffffffffffffffffffffffffffffffffffffffff1681565b60046020528060005260406000206000915054906101000a900460020b81565b60008060000160009054906101000a900473ffffffffffffffffffffffffffffffffffffffff16908060010160009054906101000a900473ffffffffffffffffffffffffffffffffffffffff16908060020160009054906101000a900473ffffffffffffffffffffffffffffffffffffffff16908060020160149054906101000a900462ffffff16908060020160179054906101000a900460020b905085565b600360009054906101000a900473ffffffffffffffffffffffffffffffffffffffff1673ffffffffffffffffffffffffffffffffffffffff163373ffffffffffffffffffffffffffffffffffffffff16146105c557600080fd5b620f42408262ffffff16106105d957600080fd5b60008160020b1380156105f057506140008160020b125b6105f957600080fd5b6000600460008462ffffff1662ffffff16815260200190815260200160002060009054906101000a900460020b60020b1461063357600080fd5b80600460008462ffffff1662ffffff16815260200190815260200160002060006101000a81548162ffffff021916908360020b62ffffff1602179055508060020b8262ffffff167fc66a3fdf07232cdd185febcc6579d408c241b47ae2f9907d84be655141eeaecc60405160405180910390a35050565b600360009054906101000a900473ffffffffffffffffffffffffffffffffffffffff1681565b60006106da610b12565b8273ffffffffffffffffffffffffffffffffffffffff168473ffffffffffffffffffffffffffffffffffffffff16141561071357600080fd5b6000808473ffffffffffffffffffffffffffffffffffffffff168673ffffffffffffffffffffffffffffffffffffffff1610610750578486610753565b85855b91509150600073ffffffffffffffffffffffffffffffffffffffff168273ffffffffffffffffffffffffffffffffffffffff16141561079157600080fd5b6000600460008662ffffff1662ffffff16815260200190815260200160002060009054906101000a900460020b905060008160020b14156107d157600080fd5b600073ffffffffffffffffffffffffffffffffffffffff16600560008573ffffffffffffffffffffffffffffffffffffffff1673ffffffffffffffffffffffffffffffffffffffff16815260200190815260200160002060008473ffffffffffffffffffffffffffffffffffffffff1673ffffffffffffffffffffffffffffffffffffffff16815260200190815260200160002060008762ffffff1662ffffff16815260200190815260200160002060009054906101000a900473ffffffffffffffffffffffffffffffffffffffff1673ffffffffffffffffffffffffffffffffffffffff16146108c157600080fd5b6108ce3084848885610b6c565b935083600560008573ffffffffffffffffffffffffffffffffffffffff1673ffffffffffffffffffffffffffffffffffffffff16815260200190815260200160002060008473ffffffffffffffffffffffffffffffffffffffff1673ffffffffffffffffffffffffffffffffffffffff16815260200190815260200160002060008762ffffff1662ffffff16815260200190815260200160002060006101000a81548173ffffffffffffffffffffffffffffffffffffffff021916908373ffffffffffffffffffffffffffffffffffffffff16021790555083600560008473ffffffffffffffffffffffffffffffffffffffff1673ffffffffffffffffffffffffffffffffffffffff16815260200190815260200160002060008573ffffffffffffffffffffffffffffffffffffffff1673ffffffffffffffffffffffffffffffffffffffff16815260200190815260200160002060008762ffffff1662ffffff16815260200190815260200160002060006101000a81548173ffffffffffffffffffffffffffffffffffffffff021916908373ffffffffffffffffffffffffffffffffffffffff1602179055508462ffffff168273ffffffffffffffffffffffffffffffffffffffff168473ffffffffffffffffffffffffffffffffffffffff167f783cca1c0412dd0d695e784568c96da2e9c22ff989357a2e8b1d9b2b4e6b71188488604051808360020b81526020018273ffffffffffffffffffffffffffffffffffffffff1681526020019250505060405180910390a45050509392505050565b7f000000000000000000000000000000000000000000000000000000000000000073ffffffffffffffffffffffffffffffffffffffff163073ffffffffffffffffffffffffffffffffffffffff1614610b6a57600080fd5b565b60006040518060a001604052808773ffffffffffffffffffffffffffffffffffffffff1681526020018673ffffffffffffffffffffffffffffffffffffffff1681526020018573ffffffffffffffffffffffffffffffffffffffff1681526020018462ffffff1681526020018360020b8152506000808201518160000160006101000a81548173ffffffffffffffffffffffffffffffffffffffff021916908373ffffffffffffffffffffffffffffffffffffffff16021790555060208201518160010160006101000a81548173ffffffffffffffffffffffffffffffffffffffff021916908373ffffffffffffffffffffffffffffffffffffffff16021790555060408201518160020160006101000a81548173ffffffffffffffffffffffffffffffffffffffff021916908373ffffffffffffffffffffffffffffffffffffffff16021790555060608201518160020160146101000a81548162ffffff021916908362ffffff16021790555060808201518160020160176101000a81548162ffffff021916908360020b62ffffff160217905550905050848484604051602001808473ffffffffffffffffffffffffffffffffffffffff1681526020018373ffffffffffffffffffffffffffffffffffffffff1681526020018262ffffff168152602001935050505060405160208183030381529060405280519060200120604051610d7990610e4b565b8190604051809103906000f5905080158015610d99573d6000803e3d6000fd5b5090506000806000820160006101000a81549073ffffffffffffffffffffffffffffffffffffffff02191690556001820160006101000a81549073ffffffffffffffffffffffffffffffffffffffff02191690556002820160006101000a81549073ffffffffffffffffffffffffffffffffffffffff02191690556002820160146101000a81549062ffffff02191690556002820160176101000a81549062ffffff0219169055505095945050505050565b6191158062000e5a8339019056fe6101606040523480156200001257600080fd5b503073ffffffffffffffffffffffffffffffffffffffff1660808173ffffffffffffffffffffffffffffffffffffffff1660601b8152505060003373ffffffffffffffffffffffffffffffffffffffff1663890357306040518163ffffffff1660e01b815260040160a06040518083038186803b1580156200009357600080fd5b505afa158015620000a8573d6000803e3d6000fd5b505050506040513d60a0811015620000bf57600080fd5b8101908080519060200190929190805190602001909291908051906020019092919080519060200190929190805190602001909291905050508095508162ffffff166101009062ffffff1660e81b8152508273ffffffffffffffffffffffffffffffffffffffff1660e09073ffffffffffffffffffffffffffffffffffffffff1660601b8152508373ffffffffffffffffffffffffffffffffffffffff1660c09073ffffffffffffffffffffffffffffffffffffffff1660601b8152508473ffffffffffffffffffffffffffffffffffffffff1660a09073ffffffffffffffffffffffffffffffffffffffff1660601b81525050505050508060020b6101208160020b60e81b81525050620001df816200021560201b620044bc1760201c565b6fffffffffffffffffffffffffffffffff16610140816fffffffffffffffffffffffffffffffff1660801b8152505050620002cd565b600080828360020b7ffffffffffffffffffffffffffffffffffffffffffffffffffffffffffff2761860020b816200024957fe5b050290506000838460020b7ffffffffffffffffffffffffffffffffffffffffffffffffffffffffffff2761860000360020b816200028357fe5b05029050600060018560020b84840360020b816200029d57fe5b050190508062ffffff166fffffffffffffffffffffffffffffffff801681620002c257fe5b049350505050919050565b60805160601c60a05160601c60c05160601c60e05160601c6101005160e81c6101205160e81c6101405160801c618d80620003956000398061320252806174d4528061751d52508061127c52806140d7528061756352806175a05250806127f05280612827528061411f525080611bc252806128b15280613048528061391252806140fb5280615e5d525080610cd65280611d42528061287c5280612f9352806138055280615c995250806132c7528061356d52806140b35250806145725250618d806000f3fe608060405234801561001057600080fd5b50600436106101a95760003560e01c806356ccede7116100f9578063c45a015511610097578063ddca3f4311610071578063ddca3f4314610ba3578063f305839914610bc6578063f30dba9314610be4578063f637731d14610c90576101a9565b8063c45a015514610b1a578063d0c93a7c14610b4e578063d21220a714610b6f576101a9565b806385b66729116100d357806385b6672914610855578063883bdbfd14610910578063a34123a714610a26578063a38807f214610a9b576101a9565b806356ccede7146107c457806370cf754a146107e75780638206a4d114610817576101a9565b80633850c7bd11610166578063490e6cbc11610140578063490e6cbc146105695780634f1eb3d814610616578063514ea4bf146106eb5780635339c2961461077f576101a9565b80633850c7bd146103ef5780633c8a7d8d14610461578063461413191461054b576101a9565b80630dfe1681146101ae578063128acb08146101e25780631a686502146102cc5780631ad8b03b146102fc578063252c09d71461034557806332148f67146103bd575b600080fd5b6101b6610cd4565b604051808273ffffffffffffffffffffffffffffffffffffffff16815260200191505060405180910390f35b6102af600480360360a08110156101f857600080fd5b81019080803573ffffffffffffffffffffffffffffffffffffffff16906020019092919080351515906020019092919080359060200190929190803573ffffffffffffffffffffffffffffffffffffffff1690602001909291908035906020019064010000000081111561026b57600080fd5b82018360208201111561027d57600080fd5b8035906020019184600183028401116401000000008311171561029f57600080fd5b9091929391929390505050610cf8565b604051808381526020018281526020019250505060405180910390f35b6102d4611f98565b60405180826fffffffffffffffffffffffffffffffff16815260200191505060405180910390f35b610304611fba565b60405180836fffffffffffffffffffffffffffffffff168152602001826fffffffffffffffffffffffffffffffff1681526020019250505060405180910390f35b6103716004803603602081101561035b57600080fd5b8101908080359060200190929190505050612004565b604051808563ffffffff1681526020018460060b81526020018373ffffffffffffffffffffffffffffffffffffffff168152602001821515815260200194505050505060405180910390f35b6103ed600480360360208110156103d357600080fd5b81019080803561ffff169060200190929190505050612082565b005b6103f76121f4565b604051808873ffffffffffffffffffffffffffffffffffffffff1681526020018760020b81526020018661ffff1681526020018561ffff1681526020018461ffff1681526020018360ff168152602001821515815260200197505050505050505060405180910390f35b61052e600480360360a081101561047757600080fd5b81019080803573ffffffffffffffffffffffffffffffffffffffff169060200190929190803560020b9060200190929190803560020b906020019092919080356fffffffffffffffffffffffffffffffff169060200190929190803590602001906401000000008111156104ea57600080fd5b8201836020820111156104fc57600080fd5b8035906020019184600183028401116401000000008311171561051e57600080fd5b9091929391929390505050612295565b604051808381526020018281526020019250505060405180910390f35b61055361268e565b6040518082815260200191505060405180910390f35b6106146004803603608081101561057f57600080fd5b81019080803573ffffffffffffffffffffffffffffffffffffffff1690602001909291908035906020019092919080359060200190929190803590602001906401000000008111156105d057600080fd5b8201836020820111156105e257600080fd5b8035906020019184600183028401116401000000008311171561060457600080fd5b9091929391929390505050612694565b005b6106aa600480360360a081101561062c57600080fd5b81019080803573ffffffffffffffffffffffffffffffffffffffff169060200190929190803560020b9060200190929190803560020b906020019092919080356fffffffffffffffffffffffffffffffff16906020019092919080356fffffffffffffffffffffffffffffffff169060200190929190505050612d6d565b60405180836fffffffffffffffffffffffffffffffff168152602001826fffffffffffffffffffffffffffffffff1681526020019250505060405180910390f35b6107176004803603602081101561070157600080fd5b8101908080359060200190929190505050613149565b60405180866fffffffffffffffffffffffffffffffff168152602001858152602001848152602001836fffffffffffffffffffffffffffffffff168152602001826fffffffffffffffffffffffffffffffff1681526020019550505050505060405180910390f35b6107ae6004803603602081101561079557600080fd5b81019080803560010b90602001909291905050506131d3565b6040518082815260200191505060405180910390f35b6107cc6131eb565b604051808262ffffff16815260200191505060405180910390f35b6107ef613200565b60405180826fffffffffffffffffffffffffffffffff16815260200191505060405180910390f35b6108536004803603604081101561082d57600080fd5b81019080803560ff169060200190929190803560ff169060200190929190505050613224565b005b6108cf6004803603606081101561086b57600080fd5b81019080803573ffffffffffffffffffffffffffffffffffffffff16906020019092919080356fffffffffffffffffffffffffffffffff16906020019092919080356fffffffffffffffffffffffffffffffff1690602001909291905050506134c7565b60405180836fffffffffffffffffffffffffffffffff168152602001826fffffffffffffffffffffffffffffffff1681526020019250505060405180910390f35b6109876004803603602081101561092657600080fd5b810190808035906020019064010000000081111561094357600080fd5b82018360208201111561095557600080fd5b8035906020019184602083028401116401000000008311171561097757600080fd5b9091929391929390505050613a01565b604051808060200180602001838103835285818151815260200191508051906020019060200280838360005b838110156109ce5780820151818401526020810190506109b3565b50505050905001838103825284818151815260200191508051906020019060200280838360005b83811015610a105780820151818401526020810190506109f5565b5050505090500194505050505060405180910390f35b610a7e60048036036060811015610a3c57600080fd5b81019080803560020b9060200190929190803560020b906020019092919080356fffffffffffffffffffffffffffffffff169060200190929190505050613ad0565b604051808381526020018281526020019250505060405180910390f35b610ad760048036036040811015610ab157600080fd5b81019080803560020b9060200190929190803560020b9060200190929190505050613d67565b604051808460060b81526020018373ffffffffffffffffffffffffffffffffffffffff1681526020018263ffffffff168152602001935050505060405180910390f35b610b226140b1565b604051808273ffffffffffffffffffffffffffffffffffffffff16815260200191505060405180910390f35b610b566140d5565b604051808260020b815260200191505060405180910390f35b610b776140f9565b604051808273ffffffffffffffffffffffffffffffffffffffff16815260200191505060405180910390f35b610bab61411d565b604051808262ffffff16815260200191505060405180910390f35b610bce614141565b6040518082815260200191505060405180910390f35b610c1360048036036020811015610bfa57600080fd5b81019080803560020b9060200190929190505050614147565b60405180896fffffffffffffffffffffffffffffffff16815260200188600f0b81526020018781526020018681526020018560060b81526020018473ffffffffffffffffffffffffffffffffffffffff1681526020018363ffffffff16815260200182151581526020019850505050505050505060405180910390f35b610cd260048036036020811015610ca657600080fd5b81019080803573ffffffffffffffffffffffffffffffffffffffff169060200190929190505050614202565b005b7f000000000000000000000000000000000000000000000000000000000000000081565b600080610d03614570565b6000861415610d7a576040517f08c379a00000000000000000000000000000000000000000000000000000000081526004018080602001828103825260028152602001807f415300000000000000000000000000000000000000000000000000000000000081525060200191505060405180910390fd5b6000806040518060e00160405290816000820160009054906101000a900473ffffffffffffffffffffffffffffffffffffffff1673ffffffffffffffffffffffffffffffffffffffff1673ffffffffffffffffffffffffffffffffffffffff1681526020016000820160149054906101000a900460020b60020b60020b81526020016000820160179054906101000a900461ffff1661ffff1661ffff1681526020016000820160199054906101000a900461ffff1661ffff1661ffff16815260200160008201601b9054906101000a900461ffff1661ffff1661ffff16815260200160008201601d9054906101000a900460ff1660ff1660ff16815260200160008201601e9054906101000a900460ff16151515158152505090508060c00151610f0c576040517f08c379a00000000000000000000000000000000000000000000000000000000081526004018080602001828103825260038152602001807f4c4f4b000000000000000000000000000000000000000000000000000000000081525060200191505060405180910390fd5b87610f9457806000015173ffffffffffffffffffffffffffffffffffffffff168673ffffffffffffffffffffffffffffffffffffffff16118015610f8f575073fffd8963efd1fc6a506488495d951d5263988d2673ffffffffffffffffffffffffffffffffffffffff168673ffffffffffffffffffffffffffffffffffffffff16105b611004565b806000015173ffffffffffffffffffffffffffffffffffffffff168673ffffffffffffffffffffffffffffffffffffffff1610801561100357506401000276a373ffffffffffffffffffffffffffffffffffffffff168673ffffffffffffffffffffffffffffffffffffffff16115b5b611076576040517f08c379a00000000000000000000000000000000000000000000000000000000081526004018080602001828103825260038152602001807f53504c000000000000000000000000000000000000000000000000000000000081525060200191505060405180910390fd5b600080600001601e6101000a81548160ff02191690831515021790555060006040518060c001604052808a6110b65760048460a0015160ff16901c6110c9565b60108460a0015160ff16816110c757fe5b065b60ff168152602001600560009054906101000a90046fffffffffffffffffffffffffffffffff166fffffffffffffffffffffffffffffffff16815260200161110f6145ca565b63ffffffff168152602001600060060b8152602001600073ffffffffffffffffffffffffffffffffffffffff1681526020016000151581525090506000808913905060006040518060e001604052808b815260200160008152602001856000015173ffffffffffffffffffffffffffffffffffffffff168152602001856020015160020b81526020018c6111a5576002546111a9565b6001545b815260200160006fffffffffffffffffffffffffffffffff16815260200184602001516fffffffffffffffffffffffffffffffff1681525090505b600081600001511415801561122957508873ffffffffffffffffffffffffffffffffffffffff16816040015173ffffffffffffffffffffffffffffffffffffffff1614155b1561188a57611236618c93565b8160400151816000019073ffffffffffffffffffffffffffffffffffffffff16908173ffffffffffffffffffffffffffffffffffffffff16815250506112ae82606001517f00000000000000000000000000000000000000000000000000000000000000008e60076145d2909392919063ffffffff16565b826020018360400182151515158152508260020b60020b81525050507ffffffffffffffffffffffffffffffffffffffffffffffffffffffffffff2761860020b816020015160020b1215611333577ffffffffffffffffffffffffffffffffffffffffffffffffffffffffffff27618816020019060020b908160020b8152505061139f565b7ffffffffffffffffffffffffffffffffffffffffffffffffffffffffffff2761860000360020b816020015160020b131561139e577ffffffffffffffffffffffffffffffffffffffffffffffffffffffffffff27618600003816020019060020b908160020b815250505b5b6113ac816020015161472a565b816060019073ffffffffffffffffffffffffffffffffffffffff16908173ffffffffffffffffffffffffffffffffffffffff16815250506113eb614b65565b600360006101000a81548162ffffff021916908362ffffff1602179055506114b382604001518d61144e578b73ffffffffffffffffffffffffffffffffffffffff16836060015173ffffffffffffffffffffffffffffffffffffffff1611611482565b8b73ffffffffffffffffffffffffffffffffffffffff16836060015173ffffffffffffffffffffffffffffffffffffffff16105b611490578260600151611492565b8b5b8460c001518560000151600360009054906101000a900462ffffff16614be9565b85604001856080018660a0018760c0018481525084815250848152508473ffffffffffffffffffffffffffffffffffffffff1673ffffffffffffffffffffffffffffffffffffffff1681525050505050821561155c5761151c8160c00151826080015101614e45565b82600001818151039150818152505061154e61153b8260a00151614e45565b8360200151614e7b90919063ffffffff16565b8260200181815250506115ab565b6115698160a00151614e45565b8260000181815101915081815250506115a161158e8260c00151836080015101614e45565b8360200151614e9e90919063ffffffff16565b8260200181815250505b6000846000015160ff16111561161c576000846000015160ff168260c00151816115d157fe5b049050808260c0018181510391508181525050808360a001818151019150906fffffffffffffffffffffffffffffffff1690816fffffffffffffffffffffffffffffffff1681525050505b60008260c001516fffffffffffffffffffffffffffffffff161115611681576116718160c001517001000000000000000000000000000000008460c001516fffffffffffffffffffffffffffffffff16614ec1565b8260800181815101915081815250505b806060015173ffffffffffffffffffffffffffffffffffffffff16826040015173ffffffffffffffffffffffffffffffffffffffff161415611829578060400151156117fb578360a0015161175957611703846040015160008760200151886040015188602001518a606001516009614f9b909695949392919063ffffffff16565b85606001866080018273ffffffffffffffffffffffffffffffffffffffff1673ffffffffffffffffffffffffffffffffffffffff168152508260060b60060b815250505060018460a00190151590811515815250505b60006117ad82602001518e61177057600154611776565b84608001515b8f611785578560800151611789565b6002545b886080015189606001518a6040015160066151ce909695949392919063ffffffff16565b90508c156117bc578060000390505b6117ca8360c001518261530a565b8360c001906fffffffffffffffffffffffffffffffff1690816fffffffffffffffffffffffffffffffff1681525050505b8b61180a578060200151611813565b60018160200151035b826060019060020b908160020b81525050611884565b806000015173ffffffffffffffffffffffffffffffffffffffff16826040015173ffffffffffffffffffffffffffffffffffffffff1614611883576118718260400151615463565b826060019060020b908160020b815250505b5b506111e4565b836020015160020b816060015160020b146119a0576000806118d886604001518660400151886020015188602001518a606001518b60800151600961585f909695949392919063ffffffff16565b915091508260400151836060015183836000800160008060000160146000800160176000800160198891906101000a81548161ffff021916908361ffff1602179055508791906101000a81548161ffff021916908361ffff1602179055508691906101000a81548162ffffff021916908360020b62ffffff1602179055508591906101000a81548173ffffffffffffffffffffffffffffffffffffffff021916908373ffffffffffffffffffffffffffffffffffffffff1602179055505050505050506119e8565b80604001516000800160006101000a81548173ffffffffffffffffffffffffffffffffffffffff021916908373ffffffffffffffffffffffffffffffffffffffff1602179055505b8060c001516fffffffffffffffffffffffffffffffff1683602001516fffffffffffffffffffffffffffffffff1614611a59578060c00151600560006101000a8154816fffffffffffffffffffffffffffffffff02191690836fffffffffffffffffffffffffffffffff1602179055505b8a15611af057806080015160018190555060008160a001516fffffffffffffffffffffffffffffffff161115611aeb578060a00151600460000160008282829054906101000a90046fffffffffffffffffffffffffffffffff160192506101000a8154816fffffffffffffffffffffffffffffffff02191690836fffffffffffffffffffffffffffffffff1602179055505b611b7d565b806080015160028190555060008160a001516fffffffffffffffffffffffffffffffff161115611b7c578060a00151600460000160108282829054906101000a90046fffffffffffffffffffffffffffffffff160192506101000a8154816fffffffffffffffffffffffffffffffff02191690836fffffffffffffffffffffffffffffffff1602179055505b5b8115158b151514611b9957806020015181600001518b03611ba6565b80600001518a0381602001515b80965081975050508a15611d34576000851215611bec57611beb7f00000000000000000000000000000000000000000000000000000000000000008d87600003615a91565b5b6000611bf6615c92565b90503373ffffffffffffffffffffffffffffffffffffffff1663fa461e3388888c8c6040518563ffffffff1660e01b815260040180858152602001848152602001806020018281038252848482818152602001925080828437600081840152601f19601f82011690508083019250505095505050505050600060405180830381600087803b158015611c8757600080fd5b505af1158015611c9b573d6000803e3d6000fd5b50505050611ca7615c92565b611cba8883615e3c90919063ffffffff16565b1115611d2e576040517f08c379a00000000000000000000000000000000000000000000000000000000081526004018080602001828103825260038152602001807f494941000000000000000000000000000000000000000000000000000000000081525060200191505060405180910390fd5b50611eb0565b6000861215611d6c57611d6b7f00000000000000000000000000000000000000000000000000000000000000008d88600003615a91565b5b6000611d76615e56565b90503373ffffffffffffffffffffffffffffffffffffffff1663fa461e3388888c8c6040518563ffffffff1660e01b815260040180858152602001848152602001806020018281038252848482818152602001925080828437600081840152601f19601f82011690508083019250505095505050505050600060405180830381600087803b158015611e0757600080fd5b505af1158015611e1b573d6000803e3d6000fd5b50505050611e27615e56565b611e3a8783615e3c90919063ffffffff16565b1115611eae576040517f08c379a00000000000000000000000000000000000000000000000000000000081526004018080602001828103825260038152602001807f494941000000000000000000000000000000000000000000000000000000000081525060200191505060405180910390fd5b505b8b73ffffffffffffffffffffffffffffffffffffffff163373ffffffffffffffffffffffffffffffffffffffff167fc42079f94a6350d7e6235f29174924f928cc2ac818eb64fed8004e115fbcca67888885604001518660c001518760600151604051808681526020018581526020018473ffffffffffffffffffffffffffffffffffffffff168152602001836fffffffffffffffffffffffffffffffff1681526020018260020b81526020019550505050505060405180910390a3600160008001601e6101000a81548160ff02191690831515021790555050505050965096945050505050565b600560009054906101000a90046fffffffffffffffffffffffffffffffff1681565b60048060000160009054906101000a90046fffffffffffffffffffffffffffffffff16908060000160109054906101000a90046fffffffffffffffffffffffffffffffff16905082565b60098161ffff811061201557600080fd5b016000915090508060000160009054906101000a900463ffffffff16908060000160049054906101000a900460060b9080600001600b9054906101000a900473ffffffffffffffffffffffffffffffffffffffff169080600001601f9054906101000a900460ff16905084565b60008001601e9054906101000a900460ff16612106576040517f08c379a00000000000000000000000000000000000000000000000000000000081526004018080602001828103825260038152602001807f4c4f4b000000000000000000000000000000000000000000000000000000000081525060200191505060405180910390fd5b600080600001601e6101000a81548160ff02191690831515021790555061212b614570565b600080600001601b9054906101000a900461ffff169050600061215a828460096160009092919063ffffffff16565b90508060008001601b6101000a81548161ffff021916908361ffff1602179055508061ffff168261ffff16146121d2577fac49e518f90a358f652e4400164f05a5d8f7e35e7747279bc3a93dbf584e125a8282604051808361ffff1681526020018261ffff1681526020019250505060405180910390a15b5050600160008001601e6101000a81548160ff02191690831515021790555050565b60008060000160009054906101000a900473ffffffffffffffffffffffffffffffffffffffff16908060000160149054906101000a900460020b908060000160179054906101000a900461ffff16908060000160199054906101000a900461ffff169080600001601b9054906101000a900461ffff169080600001601d9054906101000a900460ff169080600001601e9054906101000a900460ff16905087565b60008060008001601e9054906101000a900460ff1661231c576040517f08c379a00000000000000000000000000000000000000000000000000000000081526004018080602001828103825260038152602001807f4c4f4b000000000000000000000000000000000000000000000000000000000081525060200191505060405180910390fd5b600080600001601e6101000a81548160ff0219169083151502179055506000856fffffffffffffffffffffffffffffffff161161235857600080fd5b6000806123bd60405180608001604052808c73ffffffffffffffffffffffffffffffffffffffff1681526020018b60020b81526020018a60020b81526020016123b28a6fffffffffffffffffffffffffffffffff166160f6565b600f0b81525061610f565b925092505081935080925060008060008611156123df576123dc615c92565b91505b60008511156123f3576123f0615e56565b90505b3373ffffffffffffffffffffffffffffffffffffffff1663d348799787878b8b6040518563ffffffff1660e01b815260040180858152602001848152602001806020018281038252848482818152602001925080828437600081840152601f19601f82011690508083019250505095505050505050600060405180830381600087803b15801561248257600080fd5b505af1158015612496573d6000803e3d6000fd5b505050506000861115612533576124ab615c92565b6124be8784615e3c90919063ffffffff16565b1115612532576040517f08c379a00000000000000000000000000000000000000000000000000000000081526004018080602001828103825260028152602001807f4d3000000000000000000000000000000000000000000000000000000000000081525060200191505060405180910390fd5b5b60008511156125cc57612544615e56565b6125578683615e3c90919063ffffffff16565b11156125cb576040517f08c379a00000000000000000000000000000000000000000000000000000000081526004018080602001828103825260028152602001807f4d3100000000000000000000000000000000000000000000000000000000000081525060200191505060405180910390fd5b5b8960020b8b60020b8d73ffffffffffffffffffffffffffffffffffffffff167f7a53080ba414158be7ec69b987b5fb7d07dee101fe85488f0853ae16239d0bde338d8b8b604051808573ffffffffffffffffffffffffffffffffffffffff168152602001846fffffffffffffffffffffffffffffffff16815260200183815260200182815260200194505050505060405180910390a450505050600160008001601e6101000a81548160ff021916908315150217905550965096945050505050565b60025481565b60008001601e9054906101000a900460ff16612718576040517f08c379a00000000000000000000000000000000000000000000000000000000081526004018080602001828103825260038152602001807f4c4f4b000000000000000000000000000000000000000000000000000000000081525060200191505060405180910390fd5b600080600001601e6101000a81548160ff02191690831515021790555061273d614570565b6000600560009054906101000a90046fffffffffffffffffffffffffffffffff1690506000816fffffffffffffffffffffffffffffffff16116127e8576040517f08c379a00000000000000000000000000000000000000000000000000000000081526004018080602001828103825260018152602001807f4c0000000000000000000000000000000000000000000000000000000000000081525060200191505060405180910390fd5b600061281d867f000000000000000000000000000000000000000000000000000000000000000062ffffff16620f4240616433565b90506000612854867f000000000000000000000000000000000000000000000000000000000000000062ffffff16620f4240616433565b90506000612860615c92565b9050600061286c615e56565b905060008911156128a3576128a27f00000000000000000000000000000000000000000000000000000000000000008b8b615a91565b5b60008811156128d8576128d77f00000000000000000000000000000000000000000000000000000000000000008b8a615a91565b5b3373ffffffffffffffffffffffffffffffffffffffff1663e9cbafb085858a8a6040518563ffffffff1660e01b815260040180858152602001848152602001806020018281038252848482818152602001925080828437600081840152601f19601f82011690508083019250505095505050505050600060405180830381600087803b15801561296757600080fd5b505af115801561297b573d6000803e3d6000fd5b505050506000612989615c92565b90506000612995615e56565b9050816129ab8786615e3c90919063ffffffff16565b1115612a1f576040517f08c379a00000000000000000000000000000000000000000000000000000000081526004018080602001828103825260028152602001807f463000000000000000000000000000000000000000000000000000000000000081525060200191505060405180910390fd5b80612a338685615e3c90919063ffffffff16565b1115612aa7576040517f08c379a00000000000000000000000000000000000000000000000000000000081526004018080602001828103825260028152602001807f463100000000000000000000000000000000000000000000000000000000000081525060200191505060405180910390fd5b60008483039050600084830390506000821115612bbf576000601060008001601d9054906101000a900460ff1660ff1681612ade57fe5b0690506000808260ff1614612aff578160ff168481612af957fe5b04612b02565b60005b90506000816fffffffffffffffffffffffffffffffff161115612b7d5780600460000160008282829054906101000a90046fffffffffffffffffffffffffffffffff160192506101000a8154816fffffffffffffffffffffffffffffffff02191690836fffffffffffffffffffffffffffffffff1602179055505b612bad8185037001000000000000000000000000000000008d6fffffffffffffffffffffffffffffffff16614ec1565b60016000828254019250508190555050505b6000811115612cc3576000600460008001601d9054906101000a900460ff1660ff16901c90506000808260ff1614612c03578160ff168381612bfd57fe5b04612c06565b60005b90506000816fffffffffffffffffffffffffffffffff161115612c815780600460000160108282829054906101000a90046fffffffffffffffffffffffffffffffff160192506101000a8154816fffffffffffffffffffffffffffffffff02191690836fffffffffffffffffffffffffffffffff1602179055505b612cb18184037001000000000000000000000000000000008d6fffffffffffffffffffffffffffffffff16614ec1565b60026000828254019250508190555050505b8d73ffffffffffffffffffffffffffffffffffffffff163373ffffffffffffffffffffffffffffffffffffffff167fbdbdb71d7860376ba52b25a5028beea23581364a40522f6bcfb86bb1f2dca6338f8f86866040518085815260200184815260200183815260200182815260200194505050505060405180910390a3505050505050505050600160008001601e6101000a81548160ff0219169083151502179055505050505050565b60008060008001601e9054906101000a900460ff16612df4576040517f08c379a00000000000000000000000000000000000000000000000000000000081526004018080602001828103825260038152602001807f4c4f4b000000000000000000000000000000000000000000000000000000000081525060200191505060405180910390fd5b600080600001601e6101000a81548160ff0219169083151502179055506000612e2b3388886008616491909392919063ffffffff16565b90508060030160009054906101000a90046fffffffffffffffffffffffffffffffff166fffffffffffffffffffffffffffffffff16856fffffffffffffffffffffffffffffffff1611612e7e5784612ea0565b8060030160009054906101000a90046fffffffffffffffffffffffffffffffff165b92508060030160109054906101000a90046fffffffffffffffffffffffffffffffff166fffffffffffffffffffffffffffffffff16846fffffffffffffffffffffffffffffffff1611612ef35783612f15565b8060030160109054906101000a90046fffffffffffffffffffffffffffffffff165b91506000836fffffffffffffffffffffffffffffffff161115612fcc57828160030160008282829054906101000a90046fffffffffffffffffffffffffffffffff160392506101000a8154816fffffffffffffffffffffffffffffffff02191690836fffffffffffffffffffffffffffffffff160217905550612fcb7f000000000000000000000000000000000000000000000000000000000000000089856fffffffffffffffffffffffffffffffff16615a91565b5b6000826fffffffffffffffffffffffffffffffff16111561308157818160030160108282829054906101000a90046fffffffffffffffffffffffffffffffff160392506101000a8154816fffffffffffffffffffffffffffffffff02191690836fffffffffffffffffffffffffffffffff1602179055506130807f000000000000000000000000000000000000000000000000000000000000000089846fffffffffffffffffffffffffffffffff16615a91565b5b8560020b8760020b3373ffffffffffffffffffffffffffffffffffffffff167f70935338e69775456a85ddef226c395fb668b63fa0115f5f20610b388e6ca9c08b8787604051808473ffffffffffffffffffffffffffffffffffffffff168152602001836fffffffffffffffffffffffffffffffff168152602001826fffffffffffffffffffffffffffffffff168152602001935050505060405180910390a450600160008001601e6101000a81548160ff0219169083151502179055509550959350505050565b60086020528060005260406000206000915090508060000160009054906101000a90046fffffffffffffffffffffffffffffffff16908060010154908060020154908060030160009054906101000a90046fffffffffffffffffffffffffffffffff16908060030160109054906101000a90046fffffffffffffffffffffffffffffffff16905085565b60076020528060005260406000206000915090505481565b600360009054906101000a900462ffffff1681565b7f000000000000000000000000000000000000000000000000000000000000000081565b60008001601e9054906101000a900460ff166132a8576040517f08c379a00000000000000000000000000000000000000000000000000000000081526004018080602001828103825260038152602001807f4c4f4b000000000000000000000000000000000000000000000000000000000081525060200191505060405180910390fd5b600080600001601e6101000a81548160ff0219169083151502179055507f000000000000000000000000000000000000000000000000000000000000000073ffffffffffffffffffffffffffffffffffffffff16638da5cb5b6040518163ffffffff1660e01b815260040160206040518083038186803b15801561332b57600080fd5b505afa15801561333f573d6000803e3d6000fd5b505050506040513d602081101561335557600080fd5b810190808051906020019092919050505073ffffffffffffffffffffffffffffffffffffffff163373ffffffffffffffffffffffffffffffffffffffff161461339d57600080fd5b60008260ff1614806133c3575060048260ff16101580156133c25750600a8260ff1611155b5b80156133f1575060008160ff1614806133f0575060048160ff16101580156133ef5750600a8160ff1611155b5b5b6133fa57600080fd5b600080600001601d9054906101000a900460ff16905060048260ff16901b830160008001601d6101000a81548160ff021916908360ff1602179055507f973d8d92bb299f4af6ce49b52a8adb85ae46b9f214c4c4fc06ac77401237b13360108260ff168161346457fe5b0660048360ff16901c8585604051808560ff1681526020018460ff1681526020018360ff1681526020018260ff16815260200194505050505060405180910390a150600160008001601e6101000a81548160ff0219169083151502179055505050565b60008060008001601e9054906101000a900460ff1661354e576040517f08c379a00000000000000000000000000000000000000000000000000000000081526004018080602001828103825260038152602001807f4c4f4b000000000000000000000000000000000000000000000000000000000081525060200191505060405180910390fd5b600080600001601e6101000a81548160ff0219169083151502179055507f000000000000000000000000000000000000000000000000000000000000000073ffffffffffffffffffffffffffffffffffffffff16638da5cb5b6040518163ffffffff1660e01b815260040160206040518083038186803b1580156135d157600080fd5b505afa1580156135e5573d6000803e3d6000fd5b505050506040513d60208110156135fb57600080fd5b810190808051906020019092919050505073ffffffffffffffffffffffffffffffffffffffff163373ffffffffffffffffffffffffffffffffffffffff161461364357600080fd5b600460000160009054906101000a90046fffffffffffffffffffffffffffffffff166fffffffffffffffffffffffffffffffff16846fffffffffffffffffffffffffffffffff161161369557836136b8565b600460000160009054906101000a90046fffffffffffffffffffffffffffffffff165b9150600460000160109054906101000a90046fffffffffffffffffffffffffffffffff166fffffffffffffffffffffffffffffffff16836fffffffffffffffffffffffffffffffff161161370c578261372f565b600460000160109054906101000a90046fffffffffffffffffffffffffffffffff165b90506000826fffffffffffffffffffffffffffffffff16111561383e57600460000160009054906101000a90046fffffffffffffffffffffffffffffffff166fffffffffffffffffffffffffffffffff16826fffffffffffffffffffffffffffffffff1614156137a3578180600190039250505b81600460000160008282829054906101000a90046fffffffffffffffffffffffffffffffff160392506101000a8154816fffffffffffffffffffffffffffffffff02191690836fffffffffffffffffffffffffffffffff16021790555061383d7f000000000000000000000000000000000000000000000000000000000000000086846fffffffffffffffffffffffffffffffff16615a91565b5b6000816fffffffffffffffffffffffffffffffff16111561394b57600460000160109054906101000a90046fffffffffffffffffffffffffffffffff166fffffffffffffffffffffffffffffffff16816fffffffffffffffffffffffffffffffff1614156138b0578080600190039150505b80600460000160108282829054906101000a90046fffffffffffffffffffffffffffffffff160392506101000a8154816fffffffffffffffffffffffffffffffff02191690836fffffffffffffffffffffffffffffffff16021790555061394a7f000000000000000000000000000000000000000000000000000000000000000086836fffffffffffffffffffffffffffffffff16615a91565b5b8473ffffffffffffffffffffffffffffffffffffffff163373ffffffffffffffffffffffffffffffffffffffff167f596b573906218d3411850b26a6b437d6c4522fdb43d2d2386263f86d50b8b151848460405180836fffffffffffffffffffffffffffffffff168152602001826fffffffffffffffffffffffffffffffff1681526020019250505060405180910390a3600160008001601e6101000a81548160ff021916908315150217905550935093915050565b606080613a0c614570565b613ac5613a176145ca565b858580806020026020016040519081016040528093929190818152602001838360200280828437600081840152601f19601f820116905080830192505050505050506000800160149054906101000a900460020b6000800160179054906101000a900461ffff16600560009054906101000a90046fffffffffffffffffffffffffffffffff166000800160199054906101000a900461ffff16600961650a909695949392919063ffffffff16565b915091509250929050565b60008060008001601e9054906101000a900460ff16613b57576040517f08c379a00000000000000000000000000000000000000000000000000000000081526004018080602001828103825260038152602001807f4c4f4b000000000000000000000000000000000000000000000000000000000081525060200191505060405180910390fd5b600080600001601e6101000a81548160ff0219169083151502179055506000806000613bde60405180608001604052803373ffffffffffffffffffffffffffffffffffffffff1681526020018a60020b81526020018960020b8152602001613bd0896fffffffffffffffffffffffffffffffff166160f6565b600003600f0b81525061610f565b9250925092508160000394508060000393506000851180613bff5750600084115b15613cc757848360030160009054906101000a90046fffffffffffffffffffffffffffffffff1601848460030160109054906101000a90046fffffffffffffffffffffffffffffffff16018460030160008660030160108491906101000a8154816fffffffffffffffffffffffffffffffff02191690836fffffffffffffffffffffffffffffffff1602179055508391906101000a8154816fffffffffffffffffffffffffffffffff02191690836fffffffffffffffffffffffffffffffff16021790555050505b8660020b8860020b3373ffffffffffffffffffffffffffffffffffffffff167f0c396cd989a39f4459b5fa1aed6a9a8dcdbc45908acfd67e028cd568da98982c89898960405180846fffffffffffffffffffffffffffffffff168152602001838152602001828152602001935050505060405180910390a4505050600160008001601e6101000a81548160ff021916908315150217905550935093915050565b6000806000613d74614570565b613d7e85856166c5565b6000806000806000806000600660008d60020b60020b815260200190815260200160002090506000600660008d60020b60020b8152602001908152602001600020905060008260030160009054906101000a900460060b8360030160079054906101000a900473ffffffffffffffffffffffffffffffffffffffff1684600301601b9054906101000a900463ffffffff1685600301601f9054906101000a900460ff16809450819850829a50839c505050505080613e3b57600080fd5b60008260030160009054906101000a900460060b8360030160079054906101000a900473ffffffffffffffffffffffffffffffffffffffff1684600301601b9054906101000a900463ffffffff1685600301601f9054906101000a900460ff16809450819850829a50839c505050505080613eb557600080fd5b505050506000806040518060e00160405290816000820160009054906101000a900473ffffffffffffffffffffffffffffffffffffffff1673ffffffffffffffffffffffffffffffffffffffff1673ffffffffffffffffffffffffffffffffffffffff1681526020016000820160149054906101000a900460020b60020b60020b81526020016000820160179054906101000a900461ffff1661ffff1661ffff1681526020016000820160199054906101000a900461ffff1661ffff1661ffff16815260200160008201601b9054906101000a900461ffff1661ffff1661ffff16815260200160008201601d9054906101000a900460ff1660ff1660ff16815260200160008201601e9054906101000a900460ff16151515158152505090508b60020b816020015160020b121561400157858703848603838503995099509950505050505050506140aa565b8a60020b816020015160020b121561409357600061401d6145ca565b905060008061406b83600086602001518760400151600560009054906101000a90046fffffffffffffffffffffffffffffffff1689606001516009614f9b909695949392919063ffffffff16565b91509150888a830303878983030386888603039c509c509c50505050505050505050506140aa565b868603858503848403995099509950505050505050505b9250925092565b7f000000000000000000000000000000000000000000000000000000000000000081565b7f000000000000000000000000000000000000000000000000000000000000000081565b7f000000000000000000000000000000000000000000000000000000000000000081565b7f000000000000000000000000000000000000000000000000000000000000000081565b60015481565b60066020528060005260406000206000915090508060000160009054906101000a90046fffffffffffffffffffffffffffffffff16908060000160109054906101000a9004600f0b908060010154908060020154908060030160009054906101000a900460060b908060030160079054906101000a900473ffffffffffffffffffffffffffffffffffffffff169080600301601b9054906101000a900463ffffffff169080600301601f9054906101000a900460ff16905088565b60008060000160009054906101000a900473ffffffffffffffffffffffffffffffffffffffff1673ffffffffffffffffffffffffffffffffffffffff16146142b2576040517f08c379a00000000000000000000000000000000000000000000000000000000081526004018080602001828103825260028152602001807f414900000000000000000000000000000000000000000000000000000000000081525060200191505060405180910390fd5b60006142bd82615463565b90506000806142dd6142cd6145ca565b600961687f90919063ffffffff16565b915091506040518060e001604052808573ffffffffffffffffffffffffffffffffffffffff1681526020018460020b8152602001600061ffff1681526020018361ffff1681526020018261ffff168152602001600060ff168152602001600115158152506000808201518160000160006101000a81548173ffffffffffffffffffffffffffffffffffffffff021916908373ffffffffffffffffffffffffffffffffffffffff16021790555060208201518160000160146101000a81548162ffffff021916908360020b62ffffff16021790555060408201518160000160176101000a81548161ffff021916908361ffff16021790555060608201518160000160196101000a81548161ffff021916908361ffff160217905550608082015181600001601b6101000a81548161ffff021916908361ffff16021790555060a082015181600001601d6101000a81548160ff021916908360ff16021790555060c082015181600001601e6101000a81548160ff0219169083151502179055509050507f98636036cb66a9c19a37435efc1e90142190214e8abeb821bdba3f2990dd4c958484604051808373ffffffffffffffffffffffffffffffffffffffff1681526020018260020b81526020019250505060405180910390a150505050565b600080828360020b7ffffffffffffffffffffffffffffffffffffffffffffffffffffffffffff2761860020b816144ef57fe5b050290506000838460020b7ffffffffffffffffffffffffffffffffffffffffffffffffffffffffffff2761860000360020b8161452857fe5b05029050600060018560020b84840360020b8161454157fe5b050190508062ffffff166fffffffffffffffffffffffffffffffff80168161456557fe5b049350505050919050565b7f000000000000000000000000000000000000000000000000000000000000000073ffffffffffffffffffffffffffffffffffffffff163073ffffffffffffffffffffffffffffffffffffffff16146145c857600080fd5b565b600042905090565b60008060008460020b8660020b816145e657fe5b05905060008660020b12801561460f575060008560020b8760020b8161460857fe5b0760020b14155b1561461e578080600190039150505b83156146a257600080614630836169a5565b9150915060008160ff166001901b60018360ff166001901b030190506000818b60008660010b60010b815260200190815260200160002054169050600081141595508561468457888360ff16860302614697565b8861468e826169c8565b840360ff168603025b965050505050614720565b6000806146b1600184016169a5565b91509150600060018260ff166001901b031990506000818b60008660010b60010b815260200190815260200160002054169050600081141595508561470357888360ff0360ff16600187010102614719565b888361470e83616aa3565b0360ff166001870101025b9650505050505b5094509492505050565b60008060008360020b12614741578260020b614749565b8260020b6000035b90507ffffffffffffffffffffffffffffffffffffffffffffffffffffffffffff2761860000360020b8111156147e7576040517f08c379a00000000000000000000000000000000000000000000000000000000081526004018080602001828103825260018152602001807f540000000000000000000000000000000000000000000000000000000000000081525060200191505060405180910390fd5b60008060018316141561480b5770010000000000000000000000000000000061481d565b6ffffcb933bd6fad37aa2d162d1a5940015b70ffffffffffffffffffffffffffffffffff169050600060028316146148575760806ffff97272373d413259a46990580e213a8202901c90505b6000600483161461487c5760806ffff2e50f5f656932ef12357cf3c7fdcc8202901c90505b600060088316146148a15760806fffe5caca7e10e4e61c3624eaa0941cd08202901c90505b600060108316146148c65760806fffcb9843d60f6159c9db58835c9266448202901c90505b600060208316146148eb5760806fff973b41fa98c081472e6896dfb254c08202901c90505b600060408316146149105760806fff2ea16466c96a3843ec78b326b528618202901c90505b600060808316146149355760806ffe5dee046a99a2a811c461f1969c30538202901c90505b600061010083161461495b5760806ffcbe86c7900a88aedcffc83b479aa3a48202901c90505b60006102008316146149815760806ff987a7253ac413176f2b074cf7815e548202901c90505b60006104008316146149a75760806ff3392b0822b70005940c7a398e4b70f38202901c90505b60006108008316146149cd5760806fe7159475a2c29b7443b29c7fa6e889d98202901c90505b60006110008316146149f35760806fd097f3bdfd2022b8845ad8f792aa58258202901c90505b6000612000831614614a195760806fa9f746462d870fdf8a65dc1f90e061e58202901c90505b6000614000831614614a3f5760806f70d869a156d2a1b890bb3df62baf32f78202901c90505b6000618000831614614a655760806f31be135f97d08fd981231505542fcfa68202901c90505b600062010000831614614a8c5760806f09aa508b5b7a84e1c677de54f3e99bc98202901c90505b600062020000831614614ab25760806e5d6af8dedb81196699c329225ee6048202901c90505b600062040000831614614ad75760806d2216e584f5fa1ea926041bedfe988202901c90505b600062080000831614614afa5760806b048a170391f7dc42444e8fa28202901c90505b60008460020b1315614b3357807fffffffffffffffffffffffffffffffffffffffffffffffffffffffffffffffff81614b2f57fe5b0490505b60006401000000008281614b4357fe5b0614614b50576001614b53565b60005b60ff16602082901c0192505050919050565b600080614b956000800160009054906101000a900473ffffffffffffffffffffffffffffffffffffffff16616bca565b90506000614ba1616c10565b90506000614baf8383616c5d565b90506032811015614bc7576101f49350505050614be6565b6096811115614bdd576127109350505050614be6565b610bb893505050505b90565b60008060008060008873ffffffffffffffffffffffffffffffffffffffff168a73ffffffffffffffffffffffffffffffffffffffff161015905060008088121590508015614c98576000614c4b8989620f42400362ffffff16620f4240614ec1565b905082614c6457614c5f8c8c8c6001616c9f565b614c72565b614c718b8d8c6001616d79565b5b9550858110614c83578a9650614c92565b614c8f8c8b8386616eaf565b96505b50614ce4565b81614caf57614caa8b8b8b6000616d79565b614cbd565b614cbc8a8c8b6000616c9f565b5b9350838860000310614cd157899550614ce3565b614ce08b8a8a60000385616f21565b95505b5b60008673ffffffffffffffffffffffffffffffffffffffff168b73ffffffffffffffffffffffffffffffffffffffff161490508215614d6b57808015614d275750815b614d3d57614d38878d8c6001616d79565b614d3f565b855b9550808015614d4c575081155b614d6257614d5d878d8c6000616c9f565b614d64565b845b9450614db5565b808015614d755750815b614d8b57614d868c888c6001616c9f565b614d8d565b855b9550808015614d9a575081155b614db057614dab8c888c6000616d79565b614db2565b845b94505b81158015614dc557508860000385115b15614dd1578860000394505b818015614e0a57508a73ffffffffffffffffffffffffffffffffffffffff168773ffffffffffffffffffffffffffffffffffffffff1614155b15614e19578589039350614e36565b614e33868962ffffff168a620f42400362ffffff16616433565b93505b50505095509550955095915050565b60007f80000000000000000000000000000000000000000000000000000000000000008210614e7357600080fd5b819050919050565b6000808212151515838385039250821315151514614e9857600080fd5b92915050565b6000808212151515838385019250821215151514614ebb57600080fd5b92915050565b600080600080198587098587029250828110838203039150506000811415614efc5760008411614ef057600080fd5b83820492505050614f94565b808411614f0857600080fd5b600084868809905082811182039150808303925060008586600003169050808604955080840493506001818260000304019050808302841793506000600287600302189050808702600203810290508087026002038102905080870260020381029050808702600203810290508087026002038102905080870260020381029050808502955050505050505b9392505050565b60008060008763ffffffff1614156150bc576000898661ffff1661ffff8110614fc057fe5b016040518060800160405290816000820160009054906101000a900463ffffffff1663ffffffff1663ffffffff1681526020016000820160049054906101000a900460060b60060b60060b815260200160008201600b9054906101000a900473ffffffffffffffffffffffffffffffffffffffff1673ffffffffffffffffffffffffffffffffffffffff1673ffffffffffffffffffffffffffffffffffffffff16815260200160008201601f9054906101000a900460ff16151515158152505090508863ffffffff16816000015163ffffffff16146150a8576150a5818a8988616f93565b90505b8060200151816040015192509250506151c2565b600087890390506000806150d58c8c858c8c8c8c61707e565b91509150816000015163ffffffff168363ffffffff1614156151075781602001518260400151945094505050506151c2565b806000015163ffffffff168363ffffffff1614156151355780602001518160400151945094505050506151c2565b60008260000151826000015103905060008360000151850390508063ffffffff168263ffffffff16856020015185602001510360060b8161517257fe5b05028460200151018263ffffffff168263ffffffff16866040015186604001510373ffffffffffffffffffffffffffffffffffffffff1602816151b157fe5b048560400151019650965050505050505b97509795505050505050565b6000808860008960020b60020b815260200190815260200160002090508060010154870381600101819055508060020154860381600201819055508060030160079054906101000a900473ffffffffffffffffffffffffffffffffffffffff1685038160030160076101000a81548173ffffffffffffffffffffffffffffffffffffffff021916908373ffffffffffffffffffffffffffffffffffffffff1602179055508060030160009054906101000a900460060b84038160030160006101000a81548166ffffffffffffff021916908360060b66ffffffffffffff16021790555080600301601b9054906101000a900463ffffffff16830381600301601b6101000a81548163ffffffff021916908363ffffffff1602179055508060000160109054906101000a9004600f0b915050979650505050505050565b60008082600f0b12156153bd57826fffffffffffffffffffffffffffffffff168260000384039150816fffffffffffffffffffffffffffffffff16106153b8576040517f08c379a00000000000000000000000000000000000000000000000000000000081526004018080602001828103825260028152602001807f4c5300000000000000000000000000000000000000000000000000000000000081525060200191505060405180910390fd5b61545d565b826fffffffffffffffffffffffffffffffff168284019150816fffffffffffffffffffffffffffffffff16101561545c576040517f08c379a00000000000000000000000000000000000000000000000000000000081526004018080602001828103825260028152602001807f4c4100000000000000000000000000000000000000000000000000000000000081525060200191505060405180910390fd5b5b92915050565b60006401000276a373ffffffffffffffffffffffffffffffffffffffff168273ffffffffffffffffffffffffffffffffffffffff16101580156154e5575073fffd8963efd1fc6a506488495d951d5263988d2673ffffffffffffffffffffffffffffffffffffffff168273ffffffffffffffffffffffffffffffffffffffff16105b615557576040517f08c379a00000000000000000000000000000000000000000000000000000000081526004018080602001828103825260018152602001807f520000000000000000000000000000000000000000000000000000000000000081525060200191505060405180910390fd5b600060208373ffffffffffffffffffffffffffffffffffffffff16901b9050600081905060006fffffffffffffffffffffffffffffffff821160071b808217915082811c92505067ffffffffffffffff821160061b808217915082811c92505063ffffffff821160051b808217915082811c92505061ffff821160041b808217915082811c92505060ff821160031b808217915082811c925050600f821160021b808217915082811c9250506003821160011b808217915082811c925050600182118082179150506080811061563557607f810383901c915061563f565b80607f0383901b91505b6000604060808303901b9050828302607f1c92508260801c80603f1b8217915083811c935050828302607f1c92508260801c80603e1b8217915083811c935050828302607f1c92508260801c80603d1b8217915083811c935050828302607f1c92508260801c80603c1b8217915083811c935050828302607f1c92508260801c80603b1b8217915083811c935050828302607f1c92508260801c80603a1b8217915083811c935050828302607f1c92508260801c8060391b8217915083811c935050828302607f1c92508260801c8060381b8217915083811c935050828302607f1c92508260801c8060371b8217915083811c935050828302607f1c92508260801c8060361b8217915083811c935050828302607f1c92508260801c8060351b8217915083811c935050828302607f1c92508260801c8060341b8217915083811c935050828302607f1c92508260801c8060331b8217915083811c935050828302607f1c92508260801c8060321b82179150506000693627a301d71055774c8582029050600060806f028f6481ab7f045a5af012a19d003aaa8303901d9050600060806fdb2df09e81959a81455e260799a0632f8401901d90508060020b8260020b1461584f578873ffffffffffffffffffffffffffffffffffffffff166158268261472a565b73ffffffffffffffffffffffffffffffffffffffff161115615848578161584a565b805b615851565b815b975050505050505050919050565b6000806000898961ffff1661ffff811061587557fe5b016040518060800160405290816000820160009054906101000a900463ffffffff1663ffffffff1663ffffffff1681526020016000820160049054906101000a900460060b60060b60060b815260200160008201600b9054906101000a900473ffffffffffffffffffffffffffffffffffffffff1673ffffffffffffffffffffffffffffffffffffffff1673ffffffffffffffffffffffffffffffffffffffff16815260200160008201601f9054906101000a900460ff16151515158152505090508763ffffffff16816000015163ffffffff16141561595b5788859250925050615a85565b8461ffff168461ffff1611801561597c57506001850361ffff168961ffff16145b156159895783915061598d565b8491505b8161ffff1660018a0161ffff16816159a157fe5b0692506159b081898989616f93565b8a8461ffff1661ffff81106159c157fe5b0160008201518160000160006101000a81548163ffffffff021916908363ffffffff16021790555060208201518160000160046101000a81548166ffffffffffffff021916908360060b66ffffffffffffff160217905550604082015181600001600b6101000a81548173ffffffffffffffffffffffffffffffffffffffff021916908373ffffffffffffffffffffffffffffffffffffffff160217905550606082015181600001601f6101000a81548160ff021916908315150217905550905050505b97509795505050505050565b6000808473ffffffffffffffffffffffffffffffffffffffff1663a9059cbb60e01b8585604051602401808373ffffffffffffffffffffffffffffffffffffffff16815260200182815260200192505050604051602081830303815290604052907bffffffffffffffffffffffffffffffffffffffffffffffffffffffff19166020820180517bffffffffffffffffffffffffffffffffffffffffffffffffffffffff83818316178352505050506040518082805190602001908083835b60208310615b725780518252602082019150602081019050602083039250615b4f565b6001836020036101000a0380198251168184511680821785525050505050509050019150506000604051808303816000865af19150503d8060008114615bd4576040519150601f19603f3d011682016040523d82523d6000602084013e615bd9565b606091505b5091509150818015615c195750600081511480615c185750808060200190516020811015615c0657600080fd5b81019080805190602001909291905050505b5b615c8b576040517f08c379a00000000000000000000000000000000000000000000000000000000081526004018080602001828103825260028152602001807f544600000000000000000000000000000000000000000000000000000000000081525060200191505060405180910390fd5b5050505050565b60008060007f000000000000000000000000000000000000000000000000000000000000000073ffffffffffffffffffffffffffffffffffffffff166370a0823160e01b30604051602401808273ffffffffffffffffffffffffffffffffffffffff168152602001915050604051602081830303815290604052907bffffffffffffffffffffffffffffffffffffffffffffffffffffffff19166020820180517bffffffffffffffffffffffffffffffffffffffffffffffffffffffff83818316178352505050506040518082805190602001908083835b60208310615d8d5780518252602082019150602081019050602083039250615d6a565b6001836020036101000a038019825116818451168082178552505050505050905001915050600060405180830381855afa9150503d8060008114615ded576040519150601f19603f3d011682016040523d82523d6000602084013e615df2565b606091505b5091509150818015615e0657506020815110155b615e0f57600080fd5b808060200190516020811015615e2457600080fd5b81019080805190602001909291905050509250505090565b6000828284019150811015615e5057600080fd5b92915050565b60008060007f000000000000000000000000000000000000000000000000000000000000000073ffffffffffffffffffffffffffffffffffffffff166370a0823160e01b30604051602401808273ffffffffffffffffffffffffffffffffffffffff168152602001915050604051602081830303815290604052907bffffffffffffffffffffffffffffffffffffffffffffffffffffffff19166020820180517bffffffffffffffffffffffffffffffffffffffffffffffffffffffff83818316178352505050506040518082805190602001908083835b60208310615f515780518252602082019150602081019050602083039250615f2e565b6001836020036101000a038019825116818451168082178552505050505050905001915050600060405180830381855afa9150503d8060008114615fb1576040519150601f19603f3d011682016040523d82523d6000602084013e615fb6565b606091505b5091509150818015615fca57506020815110155b615fd357600080fd5b808060200190516020811015615fe857600080fd5b81019080805190602001909291905050509250505090565b6000808361ffff161161607b576040517f08c379a00000000000000000000000000000000000000000000000000000000081526004018080602001828103825260018152602001807f490000000000000000000000000000000000000000000000000000000000000081525060200191505060405180910390fd5b8261ffff168261ffff1611616092578290506160ef565b60008390505b8261ffff168161ffff1610156160ea576001858261ffff1661ffff81106160bb57fe5b0160000160006101000a81548163ffffffff021916908363ffffffff1602179055508080600101915050616098565b508190505b9392505050565b60008182915081600f0b1461610a57600080fd5b919050565b600080600061611c614570565b61612e846020015185604001516166c5565b6000806040518060e00160405290816000820160009054906101000a900473ffffffffffffffffffffffffffffffffffffffff1673ffffffffffffffffffffffffffffffffffffffff1673ffffffffffffffffffffffffffffffffffffffff1681526020016000820160149054906101000a900460020b60020b60020b81526020016000820160179054906101000a900461ffff1661ffff1661ffff1681526020016000820160199054906101000a900461ffff1661ffff1661ffff16815260200160008201601b9054906101000a900461ffff1661ffff1661ffff16815260200160008201601d9054906101000a900460ff1660ff1660ff16815260200160008201601e9054906101000a900460ff161515151581525050905061626a85600001518660200151876040015188606001518560200151617408565b935060008560600151600f0b1461642b57846020015160020b816020015160020b12156162bf576162b86162a1866020015161472a565b6162ae876040015161472a565b8760600151617661565b925061642a565b846040015160020b816020015160020b12156163ff576000600560009054906101000a90046fffffffffffffffffffffffffffffffff16905061632d82604001516163086145ca565b84602001518486606001518760800151600961585f909695949392919063ffffffff16565b6000800160176000800160198491906101000a81548161ffff021916908361ffff1602179055508391906101000a81548161ffff021916908361ffff16021790555050506163908260000151616386886040015161472a565b8860600151617661565b93506163b16163a2876020015161472a565b836000015188606001516176ac565b92506163c181876060015161530a565b600560006101000a8154816fffffffffffffffffffffffffffffffff02191690836fffffffffffffffffffffffffffffffff16021790555050616429565b61642661640f866020015161472a565b61641c876040015161472a565b87606001516176ac565b91505b5b5b509193909250565b6000616440848484614ec1565b90506000828061644c57fe5b848609111561648a577fffffffffffffffffffffffffffffffffffffffffffffffffffffffffffffffff811061648157600080fd5b80806001019150505b9392505050565b6000846000858585604051602001808473ffffffffffffffffffffffffffffffffffffffff1660601b81526014018360020b60e81b81526003018260020b60e81b815260030193505050506040516020818303038152906040528051906020012081526020019081526020016000209050949350505050565b60608060008361ffff1611616587576040517f08c379a00000000000000000000000000000000000000000000000000000000081526004018080602001828103825260018152602001807f490000000000000000000000000000000000000000000000000000000000000081525060200191505060405180910390fd5b865167ffffffffffffffff8111801561659f57600080fd5b506040519080825280602002602001820160405280156165ce5781602001602082028036833780820191505090505b509150865167ffffffffffffffff811180156165e957600080fd5b506040519080825280602002602001820160405280156166185781602001602082028036833780820191505090505b50905060005b87518110156166b8576166498a8a8a848151811061663857fe5b60200260200101518a8a8a8a614f9b565b84838151811061665557fe5b6020026020010184848151811061666857fe5b602002602001018273ffffffffffffffffffffffffffffffffffffffff1673ffffffffffffffffffffffffffffffffffffffff168152508260060b60060b8152505050808060010191505061661e565b5097509795505050505050565b8060020b8260020b12616740576040517f08c379a00000000000000000000000000000000000000000000000000000000081526004018080602001828103825260038152602001807f544c55000000000000000000000000000000000000000000000000000000000081525060200191505060405180910390fd5b7ffffffffffffffffffffffffffffffffffffffffffffffffffffffffffff2761860020b8260020b12156167dc576040517f08c379a00000000000000000000000000000000000000000000000000000000081526004018080602001828103825260038152602001807f544c4d000000000000000000000000000000000000000000000000000000000081525060200191505060405180910390fd5b7ffffffffffffffffffffffffffffffffffffffffffffffffffffffffffff2761860000360020b8160020b131561687b576040517f08c379a00000000000000000000000000000000000000000000000000000000081526004018080602001828103825260038152602001807f54554d000000000000000000000000000000000000000000000000000000000081525060200191505060405180910390fd5b5050565b60008060405180608001604052808463ffffffff168152602001600060060b8152602001600073ffffffffffffffffffffffffffffffffffffffff1681526020016001151581525084600061ffff81106168d557fe5b0160008201518160000160006101000a81548163ffffffff021916908363ffffffff16021790555060208201518160000160046101000a81548166ffffffffffffff021916908360060b66ffffffffffffff160217905550604082015181600001600b6101000a81548173ffffffffffffffffffffffffffffffffffffffff021916908373ffffffffffffffffffffffffffffffffffffffff160217905550606082015181600001601f6101000a81548160ff021916908315150217905550905050600180915091509250929050565b60008060088360020b901d91506101008360020b816169c057fe5b079050915091565b60008082116169d657600080fd5b70010000000000000000000000000000000082106169fc57608082901c91506080810190505b680100000000000000008210616a1a57604082901c91506040810190505b6401000000008210616a3457602082901c91506020810190505b620100008210616a4c57601082901c91506010810190505b6101008210616a6357600882901c91506008810190505b60108210616a7957600482901c91506004810190505b60048210616a8f57600282901c91506002810190505b60028210616a9e576001810190505b919050565b6000808211616ab157600080fd5b60ff905060006fffffffffffffffffffffffffffffffff801683161115616add57608081039050616ae5565b608082901c91505b600067ffffffffffffffff801683161115616b0557604081039050616b0d565b604082901c91505b600063ffffffff801683161115616b2957602081039050616b31565b602082901c91505b600061ffff801683161115616b4b57601081039050616b53565b601082901c91505b600060ff801683161115616b6c57600881039050616b74565b600882901c91505b6000600f83161115616b8b57600481039050616b93565b600482901c91505b6000600383161115616baa57600281039050616bb2565b600282901c91505b6000600183161115616bc5576001810390505b919050565b600060c0670de0b6b3a76400008373ffffffffffffffffffffffffffffffffffffffff168473ffffffffffffffffffffffffffffffffffffffff160202901c9050919050565b600080616c1f306102586176f7565b5060020b9050600061025863ffffffff1660060b8260060b81616c3e57fe5b059050616c5681670de0b6b3a7640000600080617b64565b9250505090565b600080821415616c705760009050616c99565b6000828411616c8157838303616c85565b8284035b905082612710820281616c9457fe5b049150505b92915050565b60008373ffffffffffffffffffffffffffffffffffffffff168573ffffffffffffffffffffffffffffffffffffffff161115616ce057838580955081965050505b81616d2c57616d27836fffffffffffffffffffffffffffffffff1686860373ffffffffffffffffffffffffffffffffffffffff166c01000000000000000000000000614ec1565b616d6f565b616d6e836fffffffffffffffffffffffffffffffff1686860373ffffffffffffffffffffffffffffffffffffffff166c01000000000000000000000000616433565b5b9050949350505050565b60008373ffffffffffffffffffffffffffffffffffffffff168573ffffffffffffffffffffffffffffffffffffffff161115616dba57838580955081965050505b6000606060ff16846fffffffffffffffffffffffffffffffff16901b9050600086860373ffffffffffffffffffffffffffffffffffffffff16905060008773ffffffffffffffffffffffffffffffffffffffff1611616e1857600080fd5b83616e62578673ffffffffffffffffffffffffffffffffffffffff16616e5583838973ffffffffffffffffffffffffffffffffffffffff16614ec1565b81616e5c57fe5b04616ea3565b616ea2616e8683838973ffffffffffffffffffffffffffffffffffffffff16616433565b8873ffffffffffffffffffffffffffffffffffffffff16617d67565b5b92505050949350505050565b6000808573ffffffffffffffffffffffffffffffffffffffff1611616ed357600080fd5b6000846fffffffffffffffffffffffffffffffff1611616ef257600080fd5b81616f0957616f048585856001617d7a565b616f17565b616f168585856001617eec565b5b9050949350505050565b6000808573ffffffffffffffffffffffffffffffffffffffff1611616f4557600080fd5b6000846fffffffffffffffffffffffffffffffff1611616f6457600080fd5b81616f7b57616f768585856000617eec565b616f89565b616f888585856000617d7a565b5b9050949350505050565b616f9b618d01565b600085600001518503905060405180608001604052808663ffffffff1681526020018263ffffffff168660020b0288602001510160060b81526020016000856fffffffffffffffffffffffffffffffff1611616ff8576001616ffa565b845b6fffffffffffffffffffffffffffffffff1660808463ffffffff1673ffffffffffffffffffffffffffffffffffffffff16901b73ffffffffffffffffffffffffffffffffffffffff168161704a57fe5b0488604001510173ffffffffffffffffffffffffffffffffffffffff16815260200160011515815250915050949350505050565b617086618d01565b61708e618d01565b888561ffff1661ffff811061709f57fe5b016040518060800160405290816000820160009054906101000a900463ffffffff1663ffffffff1663ffffffff1681526020016000820160049054906101000a900460060b60060b60060b815260200160008201600b9054906101000a900473ffffffffffffffffffffffffffffffffffffffff1673ffffffffffffffffffffffffffffffffffffffff1673ffffffffffffffffffffffffffffffffffffffff16815260200160008201601f9054906101000a900460ff161515151581525050915061717088836000015189618076565b156171a8578663ffffffff16826000015163ffffffff161415617192576173fc565b8161719f83898988616f93565b915091506173fc565b888361ffff166001870161ffff16816171bd57fe5b0661ffff1661ffff81106171cd57fe5b016040518060800160405290816000820160009054906101000a900463ffffffff1663ffffffff1663ffffffff1681526020016000820160049054906101000a900460060b60060b60060b815260200160008201600b9054906101000a900473ffffffffffffffffffffffffffffffffffffffff1673ffffffffffffffffffffffffffffffffffffffff1673ffffffffffffffffffffffffffffffffffffffff16815260200160008201601f9054906101000a900460ff161515151581525050915081606001516173695788600061ffff81106172a657fe5b016040518060800160405290816000820160009054906101000a900463ffffffff1663ffffffff1663ffffffff1681526020016000820160049054906101000a900460060b60060b60060b815260200160008201600b9054906101000a900473ffffffffffffffffffffffffffffffffffffffff1673ffffffffffffffffffffffffffffffffffffffff1673ffffffffffffffffffffffffffffffffffffffff16815260200160008201601f9054906101000a900460ff16151515158152505091505b61737888836000015189618076565b6173ea576040517f08c379a00000000000000000000000000000000000000000000000000000000081526004018080602001828103825260038152602001807f4f4c44000000000000000000000000000000000000000000000000000000000081525060200191505060405180910390fd5b6173f7898989888761813e565b915091505b97509795505050505050565b60006174228686866008616491909392919063ffffffff16565b90506000600154905060006002549050600080600087600f0b146175d557600061744a6145ca565b90506000806174c18360008060000160149054906101000a900460020b6000800160179054906101000a900461ffff16600560009054906101000a90046fffffffffffffffffffffffffffffffff166000800160199054906101000a900461ffff166009614f9b909695949392919063ffffffff16565b9150915061750c8c8a8c8a8a86888a60007f000000000000000000000000000000000000000000000000000000000000000060066183c1909a9998979695949392919063ffffffff16565b94506175558b8a8c8a8a86888a60017f000000000000000000000000000000000000000000000000000000000000000060066183c1909a9998979695949392919063ffffffff16565b93508415617594576175938c7f000000000000000000000000000000000000000000000000000000000000000060076186c39092919063ffffffff16565b5b83156175d1576175d08b7f000000000000000000000000000000000000000000000000000000000000000060076186c39092919063ffffffff16565b5b5050505b6000806175f48b8b8a8989600661873b9095949392919063ffffffff16565b9150915061760f8983838a618802909392919063ffffffff16565b600089600f0b1215617652578315617636576176358b6006618b8690919063ffffffff16565b5b8215617651576176508a6006618b8690919063ffffffff16565b5b5b50505050505095945050505050565b60008082600f0b126176875761768261767d8585856001616d79565b614e45565b6176a3565b61769f61769a8585856000036000616d79565b614e45565b6000035b90509392505050565b60008082600f0b126176d2576176cd6176c88585856001616c9f565b614e45565b6176ee565b6176ea6176e58585856000036000616c9f565b614e45565b6000035b90509392505050565b60008060008363ffffffff161415617777576040517f08c379a00000000000000000000000000000000000000000000000000000000081526004018080602001828103825260028152602001807f425000000000000000000000000000000000000000000000000000000000000081525060200191505060405180910390fd5b6000600267ffffffffffffffff8111801561779157600080fd5b506040519080825280602002602001820160405280156177c05781602001602082028036833780820191505090505b50905083816000815181106177d157fe5b602002602001019063ffffffff16908163ffffffff16815250506000816001815181106177fa57fe5b602002602001019063ffffffff16908163ffffffff16815250506000808673ffffffffffffffffffffffffffffffffffffffff1663883bdbfd846040518263ffffffff1660e01b81526004018080602001828103825283818151815260200191508051906020019060200280838360005b8381101561788657808201518184015260208101905061786b565b505050509050019250505060006040518083038186803b1580156178a957600080fd5b505afa1580156178bd573d6000803e3d6000fd5b505050506040513d6000823e3d601f19601f8201168201806040525060408110156178e757600080fd5b810190808051604051939291908464010000000082111561790757600080fd5b8382019150602082018581111561791d57600080fd5b825186602082028301116401000000008211171561793a57600080fd5b8083526020830192505050908051906020019060200280838360005b83811015617971578082015181840152602081019050617956565b505050509050016040526020018051604051939291908464010000000082111561799a57600080fd5b838201915060208201858111156179b057600080fd5b82518660208202830111640100000000821117156179cd57600080fd5b8083526020830192505050908051906020019060200280838360005b83811015617a045780820151818401526020810190506179e9565b5050505090500160405250505091509150600082600081518110617a2457fe5b602002602001015183600181518110617a3957fe5b6020026020010151039050600082600081518110617a5357fe5b602002602001015183600181518110617a6857fe5b60200260200101510390508763ffffffff168260060b81617a8557fe5b05965060008260060b128015617ab1575060008863ffffffff168360060b81617aaa57fe5b0760060b14155b15617ac0578680600190039750505b600073ffffffffffffffffffffffffffffffffffffffff80168963ffffffff1602905060208273ffffffffffffffffffffffffffffffffffffffff1677ffffffffffffffffffffffffffffffffffffffffffffffff16901b77ffffffffffffffffffffffffffffffffffffffffffffffff168177ffffffffffffffffffffffffffffffffffffffffffffffff1681617b5457fe5b0496505050505050509250929050565b600080617b708661472a565b90506fffffffffffffffffffffffffffffffff80168173ffffffffffffffffffffffffffffffffffffffff1611617c815760008173ffffffffffffffffffffffffffffffffffffffff168273ffffffffffffffffffffffffffffffffffffffff160290508373ffffffffffffffffffffffffffffffffffffffff168573ffffffffffffffffffffffffffffffffffffffff1610617c4257617c3d7801000000000000000000000000000000000000000000000000876fffffffffffffffffffffffffffffffff1683614ec1565b617c79565b617c7881876fffffffffffffffffffffffffffffffff167801000000000000000000000000000000000000000000000000614ec1565b5b925050617d5e565b6000617cc38273ffffffffffffffffffffffffffffffffffffffff168373ffffffffffffffffffffffffffffffffffffffff1668010000000000000000614ec1565b90508373ffffffffffffffffffffffffffffffffffffffff168573ffffffffffffffffffffffffffffffffffffffff1610617d2b57617d26700100000000000000000000000000000000876fffffffffffffffffffffffffffffffff1683614ec1565b617d5a565b617d5981876fffffffffffffffffffffffffffffffff16700100000000000000000000000000000000614ec1565b5b9250505b50949350505050565b6000808284061182840401905092915050565b60008115617e3057600073ffffffffffffffffffffffffffffffffffffffff8016841115617dd157617dcc846c01000000000000000000000000876fffffffffffffffffffffffffffffffff16614ec1565b617df5565b846fffffffffffffffffffffffffffffffff16606060ff1685901b81617df357fe5b045b9050617e28617e23828873ffffffffffffffffffffffffffffffffffffffff16615e3c90919063ffffffff16565b618c67565b915050617ee4565b600073ffffffffffffffffffffffffffffffffffffffff8016841115617e7f57617e7a846c01000000000000000000000000876fffffffffffffffffffffffffffffffff16616433565b617ea3565b617ea2606060ff1685901b866fffffffffffffffffffffffffffffffff16617d67565b5b9050808673ffffffffffffffffffffffffffffffffffffffff1611617ec757600080fd5b808673ffffffffffffffffffffffffffffffffffffffff16039150505b949350505050565b600080831415617efe5784905061806e565b6000606060ff16856fffffffffffffffffffffffffffffffff16901b90508215617fe55760008673ffffffffffffffffffffffffffffffffffffffff16858873ffffffffffffffffffffffffffffffffffffffff16870292508281617f5f57fe5b041415617fa15760008183019050828110617f9f57617f95838973ffffffffffffffffffffffffffffffffffffffff1683616433565b935050505061806e565b505b617fdc82617fd7878a73ffffffffffffffffffffffffffffffffffffffff168681617fc857fe5b04615e3c90919063ffffffff16565b617d67565b9250505061806e565b60008673ffffffffffffffffffffffffffffffffffffffff16858873ffffffffffffffffffffffffffffffffffffffff1687029250828161802257fe5b0414801561802f57508082115b61803857600080fd5b60008183039050618068618063848a73ffffffffffffffffffffffffffffffffffffffff1684616433565b618c67565b93505050505b949350505050565b60008363ffffffff168363ffffffff16111580156180a057508363ffffffff168263ffffffff1611155b156180bc578163ffffffff168363ffffffff1611159050618137565b60008463ffffffff168463ffffffff16116180e4576401000000008463ffffffff16016180ec565b8363ffffffff165b64ffffffffff16905060008563ffffffff168463ffffffff161161811d576401000000008463ffffffff1601618125565b8363ffffffff165b64ffffffffff16905080821115925050505b9392505050565b618146618d01565b61814e618d01565b60008361ffff166001860161ffff168161816457fe5b0661ffff169050600060018561ffff16830103905060005b6001156183b45760028284018161818f57fe5b049050898661ffff1682816181a057fe5b0661ffff81106181ac57fe5b016040518060800160405290816000820160009054906101000a900463ffffffff1663ffffffff1663ffffffff1681526020016000820160049054906101000a900460060b60060b60060b815260200160008201600b9054906101000a900473ffffffffffffffffffffffffffffffffffffffff1673ffffffffffffffffffffffffffffffffffffffff1673ffffffffffffffffffffffffffffffffffffffff16815260200160008201601f9054906101000a900460ff161515151581525050945084606001516182825760018101925061817c565b898661ffff16600183018161829357fe5b0661ffff811061829f57fe5b016040518060800160405290816000820160009054906101000a900463ffffffff1663ffffffff1663ffffffff1681526020016000820160049054906101000a900460060b60060b60060b815260200160008201600b9054906101000a900473ffffffffffffffffffffffffffffffffffffffff1673ffffffffffffffffffffffffffffffffffffffff1673ffffffffffffffffffffffffffffffffffffffff16815260200160008201601f9054906101000a900460ff161515151581525050935060006183728a87600001518b618076565b905080801561838c575061838b8a8a8760000151618076565b5b1561839757506183b4565b806183a7576001820392506183ae565b6001820193505b5061817c565b5050509550959350505050565b6000808c60008d60020b60020b8152602001908152602001600020905060008160000160009054906101000a90046fffffffffffffffffffffffffffffffff169050600061840f828d61530a565b9050846fffffffffffffffffffffffffffffffff16816fffffffffffffffffffffffffffffffff1611156184ab576040517f08c379a00000000000000000000000000000000000000000000000000000000081526004018080602001828103825260028152602001807f4c4f00000000000000000000000000000000000000000000000000000000000081525060200191505060405180910390fd5b6000826fffffffffffffffffffffffffffffffff161415156000826fffffffffffffffffffffffffffffffff16141515141593506000826fffffffffffffffffffffffffffffffff1614156185ca578c60020b8e60020b136185ac578a8360010181905550898360020181905550888360030160076101000a81548173ffffffffffffffffffffffffffffffffffffffff021916908373ffffffffffffffffffffffffffffffffffffffff160217905550878360030160006101000a81548166ffffffffffffff021916908360060b66ffffffffffffff1602179055508683600301601b6101000a81548163ffffffff021916908363ffffffff1602179055505b600183600301601f6101000a81548160ff0219169083151502179055505b808360000160006101000a8154816fffffffffffffffffffffffffffffffff02191690836fffffffffffffffffffffffffffffffff160217905550856186415761863c6186378d600f0b8560000160109054906101000a9004600f0b600f0b614e9e90919063ffffffff16565b6160f6565b618674565b61867361866e8d600f0b8560000160109054906101000a9004600f0b600f0b614e7b90919063ffffffff16565b6160f6565b5b8360000160106101000a8154816fffffffffffffffffffffffffffffffff0219169083600f0b6fffffffffffffffffffffffffffffffff1602179055505050509b9a5050505050505050505050565b60008160020b8360020b816186d457fe5b0760020b146186e257600080fd5b6000806186fd8360020b8560020b816186f757fe5b056169a5565b9150915060008160ff166001901b9050808660008560010b60010b815260200190815260200160002060008282541892505081905550505050505050565b60008060008860008960020b60020b8152602001908152602001600020905060008960008960020b60020b815260200190815260200160002090506000808a60020b8960020b126187995783600101549150836002015490506187ac565b8360010154880391508360020154870390505b6000808b60020b8b60020b12156187d05784600101549150846002015490506187e3565b84600101548a0391508460020154890390505b81848b0303975080838a03039650505050505050965096945050505050565b6000846040518060a00160405290816000820160009054906101000a90046fffffffffffffffffffffffffffffffff166fffffffffffffffffffffffffffffffff166fffffffffffffffffffffffffffffffff16815260200160018201548152602001600282015481526020016003820160009054906101000a90046fffffffffffffffffffffffffffffffff166fffffffffffffffffffffffffffffffff166fffffffffffffffffffffffffffffffff1681526020016003820160109054906101000a90046fffffffffffffffffffffffffffffffff166fffffffffffffffffffffffffffffffff166fffffffffffffffffffffffffffffffff1681525050905060008085600f0b14156189a957600082600001516fffffffffffffffffffffffffffffffff161161899d576040517f08c379a00000000000000000000000000000000000000000000000000000000081526004018080602001828103825260028152602001807f4e5000000000000000000000000000000000000000000000000000000000000081525060200191505060405180910390fd5b816000015190506189ba565b6189b782600001518661530a565b90505b60006189f48360200151860384600001516fffffffffffffffffffffffffffffffff16700100000000000000000000000000000000614ec1565b90506000618a308460400151860385600001516fffffffffffffffffffffffffffffffff16700100000000000000000000000000000000614ec1565b9050600087600f0b14618a7957828860000160006101000a8154816fffffffffffffffffffffffffffffffff02191690836fffffffffffffffffffffffffffffffff1602179055505b8588600101819055508488600201819055506000826fffffffffffffffffffffffffffffffff161180618abe57506000816fffffffffffffffffffffffffffffffff16115b15618b7c57818860030160008282829054906101000a90046fffffffffffffffffffffffffffffffff160192506101000a8154816fffffffffffffffffffffffffffffffff02191690836fffffffffffffffffffffffffffffffff160217905550808860030160108282829054906101000a90046fffffffffffffffffffffffffffffffff160192506101000a8154816fffffffffffffffffffffffffffffffff02191690836fffffffffffffffffffffffffffffffff1602179055505b5050505050505050565b8160008260020b60020b8152602001908152602001600020600080820160006101000a8154906fffffffffffffffffffffffffffffffff02191690556000820160106101000a8154906fffffffffffffffffffffffffffffffff0219169055600182016000905560028201600090556003820160006101000a81549066ffffffffffffff02191690556003820160076101000a81549073ffffffffffffffffffffffffffffffffffffffff021916905560038201601b6101000a81549063ffffffff021916905560038201601f6101000a81549060ff021916905550505050565b6000818291508173ffffffffffffffffffffffffffffffffffffffff1614618c8e57600080fd5b919050565b6040518060e00160405280600073ffffffffffffffffffffffffffffffffffffffff168152602001600060020b8152602001600015158152602001600073ffffffffffffffffffffffffffffffffffffffff1681526020016000815260200160008152602001600081525090565b6040518060800160405280600063ffffffff168152602001600060060b8152602001600073ffffffffffffffffffffffffffffffffffffffff168152602001600015158152509056fea26469706673582212203d7dfbf787957b005e64326bc0fb009319a63325718eb76a575e1b69ca47c84264736f6c63430007060033a264697066735822122087f2104a33a47aba237d7a9beb5f9ede071e2c18a41f258808511ada4aade5d064736f6c63430007060033","linkReferences":{}},"methodIdentifiers":{"createPool(address,address,uint24)":"a1671295","enableFeeAmount(uint24,int24)":"8a7c195f","feeAmountTickSpacing(uint24)":"22afcccb","getPool(address,address,uint24)":"1698ee82","owner()":"8da5cb5b","parameters()":"89035730","setOwner(address)":"13af4035"},"id":1}