{"abi":[{"type":"constructor","inputs":[],"stateMutability":"nonpayable"},{"type":"function","name":"burn","inputs":[{"name":"tickLower","type":"int24","internalType":"int24"},{"name":"tickUpper","type":"int24","internalType":"int24"},{"name":"amount","type":"uint128","internalType":"uint128"}],"outputs":[{"name":"amount0","type":"uint256","internalType":"uint256"},{"name":"amount1","type":"uint256","internalType":"uint256"}],"stateMutability":"nonpayable"},{"type":"function","name":"collect","inputs":[{"name":"recipient","type":"address","internalType":"address"},{"name":"tickLower","type":"int24","internalType":"int24"},{"name":"tickUpper","type":"int24","internalType":"int24"},{"name":"amount0Requested","type":"uint128","internalType":"uint128"},{"name":"amount1Requested","type":"uint128","internalType":"uint128"}],"outputs":[{"name":"amount0","type":"uint128","internalType":"uint128"},{"name":"amount1","type":"uint128","internalType":"uint128"}],"stateMutability":"nonpayable"},{"type":"function","name":"collectProtocol","inputs":[{"name":"recipient","type":"address","internalType":"address"},{"name":"amount0Requested","type":"uint128","internalType":"uint128"},{"name":"amount1Requested","type":"uint128","internalType":"uint128"}],"outputs":[{"name":"amount0","type":"uint128","internalType":"uint128"},{"name":"amount1","type":"uint128","internalType":"uint128"}],"stateMutability":"nonpayable"},{"type":"function","name":"currentDynamicFee","inputs":[],"outputs":[{"name":"","type":"uint24","internalType":"uint24"}],"stateMutability":"view"},{"type":"function","name":"factory","inputs":[],"outputs":[{"name":"","type":"address","internalType":"address"}],"stateMutability":"view"},{"type":"function","name":"fee","inputs":[],"outputs":[{"name":"","type":"uint24","internalType":"uint24"}],"stateMutability":"view"},{"type":"function","name":"feeGrowthGlobal0X128","inputs":[],"outputs":[{"name":"","type":"uint256","internalType":"uint256"}],"stateMutability":"view"},{"type":"function","name":"feeGrowthGlobal1X128","inputs":[],"outputs":[{"name":"","type":"uint256","internalType":"uint256"}],"stateMutability":"view"},{"type":"function","name":"flash","inputs":[{"name":"recipient","type":"address","internalType":"address"},{"name":"amount0","type":"uint256","internalType":"uint256"},{"name":"amount1","type":"uint256","internalType":"uint256"},{"name":"data","type":"bytes","internalType":"bytes"}],"outputs":[],"stateMutability":"nonpayable"},{"type":"function","name":"getPriceDifferencePercentage","inputs":[{"name":"currentPrice","type":"uint256","internalType":"uint256"},{"name":"twapPrice","type":"uint256","internalType":"uint256"}],"outputs":[{"name":"","type":"uint256","internalType":"uint256"}],"stateMutability":"pure"},{"type":"function","name":"getTWAP","inputs":[],"outputs":[{"name":"","type":"uint256","internalType":"uint256"}],"stateMutability":"view"},{"type":"function","name":"increaseObservationCardinalityNext","inputs":[{"name":"observationCardinalityNext","type":"uint16","internalType":"uint16"}],"outputs":[],"stateMutability":"nonpayable"},{"type":"function","name":"initialize","inputs":[{"name":"sqrtPriceX96","type":"uint160","internalType":"uint160"}],"outputs":[],"stateMutability":"nonpayable"},{"type":"function","name":"liquidity","inputs":[],"outputs":[{"name":"","type":"uint128","internalType":"uint128"}],"stateMutability":"view"},{"type":"function","name":"maxLiquidityPerTick","inputs":[],"outputs":[{"name":"","type":"uint128","internalType":"uint128"}],"stateMutability":"view"},{"type":"function","name":"mint","inputs":[{"name":"recipient","type":"address","internalType":"address"},{"name":"tickLower","type":"int24","internalType":"int24"},{"name":"tickUpper","type":"int24","internalType":"int24"},{"name":"amount","type":"uint128","internalType":"uint128"},{"name":"data","type":"bytes","internalType":"bytes"}],"outputs":[{"name":"amount0","type":"uint256","internalType":"uint256"},{"name":"amount1","type":"uint256","internalType":"uint256"}],"stateMutability":"nonpayable"},{"type":"function","name":"observations","inputs":[{"name":"","type":"uint256","internalType":"uint256"}],"outputs":[{"name":"blockTimestamp","type":"uint32","internalType":"uint32"},{"name":"tickCumulative","type":"int56","internalType":"int56"},{"name":"secondsPerLiquidityCumulativeX128","type":"uint160","internalType":"uint160"},{"name":"initialized","type":"bool","internalType":"bool"}],"stateMutability":"view"},{"type":"function","name":"observe","inputs":[{"name":"secondsAgos","type":"uint32[]","internalType":"uint32[]"}],"outputs":[{"name":"tickCumulatives","type":"int56[]","internalType":"int56[]"},{"name":"secondsPerLiquidityCumulativeX128s","type":"uint160[]","internalType":"uint160[]"}],"stateMutability":"view"},{"type":"function","name":"positions","inputs":[{"name":"","type":"bytes32","internalType":"bytes32"}],"outputs":[{"name":"liquidity","type":"uint128","internalType":"uint128"},{"name":"feeGrowthInside0LastX128","type":"uint256","internalType":"uint256"},{"name":"feeGrowthInside1LastX128","type":"uint256","internalType":"uint256"},{"name":"tokensOwed0","type":"uint128","internalType":"uint128"},{"name":"tokensOwed1","type":"uint128","internalType":"uint128"}],"stateMutability":"view"},{"type":"function","name":"protocolFees","inputs":[],"outputs":[{"name":"token0","type":"uint128","internalType":"uint128"},{"name":"token1","type":"uint128","internalType":"uint128"}],"stateMutability":"view"},{"type":"function","name":"setFeeProtocol","inputs":[{"name":"feeProtocol0","type":"uint8","internalType":"uint8"},{"name":"feeProtocol1","type":"uint8","internalType":"uint8"}],"outputs":[],"stateMutability":"nonpayable"},{"type":"function","name":"slot0","inputs":[],"outputs":[{"name":"sqrtPriceX96","type":"uint160","internalType":"uint160"},{"name":"tick","type":"int24","internalType":"int24"},{"name":"observationIndex","type":"uint16","internalType":"uint16"},{"name":"observationCardinality","type":"uint16","internalType":"uint16"},{"name":"observationCardinalityNext","type":"uint16","internalType":"uint16"},{"name":"feeProtocol","type":"uint8","internalType":"uint8"},{"name":"unlocked","type":"bool","internalType":"bool"}],"stateMutability":"view"},{"type":"function","name":"snapshotCumulativesInside","inputs":[{"name":"tickLower","type":"int24","internalType":"int24"},{"name":"tickUpper","type":"int24","internalType":"int24"}],"outputs":[{"name":"tickCumulativeInside","type":"int56","internalType":"int56"},{"name":"secondsPerLiquidityInsideX128","type":"uint160","internalType":"uint160"},{"name":"secondsInside","type":"uint32","internalType":"uint32"}],"stateMutability":"view"},{"type":"function","name":"swap","inputs":[{"name":"recipient","type":"address","internalType":"address"},{"name":"zeroForOne","type":"bool","internalType":"bool"},{"name":"amountSpecified","type":"int256","internalType":"int256"},{"name":"sqrtPriceLimitX96","type":"uint160","internalType":"uint160"},{"name":"data","type":"bytes","internalType":"bytes"}],"outputs":[{"name":"amount0","type":"int256","internalType":"int256"},{"name":"amount1","type":"int256","internalType":"int256"}],"stateMutability":"nonpayable"},{"type":"function","name":"tickBitmap","inputs":[{"name":"","type":"int16","internalType":"int16"}],"outputs":[{"name":"","type":"uint256","internalType":"uint256"}],"stateMutability":"view"},{"type":"function","name":"tickSpacing","inputs":[],"outputs":[{"name":"","type":"int24","internalType":"int24"}],"stateMutability":"view"},{"type":"function","name":"ticks","inputs":[{"name":"","type":"int24","internalType":"int24"}],"outputs":[{"name":"liquidityGross","type":"uint128","internalType":"uint128"},{"name":"liquidityNet","type":"int128","internalType":"int128"},{"name":"feeGrowthOutside0X128","type":"uint256","internalType":"uint256"},{"name":"feeGrowthOutside1X128","type":"uint256","internalType":"uint256"},{"name":"tickCumulativeOutside","type":"int56","internalType":"int56"},{"name":"secondsPerLiquidityOutsideX128","type":"uint160","internalType":"uint160"},{"name":"secondsOutside","type":"uint32","internalType":"uint32"},{"name":"initialized","type":"bool","internalType":"bool"}],"stateMutability":"view"},{"type":"function","name":"token0","inputs":[],"outputs":[{"name":"","type":"address","internalType":"address"}],"stateMutability":"view"},{"type":"function","name":"token1","inputs":[],"outputs":[{"name":"","type":"address","internalType":"address"}],"stateMutability":"view"},{"type":"event","name":"Burn","inputs":[{"name":"owner","type":"address","indexed":true,"internalType":"address"},{"name":"tickLower","type":"int24","indexed":true,"internalType":"int24"},{"name":"tickUpper","type":"int24","indexed":true,"internalType":"int24"},{"name":"amount","type":"uint128","indexed":false,"internalType":"uint128"},{"name":"amount0","type":"uint256","indexed":false,"internalType":"uint256"},{"name":"amount1","type":"uint256","indexed":false,"internalType":"uint256"}],"anonymous":false},{"type":"event","name":"Collect","inputs":[{"name":"owner","type":"address","indexed":true,"internalType":"address"},{"name":"recipient","type":"address","indexed":false,"internalType":"address"},{"name":"tickLower","type":"int24","indexed":true,"internalType":"int24"},{"name":"tickUpper","type":"int24","indexed":true,"internalType":"int24"},{"name":"amount0","type":"uint128","indexed":false,"internalType":"uint128"},{"name":"amount1","type":"uint128","indexed":false,"internalType":"uint128"}],"anonymous":false},{"type":"event","name":"CollectProtocol","inputs":[{"name":"sender","type":"address","indexed":true,"internalType":"address"},{"name":"recipient","type":"address","indexed":true,"internalType":"address"},{"name":"amount0","type":"uint128","indexed":false,"internalType":"uint128"},{"name":"amount1","type":"uint128","indexed":false,"internalType":"uint128"}],"anonymous":false},{"type":"event","name":"Flash","inputs":[{"name":"sender","type":"address","indexed":true,"internalType":"address"},{"name":"recipient","type":"address","indexed":true,"internalType":"address"},{"name":"amount0","type":"uint256","indexed":false,"internalType":"uint256"},{"name":"amount1","type":"uint256","indexed":false,"internalType":"uint256"},{"name":"paid0","type":"uint256","indexed":false,"internalType":"uint256"},{"name":"paid1","type":"uint256","indexed":false,"internalType":"uint256"}],"anonymous":false},{"type":"event","name":"IncreaseObservationCardinalityNext","inputs":[{"name":"observationCardinalityNextOld","type":"uint16","indexed":false,"internalType":"uint16"},{"name":"observationCardinalityNextNew","type":"uint16","indexed":false,"internalType":"uint16"}],"anonymous":false},{"type":"event","name":"Initialize","inputs":[{"name":"sqrtPriceX96","type":"uint160","indexed":false,"internalType":"uint160"},{"name":"tick","type":"int24","indexed":false,"internalType":"int24"}],"anonymous":false},{"type":"event","name":"Mint","inputs":[{"name":"sender","type":"address","indexed":false,"internalType":"address"},{"name":"owner","type":"address","indexed":true,"internalType":"address"},{"name":"tickLower","type":"int24","indexed":true,"internalType":"int24"},{"name":"tickUpper","type":"int24","indexed":true,"internalType":"int24"},{"name":"amount","type":"uint128","indexed":false,"internalType":"uint128"},{"name":"amount0","type":"uint256","indexed":false,"internalType":"uint256"},{"name":"amount1","type":"uint256","indexed":false,"internalType":"uint256"}],"anonymous":false},{"type":"event","name":"SetFeeProtocol","inputs":[{"name":"feeProtocol0Old","type":"uint8","indexed":false,"internalType":"uint8"},{"name":"feeProtocol1Old","type":"uint8","indexed":false,"internalType":"uint8"},{"name":"feeProtocol0New","type":"uint8","indexed":false,"internalType":"uint8"},{"name":"feeProtocol1New","type":"uint8","indexed":false,"internalType":"uint8"}],"anonymous":false},{"type":"event","name":"Swap","inputs":[{"name":"sender","type":"address","indexed":true,"internalType":"address"},{"name":"recipient","type":"address","indexed":true,"internalType":"address"},{"name":"amount0","type":"int256","indexed":false,"internalType":"int256"},{"name":"amount1","type":"int256","indexed":false,"internalType":"int256"},{"name":"sqrtPriceX96","type":"uint160","indexed":false,"internalType":"uint160"},{"name":"liquidity","type":"uint128","indexed":false,"internalType":"uint128"},{"name":"tick","type":"int24","indexed":false,"internalType":"int24"}],"anonymous":false}],"bytecode":{"object":"0x6101606040523480156200001257600080fd5b503073ffffffffffffffffffffffffffffffffffffffff1660808173ffffffffffffffffffffffffffffffffffffffff1660601b8152505060003373ffffffffffffffffffffffffffffffffffffffff1663890357306040518163ffffffff1660e01b815260040160a06040518083038186803b1580156200009357600080fd5b505afa158015620000a8573d6000803e3d6000fd5b505050506040513d60a0811015620000bf57600080fd5b8101908080519060200190929190805190602001909291908051906020019092919080519060200190929190805190602001909291905050508095508162ffffff166101009062ffffff1660e81b8152508273ffffffffffffffffffffffffffffffffffffffff1660e09073ffffffffffffffffffffffffffffffffffffffff1660601b8152508373ffffffffffffffffffffffffffffffffffffffff1660c09073ffffffffffffffffffffffffffffffffffffffff1660601b8152508473ffffffffffffffffffffffffffffffffffffffff1660a09073ffffffffffffffffffffffffffffffffffffffff1660601b81525050505050508060020b6101208160020b60e81b81525050620001df816200021560201b620048281760201c565b6fffffffffffffffffffffffffffffffff16610140816fffffffffffffffffffffffffffffffff1660801b8152505050620002cd565b600080828360020b7ffffffffffffffffffffffffffffffffffffffffffffffffffffffffffff2761860020b816200024957fe5b050290506000838460020b7ffffffffffffffffffffffffffffffffffffffffffffffffffffffffffff2761860000360020b816200028357fe5b05029050600060018560020b84840360020b816200029d57fe5b050190508062ffffff166fffffffffffffffffffffffffffffffff801681620002c257fe5b049350505050919050565b60805160601c60a05160601c60c05160601c60e05160601c6101005160e81c6101205160e81c6101405160801c619228620003956000398061356e5280617fec52806180355250806115a65280614443528061807b52806180b8525080612b1a5280612b51528061448b525080611eec5280612bdb52806133725280613c7e52806144675280616a4a525080611000528061206c5280612ba652806132bd5280613b71528061688652508061363352806138d9528061441f52508061506452506192286000f3fe608060405234801561001057600080fd5b50600436106101cf5760003560e01c806355abbe8f11610104578063a38807f2116100a2578063ddca3f4311610071578063ddca3f4314610c33578063f305839914610c56578063f30dba9314610c74578063f637731d14610d20576101cf565b8063a38807f214610b2b578063c45a015514610baa578063d0c93a7c14610bde578063d21220a714610bff576101cf565b80638206a4d1116100de5780638206a4d1146108a757806385b66729146108e5578063883bdbfd146109a0578063a34123a714610ab6576101cf565b806355abbe8f1461080857806356ccede71461085457806370cf754a14610877576101cf565b80633850c7bd11610171578063490e6cbc1161014b578063490e6cbc146105ad5780634f1eb3d81461065a578063514ea4bf1461072f5780635339c296146107c3576101cf565b80633850c7bd146104335780633c8a7d8d146104a5578063461413191461058f576101cf565b80631a686502116101ad5780631a686502146103105780631ad8b03b14610340578063252c09d71461038957806332148f6714610401576101cf565b806305ecd003146101d45780630dfe1681146101f2578063128acb0814610226575b600080fd5b6101dc610d64565b6040518082815260200191505060405180910390f35b6101fa610ffe565b604051808273ffffffffffffffffffffffffffffffffffffffff16815260200191505060405180910390f35b6102f3600480360360a081101561023c57600080fd5b81019080803573ffffffffffffffffffffffffffffffffffffffff16906020019092919080351515906020019092919080359060200190929190803573ffffffffffffffffffffffffffffffffffffffff169060200190929190803590602001906401000000008111156102af57600080fd5b8201836020820111156102c157600080fd5b803590602001918460018302840111640100000000831117156102e357600080fd5b9091929391929390505050611022565b604051808381526020018281526020019250505060405180910390f35b6103186122c2565b60405180826fffffffffffffffffffffffffffffffff16815260200191505060405180910390f35b6103486122e4565b60405180836fffffffffffffffffffffffffffffffff168152602001826fffffffffffffffffffffffffffffffff1681526020019250505060405180910390f35b6103b56004803603602081101561039f57600080fd5b810190808035906020019092919050505061232e565b604051808563ffffffff1681526020018460060b81526020018373ffffffffffffffffffffffffffffffffffffffff168152602001821515815260200194505050505060405180910390f35b6104316004803603602081101561041757600080fd5b81019080803561ffff1690602001909291905050506123ac565b005b61043b61251e565b604051808873ffffffffffffffffffffffffffffffffffffffff1681526020018760020b81526020018661ffff1681526020018561ffff1681526020018461ffff1681526020018360ff168152602001821515815260200197505050505050505060405180910390f35b610572600480360360a08110156104bb57600080fd5b81019080803573ffffffffffffffffffffffffffffffffffffffff169060200190929190803560020b9060200190929190803560020b906020019092919080356fffffffffffffffffffffffffffffffff1690602001909291908035906020019064010000000081111561052e57600080fd5b82018360208201111561054057600080fd5b8035906020019184600183028401116401000000008311171561056257600080fd5b90919293919293905050506125bf565b604051808381526020018281526020019250505060405180910390f35b6105976129b8565b6040518082815260200191505060405180910390f35b610658600480360360808110156105c357600080fd5b81019080803573ffffffffffffffffffffffffffffffffffffffff16906020019092919080359060200190929190803590602001909291908035906020019064010000000081111561061457600080fd5b82018360208201111561062657600080fd5b8035906020019184600183028401116401000000008311171561064857600080fd5b90919293919293905050506129be565b005b6106ee600480360360a081101561067057600080fd5b81019080803573ffffffffffffffffffffffffffffffffffffffff169060200190929190803560020b9060200190929190803560020b906020019092919080356fffffffffffffffffffffffffffffffff16906020019092919080356fffffffffffffffffffffffffffffffff169060200190929190505050613097565b60405180836fffffffffffffffffffffffffffffffff168152602001826fffffffffffffffffffffffffffffffff1681526020019250505060405180910390f35b61075b6004803603602081101561074557600080fd5b8101908080359060200190929190505050613473565b60405180866fffffffffffffffffffffffffffffffff168152602001858152602001848152602001836fffffffffffffffffffffffffffffffff168152602001826fffffffffffffffffffffffffffffffff1681526020019550505050505060405180910390f35b6107f2600480360360208110156107d957600080fd5b81019080803560010b90602001909291905050506134fd565b6040518082815260200191505060405180910390f35b61083e6004803603604081101561081e57600080fd5b810190808035906020019092919080359060200190929190505050613515565b6040518082815260200191505060405180910390f35b61085c613557565b604051808262ffffff16815260200191505060405180910390f35b61087f61356c565b60405180826fffffffffffffffffffffffffffffffff16815260200191505060405180910390f35b6108e3600480360360408110156108bd57600080fd5b81019080803560ff169060200190929190803560ff169060200190929190505050613590565b005b61095f600480360360608110156108fb57600080fd5b81019080803573ffffffffffffffffffffffffffffffffffffffff16906020019092919080356fffffffffffffffffffffffffffffffff16906020019092919080356fffffffffffffffffffffffffffffffff169060200190929190505050613833565b60405180836fffffffffffffffffffffffffffffffff168152602001826fffffffffffffffffffffffffffffffff1681526020019250505060405180910390f35b610a17600480360360208110156109b657600080fd5b81019080803590602001906401000000008111156109d357600080fd5b8201836020820111156109e557600080fd5b80359060200191846020830284011164010000000083111715610a0757600080fd5b9091929391929390505050613d6d565b604051808060200180602001838103835285818151815260200191508051906020019060200280838360005b83811015610a5e578082015181840152602081019050610a43565b50505050905001838103825284818151815260200191508051906020019060200280838360005b83811015610aa0578082015181840152602081019050610a85565b5050505090500194505050505060405180910390f35b610b0e60048036036060811015610acc57600080fd5b81019080803560020b9060200190929190803560020b906020019092919080356fffffffffffffffffffffffffffffffff169060200190929190505050613e3c565b604051808381526020018281526020019250505060405180910390f35b610b6760048036036040811015610b4157600080fd5b81019080803560020b9060200190929190803560020b90602001909291905050506140d3565b604051808460060b81526020018373ffffffffffffffffffffffffffffffffffffffff1681526020018263ffffffff168152602001935050505060405180910390f35b610bb261441d565b604051808273ffffffffffffffffffffffffffffffffffffffff16815260200191505060405180910390f35b610be6614441565b604051808260020b815260200191505060405180910390f35b610c07614465565b604051808273ffffffffffffffffffffffffffffffffffffffff16815260200191505060405180910390f35b610c3b614489565b604051808262ffffff16815260200191505060405180910390f35b610c5e6144ad565b6040518082815260200191505060405180910390f35b610ca360048036036020811015610c8a57600080fd5b81019080803560020b90602001909291905050506144b3565b60405180896fffffffffffffffffffffffffffffffff16815260200188600f0b81526020018781526020018681526020018560060b81526020018473ffffffffffffffffffffffffffffffffffffffff1681526020018363ffffffff16815260200182151581526020019850505050505050505060405180910390f35b610d6260048036036020811015610d3657600080fd5b81019080803573ffffffffffffffffffffffffffffffffffffffff16906020019092919050505061456e565b005b600080610d6f6148dc565b9050600061025882039050600060096000800160199054906101000a900461ffff1661ffff1660016000800160179054906101000a900461ffff160161ffff1681610db657fe5b0661ffff1661ffff8110610dc657fe5b016040518060800160405290816000820160009054906101000a900463ffffffff1663ffffffff1663ffffffff1681526020016000820160049054906101000a900460060b60060b60060b815260200160008201600b9054906101000a900473ffffffffffffffffffffffffffffffffffffffff1673ffffffffffffffffffffffffffffffffffffffff1673ffffffffffffffffffffffffffffffffffffffff16815260200160008201601f9054906101000a900460ff16151515158152505090508060600151610f63576009600061ffff8110610ea057fe5b016040518060800160405290816000820160009054906101000a900463ffffffff1663ffffffff1663ffffffff1681526020016000820160049054906101000a900460060b60060b60060b815260200160008201600b9054906101000a900473ffffffffffffffffffffffffffffffffffffffff1673ffffffffffffffffffffffffffffffffffffffff1673ffffffffffffffffffffffffffffffffffffffff16815260200160008201601f9054906101000a900460ff16151515158152505090505b610f72838260000151846148e4565b15610fc8576000610f85306102586149ac565b5060020b9050600061025863ffffffff1660060b8260060b81610fa457fe5b059050610fbc81670de0b6b3a7640000600080614e19565b95505050505050610ffb565b610ff56000800160009054906101000a900473ffffffffffffffffffffffffffffffffffffffff1661501c565b93505050505b90565b7f000000000000000000000000000000000000000000000000000000000000000081565b60008061102d615062565b60008614156110a4576040517f08c379a00000000000000000000000000000000000000000000000000000000081526004018080602001828103825260028152602001807f415300000000000000000000000000000000000000000000000000000000000081525060200191505060405180910390fd5b6000806040518060e00160405290816000820160009054906101000a900473ffffffffffffffffffffffffffffffffffffffff1673ffffffffffffffffffffffffffffffffffffffff1673ffffffffffffffffffffffffffffffffffffffff1681526020016000820160149054906101000a900460020b60020b60020b81526020016000820160179054906101000a900461ffff1661ffff1661ffff1681526020016000820160199054906101000a900461ffff1661ffff1661ffff16815260200160008201601b9054906101000a900461ffff1661ffff1661ffff16815260200160008201601d9054906101000a900460ff1660ff1660ff16815260200160008201601e9054906101000a900460ff16151515158152505090508060c00151611236576040517f08c379a00000000000000000000000000000000000000000000000000000000081526004018080602001828103825260038152602001807f4c4f4b000000000000000000000000000000000000000000000000000000000081525060200191505060405180910390fd5b876112be57806000015173ffffffffffffffffffffffffffffffffffffffff168673ffffffffffffffffffffffffffffffffffffffff161180156112b9575073fffd8963efd1fc6a506488495d951d5263988d2673ffffffffffffffffffffffffffffffffffffffff168673ffffffffffffffffffffffffffffffffffffffff16105b61132e565b806000015173ffffffffffffffffffffffffffffffffffffffff168673ffffffffffffffffffffffffffffffffffffffff1610801561132d57506401000276a373ffffffffffffffffffffffffffffffffffffffff168673ffffffffffffffffffffffffffffffffffffffff16115b5b6113a0576040517f08c379a00000000000000000000000000000000000000000000000000000000081526004018080602001828103825260038152602001807f53504c000000000000000000000000000000000000000000000000000000000081525060200191505060405180910390fd5b600080600001601e6101000a81548160ff02191690831515021790555060006040518060c001604052808a6113e05760048460a0015160ff16901c6113f3565b60108460a0015160ff16816113f157fe5b065b60ff168152602001600560009054906101000a90046fffffffffffffffffffffffffffffffff166fffffffffffffffffffffffffffffffff1681526020016114396148dc565b63ffffffff168152602001600060060b8152602001600073ffffffffffffffffffffffffffffffffffffffff1681526020016000151581525090506000808913905060006040518060e001604052808b815260200160008152602001856000015173ffffffffffffffffffffffffffffffffffffffff168152602001856020015160020b81526020018c6114cf576002546114d3565b6001545b815260200160006fffffffffffffffffffffffffffffffff16815260200184602001516fffffffffffffffffffffffffffffffff1681525090505b600081600001511415801561155357508873ffffffffffffffffffffffffffffffffffffffff16816040015173ffffffffffffffffffffffffffffffffffffffff1614155b15611bb45761156061913b565b8160400151816000019073ffffffffffffffffffffffffffffffffffffffff16908173ffffffffffffffffffffffffffffffffffffffff16815250506115d882606001517f00000000000000000000000000000000000000000000000000000000000000008e60076150bc909392919063ffffffff16565b826020018360400182151515158152508260020b60020b81525050507ffffffffffffffffffffffffffffffffffffffffffffffffffffffffffff2761860020b816020015160020b121561165d577ffffffffffffffffffffffffffffffffffffffffffffffffffffffffffff27618816020019060020b908160020b815250506116c9565b7ffffffffffffffffffffffffffffffffffffffffffffffffffffffffffff2761860000360020b816020015160020b13156116c8577ffffffffffffffffffffffffffffffffffffffffffffffffffffffffffff27618600003816020019060020b908160020b815250505b5b6116d68160200151615214565b816060019073ffffffffffffffffffffffffffffffffffffffff16908173ffffffffffffffffffffffffffffffffffffffff168152505061171561564f565b600360006101000a81548162ffffff021916908362ffffff1602179055506117dd82604001518d611778578b73ffffffffffffffffffffffffffffffffffffffff16836060015173ffffffffffffffffffffffffffffffffffffffff16116117ac565b8b73ffffffffffffffffffffffffffffffffffffffff16836060015173ffffffffffffffffffffffffffffffffffffffff16105b6117ba5782606001516117bc565b8b5b8460c001518560000151600360009054906101000a900462ffffff166157d6565b85604001856080018660a0018760c0018481525084815250848152508473ffffffffffffffffffffffffffffffffffffffff1673ffffffffffffffffffffffffffffffffffffffff16815250505050508215611886576118468160c00151826080015101615a32565b8260000181815103915081815250506118786118658260a00151615a32565b8360200151615a6890919063ffffffff16565b8260200181815250506118d5565b6118938160a00151615a32565b8260000181815101915081815250506118cb6118b88260c00151836080015101615a32565b8360200151615a8b90919063ffffffff16565b8260200181815250505b6000846000015160ff161115611946576000846000015160ff168260c00151816118fb57fe5b049050808260c0018181510391508181525050808360a001818151019150906fffffffffffffffffffffffffffffffff1690816fffffffffffffffffffffffffffffffff1681525050505b60008260c001516fffffffffffffffffffffffffffffffff1611156119ab5761199b8160c001517001000000000000000000000000000000008460c001516fffffffffffffffffffffffffffffffff16615aae565b8260800181815101915081815250505b806060015173ffffffffffffffffffffffffffffffffffffffff16826040015173ffffffffffffffffffffffffffffffffffffffff161415611b5357806040015115611b25578360a00151611a8357611a2d846040015160008760200151886040015188602001518a606001516009615b88909695949392919063ffffffff16565b85606001866080018273ffffffffffffffffffffffffffffffffffffffff1673ffffffffffffffffffffffffffffffffffffffff168152508260060b60060b815250505060018460a00190151590811515815250505b6000611ad782602001518e611a9a57600154611aa0565b84608001515b8f611aaf578560800151611ab3565b6002545b886080015189606001518a604001516006615dbb909695949392919063ffffffff16565b90508c15611ae6578060000390505b611af48360c0015182615ef7565b8360c001906fffffffffffffffffffffffffffffffff1690816fffffffffffffffffffffffffffffffff1681525050505b8b611b34578060200151611b3d565b60018160200151035b826060019060020b908160020b81525050611bae565b806000015173ffffffffffffffffffffffffffffffffffffffff16826040015173ffffffffffffffffffffffffffffffffffffffff1614611bad57611b9b8260400151616050565b826060019060020b908160020b815250505b5b5061150e565b836020015160020b816060015160020b14611cca57600080611c0286604001518660400151886020015188602001518a606001518b60800151600961644c909695949392919063ffffffff16565b915091508260400151836060015183836000800160008060000160146000800160176000800160198891906101000a81548161ffff021916908361ffff1602179055508791906101000a81548161ffff021916908361ffff1602179055508691906101000a81548162ffffff021916908360020b62ffffff1602179055508591906101000a81548173ffffffffffffffffffffffffffffffffffffffff021916908373ffffffffffffffffffffffffffffffffffffffff160217905550505050505050611d12565b80604001516000800160006101000a81548173ffffffffffffffffffffffffffffffffffffffff021916908373ffffffffffffffffffffffffffffffffffffffff1602179055505b8060c001516fffffffffffffffffffffffffffffffff1683602001516fffffffffffffffffffffffffffffffff1614611d83578060c00151600560006101000a8154816fffffffffffffffffffffffffffffffff02191690836fffffffffffffffffffffffffffffffff1602179055505b8a15611e1a57806080015160018190555060008160a001516fffffffffffffffffffffffffffffffff161115611e15578060a00151600460000160008282829054906101000a90046fffffffffffffffffffffffffffffffff160192506101000a8154816fffffffffffffffffffffffffffffffff02191690836fffffffffffffffffffffffffffffffff1602179055505b611ea7565b806080015160028190555060008160a001516fffffffffffffffffffffffffffffffff161115611ea6578060a00151600460000160108282829054906101000a90046fffffffffffffffffffffffffffffffff160192506101000a8154816fffffffffffffffffffffffffffffffff02191690836fffffffffffffffffffffffffffffffff1602179055505b5b8115158b151514611ec357806020015181600001518b03611ed0565b80600001518a0381602001515b80965081975050508a1561205e576000851215611f1657611f157f00000000000000000000000000000000000000000000000000000000000000008d8760000361667e565b5b6000611f2061687f565b90503373ffffffffffffffffffffffffffffffffffffffff1663fa461e3388888c8c6040518563ffffffff1660e01b815260040180858152602001848152602001806020018281038252848482818152602001925080828437600081840152601f19601f82011690508083019250505095505050505050600060405180830381600087803b158015611fb157600080fd5b505af1158015611fc5573d6000803e3d6000fd5b50505050611fd161687f565b611fe48883616a2990919063ffffffff16565b1115612058576040517f08c379a00000000000000000000000000000000000000000000000000000000081526004018080602001828103825260038152602001807f494941000000000000000000000000000000000000000000000000000000000081525060200191505060405180910390fd5b506121da565b6000861215612096576120957f00000000000000000000000000000000000000000000000000000000000000008d8860000361667e565b5b60006120a0616a43565b90503373ffffffffffffffffffffffffffffffffffffffff1663fa461e3388888c8c6040518563ffffffff1660e01b815260040180858152602001848152602001806020018281038252848482818152602001925080828437600081840152601f19601f82011690508083019250505095505050505050600060405180830381600087803b15801561213157600080fd5b505af1158015612145573d6000803e3d6000fd5b50505050612151616a43565b6121648783616a2990919063ffffffff16565b11156121d8576040517f08c379a00000000000000000000000000000000000000000000000000000000081526004018080602001828103825260038152602001807f494941000000000000000000000000000000000000000000000000000000000081525060200191505060405180910390fd5b505b8b73ffffffffffffffffffffffffffffffffffffffff163373ffffffffffffffffffffffffffffffffffffffff167fc42079f94a6350d7e6235f29174924f928cc2ac818eb64fed8004e115fbcca67888885604001518660c001518760600151604051808681526020018581526020018473ffffffffffffffffffffffffffffffffffffffff168152602001836fffffffffffffffffffffffffffffffff1681526020018260020b81526020019550505050505060405180910390a3600160008001601e6101000a81548160ff02191690831515021790555050505050965096945050505050565b600560009054906101000a90046fffffffffffffffffffffffffffffffff1681565b60048060000160009054906101000a90046fffffffffffffffffffffffffffffffff16908060000160109054906101000a90046fffffffffffffffffffffffffffffffff16905082565b60098161ffff811061233f57600080fd5b016000915090508060000160009054906101000a900463ffffffff16908060000160049054906101000a900460060b9080600001600b9054906101000a900473ffffffffffffffffffffffffffffffffffffffff169080600001601f9054906101000a900460ff16905084565b60008001601e9054906101000a900460ff16612430576040517f08c379a00000000000000000000000000000000000000000000000000000000081526004018080602001828103825260038152602001807f4c4f4b000000000000000000000000000000000000000000000000000000000081525060200191505060405180910390fd5b600080600001601e6101000a81548160ff021916908315150217905550612455615062565b600080600001601b9054906101000a900461ffff169050600061248482846009616bed9092919063ffffffff16565b90508060008001601b6101000a81548161ffff021916908361ffff1602179055508061ffff168261ffff16146124fc577fac49e518f90a358f652e4400164f05a5d8f7e35e7747279bc3a93dbf584e125a8282604051808361ffff1681526020018261ffff1681526020019250505060405180910390a15b5050600160008001601e6101000a81548160ff02191690831515021790555050565b60008060000160009054906101000a900473ffffffffffffffffffffffffffffffffffffffff16908060000160149054906101000a900460020b908060000160179054906101000a900461ffff16908060000160199054906101000a900461ffff169080600001601b9054906101000a900461ffff169080600001601d9054906101000a900460ff169080600001601e9054906101000a900460ff16905087565b60008060008001601e9054906101000a900460ff16612646576040517f08c379a00000000000000000000000000000000000000000000000000000000081526004018080602001828103825260038152602001807f4c4f4b000000000000000000000000000000000000000000000000000000000081525060200191505060405180910390fd5b600080600001601e6101000a81548160ff0219169083151502179055506000856fffffffffffffffffffffffffffffffff161161268257600080fd5b6000806126e760405180608001604052808c73ffffffffffffffffffffffffffffffffffffffff1681526020018b60020b81526020018a60020b81526020016126dc8a6fffffffffffffffffffffffffffffffff16616ce3565b600f0b815250616cfc565b925092505081935080925060008060008611156127095761270661687f565b91505b600085111561271d5761271a616a43565b90505b3373ffffffffffffffffffffffffffffffffffffffff1663d348799787878b8b6040518563ffffffff1660e01b815260040180858152602001848152602001806020018281038252848482818152602001925080828437600081840152601f19601f82011690508083019250505095505050505050600060405180830381600087803b1580156127ac57600080fd5b505af11580156127c0573d6000803e3d6000fd5b50505050600086111561285d576127d561687f565b6127e88784616a2990919063ffffffff16565b111561285c576040517f08c379a00000000000000000000000000000000000000000000000000000000081526004018080602001828103825260028152602001807f4d3000000000000000000000000000000000000000000000000000000000000081525060200191505060405180910390fd5b5b60008511156128f65761286e616a43565b6128818683616a2990919063ffffffff16565b11156128f5576040517f08c379a00000000000000000000000000000000000000000000000000000000081526004018080602001828103825260028152602001807f4d3100000000000000000000000000000000000000000000000000000000000081525060200191505060405180910390fd5b5b8960020b8b60020b8d73ffffffffffffffffffffffffffffffffffffffff167f7a53080ba414158be7ec69b987b5fb7d07dee101fe85488f0853ae16239d0bde338d8b8b604051808573ffffffffffffffffffffffffffffffffffffffff168152602001846fffffffffffffffffffffffffffffffff16815260200183815260200182815260200194505050505060405180910390a450505050600160008001601e6101000a81548160ff021916908315150217905550965096945050505050565b60025481565b60008001601e9054906101000a900460ff16612a42576040517f08c379a00000000000000000000000000000000000000000000000000000000081526004018080602001828103825260038152602001807f4c4f4b000000000000000000000000000000000000000000000000000000000081525060200191505060405180910390fd5b600080600001601e6101000a81548160ff021916908315150217905550612a67615062565b6000600560009054906101000a90046fffffffffffffffffffffffffffffffff1690506000816fffffffffffffffffffffffffffffffff1611612b12576040517f08c379a00000000000000000000000000000000000000000000000000000000081526004018080602001828103825260018152602001807f4c0000000000000000000000000000000000000000000000000000000000000081525060200191505060405180910390fd5b6000612b47867f000000000000000000000000000000000000000000000000000000000000000062ffffff16620f4240617020565b90506000612b7e867f000000000000000000000000000000000000000000000000000000000000000062ffffff16620f4240617020565b90506000612b8a61687f565b90506000612b96616a43565b90506000891115612bcd57612bcc7f00000000000000000000000000000000000000000000000000000000000000008b8b61667e565b5b6000881115612c0257612c017f00000000000000000000000000000000000000000000000000000000000000008b8a61667e565b5b3373ffffffffffffffffffffffffffffffffffffffff1663e9cbafb085858a8a6040518563ffffffff1660e01b815260040180858152602001848152602001806020018281038252848482818152602001925080828437600081840152601f19601f82011690508083019250505095505050505050600060405180830381600087803b158015612c9157600080fd5b505af1158015612ca5573d6000803e3d6000fd5b505050506000612cb361687f565b90506000612cbf616a43565b905081612cd58786616a2990919063ffffffff16565b1115612d49576040517f08c379a00000000000000000000000000000000000000000000000000000000081526004018080602001828103825260028152602001807f463000000000000000000000000000000000000000000000000000000000000081525060200191505060405180910390fd5b80612d5d8685616a2990919063ffffffff16565b1115612dd1576040517f08c379a00000000000000000000000000000000000000000000000000000000081526004018080602001828103825260028152602001807f463100000000000000000000000000000000000000000000000000000000000081525060200191505060405180910390fd5b60008483039050600084830390506000821115612ee9576000601060008001601d9054906101000a900460ff1660ff1681612e0857fe5b0690506000808260ff1614612e29578160ff168481612e2357fe5b04612e2c565b60005b90506000816fffffffffffffffffffffffffffffffff161115612ea75780600460000160008282829054906101000a90046fffffffffffffffffffffffffffffffff160192506101000a8154816fffffffffffffffffffffffffffffffff02191690836fffffffffffffffffffffffffffffffff1602179055505b612ed78185037001000000000000000000000000000000008d6fffffffffffffffffffffffffffffffff16615aae565b60016000828254019250508190555050505b6000811115612fed576000600460008001601d9054906101000a900460ff1660ff16901c90506000808260ff1614612f2d578160ff168381612f2757fe5b04612f30565b60005b90506000816fffffffffffffffffffffffffffffffff161115612fab5780600460000160108282829054906101000a90046fffffffffffffffffffffffffffffffff160192506101000a8154816fffffffffffffffffffffffffffffffff02191690836fffffffffffffffffffffffffffffffff1602179055505b612fdb8184037001000000000000000000000000000000008d6fffffffffffffffffffffffffffffffff16615aae565b60026000828254019250508190555050505b8d73ffffffffffffffffffffffffffffffffffffffff163373ffffffffffffffffffffffffffffffffffffffff167fbdbdb71d7860376ba52b25a5028beea23581364a40522f6bcfb86bb1f2dca6338f8f86866040518085815260200184815260200183815260200182815260200194505050505060405180910390a3505050505050505050600160008001601e6101000a81548160ff0219169083151502179055505050505050565b60008060008001601e9054906101000a900460ff1661311e576040517f08c379a00000000000000000000000000000000000000000000000000000000081526004018080602001828103825260038152602001807f4c4f4b000000000000000000000000000000000000000000000000000000000081525060200191505060405180910390fd5b600080600001601e6101000a81548160ff0219169083151502179055506000613155338888600861707e909392919063ffffffff16565b90508060030160009054906101000a90046fffffffffffffffffffffffffffffffff166fffffffffffffffffffffffffffffffff16856fffffffffffffffffffffffffffffffff16116131a857846131ca565b8060030160009054906101000a90046fffffffffffffffffffffffffffffffff165b92508060030160109054906101000a90046fffffffffffffffffffffffffffffffff166fffffffffffffffffffffffffffffffff16846fffffffffffffffffffffffffffffffff161161321d578361323f565b8060030160109054906101000a90046fffffffffffffffffffffffffffffffff165b91506000836fffffffffffffffffffffffffffffffff1611156132f657828160030160008282829054906101000a90046fffffffffffffffffffffffffffffffff160392506101000a8154816fffffffffffffffffffffffffffffffff02191690836fffffffffffffffffffffffffffffffff1602179055506132f57f000000000000000000000000000000000000000000000000000000000000000089856fffffffffffffffffffffffffffffffff1661667e565b5b6000826fffffffffffffffffffffffffffffffff1611156133ab57818160030160108282829054906101000a90046fffffffffffffffffffffffffffffffff160392506101000a8154816fffffffffffffffffffffffffffffffff02191690836fffffffffffffffffffffffffffffffff1602179055506133aa7f000000000000000000000000000000000000000000000000000000000000000089846fffffffffffffffffffffffffffffffff1661667e565b5b8560020b8760020b3373ffffffffffffffffffffffffffffffffffffffff167f70935338e69775456a85ddef226c395fb668b63fa0115f5f20610b388e6ca9c08b8787604051808473ffffffffffffffffffffffffffffffffffffffff168152602001836fffffffffffffffffffffffffffffffff168152602001826fffffffffffffffffffffffffffffffff168152602001935050505060405180910390a450600160008001601e6101000a81548160ff0219169083151502179055509550959350505050565b60086020528060005260406000206000915090508060000160009054906101000a90046fffffffffffffffffffffffffffffffff16908060010154908060020154908060030160009054906101000a90046fffffffffffffffffffffffffffffffff16908060030160109054906101000a90046fffffffffffffffffffffffffffffffff16905085565b60076020528060005260406000206000915090505481565b6000808214156135285760009050613551565b60008284116135395783830361353d565b8284035b90508261271082028161354c57fe5b049150505b92915050565b600360009054906101000a900462ffffff1681565b7f000000000000000000000000000000000000000000000000000000000000000081565b60008001601e9054906101000a900460ff16613614576040517f08c379a00000000000000000000000000000000000000000000000000000000081526004018080602001828103825260038152602001807f4c4f4b000000000000000000000000000000000000000000000000000000000081525060200191505060405180910390fd5b600080600001601e6101000a81548160ff0219169083151502179055507f000000000000000000000000000000000000000000000000000000000000000073ffffffffffffffffffffffffffffffffffffffff16638da5cb5b6040518163ffffffff1660e01b815260040160206040518083038186803b15801561369757600080fd5b505afa1580156136ab573d6000803e3d6000fd5b505050506040513d60208110156136c157600080fd5b810190808051906020019092919050505073ffffffffffffffffffffffffffffffffffffffff163373ffffffffffffffffffffffffffffffffffffffff161461370957600080fd5b60008260ff16148061372f575060048260ff161015801561372e5750600a8260ff1611155b5b801561375d575060008160ff16148061375c575060048160ff161015801561375b5750600a8160ff1611155b5b5b61376657600080fd5b600080600001601d9054906101000a900460ff16905060048260ff16901b830160008001601d6101000a81548160ff021916908360ff1602179055507f973d8d92bb299f4af6ce49b52a8adb85ae46b9f214c4c4fc06ac77401237b13360108260ff16816137d057fe5b0660048360ff16901c8585604051808560ff1681526020018460ff1681526020018360ff1681526020018260ff16815260200194505050505060405180910390a150600160008001601e6101000a81548160ff0219169083151502179055505050565b60008060008001601e9054906101000a900460ff166138ba576040517f08c379a00000000000000000000000000000000000000000000000000000000081526004018080602001828103825260038152602001807f4c4f4b000000000000000000000000000000000000000000000000000000000081525060200191505060405180910390fd5b600080600001601e6101000a81548160ff0219169083151502179055507f000000000000000000000000000000000000000000000000000000000000000073ffffffffffffffffffffffffffffffffffffffff16638da5cb5b6040518163ffffffff1660e01b815260040160206040518083038186803b15801561393d57600080fd5b505afa158015613951573d6000803e3d6000fd5b505050506040513d602081101561396757600080fd5b810190808051906020019092919050505073ffffffffffffffffffffffffffffffffffffffff163373ffffffffffffffffffffffffffffffffffffffff16146139af57600080fd5b600460000160009054906101000a90046fffffffffffffffffffffffffffffffff166fffffffffffffffffffffffffffffffff16846fffffffffffffffffffffffffffffffff1611613a015783613a24565b600460000160009054906101000a90046fffffffffffffffffffffffffffffffff165b9150600460000160109054906101000a90046fffffffffffffffffffffffffffffffff166fffffffffffffffffffffffffffffffff16836fffffffffffffffffffffffffffffffff1611613a785782613a9b565b600460000160109054906101000a90046fffffffffffffffffffffffffffffffff165b90506000826fffffffffffffffffffffffffffffffff161115613baa57600460000160009054906101000a90046fffffffffffffffffffffffffffffffff166fffffffffffffffffffffffffffffffff16826fffffffffffffffffffffffffffffffff161415613b0f578180600190039250505b81600460000160008282829054906101000a90046fffffffffffffffffffffffffffffffff160392506101000a8154816fffffffffffffffffffffffffffffffff02191690836fffffffffffffffffffffffffffffffff160217905550613ba97f000000000000000000000000000000000000000000000000000000000000000086846fffffffffffffffffffffffffffffffff1661667e565b5b6000816fffffffffffffffffffffffffffffffff161115613cb757600460000160109054906101000a90046fffffffffffffffffffffffffffffffff166fffffffffffffffffffffffffffffffff16816fffffffffffffffffffffffffffffffff161415613c1c578080600190039150505b80600460000160108282829054906101000a90046fffffffffffffffffffffffffffffffff160392506101000a8154816fffffffffffffffffffffffffffffffff02191690836fffffffffffffffffffffffffffffffff160217905550613cb67f000000000000000000000000000000000000000000000000000000000000000086836fffffffffffffffffffffffffffffffff1661667e565b5b8473ffffffffffffffffffffffffffffffffffffffff163373ffffffffffffffffffffffffffffffffffffffff167f596b573906218d3411850b26a6b437d6c4522fdb43d2d2386263f86d50b8b151848460405180836fffffffffffffffffffffffffffffffff168152602001826fffffffffffffffffffffffffffffffff1681526020019250505060405180910390a3600160008001601e6101000a81548160ff021916908315150217905550935093915050565b606080613d78615062565b613e31613d836148dc565b858580806020026020016040519081016040528093929190818152602001838360200280828437600081840152601f19601f820116905080830192505050505050506000800160149054906101000a900460020b6000800160179054906101000a900461ffff16600560009054906101000a90046fffffffffffffffffffffffffffffffff166000800160199054906101000a900461ffff1660096170f7909695949392919063ffffffff16565b915091509250929050565b60008060008001601e9054906101000a900460ff16613ec3576040517f08c379a00000000000000000000000000000000000000000000000000000000081526004018080602001828103825260038152602001807f4c4f4b000000000000000000000000000000000000000000000000000000000081525060200191505060405180910390fd5b600080600001601e6101000a81548160ff0219169083151502179055506000806000613f4a60405180608001604052803373ffffffffffffffffffffffffffffffffffffffff1681526020018a60020b81526020018960020b8152602001613f3c896fffffffffffffffffffffffffffffffff16616ce3565b600003600f0b815250616cfc565b9250925092508160000394508060000393506000851180613f6b5750600084115b1561403357848360030160009054906101000a90046fffffffffffffffffffffffffffffffff1601848460030160109054906101000a90046fffffffffffffffffffffffffffffffff16018460030160008660030160108491906101000a8154816fffffffffffffffffffffffffffffffff02191690836fffffffffffffffffffffffffffffffff1602179055508391906101000a8154816fffffffffffffffffffffffffffffffff02191690836fffffffffffffffffffffffffffffffff16021790555050505b8660020b8860020b3373ffffffffffffffffffffffffffffffffffffffff167f0c396cd989a39f4459b5fa1aed6a9a8dcdbc45908acfd67e028cd568da98982c89898960405180846fffffffffffffffffffffffffffffffff168152602001838152602001828152602001935050505060405180910390a4505050600160008001601e6101000a81548160ff021916908315150217905550935093915050565b60008060006140e0615062565b6140ea85856172b2565b6000806000806000806000600660008d60020b60020b815260200190815260200160002090506000600660008d60020b60020b8152602001908152602001600020905060008260030160009054906101000a900460060b8360030160079054906101000a900473ffffffffffffffffffffffffffffffffffffffff1684600301601b9054906101000a900463ffffffff1685600301601f9054906101000a900460ff16809450819850829a50839c5050505050806141a757600080fd5b60008260030160009054906101000a900460060b8360030160079054906101000a900473ffffffffffffffffffffffffffffffffffffffff1684600301601b9054906101000a900463ffffffff1685600301601f9054906101000a900460ff16809450819850829a50839c50505050508061422157600080fd5b505050506000806040518060e00160405290816000820160009054906101000a900473ffffffffffffffffffffffffffffffffffffffff1673ffffffffffffffffffffffffffffffffffffffff1673ffffffffffffffffffffffffffffffffffffffff1681526020016000820160149054906101000a900460020b60020b60020b81526020016000820160179054906101000a900461ffff1661ffff1661ffff1681526020016000820160199054906101000a900461ffff1661ffff1661ffff16815260200160008201601b9054906101000a900461ffff1661ffff1661ffff16815260200160008201601d9054906101000a900460ff1660ff1660ff16815260200160008201601e9054906101000a900460ff16151515158152505090508b60020b816020015160020b121561436d5785870384860383850399509950995050505050505050614416565b8a60020b816020015160020b12156143ff5760006143896148dc565b90506000806143d783600086602001518760400151600560009054906101000a90046fffffffffffffffffffffffffffffffff1689606001516009615b88909695949392919063ffffffff16565b91509150888a830303878983030386888603039c509c509c5050505050505050505050614416565b868603858503848403995099509950505050505050505b9250925092565b7f000000000000000000000000000000000000000000000000000000000000000081565b7f000000000000000000000000000000000000000000000000000000000000000081565b7f000000000000000000000000000000000000000000000000000000000000000081565b7f000000000000000000000000000000000000000000000000000000000000000081565b60015481565b60066020528060005260406000206000915090508060000160009054906101000a90046fffffffffffffffffffffffffffffffff16908060000160109054906101000a9004600f0b908060010154908060020154908060030160009054906101000a900460060b908060030160079054906101000a900473ffffffffffffffffffffffffffffffffffffffff169080600301601b9054906101000a900463ffffffff169080600301601f9054906101000a900460ff16905088565b60008060000160009054906101000a900473ffffffffffffffffffffffffffffffffffffffff1673ffffffffffffffffffffffffffffffffffffffff161461461e576040517f08c379a00000000000000000000000000000000000000000000000000000000081526004018080602001828103825260028152602001807f414900000000000000000000000000000000000000000000000000000000000081525060200191505060405180910390fd5b600061462982616050565b90506000806146496146396148dc565b600961746c90919063ffffffff16565b915091506040518060e001604052808573ffffffffffffffffffffffffffffffffffffffff1681526020018460020b8152602001600061ffff1681526020018361ffff1681526020018261ffff168152602001600060ff168152602001600115158152506000808201518160000160006101000a81548173ffffffffffffffffffffffffffffffffffffffff021916908373ffffffffffffffffffffffffffffffffffffffff16021790555060208201518160000160146101000a81548162ffffff021916908360020b62ffffff16021790555060408201518160000160176101000a81548161ffff021916908361ffff16021790555060608201518160000160196101000a81548161ffff021916908361ffff160217905550608082015181600001601b6101000a81548161ffff021916908361ffff16021790555060a082015181600001601d6101000a81548160ff021916908360ff16021790555060c082015181600001601e6101000a81548160ff0219169083151502179055509050507f98636036cb66a9c19a37435efc1e90142190214e8abeb821bdba3f2990dd4c958484604051808373ffffffffffffffffffffffffffffffffffffffff1681526020018260020b81526020019250505060405180910390a150505050565b600080828360020b7ffffffffffffffffffffffffffffffffffffffffffffffffffffffffffff2761860020b8161485b57fe5b050290506000838460020b7ffffffffffffffffffffffffffffffffffffffffffffffffffffffffffff2761860000360020b8161489457fe5b05029050600060018560020b84840360020b816148ad57fe5b050190508062ffffff166fffffffffffffffffffffffffffffffff8016816148d157fe5b049350505050919050565b600042905090565b60008363ffffffff168363ffffffff161115801561490e57508363ffffffff168263ffffffff1611155b1561492a578163ffffffff168363ffffffff16111590506149a5565b60008463ffffffff168463ffffffff1611614952576401000000008463ffffffff160161495a565b8363ffffffff165b64ffffffffff16905060008563ffffffff168463ffffffff161161498b576401000000008463ffffffff1601614993565b8363ffffffff165b64ffffffffff16905080821115925050505b9392505050565b60008060008363ffffffff161415614a2c576040517f08c379a00000000000000000000000000000000000000000000000000000000081526004018080602001828103825260028152602001807f425000000000000000000000000000000000000000000000000000000000000081525060200191505060405180910390fd5b6000600267ffffffffffffffff81118015614a4657600080fd5b50604051908082528060200260200182016040528015614a755781602001602082028036833780820191505090505b5090508381600081518110614a8657fe5b602002602001019063ffffffff16908163ffffffff1681525050600081600181518110614aaf57fe5b602002602001019063ffffffff16908163ffffffff16815250506000808673ffffffffffffffffffffffffffffffffffffffff1663883bdbfd846040518263ffffffff1660e01b81526004018080602001828103825283818151815260200191508051906020019060200280838360005b83811015614b3b578082015181840152602081019050614b20565b505050509050019250505060006040518083038186803b158015614b5e57600080fd5b505afa158015614b72573d6000803e3d6000fd5b505050506040513d6000823e3d601f19601f820116820180604052506040811015614b9c57600080fd5b8101908080516040519392919084640100000000821115614bbc57600080fd5b83820191506020820185811115614bd257600080fd5b8251866020820283011164010000000082111715614bef57600080fd5b8083526020830192505050908051906020019060200280838360005b83811015614c26578082015181840152602081019050614c0b565b5050505090500160405260200180516040519392919084640100000000821115614c4f57600080fd5b83820191506020820185811115614c6557600080fd5b8251866020820283011164010000000082111715614c8257600080fd5b8083526020830192505050908051906020019060200280838360005b83811015614cb9578082015181840152602081019050614c9e565b5050505090500160405250505091509150600082600081518110614cd957fe5b602002602001015183600181518110614cee57fe5b6020026020010151039050600082600081518110614d0857fe5b602002602001015183600181518110614d1d57fe5b60200260200101510390508763ffffffff168260060b81614d3a57fe5b05965060008260060b128015614d66575060008863ffffffff168360060b81614d5f57fe5b0760060b14155b15614d75578680600190039750505b600073ffffffffffffffffffffffffffffffffffffffff80168963ffffffff1602905060208273ffffffffffffffffffffffffffffffffffffffff1677ffffffffffffffffffffffffffffffffffffffffffffffff16901b77ffffffffffffffffffffffffffffffffffffffffffffffff168177ffffffffffffffffffffffffffffffffffffffffffffffff1681614e0957fe5b0496505050505050509250929050565b600080614e2586615214565b90506fffffffffffffffffffffffffffffffff80168173ffffffffffffffffffffffffffffffffffffffff1611614f365760008173ffffffffffffffffffffffffffffffffffffffff168273ffffffffffffffffffffffffffffffffffffffff160290508373ffffffffffffffffffffffffffffffffffffffff168573ffffffffffffffffffffffffffffffffffffffff1610614ef757614ef27801000000000000000000000000000000000000000000000000876fffffffffffffffffffffffffffffffff1683615aae565b614f2e565b614f2d81876fffffffffffffffffffffffffffffffff167801000000000000000000000000000000000000000000000000615aae565b5b925050615013565b6000614f788273ffffffffffffffffffffffffffffffffffffffff168373ffffffffffffffffffffffffffffffffffffffff1668010000000000000000615aae565b90508373ffffffffffffffffffffffffffffffffffffffff168573ffffffffffffffffffffffffffffffffffffffff1610614fe057614fdb700100000000000000000000000000000000876fffffffffffffffffffffffffffffffff1683615aae565b61500f565b61500e81876fffffffffffffffffffffffffffffffff16700100000000000000000000000000000000615aae565b5b9250505b50949350505050565b600060c0670de0b6b3a76400008373ffffffffffffffffffffffffffffffffffffffff168473ffffffffffffffffffffffffffffffffffffffff160202901c9050919050565b7f000000000000000000000000000000000000000000000000000000000000000073ffffffffffffffffffffffffffffffffffffffff163073ffffffffffffffffffffffffffffffffffffffff16146150ba57600080fd5b565b60008060008460020b8660020b816150d057fe5b05905060008660020b1280156150f9575060008560020b8760020b816150f257fe5b0760020b14155b15615108578080600190039150505b831561518c5760008061511a83617592565b9150915060008160ff166001901b60018360ff166001901b030190506000818b60008660010b60010b815260200190815260200160002054169050600081141595508561516e57888360ff16860302615181565b88615178826175b5565b840360ff168603025b96505050505061520a565b60008061519b60018401617592565b91509150600060018260ff166001901b031990506000818b60008660010b60010b81526020019081526020016000205416905060008114159550856151ed57888360ff0360ff16600187010102615203565b88836151f883617690565b0360ff166001870101025b9650505050505b5094509492505050565b60008060008360020b1261522b578260020b615233565b8260020b6000035b90507ffffffffffffffffffffffffffffffffffffffffffffffffffffffffffff2761860000360020b8111156152d1576040517f08c379a00000000000000000000000000000000000000000000000000000000081526004018080602001828103825260018152602001807f540000000000000000000000000000000000000000000000000000000000000081525060200191505060405180910390fd5b6000806001831614156152f557700100000000000000000000000000000000615307565b6ffffcb933bd6fad37aa2d162d1a5940015b70ffffffffffffffffffffffffffffffffff169050600060028316146153415760806ffff97272373d413259a46990580e213a8202901c90505b600060048316146153665760806ffff2e50f5f656932ef12357cf3c7fdcc8202901c90505b6000600883161461538b5760806fffe5caca7e10e4e61c3624eaa0941cd08202901c90505b600060108316146153b05760806fffcb9843d60f6159c9db58835c9266448202901c90505b600060208316146153d55760806fff973b41fa98c081472e6896dfb254c08202901c90505b600060408316146153fa5760806fff2ea16466c96a3843ec78b326b528618202901c90505b6000608083161461541f5760806ffe5dee046a99a2a811c461f1969c30538202901c90505b60006101008316146154455760806ffcbe86c7900a88aedcffc83b479aa3a48202901c90505b600061020083161461546b5760806ff987a7253ac413176f2b074cf7815e548202901c90505b60006104008316146154915760806ff3392b0822b70005940c7a398e4b70f38202901c90505b60006108008316146154b75760806fe7159475a2c29b7443b29c7fa6e889d98202901c90505b60006110008316146154dd5760806fd097f3bdfd2022b8845ad8f792aa58258202901c90505b60006120008316146155035760806fa9f746462d870fdf8a65dc1f90e061e58202901c90505b60006140008316146155295760806f70d869a156d2a1b890bb3df62baf32f78202901c90505b600061800083161461554f5760806f31be135f97d08fd981231505542fcfa68202901c90505b6000620100008316146155765760806f09aa508b5b7a84e1c677de54f3e99bc98202901c90505b60006202000083161461559c5760806e5d6af8dedb81196699c329225ee6048202901c90505b6000620400008316146155c15760806d2216e584f5fa1ea926041bedfe988202901c90505b6000620800008316146155e45760806b048a170391f7dc42444e8fa28202901c90505b60008460020b131561561d57807fffffffffffffffffffffffffffffffffffffffffffffffffffffffffffffffff8161561957fe5b0490505b6000640100000000828161562d57fe5b061461563a57600161563d565b60005b60ff16602082901c0192505050919050565b60008061567f6000800160009054906101000a900473ffffffffffffffffffffffffffffffffffffffff1661501c565b905060003073ffffffffffffffffffffffffffffffffffffffff166305ecd0036040518163ffffffff1660e01b815260040160206040518083038186803b1580156156c957600080fd5b505afa1580156156dd573d6000803e3d6000fd5b505050506040513d60208110156156f357600080fd5b8101908080519060200190929190505050905060003073ffffffffffffffffffffffffffffffffffffffff166355abbe8f84846040518363ffffffff1660e01b8152600401808381526020018281526020019250505060206040518083038186803b15801561576157600080fd5b505afa158015615775573d6000803e3d6000fd5b505050506040513d602081101561578b57600080fd5b8101908080519060200190929190505050905060328110156157b4576101f493505050506157d3565b60968111156157ca5761271093505050506157d3565b610bb893505050505b90565b60008060008060008873ffffffffffffffffffffffffffffffffffffffff168a73ffffffffffffffffffffffffffffffffffffffff1610159050600080881215905080156158855760006158388989620f42400362ffffff16620f4240615aae565b9050826158515761584c8c8c8c60016177b7565b61585f565b61585e8b8d8c6001617891565b5b9550858110615870578a965061587f565b61587c8c8b83866179c7565b96505b506158d1565b8161589c576158978b8b8b6000617891565b6158aa565b6158a98a8c8b60006177b7565b5b93508388600003106158be578995506158d0565b6158cd8b8a8a60000385617a39565b95505b5b60008673ffffffffffffffffffffffffffffffffffffffff168b73ffffffffffffffffffffffffffffffffffffffff161490508215615958578080156159145750815b61592a57615925878d8c6001617891565b61592c565b855b9550808015615939575081155b61594f5761594a878d8c60006177b7565b615951565b845b94506159a2565b8080156159625750815b615978576159738c888c60016177b7565b61597a565b855b9550808015615987575081155b61599d576159988c888c6000617891565b61599f565b845b94505b811580156159b257508860000385115b156159be578860000394505b8180156159f757508a73ffffffffffffffffffffffffffffffffffffffff168773ffffffffffffffffffffffffffffffffffffffff1614155b15615a06578589039350615a23565b615a20868962ffffff168a620f42400362ffffff16617020565b93505b50505095509550955095915050565b60007f80000000000000000000000000000000000000000000000000000000000000008210615a6057600080fd5b819050919050565b6000808212151515838385039250821315151514615a8557600080fd5b92915050565b6000808212151515838385019250821215151514615aa857600080fd5b92915050565b600080600080198587098587029250828110838203039150506000811415615ae95760008411615add57600080fd5b83820492505050615b81565b808411615af557600080fd5b600084868809905082811182039150808303925060008586600003169050808604955080840493506001818260000304019050808302841793506000600287600302189050808702600203810290508087026002038102905080870260020381029050808702600203810290508087026002038102905080870260020381029050808502955050505050505b9392505050565b60008060008763ffffffff161415615ca9576000898661ffff1661ffff8110615bad57fe5b016040518060800160405290816000820160009054906101000a900463ffffffff1663ffffffff1663ffffffff1681526020016000820160049054906101000a900460060b60060b60060b815260200160008201600b9054906101000a900473ffffffffffffffffffffffffffffffffffffffff1673ffffffffffffffffffffffffffffffffffffffff1673ffffffffffffffffffffffffffffffffffffffff16815260200160008201601f9054906101000a900460ff16151515158152505090508863ffffffff16816000015163ffffffff1614615c9557615c92818a8988617aab565b90505b806020015181604001519250925050615daf565b60008789039050600080615cc28c8c858c8c8c8c617b96565b91509150816000015163ffffffff168363ffffffff161415615cf4578160200151826040015194509450505050615daf565b806000015163ffffffff168363ffffffff161415615d22578060200151816040015194509450505050615daf565b60008260000151826000015103905060008360000151850390508063ffffffff168263ffffffff16856020015185602001510360060b81615d5f57fe5b05028460200151018263ffffffff168263ffffffff16866040015186604001510373ffffffffffffffffffffffffffffffffffffffff160281615d9e57fe5b048560400151019650965050505050505b97509795505050505050565b6000808860008960020b60020b815260200190815260200160002090508060010154870381600101819055508060020154860381600201819055508060030160079054906101000a900473ffffffffffffffffffffffffffffffffffffffff1685038160030160076101000a81548173ffffffffffffffffffffffffffffffffffffffff021916908373ffffffffffffffffffffffffffffffffffffffff1602179055508060030160009054906101000a900460060b84038160030160006101000a81548166ffffffffffffff021916908360060b66ffffffffffffff16021790555080600301601b9054906101000a900463ffffffff16830381600301601b6101000a81548163ffffffff021916908363ffffffff1602179055508060000160109054906101000a9004600f0b915050979650505050505050565b60008082600f0b1215615faa57826fffffffffffffffffffffffffffffffff168260000384039150816fffffffffffffffffffffffffffffffff1610615fa5576040517f08c379a00000000000000000000000000000000000000000000000000000000081526004018080602001828103825260028152602001807f4c5300000000000000000000000000000000000000000000000000000000000081525060200191505060405180910390fd5b61604a565b826fffffffffffffffffffffffffffffffff168284019150816fffffffffffffffffffffffffffffffff161015616049576040517f08c379a00000000000000000000000000000000000000000000000000000000081526004018080602001828103825260028152602001807f4c4100000000000000000000000000000000000000000000000000000000000081525060200191505060405180910390fd5b5b92915050565b60006401000276a373ffffffffffffffffffffffffffffffffffffffff168273ffffffffffffffffffffffffffffffffffffffff16101580156160d2575073fffd8963efd1fc6a506488495d951d5263988d2673ffffffffffffffffffffffffffffffffffffffff168273ffffffffffffffffffffffffffffffffffffffff16105b616144576040517f08c379a00000000000000000000000000000000000000000000000000000000081526004018080602001828103825260018152602001807f520000000000000000000000000000000000000000000000000000000000000081525060200191505060405180910390fd5b600060208373ffffffffffffffffffffffffffffffffffffffff16901b9050600081905060006fffffffffffffffffffffffffffffffff821160071b808217915082811c92505067ffffffffffffffff821160061b808217915082811c92505063ffffffff821160051b808217915082811c92505061ffff821160041b808217915082811c92505060ff821160031b808217915082811c925050600f821160021b808217915082811c9250506003821160011b808217915082811c925050600182118082179150506080811061622257607f810383901c915061622c565b80607f0383901b91505b6000604060808303901b9050828302607f1c92508260801c80603f1b8217915083811c935050828302607f1c92508260801c80603e1b8217915083811c935050828302607f1c92508260801c80603d1b8217915083811c935050828302607f1c92508260801c80603c1b8217915083811c935050828302607f1c92508260801c80603b1b8217915083811c935050828302607f1c92508260801c80603a1b8217915083811c935050828302607f1c92508260801c8060391b8217915083811c935050828302607f1c92508260801c8060381b8217915083811c935050828302607f1c92508260801c8060371b8217915083811c935050828302607f1c92508260801c8060361b8217915083811c935050828302607f1c92508260801c8060351b8217915083811c935050828302607f1c92508260801c8060341b8217915083811c935050828302607f1c92508260801c8060331b8217915083811c935050828302607f1c92508260801c8060321b82179150506000693627a301d71055774c8582029050600060806f028f6481ab7f045a5af012a19d003aaa8303901d9050600060806fdb2df09e81959a81455e260799a0632f8401901d90508060020b8260020b1461643c578873ffffffffffffffffffffffffffffffffffffffff1661641382615214565b73ffffffffffffffffffffffffffffffffffffffff1611156164355781616437565b805b61643e565b815b975050505050505050919050565b6000806000898961ffff1661ffff811061646257fe5b016040518060800160405290816000820160009054906101000a900463ffffffff1663ffffffff1663ffffffff1681526020016000820160049054906101000a900460060b60060b60060b815260200160008201600b9054906101000a900473ffffffffffffffffffffffffffffffffffffffff1673ffffffffffffffffffffffffffffffffffffffff1673ffffffffffffffffffffffffffffffffffffffff16815260200160008201601f9054906101000a900460ff16151515158152505090508763ffffffff16816000015163ffffffff1614156165485788859250925050616672565b8461ffff168461ffff1611801561656957506001850361ffff168961ffff16145b156165765783915061657a565b8491505b8161ffff1660018a0161ffff168161658e57fe5b06925061659d81898989617aab565b8a8461ffff1661ffff81106165ae57fe5b0160008201518160000160006101000a81548163ffffffff021916908363ffffffff16021790555060208201518160000160046101000a81548166ffffffffffffff021916908360060b66ffffffffffffff160217905550604082015181600001600b6101000a81548173ffffffffffffffffffffffffffffffffffffffff021916908373ffffffffffffffffffffffffffffffffffffffff160217905550606082015181600001601f6101000a81548160ff021916908315150217905550905050505b97509795505050505050565b6000808473ffffffffffffffffffffffffffffffffffffffff1663a9059cbb60e01b8585604051602401808373ffffffffffffffffffffffffffffffffffffffff16815260200182815260200192505050604051602081830303815290604052907bffffffffffffffffffffffffffffffffffffffffffffffffffffffff19166020820180517bffffffffffffffffffffffffffffffffffffffffffffffffffffffff83818316178352505050506040518082805190602001908083835b6020831061675f578051825260208201915060208101905060208303925061673c565b6001836020036101000a0380198251168184511680821785525050505050509050019150506000604051808303816000865af19150503d80600081146167c1576040519150601f19603f3d011682016040523d82523d6000602084013e6167c6565b606091505b5091509150818015616806575060008151148061680557508080602001905160208110156167f357600080fd5b81019080805190602001909291905050505b5b616878576040517f08c379a00000000000000000000000000000000000000000000000000000000081526004018080602001828103825260028152602001807f544600000000000000000000000000000000000000000000000000000000000081525060200191505060405180910390fd5b5050505050565b60008060007f000000000000000000000000000000000000000000000000000000000000000073ffffffffffffffffffffffffffffffffffffffff166370a0823160e01b30604051602401808273ffffffffffffffffffffffffffffffffffffffff168152602001915050604051602081830303815290604052907bffffffffffffffffffffffffffffffffffffffffffffffffffffffff19166020820180517bffffffffffffffffffffffffffffffffffffffffffffffffffffffff83818316178352505050506040518082805190602001908083835b6020831061697a5780518252602082019150602081019050602083039250616957565b6001836020036101000a038019825116818451168082178552505050505050905001915050600060405180830381855afa9150503d80600081146169da576040519150601f19603f3d011682016040523d82523d6000602084013e6169df565b606091505b50915091508180156169f357506020815110155b6169fc57600080fd5b808060200190516020811015616a1157600080fd5b81019080805190602001909291905050509250505090565b6000828284019150811015616a3d57600080fd5b92915050565b60008060007f000000000000000000000000000000000000000000000000000000000000000073ffffffffffffffffffffffffffffffffffffffff166370a0823160e01b30604051602401808273ffffffffffffffffffffffffffffffffffffffff168152602001915050604051602081830303815290604052907bffffffffffffffffffffffffffffffffffffffffffffffffffffffff19166020820180517bffffffffffffffffffffffffffffffffffffffffffffffffffffffff83818316178352505050506040518082805190602001908083835b60208310616b3e5780518252602082019150602081019050602083039250616b1b565b6001836020036101000a038019825116818451168082178552505050505050905001915050600060405180830381855afa9150503d8060008114616b9e576040519150601f19603f3d011682016040523d82523d6000602084013e616ba3565b606091505b5091509150818015616bb757506020815110155b616bc057600080fd5b808060200190516020811015616bd557600080fd5b81019080805190602001909291905050509250505090565b6000808361ffff1611616c68576040517f08c379a00000000000000000000000000000000000000000000000000000000081526004018080602001828103825260018152602001807f490000000000000000000000000000000000000000000000000000000000000081525060200191505060405180910390fd5b8261ffff168261ffff1611616c7f57829050616cdc565b60008390505b8261ffff168161ffff161015616cd7576001858261ffff1661ffff8110616ca857fe5b0160000160006101000a81548163ffffffff021916908363ffffffff1602179055508080600101915050616c85565b508190505b9392505050565b60008182915081600f0b14616cf757600080fd5b919050565b6000806000616d09615062565b616d1b846020015185604001516172b2565b6000806040518060e00160405290816000820160009054906101000a900473ffffffffffffffffffffffffffffffffffffffff1673ffffffffffffffffffffffffffffffffffffffff1673ffffffffffffffffffffffffffffffffffffffff1681526020016000820160149054906101000a900460020b60020b60020b81526020016000820160179054906101000a900461ffff1661ffff1661ffff1681526020016000820160199054906101000a900461ffff1661ffff1661ffff16815260200160008201601b9054906101000a900461ffff1661ffff1661ffff16815260200160008201601d9054906101000a900460ff1660ff1660ff16815260200160008201601e9054906101000a900460ff1615151515815250509050616e5785600001518660200151876040015188606001518560200151617f20565b935060008560600151600f0b1461701857846020015160020b816020015160020b1215616eac57616ea5616e8e8660200151615214565b616e9b8760400151615214565b8760600151618179565b9250617017565b846040015160020b816020015160020b1215616fec576000600560009054906101000a90046fffffffffffffffffffffffffffffffff169050616f1a8260400151616ef56148dc565b84602001518486606001518760800151600961644c909695949392919063ffffffff16565b6000800160176000800160198491906101000a81548161ffff021916908361ffff1602179055508391906101000a81548161ffff021916908361ffff1602179055505050616f7d8260000151616f738860400151615214565b8860600151618179565b9350616f9e616f8f8760200151615214565b836000015188606001516181c4565b9250616fae818760600151615ef7565b600560006101000a8154816fffffffffffffffffffffffffffffffff02191690836fffffffffffffffffffffffffffffffff16021790555050617016565b617013616ffc8660200151615214565b6170098760400151615214565b87606001516181c4565b91505b5b5b509193909250565b600061702d848484615aae565b90506000828061703957fe5b8486091115617077577fffffffffffffffffffffffffffffffffffffffffffffffffffffffffffffffff811061706e57600080fd5b80806001019150505b9392505050565b6000846000858585604051602001808473ffffffffffffffffffffffffffffffffffffffff1660601b81526014018360020b60e81b81526003018260020b60e81b815260030193505050506040516020818303038152906040528051906020012081526020019081526020016000209050949350505050565b60608060008361ffff1611617174576040517f08c379a00000000000000000000000000000000000000000000000000000000081526004018080602001828103825260018152602001807f490000000000000000000000000000000000000000000000000000000000000081525060200191505060405180910390fd5b865167ffffffffffffffff8111801561718c57600080fd5b506040519080825280602002602001820160405280156171bb5781602001602082028036833780820191505090505b509150865167ffffffffffffffff811180156171d657600080fd5b506040519080825280602002602001820160405280156172055781602001602082028036833780820191505090505b50905060005b87518110156172a5576172368a8a8a848151811061722557fe5b60200260200101518a8a8a8a615b88565b84838151811061724257fe5b6020026020010184848151811061725557fe5b602002602001018273ffffffffffffffffffffffffffffffffffffffff1673ffffffffffffffffffffffffffffffffffffffff168152508260060b60060b8152505050808060010191505061720b565b5097509795505050505050565b8060020b8260020b1261732d576040517f08c379a00000000000000000000000000000000000000000000000000000000081526004018080602001828103825260038152602001807f544c55000000000000000000000000000000000000000000000000000000000081525060200191505060405180910390fd5b7ffffffffffffffffffffffffffffffffffffffffffffffffffffffffffff2761860020b8260020b12156173c9576040517f08c379a00000000000000000000000000000000000000000000000000000000081526004018080602001828103825260038152602001807f544c4d000000000000000000000000000000000000000000000000000000000081525060200191505060405180910390fd5b7ffffffffffffffffffffffffffffffffffffffffffffffffffffffffffff2761860000360020b8160020b1315617468576040517f08c379a00000000000000000000000000000000000000000000000000000000081526004018080602001828103825260038152602001807f54554d000000000000000000000000000000000000000000000000000000000081525060200191505060405180910390fd5b5050565b60008060405180608001604052808463ffffffff168152602001600060060b8152602001600073ffffffffffffffffffffffffffffffffffffffff1681526020016001151581525084600061ffff81106174c257fe5b0160008201518160000160006101000a81548163ffffffff021916908363ffffffff16021790555060208201518160000160046101000a81548166ffffffffffffff021916908360060b66ffffffffffffff160217905550604082015181600001600b6101000a81548173ffffffffffffffffffffffffffffffffffffffff021916908373ffffffffffffffffffffffffffffffffffffffff160217905550606082015181600001601f6101000a81548160ff021916908315150217905550905050600180915091509250929050565b60008060088360020b901d91506101008360020b816175ad57fe5b079050915091565b60008082116175c357600080fd5b70010000000000000000000000000000000082106175e957608082901c91506080810190505b68010000000000000000821061760757604082901c91506040810190505b640100000000821061762157602082901c91506020810190505b62010000821061763957601082901c91506010810190505b610100821061765057600882901c91506008810190505b6010821061766657600482901c91506004810190505b6004821061767c57600282901c91506002810190505b6002821061768b576001810190505b919050565b600080821161769e57600080fd5b60ff905060006fffffffffffffffffffffffffffffffff8016831611156176ca576080810390506176d2565b608082901c91505b600067ffffffffffffffff8016831611156176f2576040810390506176fa565b604082901c91505b600063ffffffff8016831611156177165760208103905061771e565b602082901c91505b600061ffff80168316111561773857601081039050617740565b601082901c91505b600060ff80168316111561775957600881039050617761565b600882901c91505b6000600f8316111561777857600481039050617780565b600482901c91505b60006003831611156177975760028103905061779f565b600282901c91505b60006001831611156177b2576001810390505b919050565b60008373ffffffffffffffffffffffffffffffffffffffff168573ffffffffffffffffffffffffffffffffffffffff1611156177f857838580955081965050505b816178445761783f836fffffffffffffffffffffffffffffffff1686860373ffffffffffffffffffffffffffffffffffffffff166c01000000000000000000000000615aae565b617887565b617886836fffffffffffffffffffffffffffffffff1686860373ffffffffffffffffffffffffffffffffffffffff166c01000000000000000000000000617020565b5b9050949350505050565b60008373ffffffffffffffffffffffffffffffffffffffff168573ffffffffffffffffffffffffffffffffffffffff1611156178d257838580955081965050505b6000606060ff16846fffffffffffffffffffffffffffffffff16901b9050600086860373ffffffffffffffffffffffffffffffffffffffff16905060008773ffffffffffffffffffffffffffffffffffffffff161161793057600080fd5b8361797a578673ffffffffffffffffffffffffffffffffffffffff1661796d83838973ffffffffffffffffffffffffffffffffffffffff16615aae565b8161797457fe5b046179bb565b6179ba61799e83838973ffffffffffffffffffffffffffffffffffffffff16617020565b8873ffffffffffffffffffffffffffffffffffffffff1661820f565b5b92505050949350505050565b6000808573ffffffffffffffffffffffffffffffffffffffff16116179eb57600080fd5b6000846fffffffffffffffffffffffffffffffff1611617a0a57600080fd5b81617a2157617a1c8585856001618222565b617a2f565b617a2e8585856001618394565b5b9050949350505050565b6000808573ffffffffffffffffffffffffffffffffffffffff1611617a5d57600080fd5b6000846fffffffffffffffffffffffffffffffff1611617a7c57600080fd5b81617a9357617a8e8585856000618394565b617aa1565b617aa08585856000618222565b5b9050949350505050565b617ab36191a9565b600085600001518503905060405180608001604052808663ffffffff1681526020018263ffffffff168660020b0288602001510160060b81526020016000856fffffffffffffffffffffffffffffffff1611617b10576001617b12565b845b6fffffffffffffffffffffffffffffffff1660808463ffffffff1673ffffffffffffffffffffffffffffffffffffffff16901b73ffffffffffffffffffffffffffffffffffffffff1681617b6257fe5b0488604001510173ffffffffffffffffffffffffffffffffffffffff16815260200160011515815250915050949350505050565b617b9e6191a9565b617ba66191a9565b888561ffff1661ffff8110617bb757fe5b016040518060800160405290816000820160009054906101000a900463ffffffff1663ffffffff1663ffffffff1681526020016000820160049054906101000a900460060b60060b60060b815260200160008201600b9054906101000a900473ffffffffffffffffffffffffffffffffffffffff1673ffffffffffffffffffffffffffffffffffffffff1673ffffffffffffffffffffffffffffffffffffffff16815260200160008201601f9054906101000a900460ff1615151515815250509150617c888883600001518961851e565b15617cc0578663ffffffff16826000015163ffffffff161415617caa57617f14565b81617cb783898988617aab565b91509150617f14565b888361ffff166001870161ffff1681617cd557fe5b0661ffff1661ffff8110617ce557fe5b016040518060800160405290816000820160009054906101000a900463ffffffff1663ffffffff1663ffffffff1681526020016000820160049054906101000a900460060b60060b60060b815260200160008201600b9054906101000a900473ffffffffffffffffffffffffffffffffffffffff1673ffffffffffffffffffffffffffffffffffffffff1673ffffffffffffffffffffffffffffffffffffffff16815260200160008201601f9054906101000a900460ff16151515158152505091508160600151617e815788600061ffff8110617dbe57fe5b016040518060800160405290816000820160009054906101000a900463ffffffff1663ffffffff1663ffffffff1681526020016000820160049054906101000a900460060b60060b60060b815260200160008201600b9054906101000a900473ffffffffffffffffffffffffffffffffffffffff1673ffffffffffffffffffffffffffffffffffffffff1673ffffffffffffffffffffffffffffffffffffffff16815260200160008201601f9054906101000a900460ff16151515158152505091505b617e908883600001518961851e565b617f02576040517f08c379a00000000000000000000000000000000000000000000000000000000081526004018080602001828103825260038152602001807f4f4c44000000000000000000000000000000000000000000000000000000000081525060200191505060405180910390fd5b617f0f89898988876185e6565b915091505b97509795505050505050565b6000617f3a868686600861707e909392919063ffffffff16565b90506000600154905060006002549050600080600087600f0b146180ed576000617f626148dc565b9050600080617fd98360008060000160149054906101000a900460020b6000800160179054906101000a900461ffff16600560009054906101000a90046fffffffffffffffffffffffffffffffff166000800160199054906101000a900461ffff166009615b88909695949392919063ffffffff16565b915091506180248c8a8c8a8a86888a60007f00000000000000000000000000000000000000000000000000000000000000006006618869909a9998979695949392919063ffffffff16565b945061806d8b8a8c8a8a86888a60017f00000000000000000000000000000000000000000000000000000000000000006006618869909a9998979695949392919063ffffffff16565b935084156180ac576180ab8c7f00000000000000000000000000000000000000000000000000000000000000006007618b6b9092919063ffffffff16565b5b83156180e9576180e88b7f00000000000000000000000000000000000000000000000000000000000000006007618b6b9092919063ffffffff16565b5b5050505b60008061810c8b8b8a89896006618be39095949392919063ffffffff16565b915091506181278983838a618caa909392919063ffffffff16565b600089600f0b121561816a57831561814e5761814d8b600661902e90919063ffffffff16565b5b8215618169576181688a600661902e90919063ffffffff16565b5b5b50505050505095945050505050565b60008082600f0b1261819f5761819a6181958585856001617891565b615a32565b6181bb565b6181b76181b28585856000036000617891565b615a32565b6000035b90509392505050565b60008082600f0b126181ea576181e56181e085858560016177b7565b615a32565b618206565b6182026181fd85858560000360006177b7565b615a32565b6000035b90509392505050565b6000808284061182840401905092915050565b600081156182d857600073ffffffffffffffffffffffffffffffffffffffff801684111561827957618274846c01000000000000000000000000876fffffffffffffffffffffffffffffffff16615aae565b61829d565b846fffffffffffffffffffffffffffffffff16606060ff1685901b8161829b57fe5b045b90506182d06182cb828873ffffffffffffffffffffffffffffffffffffffff16616a2990919063ffffffff16565b61910f565b91505061838c565b600073ffffffffffffffffffffffffffffffffffffffff801684111561832757618322846c01000000000000000000000000876fffffffffffffffffffffffffffffffff16617020565b61834b565b61834a606060ff1685901b866fffffffffffffffffffffffffffffffff1661820f565b5b9050808673ffffffffffffffffffffffffffffffffffffffff161161836f57600080fd5b808673ffffffffffffffffffffffffffffffffffffffff16039150505b949350505050565b6000808314156183a657849050618516565b6000606060ff16856fffffffffffffffffffffffffffffffff16901b9050821561848d5760008673ffffffffffffffffffffffffffffffffffffffff16858873ffffffffffffffffffffffffffffffffffffffff1687029250828161840757fe5b04141561844957600081830190508281106184475761843d838973ffffffffffffffffffffffffffffffffffffffff1683617020565b9350505050618516565b505b6184848261847f878a73ffffffffffffffffffffffffffffffffffffffff16868161847057fe5b04616a2990919063ffffffff16565b61820f565b92505050618516565b60008673ffffffffffffffffffffffffffffffffffffffff16858873ffffffffffffffffffffffffffffffffffffffff168702925082816184ca57fe5b041480156184d757508082115b6184e057600080fd5b6000818303905061851061850b848a73ffffffffffffffffffffffffffffffffffffffff1684617020565b61910f565b93505050505b949350505050565b60008363ffffffff168363ffffffff161115801561854857508363ffffffff168263ffffffff1611155b15618564578163ffffffff168363ffffffff16111590506185df565b60008463ffffffff168463ffffffff161161858c576401000000008463ffffffff1601618594565b8363ffffffff165b64ffffffffff16905060008563ffffffff168463ffffffff16116185c5576401000000008463ffffffff16016185cd565b8363ffffffff165b64ffffffffff16905080821115925050505b9392505050565b6185ee6191a9565b6185f66191a9565b60008361ffff166001860161ffff168161860c57fe5b0661ffff169050600060018561ffff16830103905060005b60011561885c5760028284018161863757fe5b049050898661ffff16828161864857fe5b0661ffff811061865457fe5b016040518060800160405290816000820160009054906101000a900463ffffffff1663ffffffff1663ffffffff1681526020016000820160049054906101000a900460060b60060b60060b815260200160008201600b9054906101000a900473ffffffffffffffffffffffffffffffffffffffff1673ffffffffffffffffffffffffffffffffffffffff1673ffffffffffffffffffffffffffffffffffffffff16815260200160008201601f9054906101000a900460ff1615151515815250509450846060015161872a57600181019250618624565b898661ffff16600183018161873b57fe5b0661ffff811061874757fe5b016040518060800160405290816000820160009054906101000a900463ffffffff1663ffffffff1663ffffffff1681526020016000820160049054906101000a900460060b60060b60060b815260200160008201600b9054906101000a900473ffffffffffffffffffffffffffffffffffffffff1673ffffffffffffffffffffffffffffffffffffffff1673ffffffffffffffffffffffffffffffffffffffff16815260200160008201601f9054906101000a900460ff1615151515815250509350600061881a8a87600001518b61851e565b905080801561883457506188338a8a876000015161851e565b5b1561883f575061885c565b8061884f57600182039250618856565b6001820193505b50618624565b5050509550959350505050565b6000808c60008d60020b60020b8152602001908152602001600020905060008160000160009054906101000a90046fffffffffffffffffffffffffffffffff16905060006188b7828d615ef7565b9050846fffffffffffffffffffffffffffffffff16816fffffffffffffffffffffffffffffffff161115618953576040517f08c379a00000000000000000000000000000000000000000000000000000000081526004018080602001828103825260028152602001807f4c4f00000000000000000000000000000000000000000000000000000000000081525060200191505060405180910390fd5b6000826fffffffffffffffffffffffffffffffff161415156000826fffffffffffffffffffffffffffffffff16141515141593506000826fffffffffffffffffffffffffffffffff161415618a72578c60020b8e60020b13618a54578a8360010181905550898360020181905550888360030160076101000a81548173ffffffffffffffffffffffffffffffffffffffff021916908373ffffffffffffffffffffffffffffffffffffffff160217905550878360030160006101000a81548166ffffffffffffff021916908360060b66ffffffffffffff1602179055508683600301601b6101000a81548163ffffffff021916908363ffffffff1602179055505b600183600301601f6101000a81548160ff0219169083151502179055505b808360000160006101000a8154816fffffffffffffffffffffffffffffffff02191690836fffffffffffffffffffffffffffffffff16021790555085618ae957618ae4618adf8d600f0b8560000160109054906101000a9004600f0b600f0b615a8b90919063ffffffff16565b616ce3565b618b1c565b618b1b618b168d600f0b8560000160109054906101000a9004600f0b600f0b615a6890919063ffffffff16565b616ce3565b5b8360000160106101000a8154816fffffffffffffffffffffffffffffffff0219169083600f0b6fffffffffffffffffffffffffffffffff1602179055505050509b9a5050505050505050505050565b60008160020b8360020b81618b7c57fe5b0760020b14618b8a57600080fd5b600080618ba58360020b8560020b81618b9f57fe5b05617592565b9150915060008160ff166001901b9050808660008560010b60010b815260200190815260200160002060008282541892505081905550505050505050565b60008060008860008960020b60020b8152602001908152602001600020905060008960008960020b60020b815260200190815260200160002090506000808a60020b8960020b12618c41578360010154915083600201549050618c54565b8360010154880391508360020154870390505b6000808b60020b8b60020b1215618c78578460010154915084600201549050618c8b565b84600101548a0391508460020154890390505b81848b0303975080838a03039650505050505050965096945050505050565b6000846040518060a00160405290816000820160009054906101000a90046fffffffffffffffffffffffffffffffff166fffffffffffffffffffffffffffffffff166fffffffffffffffffffffffffffffffff16815260200160018201548152602001600282015481526020016003820160009054906101000a90046fffffffffffffffffffffffffffffffff166fffffffffffffffffffffffffffffffff166fffffffffffffffffffffffffffffffff1681526020016003820160109054906101000a90046fffffffffffffffffffffffffffffffff166fffffffffffffffffffffffffffffffff166fffffffffffffffffffffffffffffffff1681525050905060008085600f0b1415618e5157600082600001516fffffffffffffffffffffffffffffffff1611618e45576040517f08c379a00000000000000000000000000000000000000000000000000000000081526004018080602001828103825260028152602001807f4e5000000000000000000000000000000000000000000000000000000000000081525060200191505060405180910390fd5b81600001519050618e62565b618e5f826000015186615ef7565b90505b6000618e9c8360200151860384600001516fffffffffffffffffffffffffffffffff16700100000000000000000000000000000000615aae565b90506000618ed88460400151860385600001516fffffffffffffffffffffffffffffffff16700100000000000000000000000000000000615aae565b9050600087600f0b14618f2157828860000160006101000a8154816fffffffffffffffffffffffffffffffff02191690836fffffffffffffffffffffffffffffffff1602179055505b8588600101819055508488600201819055506000826fffffffffffffffffffffffffffffffff161180618f6657506000816fffffffffffffffffffffffffffffffff16115b1561902457818860030160008282829054906101000a90046fffffffffffffffffffffffffffffffff160192506101000a8154816fffffffffffffffffffffffffffffffff02191690836fffffffffffffffffffffffffffffffff160217905550808860030160108282829054906101000a90046fffffffffffffffffffffffffffffffff160192506101000a8154816fffffffffffffffffffffffffffffffff02191690836fffffffffffffffffffffffffffffffff1602179055505b5050505050505050565b8160008260020b60020b8152602001908152602001600020600080820160006101000a8154906fffffffffffffffffffffffffffffffff02191690556000820160106101000a8154906fffffffffffffffffffffffffffffffff0219169055600182016000905560028201600090556003820160006101000a81549066ffffffffffffff02191690556003820160076101000a81549073ffffffffffffffffffffffffffffffffffffffff021916905560038201601b6101000a81549063ffffffff021916905560038201601f6101000a81549060ff021916905550505050565b6000818291508173ffffffffffffffffffffffffffffffffffffffff161461913657600080fd5b919050565b6040518060e00160405280600073ffffffffffffffffffffffffffffffffffffffff168152602001600060020b8152602001600015158152602001600073ffffffffffffffffffffffffffffffffffffffff1681526020016000815260200160008152602001600081525090565b6040518060800160405280600063ffffffff168152602001600060060b8152602001600073ffffffffffffffffffffffffffffffffffffffff168152602001600015158152509056fea264697066735822122095ddfbc0beda312494416a781ded04d65564df9b8b8d1867ec36dda3a7e5185c64736f6c63430007060033","linkReferences":{}},"methodIdentifiers":{"burn(int24,int24,uint128)":"a34123a7","collect(address,int24,int24,uint128,uint128)":"4f1eb3d8","collectProtocol(address,uint128,uint128)":"85b66729","currentDynamicFee()":"56ccede7","factory()":"c45a0155","fee()":"ddca3f43","feeGrowthGlobal0X128()":"f3058399","feeGrowthGlobal1X128()":"46141319","flash(address,uint256,uint256,bytes)":"490e6cbc","getPriceDifferencePercentage(uint256,uint256)":"55abbe8f","getTWAP()":"05ecd003","increaseObservationCardinalityNext(uint16)":"32148f67","initialize(uint160)":"f637731d","liquidity()":"1a686502","maxLiquidityPerTick()":"70cf754a","mint(address,int24,int24,uint128,bytes)":"3c8a7d8d","observations(uint256)":"252c09d7","observe(uint32[])":"883bdbfd","positions(bytes32)":"514ea4bf","protocolFees()":"1ad8b03b","setFeeProtocol(uint8,uint8)":"8206a4d1","slot0()":"3850c7bd","snapshotCumulativesInside(int24,int24)":"a38807f2","swap(address,bool,int256,uint160,bytes)":"128acb08","tickBitmap(int16)":"5339c296","tickSpacing()":"d0c93a7c","ticks(int24)":"f30dba93","token0()":"0dfe1681","token1()":"d21220a7"},"id":2}