{"abi":[{"type":"constructor","inputs":[],"stateMutability":"nonpayable"},{"type":"function","name":"burn","inputs":[{"name":"tickLower","type":"int24","internalType":"int24"},{"name":"tickUpper","type":"int24","internalType":"int24"},{"name":"amount","type":"uint128","internalType":"uint128"}],"outputs":[{"name":"amount0","type":"uint256","internalType":"uint256"},{"name":"amount1","type":"uint256","internalType":"uint256"}],"stateMutability":"nonpayable"},{"type":"function","name":"collect","inputs":[{"name":"recipient","type":"address","internalType":"address"},{"name":"tickLower","type":"int24","internalType":"int24"},{"name":"tickUpper","type":"int24","internalType":"int24"},{"name":"amount0Requested","type":"uint128","internalType":"uint128"},{"name":"amount1Requested","type":"uint128","internalType":"uint128"}],"outputs":[{"name":"amount0","type":"uint128","internalType":"uint128"},{"name":"amount1","type":"uint128","internalType":"uint128"}],"stateMutability":"nonpayable"},{"type":"function","name":"collectProtocol","inputs":[{"name":"recipient","type":"address","internalType":"address"},{"name":"amount0Requested","type":"uint128","internalType":"uint128"},{"name":"amount1Requested","type":"uint128","internalType":"uint128"}],"outputs":[{"name":"amount0","type":"uint128","internalType":"uint128"},{"name":"amount1","type":"uint128","internalType":"uint128"}],"stateMutability":"nonpayable"},{"type":"function","name":"factory","inputs":[],"outputs":[{"name":"","type":"address","internalType":"address"}],"stateMutability":"view"},{"type":"function","name":"fee","inputs":[],"outputs":[{"name":"","type":"uint24","internalType":"uint24"}],"stateMutability":"view"},{"type":"function","name":"feeGrowthGlobal0X128","inputs":[],"outputs":[{"name":"","type":"uint256","internalType":"uint256"}],"stateMutability":"view"},{"type":"function","name":"feeGrowthGlobal1X128","inputs":[],"outputs":[{"name":"","type":"uint256","internalType":"uint256"}],"stateMutability":"view"},{"type":"function","name":"flash","inputs":[{"name":"recipient","type":"address","internalType":"address"},{"name":"amount0","type":"uint256","internalType":"uint256"},{"name":"amount1","type":"uint256","internalType":"uint256"},{"name":"data","type":"bytes","internalType":"bytes"}],"outputs":[],"stateMutability":"nonpayable"},{"type":"function","name":"increaseObservationCardinalityNext","inputs":[{"name":"observationCardinalityNext","type":"uint16","internalType":"uint16"}],"outputs":[],"stateMutability":"nonpayable"},{"type":"function","name":"initialize","inputs":[{"name":"sqrtPriceX96","type":"uint160","internalType":"uint160"}],"outputs":[],"stateMutability":"nonpayable"},{"type":"function","name":"liquidity","inputs":[],"outputs":[{"name":"","type":"uint128","internalType":"uint128"}],"stateMutability":"view"},{"type":"function","name":"maxLiquidityPerTick","inputs":[],"outputs":[{"name":"","type":"uint128","internalType":"uint128"}],"stateMutability":"view"},{"type":"function","name":"mint","inputs":[{"name":"recipient","type":"address","internalType":"address"},{"name":"tickLower","type":"int24","internalType":"int24"},{"name":"tickUpper","type":"int24","internalType":"int24"},{"name":"amount","type":"uint128","internalType":"uint128"},{"name":"data","type":"bytes","internalType":"bytes"}],"outputs":[{"name":"amount0","type":"uint256","internalType":"uint256"},{"name":"amount1","type":"uint256","internalType":"uint256"}],"stateMutability":"nonpayable"},{"type":"function","name":"observations","inputs":[{"name":"","type":"uint256","internalType":"uint256"}],"outputs":[{"name":"blockTimestamp","type":"uint32","internalType":"uint32"},{"name":"tickCumulative","type":"int56","internalType":"int56"},{"name":"secondsPerLiquidityCumulativeX128","type":"uint160","internalType":"uint160"},{"name":"initialized","type":"bool","internalType":"bool"}],"stateMutability":"view"},{"type":"function","name":"observe","inputs":[{"name":"secondsAgos","type":"uint32[]","internalType":"uint32[]"}],"outputs":[{"name":"tickCumulatives","type":"int56[]","internalType":"int56[]"},{"name":"secondsPerLiquidityCumulativeX128s","type":"uint160[]","internalType":"uint160[]"}],"stateMutability":"view"},{"type":"function","name":"positions","inputs":[{"name":"","type":"bytes32","internalType":"bytes32"}],"outputs":[{"name":"liquidity","type":"uint128","internalType":"uint128"},{"name":"feeGrowthInside0LastX128","type":"uint256","internalType":"uint256"},{"name":"feeGrowthInside1LastX128","type":"uint256","internalType":"uint256"},{"name":"tokensOwed0","type":"uint128","internalType":"uint128"},{"name":"tokensOwed1","type":"uint128","internalType":"uint128"}],"stateMutability":"view"},{"type":"function","name":"protocolFees","inputs":[],"outputs":[{"name":"token0","type":"uint128","internalType":"uint128"},{"name":"token1","type":"uint128","internalType":"uint128"}],"stateMutability":"view"},{"type":"function","name":"setFeeProtocol","inputs":[{"name":"feeProtocol0","type":"uint8","internalType":"uint8"},{"name":"feeProtocol1","type":"uint8","internalType":"uint8"}],"outputs":[],"stateMutability":"nonpayable"},{"type":"function","name":"slot0","inputs":[],"outputs":[{"name":"sqrtPriceX96","type":"uint160","internalType":"uint160"},{"name":"tick","type":"int24","internalType":"int24"},{"name":"observationIndex","type":"uint16","internalType":"uint16"},{"name":"observationCardinality","type":"uint16","internalType":"uint16"},{"name":"observationCardinalityNext","type":"uint16","internalType":"uint16"},{"name":"feeProtocol","type":"uint8","internalType":"uint8"},{"name":"unlocked","type":"bool","internalType":"bool"},{"name":"currentDynamicFee","type":"uint24","internalType":"uint24"}],"stateMutability":"view"},{"type":"function","name":"snapshotCumulativesInside","inputs":[{"name":"tickLower","type":"int24","internalType":"int24"},{"name":"tickUpper","type":"int24","internalType":"int24"}],"outputs":[{"name":"tickCumulativeInside","type":"int56","internalType":"int56"},{"name":"secondsPerLiquidityInsideX128","type":"uint160","internalType":"uint160"},{"name":"secondsInside","type":"uint32","internalType":"uint32"}],"stateMutability":"view"},{"type":"function","name":"swap","inputs":[{"name":"recipient","type":"address","internalType":"address"},{"name":"zeroForOne","type":"bool","internalType":"bool"},{"name":"amountSpecified","type":"int256","internalType":"int256"},{"name":"sqrtPriceLimitX96","type":"uint160","internalType":"uint160"},{"name":"data","type":"bytes","internalType":"bytes"}],"outputs":[{"name":"amount0","type":"int256","internalType":"int256"},{"name":"amount1","type":"int256","internalType":"int256"}],"stateMutability":"nonpayable"},{"type":"function","name":"tickBitmap","inputs":[{"name":"","type":"int16","internalType":"int16"}],"outputs":[{"name":"","type":"uint256","internalType":"uint256"}],"stateMutability":"view"},{"type":"function","name":"tickSpacing","inputs":[],"outputs":[{"name":"","type":"int24","internalType":"int24"}],"stateMutability":"view"},{"type":"function","name":"ticks","inputs":[{"name":"","type":"int24","internalType":"int24"}],"outputs":[{"name":"liquidityGross","type":"uint128","internalType":"uint128"},{"name":"liquidityNet","type":"int128","internalType":"int128"},{"name":"feeGrowthOutside0X128","type":"uint256","internalType":"uint256"},{"name":"feeGrowthOutside1X128","type":"uint256","internalType":"uint256"},{"name":"tickCumulativeOutside","type":"int56","internalType":"int56"},{"name":"secondsPerLiquidityOutsideX128","type":"uint160","internalType":"uint160"},{"name":"secondsOutside","type":"uint32","internalType":"uint32"},{"name":"initialized","type":"bool","internalType":"bool"}],"stateMutability":"view"},{"type":"function","name":"token0","inputs":[],"outputs":[{"name":"","type":"address","internalType":"address"}],"stateMutability":"view"},{"type":"function","name":"token1","inputs":[],"outputs":[{"name":"","type":"address","internalType":"address"}],"stateMutability":"view"},{"type":"event","name":"Burn","inputs":[{"name":"owner","type":"address","indexed":true,"internalType":"address"},{"name":"tickLower","type":"int24","indexed":true,"internalType":"int24"},{"name":"tickUpper","type":"int24","indexed":true,"internalType":"int24"},{"name":"amount","type":"uint128","indexed":false,"internalType":"uint128"},{"name":"amount0","type":"uint256","indexed":false,"internalType":"uint256"},{"name":"amount1","type":"uint256","indexed":false,"internalType":"uint256"}],"anonymous":false},{"type":"event","name":"Collect","inputs":[{"name":"owner","type":"address","indexed":true,"internalType":"address"},{"name":"recipient","type":"address","indexed":false,"internalType":"address"},{"name":"tickLower","type":"int24","indexed":true,"internalType":"int24"},{"name":"tickUpper","type":"int24","indexed":true,"internalType":"int24"},{"name":"amount0","type":"uint128","indexed":false,"internalType":"uint128"},{"name":"amount1","type":"uint128","indexed":false,"internalType":"uint128"}],"anonymous":false},{"type":"event","name":"CollectProtocol","inputs":[{"name":"sender","type":"address","indexed":true,"internalType":"address"},{"name":"recipient","type":"address","indexed":true,"internalType":"address"},{"name":"amount0","type":"uint128","indexed":false,"internalType":"uint128"},{"name":"amount1","type":"uint128","indexed":false,"internalType":"uint128"}],"anonymous":false},{"type":"event","name":"Flash","inputs":[{"name":"sender","type":"address","indexed":true,"internalType":"address"},{"name":"recipient","type":"address","indexed":true,"internalType":"address"},{"name":"amount0","type":"uint256","indexed":false,"internalType":"uint256"},{"name":"amount1","type":"uint256","indexed":false,"internalType":"uint256"},{"name":"paid0","type":"uint256","indexed":false,"internalType":"uint256"},{"name":"paid1","type":"uint256","indexed":false,"internalType":"uint256"}],"anonymous":false},{"type":"event","name":"IncreaseObservationCardinalityNext","inputs":[{"name":"observationCardinalityNextOld","type":"uint16","indexed":false,"internalType":"uint16"},{"name":"observationCardinalityNextNew","type":"uint16","indexed":false,"internalType":"uint16"}],"anonymous":false},{"type":"event","name":"Initialize","inputs":[{"name":"sqrtPriceX96","type":"uint160","indexed":false,"internalType":"uint160"},{"name":"tick","type":"int24","indexed":false,"internalType":"int24"}],"anonymous":false},{"type":"event","name":"Mint","inputs":[{"name":"sender","type":"address","indexed":false,"internalType":"address"},{"name":"owner","type":"address","indexed":true,"internalType":"address"},{"name":"tickLower","type":"int24","indexed":true,"internalType":"int24"},{"name":"tickUpper","type":"int24","indexed":true,"internalType":"int24"},{"name":"amount","type":"uint128","indexed":false,"internalType":"uint128"},{"name":"amount0","type":"uint256","indexed":false,"internalType":"uint256"},{"name":"amount1","type":"uint256","indexed":false,"internalType":"uint256"}],"anonymous":false},{"type":"event","name":"SetFeeProtocol","inputs":[{"name":"feeProtocol0Old","type":"uint8","indexed":false,"internalType":"uint8"},{"name":"feeProtocol1Old","type":"uint8","indexed":false,"internalType":"uint8"},{"name":"feeProtocol0New","type":"uint8","indexed":false,"internalType":"uint8"},{"name":"feeProtocol1New","type":"uint8","indexed":false,"internalType":"uint8"}],"anonymous":false},{"type":"event","name":"Swap","inputs":[{"name":"sender","type":"address","indexed":true,"internalType":"address"},{"name":"recipient","type":"address","indexed":true,"internalType":"address"},{"name":"amount0","type":"int256","indexed":false,"internalType":"int256"},{"name":"amount1","type":"int256","indexed":false,"internalType":"int256"},{"name":"sqrtPriceX96","type":"uint160","indexed":false,"internalType":"uint160"},{"name":"liquidity","type":"uint128","indexed":false,"internalType":"uint128"},{"name":"tick","type":"int24","indexed":false,"internalType":"int24"}],"anonymous":false}],"bytecode":{"object":"0x6101606040523480156200001257600080fd5b503073ffffffffffffffffffffffffffffffffffffffff1660808173ffffffffffffffffffffffffffffffffffffffff1660601b8152505060003373ffffffffffffffffffffffffffffffffffffffff1663890357306040518163ffffffff1660e01b815260040160a06040518083038186803b1580156200009357600080fd5b505afa158015620000a8573d6000803e3d6000fd5b505050506040513d60a0811015620000bf57600080fd5b8101908080519060200190929190805190602001909291908051906020019092919080519060200190929190805190602001909291905050508095508162ffffff166101009062ffffff1660e81b8152508273ffffffffffffffffffffffffffffffffffffffff1660e09073ffffffffffffffffffffffffffffffffffffffff1660601b8152508373ffffffffffffffffffffffffffffffffffffffff1660c09073ffffffffffffffffffffffffffffffffffffffff1660601b8152508473ffffffffffffffffffffffffffffffffffffffff1660a09073ffffffffffffffffffffffffffffffffffffffff1660601b81525050505050508060020b6101208160020b60e81b81525050620001df816200021560201b6200450a1760201c565b6fffffffffffffffffffffffffffffffff16610140816fffffffffffffffffffffffffffffffff1660801b8152505050620002cd565b600080828360020b7ffffffffffffffffffffffffffffffffffffffffffffffffffffffffffff2761860020b816200024957fe5b050290506000838460020b7ffffffffffffffffffffffffffffffffffffffffffffffffffffffffffff2761860000360020b816200028357fe5b05029050600060018560020b84840360020b816200029d57fe5b050190508062ffffff166fffffffffffffffffffffffffffffffff801681620002c257fe5b049350505050919050565b60805160601c60a05160601c60c05160601c60e05160601c6101005160e81c6101205160e81c6101405160801c618df262000395600039806131fa5280617546528061758f52508061126e52806140f352806175d552806176125250806127fd5280612834528061413b525080611bba52806128be5280613055528061390a52806141175280615eab525080610ca45280611d3a52806128895280612fa052806137fd5280615ce75250806132bf528061356552806140cf5250806145c05250618df26000f3fe608060405234801561001057600080fd5b506004361061018e5760003560e01c806370cf754a116100de578063c45a015511610097578063ddca3f4311610071578063ddca3f4314610b71578063f305839914610b94578063f30dba9314610bb2578063f637731d14610c5e5761018e565b8063c45a015514610ae8578063d0c93a7c14610b1c578063d21220a714610b3d5761018e565b806370cf754a146107b55780638206a4d1146107e557806385b6672914610823578063883bdbfd146108de578063a34123a7146109f4578063a38807f214610a695761018e565b80633850c7bd1161014b578063490e6cbc11610125578063490e6cbc1461055a5780634f1eb3d814610607578063514ea4bf146106dc5780635339c296146107705761018e565b80633850c7bd146103d45780633c8a7d8d14610452578063461413191461053c5761018e565b80630dfe168114610193578063128acb08146101c75780631a686502146102b15780631ad8b03b146102e1578063252c09d71461032a57806332148f67146103a2575b600080fd5b61019b610ca2565b604051808273ffffffffffffffffffffffffffffffffffffffff16815260200191505060405180910390f35b610294600480360360a08110156101dd57600080fd5b81019080803573ffffffffffffffffffffffffffffffffffffffff16906020019092919080351515906020019092919080359060200190929190803573ffffffffffffffffffffffffffffffffffffffff1690602001909291908035906020019064010000000081111561025057600080fd5b82018360208201111561026257600080fd5b8035906020019184600183028401116401000000008311171561028457600080fd5b9091929391929390505050610cc6565b604051808381526020018281526020019250505060405180910390f35b6102b9611f90565b60405180826fffffffffffffffffffffffffffffffff16815260200191505060405180910390f35b6102e9611fb2565b60405180836fffffffffffffffffffffffffffffffff168152602001826fffffffffffffffffffffffffffffffff1681526020019250505060405180910390f35b6103566004803603602081101561034057600080fd5b8101908080359060200190929190505050611ffc565b604051808563ffffffff1681526020018460060b81526020018373ffffffffffffffffffffffffffffffffffffffff168152602001821515815260200194505050505060405180910390f35b6103d2600480360360208110156103b857600080fd5b81019080803561ffff16906020019092919050505061207a565b005b6103dc6121ec565b604051808973ffffffffffffffffffffffffffffffffffffffff1681526020018860020b81526020018761ffff1681526020018661ffff1681526020018561ffff1681526020018460ff16815260200183151581526020018262ffffff1681526020019850505050505050505060405180910390f35b61051f600480360360a081101561046857600080fd5b81019080803573ffffffffffffffffffffffffffffffffffffffff169060200190929190803560020b9060200190929190803560020b906020019092919080356fffffffffffffffffffffffffffffffff169060200190929190803590602001906401000000008111156104db57600080fd5b8201836020820111156104ed57600080fd5b8035906020019184600183028401116401000000008311171561050f57600080fd5b90919293919293905050506122a2565b604051808381526020018281526020019250505060405180910390f35b61054461269b565b6040518082815260200191505060405180910390f35b6106056004803603608081101561057057600080fd5b81019080803573ffffffffffffffffffffffffffffffffffffffff1690602001909291908035906020019092919080359060200190929190803590602001906401000000008111156105c157600080fd5b8201836020820111156105d357600080fd5b803590602001918460018302840111640100000000831117156105f557600080fd5b90919293919293905050506126a1565b005b61069b600480360360a081101561061d57600080fd5b81019080803573ffffffffffffffffffffffffffffffffffffffff169060200190929190803560020b9060200190929190803560020b906020019092919080356fffffffffffffffffffffffffffffffff16906020019092919080356fffffffffffffffffffffffffffffffff169060200190929190505050612d7a565b60405180836fffffffffffffffffffffffffffffffff168152602001826fffffffffffffffffffffffffffffffff1681526020019250505060405180910390f35b610708600480360360208110156106f257600080fd5b8101908080359060200190929190505050613156565b60405180866fffffffffffffffffffffffffffffffff168152602001858152602001848152602001836fffffffffffffffffffffffffffffffff168152602001826fffffffffffffffffffffffffffffffff1681526020019550505050505060405180910390f35b61079f6004803603602081101561078657600080fd5b81019080803560010b90602001909291905050506131e0565b6040518082815260200191505060405180910390f35b6107bd6131f8565b60405180826fffffffffffffffffffffffffffffffff16815260200191505060405180910390f35b610821600480360360408110156107fb57600080fd5b81019080803560ff169060200190929190803560ff16906020019092919050505061321c565b005b61089d6004803603606081101561083957600080fd5b81019080803573ffffffffffffffffffffffffffffffffffffffff16906020019092919080356fffffffffffffffffffffffffffffffff16906020019092919080356fffffffffffffffffffffffffffffffff1690602001909291905050506134bf565b60405180836fffffffffffffffffffffffffffffffff168152602001826fffffffffffffffffffffffffffffffff1681526020019250505060405180910390f35b610955600480360360208110156108f457600080fd5b810190808035906020019064010000000081111561091157600080fd5b82018360208201111561092357600080fd5b8035906020019184602083028401116401000000008311171561094557600080fd5b90919293919293905050506139f9565b604051808060200180602001838103835285818151815260200191508051906020019060200280838360005b8381101561099c578082015181840152602081019050610981565b50505050905001838103825284818151815260200191508051906020019060200280838360005b838110156109de5780820151818401526020810190506109c3565b5050505090500194505050505060405180910390f35b610a4c60048036036060811015610a0a57600080fd5b81019080803560020b9060200190929190803560020b906020019092919080356fffffffffffffffffffffffffffffffff169060200190929190505050613ac8565b604051808381526020018281526020019250505060405180910390f35b610aa560048036036040811015610a7f57600080fd5b81019080803560020b9060200190929190803560020b9060200190929190505050613d5f565b604051808460060b81526020018373ffffffffffffffffffffffffffffffffffffffff1681526020018263ffffffff168152602001935050505060405180910390f35b610af06140cd565b604051808273ffffffffffffffffffffffffffffffffffffffff16815260200191505060405180910390f35b610b246140f1565b604051808260020b815260200191505060405180910390f35b610b45614115565b604051808273ffffffffffffffffffffffffffffffffffffffff16815260200191505060405180910390f35b610b79614139565b604051808262ffffff16815260200191505060405180910390f35b610b9c61415d565b6040518082815260200191505060405180910390f35b610be160048036036020811015610bc857600080fd5b81019080803560020b9060200190929190505050614163565b60405180896fffffffffffffffffffffffffffffffff16815260200188600f0b81526020018781526020018681526020018560060b81526020018473ffffffffffffffffffffffffffffffffffffffff1681526020018363ffffffff16815260200182151581526020019850505050505050505060405180910390f35b610ca060048036036020811015610c7457600080fd5b81019080803573ffffffffffffffffffffffffffffffffffffffff16906020019092919050505061421e565b005b7f000000000000000000000000000000000000000000000000000000000000000081565b600080610cd16145be565b6000861415610d48576040517f08c379a00000000000000000000000000000000000000000000000000000000081526004018080602001828103825260028152602001807f415300000000000000000000000000000000000000000000000000000000000081525060200191505060405180910390fd5b600080604051806101000160405290816000820160009054906101000a900473ffffffffffffffffffffffffffffffffffffffff1673ffffffffffffffffffffffffffffffffffffffff1673ffffffffffffffffffffffffffffffffffffffff1681526020016000820160149054906101000a900460020b60020b60020b81526020016000820160179054906101000a900461ffff1661ffff1661ffff1681526020016000820160199054906101000a900461ffff1661ffff1661ffff16815260200160008201601b9054906101000a900461ffff1661ffff1661ffff16815260200160008201601d9054906101000a900460ff1660ff1660ff16815260200160008201601e9054906101000a900460ff161515151581526020016001820160009054906101000a900462ffffff1662ffffff1662ffffff168152505090508060c00151610efe576040517f08c379a00000000000000000000000000000000000000000000000000000000081526004018080602001828103825260038152602001807f4c4f4b000000000000000000000000000000000000000000000000000000000081525060200191505060405180910390fd5b87610f8657806000015173ffffffffffffffffffffffffffffffffffffffff168673ffffffffffffffffffffffffffffffffffffffff16118015610f81575073fffd8963efd1fc6a506488495d951d5263988d2673ffffffffffffffffffffffffffffffffffffffff168673ffffffffffffffffffffffffffffffffffffffff16105b610ff6565b806000015173ffffffffffffffffffffffffffffffffffffffff168673ffffffffffffffffffffffffffffffffffffffff16108015610ff557506401000276a373ffffffffffffffffffffffffffffffffffffffff168673ffffffffffffffffffffffffffffffffffffffff16115b5b611068576040517f08c379a00000000000000000000000000000000000000000000000000000000081526004018080602001828103825260038152602001807f53504c000000000000000000000000000000000000000000000000000000000081525060200191505060405180910390fd5b600080600001601e6101000a81548160ff02191690831515021790555060006040518060c001604052808a6110a85760048460a0015160ff16901c6110bb565b60108460a0015160ff16816110b957fe5b065b60ff168152602001600560009054906101000a90046fffffffffffffffffffffffffffffffff166fffffffffffffffffffffffffffffffff168152602001611101614618565b63ffffffff168152602001600060060b8152602001600073ffffffffffffffffffffffffffffffffffffffff1681526020016000151581525090506000808913905060006040518060e001604052808b815260200160008152602001856000015173ffffffffffffffffffffffffffffffffffffffff168152602001856020015160020b81526020018c6111975760035461119b565b6002545b815260200160006fffffffffffffffffffffffffffffffff16815260200184602001516fffffffffffffffffffffffffffffffff1681525090505b600081600001511415801561121b57508873ffffffffffffffffffffffffffffffffffffffff16816040015173ffffffffffffffffffffffffffffffffffffffff1614155b1561188257611228618d05565b8160400151816000019073ffffffffffffffffffffffffffffffffffffffff16908173ffffffffffffffffffffffffffffffffffffffff16815250506112a082606001517f00000000000000000000000000000000000000000000000000000000000000008e6007614620909392919063ffffffff16565b826020018360400182151515158152508260020b60020b81525050507ffffffffffffffffffffffffffffffffffffffffffffffffffffffffffff2761860020b816020015160020b1215611325577ffffffffffffffffffffffffffffffffffffffffffffffffffffffffffff27618816020019060020b908160020b81525050611391565b7ffffffffffffffffffffffffffffffffffffffffffffffffffffffffffff2761860000360020b816020015160020b1315611390577ffffffffffffffffffffffffffffffffffffffffffffffffffffffffffff27618600003816020019060020b908160020b815250505b5b61139e8160200151614778565b816060019073ffffffffffffffffffffffffffffffffffffffff16908173ffffffffffffffffffffffffffffffffffffffff16815250506113dd614bb3565b600060010160006101000a81548162ffffff021916908362ffffff1602179055506114ab82604001518d611443578b73ffffffffffffffffffffffffffffffffffffffff16836060015173ffffffffffffffffffffffffffffffffffffffff1611611477565b8b73ffffffffffffffffffffffffffffffffffffffff16836060015173ffffffffffffffffffffffffffffffffffffffff16105b611485578260600151611487565b8b5b8460c001518560000151600060010160009054906101000a900462ffffff16614c37565b85604001856080018660a0018760c0018481525084815250848152508473ffffffffffffffffffffffffffffffffffffffff1673ffffffffffffffffffffffffffffffffffffffff16815250505050508215611554576115148160c00151826080015101614e93565b8260000181815103915081815250506115466115338260a00151614e93565b8360200151614ec990919063ffffffff16565b8260200181815250506115a3565b6115618160a00151614e93565b8260000181815101915081815250506115996115868260c00151836080015101614e93565b8360200151614eec90919063ffffffff16565b8260200181815250505b6000846000015160ff161115611614576000846000015160ff168260c00151816115c957fe5b049050808260c0018181510391508181525050808360a001818151019150906fffffffffffffffffffffffffffffffff1690816fffffffffffffffffffffffffffffffff1681525050505b60008260c001516fffffffffffffffffffffffffffffffff161115611679576116698160c001517001000000000000000000000000000000008460c001516fffffffffffffffffffffffffffffffff16614f0f565b8260800181815101915081815250505b806060015173ffffffffffffffffffffffffffffffffffffffff16826040015173ffffffffffffffffffffffffffffffffffffffff161415611821578060400151156117f3578360a00151611751576116fb846040015160008760200151886040015188602001518a606001516009614fe9909695949392919063ffffffff16565b85606001866080018273ffffffffffffffffffffffffffffffffffffffff1673ffffffffffffffffffffffffffffffffffffffff168152508260060b60060b815250505060018460a00190151590811515815250505b60006117a582602001518e6117685760025461176e565b84608001515b8f61177d578560800151611781565b6003545b886080015189606001518a60400151600661521c909695949392919063ffffffff16565b90508c156117b4578060000390505b6117c28360c0015182615358565b8360c001906fffffffffffffffffffffffffffffffff1690816fffffffffffffffffffffffffffffffff1681525050505b8b61180257806020015161180b565b60018160200151035b826060019060020b908160020b8152505061187c565b806000015173ffffffffffffffffffffffffffffffffffffffff16826040015173ffffffffffffffffffffffffffffffffffffffff161461187b5761186982604001516154b1565b826060019060020b908160020b815250505b5b506111d6565b836020015160020b816060015160020b14611998576000806118d086604001518660400151886020015188602001518a606001518b6080015160096158ad909695949392919063ffffffff16565b915091508260400151836060015183836000800160008060000160146000800160176000800160198891906101000a81548161ffff021916908361ffff1602179055508791906101000a81548161ffff021916908361ffff1602179055508691906101000a81548162ffffff021916908360020b62ffffff1602179055508591906101000a81548173ffffffffffffffffffffffffffffffffffffffff021916908373ffffffffffffffffffffffffffffffffffffffff1602179055505050505050506119e0565b80604001516000800160006101000a81548173ffffffffffffffffffffffffffffffffffffffff021916908373ffffffffffffffffffffffffffffffffffffffff1602179055505b8060c001516fffffffffffffffffffffffffffffffff1683602001516fffffffffffffffffffffffffffffffff1614611a51578060c00151600560006101000a8154816fffffffffffffffffffffffffffffffff02191690836fffffffffffffffffffffffffffffffff1602179055505b8a15611ae857806080015160028190555060008160a001516fffffffffffffffffffffffffffffffff161115611ae3578060a00151600460000160008282829054906101000a90046fffffffffffffffffffffffffffffffff160192506101000a8154816fffffffffffffffffffffffffffffffff02191690836fffffffffffffffffffffffffffffffff1602179055505b611b75565b806080015160038190555060008160a001516fffffffffffffffffffffffffffffffff161115611b74578060a00151600460000160108282829054906101000a90046fffffffffffffffffffffffffffffffff160192506101000a8154816fffffffffffffffffffffffffffffffff02191690836fffffffffffffffffffffffffffffffff1602179055505b5b8115158b151514611b9157806020015181600001518b03611b9e565b80600001518a0381602001515b80965081975050508a15611d2c576000851215611be457611be37f00000000000000000000000000000000000000000000000000000000000000008d87600003615adf565b5b6000611bee615ce0565b90503373ffffffffffffffffffffffffffffffffffffffff1663fa461e3388888c8c6040518563ffffffff1660e01b815260040180858152602001848152602001806020018281038252848482818152602001925080828437600081840152601f19601f82011690508083019250505095505050505050600060405180830381600087803b158015611c7f57600080fd5b505af1158015611c93573d6000803e3d6000fd5b50505050611c9f615ce0565b611cb28883615e8a90919063ffffffff16565b1115611d26576040517f08c379a00000000000000000000000000000000000000000000000000000000081526004018080602001828103825260038152602001807f494941000000000000000000000000000000000000000000000000000000000081525060200191505060405180910390fd5b50611ea8565b6000861215611d6457611d637f00000000000000000000000000000000000000000000000000000000000000008d88600003615adf565b5b6000611d6e615ea4565b90503373ffffffffffffffffffffffffffffffffffffffff1663fa461e3388888c8c6040518563ffffffff1660e01b815260040180858152602001848152602001806020018281038252848482818152602001925080828437600081840152601f19601f82011690508083019250505095505050505050600060405180830381600087803b158015611dff57600080fd5b505af1158015611e13573d6000803e3d6000fd5b50505050611e1f615ea4565b611e328783615e8a90919063ffffffff16565b1115611ea6576040517f08c379a00000000000000000000000000000000000000000000000000000000081526004018080602001828103825260038152602001807f494941000000000000000000000000000000000000000000000000000000000081525060200191505060405180910390fd5b505b8b73ffffffffffffffffffffffffffffffffffffffff163373ffffffffffffffffffffffffffffffffffffffff167fc42079f94a6350d7e6235f29174924f928cc2ac818eb64fed8004e115fbcca67888885604001518660c001518760600151604051808681526020018581526020018473ffffffffffffffffffffffffffffffffffffffff168152602001836fffffffffffffffffffffffffffffffff1681526020018260020b81526020019550505050505060405180910390a3600160008001601e6101000a81548160ff02191690831515021790555050505050965096945050505050565b600560009054906101000a90046fffffffffffffffffffffffffffffffff1681565b60048060000160009054906101000a90046fffffffffffffffffffffffffffffffff16908060000160109054906101000a90046fffffffffffffffffffffffffffffffff16905082565b60098161ffff811061200d57600080fd5b016000915090508060000160009054906101000a900463ffffffff16908060000160049054906101000a900460060b9080600001600b9054906101000a900473ffffffffffffffffffffffffffffffffffffffff169080600001601f9054906101000a900460ff16905084565b60008001601e9054906101000a900460ff166120fe576040517f08c379a00000000000000000000000000000000000000000000000000000000081526004018080602001828103825260038152602001807f4c4f4b000000000000000000000000000000000000000000000000000000000081525060200191505060405180910390fd5b600080600001601e6101000a81548160ff0219169083151502179055506121236145be565b600080600001601b9054906101000a900461ffff16905060006121528284600961604e9092919063ffffffff16565b90508060008001601b6101000a81548161ffff021916908361ffff1602179055508061ffff168261ffff16146121ca577fac49e518f90a358f652e4400164f05a5d8f7e35e7747279bc3a93dbf584e125a8282604051808361ffff1681526020018261ffff1681526020019250505060405180910390a15b5050600160008001601e6101000a81548160ff02191690831515021790555050565b60008060000160009054906101000a900473ffffffffffffffffffffffffffffffffffffffff16908060000160149054906101000a900460020b908060000160179054906101000a900461ffff16908060000160199054906101000a900461ffff169080600001601b9054906101000a900461ffff169080600001601d9054906101000a900460ff169080600001601e9054906101000a900460ff16908060010160009054906101000a900462ffffff16905088565b60008060008001601e9054906101000a900460ff16612329576040517f08c379a00000000000000000000000000000000000000000000000000000000081526004018080602001828103825260038152602001807f4c4f4b000000000000000000000000000000000000000000000000000000000081525060200191505060405180910390fd5b600080600001601e6101000a81548160ff0219169083151502179055506000856fffffffffffffffffffffffffffffffff161161236557600080fd5b6000806123ca60405180608001604052808c73ffffffffffffffffffffffffffffffffffffffff1681526020018b60020b81526020018a60020b81526020016123bf8a6fffffffffffffffffffffffffffffffff16616144565b600f0b81525061615d565b925092505081935080925060008060008611156123ec576123e9615ce0565b91505b6000851115612400576123fd615ea4565b90505b3373ffffffffffffffffffffffffffffffffffffffff1663d348799787878b8b6040518563ffffffff1660e01b815260040180858152602001848152602001806020018281038252848482818152602001925080828437600081840152601f19601f82011690508083019250505095505050505050600060405180830381600087803b15801561248f57600080fd5b505af11580156124a3573d6000803e3d6000fd5b505050506000861115612540576124b8615ce0565b6124cb8784615e8a90919063ffffffff16565b111561253f576040517f08c379a00000000000000000000000000000000000000000000000000000000081526004018080602001828103825260028152602001807f4d3000000000000000000000000000000000000000000000000000000000000081525060200191505060405180910390fd5b5b60008511156125d957612551615ea4565b6125648683615e8a90919063ffffffff16565b11156125d8576040517f08c379a00000000000000000000000000000000000000000000000000000000081526004018080602001828103825260028152602001807f4d3100000000000000000000000000000000000000000000000000000000000081525060200191505060405180910390fd5b5b8960020b8b60020b8d73ffffffffffffffffffffffffffffffffffffffff167f7a53080ba414158be7ec69b987b5fb7d07dee101fe85488f0853ae16239d0bde338d8b8b604051808573ffffffffffffffffffffffffffffffffffffffff168152602001846fffffffffffffffffffffffffffffffff16815260200183815260200182815260200194505050505060405180910390a450505050600160008001601e6101000a81548160ff021916908315150217905550965096945050505050565b60035481565b60008001601e9054906101000a900460ff16612725576040517f08c379a00000000000000000000000000000000000000000000000000000000081526004018080602001828103825260038152602001807f4c4f4b000000000000000000000000000000000000000000000000000000000081525060200191505060405180910390fd5b600080600001601e6101000a81548160ff02191690831515021790555061274a6145be565b6000600560009054906101000a90046fffffffffffffffffffffffffffffffff1690506000816fffffffffffffffffffffffffffffffff16116127f5576040517f08c379a00000000000000000000000000000000000000000000000000000000081526004018080602001828103825260018152602001807f4c0000000000000000000000000000000000000000000000000000000000000081525060200191505060405180910390fd5b600061282a867f000000000000000000000000000000000000000000000000000000000000000062ffffff16620f42406164a5565b90506000612861867f000000000000000000000000000000000000000000000000000000000000000062ffffff16620f42406164a5565b9050600061286d615ce0565b90506000612879615ea4565b905060008911156128b0576128af7f00000000000000000000000000000000000000000000000000000000000000008b8b615adf565b5b60008811156128e5576128e47f00000000000000000000000000000000000000000000000000000000000000008b8a615adf565b5b3373ffffffffffffffffffffffffffffffffffffffff1663e9cbafb085858a8a6040518563ffffffff1660e01b815260040180858152602001848152602001806020018281038252848482818152602001925080828437600081840152601f19601f82011690508083019250505095505050505050600060405180830381600087803b15801561297457600080fd5b505af1158015612988573d6000803e3d6000fd5b505050506000612996615ce0565b905060006129a2615ea4565b9050816129b88786615e8a90919063ffffffff16565b1115612a2c576040517f08c379a00000000000000000000000000000000000000000000000000000000081526004018080602001828103825260028152602001807f463000000000000000000000000000000000000000000000000000000000000081525060200191505060405180910390fd5b80612a408685615e8a90919063ffffffff16565b1115612ab4576040517f08c379a00000000000000000000000000000000000000000000000000000000081526004018080602001828103825260028152602001807f463100000000000000000000000000000000000000000000000000000000000081525060200191505060405180910390fd5b60008483039050600084830390506000821115612bcc576000601060008001601d9054906101000a900460ff1660ff1681612aeb57fe5b0690506000808260ff1614612b0c578160ff168481612b0657fe5b04612b0f565b60005b90506000816fffffffffffffffffffffffffffffffff161115612b8a5780600460000160008282829054906101000a90046fffffffffffffffffffffffffffffffff160192506101000a8154816fffffffffffffffffffffffffffffffff02191690836fffffffffffffffffffffffffffffffff1602179055505b612bba8185037001000000000000000000000000000000008d6fffffffffffffffffffffffffffffffff16614f0f565b60026000828254019250508190555050505b6000811115612cd0576000600460008001601d9054906101000a900460ff1660ff16901c90506000808260ff1614612c10578160ff168381612c0a57fe5b04612c13565b60005b90506000816fffffffffffffffffffffffffffffffff161115612c8e5780600460000160108282829054906101000a90046fffffffffffffffffffffffffffffffff160192506101000a8154816fffffffffffffffffffffffffffffffff02191690836fffffffffffffffffffffffffffffffff1602179055505b612cbe8184037001000000000000000000000000000000008d6fffffffffffffffffffffffffffffffff16614f0f565b60036000828254019250508190555050505b8d73ffffffffffffffffffffffffffffffffffffffff163373ffffffffffffffffffffffffffffffffffffffff167fbdbdb71d7860376ba52b25a5028beea23581364a40522f6bcfb86bb1f2dca6338f8f86866040518085815260200184815260200183815260200182815260200194505050505060405180910390a3505050505050505050600160008001601e6101000a81548160ff0219169083151502179055505050505050565b60008060008001601e9054906101000a900460ff16612e01576040517f08c379a00000000000000000000000000000000000000000000000000000000081526004018080602001828103825260038152602001807f4c4f4b000000000000000000000000000000000000000000000000000000000081525060200191505060405180910390fd5b600080600001601e6101000a81548160ff0219169083151502179055506000612e383388886008616503909392919063ffffffff16565b90508060030160009054906101000a90046fffffffffffffffffffffffffffffffff166fffffffffffffffffffffffffffffffff16856fffffffffffffffffffffffffffffffff1611612e8b5784612ead565b8060030160009054906101000a90046fffffffffffffffffffffffffffffffff165b92508060030160109054906101000a90046fffffffffffffffffffffffffffffffff166fffffffffffffffffffffffffffffffff16846fffffffffffffffffffffffffffffffff1611612f005783612f22565b8060030160109054906101000a90046fffffffffffffffffffffffffffffffff165b91506000836fffffffffffffffffffffffffffffffff161115612fd957828160030160008282829054906101000a90046fffffffffffffffffffffffffffffffff160392506101000a8154816fffffffffffffffffffffffffffffffff02191690836fffffffffffffffffffffffffffffffff160217905550612fd87f000000000000000000000000000000000000000000000000000000000000000089856fffffffffffffffffffffffffffffffff16615adf565b5b6000826fffffffffffffffffffffffffffffffff16111561308e57818160030160108282829054906101000a90046fffffffffffffffffffffffffffffffff160392506101000a8154816fffffffffffffffffffffffffffffffff02191690836fffffffffffffffffffffffffffffffff16021790555061308d7f000000000000000000000000000000000000000000000000000000000000000089846fffffffffffffffffffffffffffffffff16615adf565b5b8560020b8760020b3373ffffffffffffffffffffffffffffffffffffffff167f70935338e69775456a85ddef226c395fb668b63fa0115f5f20610b388e6ca9c08b8787604051808473ffffffffffffffffffffffffffffffffffffffff168152602001836fffffffffffffffffffffffffffffffff168152602001826fffffffffffffffffffffffffffffffff168152602001935050505060405180910390a450600160008001601e6101000a81548160ff0219169083151502179055509550959350505050565b60086020528060005260406000206000915090508060000160009054906101000a90046fffffffffffffffffffffffffffffffff16908060010154908060020154908060030160009054906101000a90046fffffffffffffffffffffffffffffffff16908060030160109054906101000a90046fffffffffffffffffffffffffffffffff16905085565b60076020528060005260406000206000915090505481565b7f000000000000000000000000000000000000000000000000000000000000000081565b60008001601e9054906101000a900460ff166132a0576040517f08c379a00000000000000000000000000000000000000000000000000000000081526004018080602001828103825260038152602001807f4c4f4b000000000000000000000000000000000000000000000000000000000081525060200191505060405180910390fd5b600080600001601e6101000a81548160ff0219169083151502179055507f000000000000000000000000000000000000000000000000000000000000000073ffffffffffffffffffffffffffffffffffffffff16638da5cb5b6040518163ffffffff1660e01b815260040160206040518083038186803b15801561332357600080fd5b505afa158015613337573d6000803e3d6000fd5b505050506040513d602081101561334d57600080fd5b810190808051906020019092919050505073ffffffffffffffffffffffffffffffffffffffff163373ffffffffffffffffffffffffffffffffffffffff161461339557600080fd5b60008260ff1614806133bb575060048260ff16101580156133ba5750600a8260ff1611155b5b80156133e9575060008160ff1614806133e8575060048160ff16101580156133e75750600a8160ff1611155b5b5b6133f257600080fd5b600080600001601d9054906101000a900460ff16905060048260ff16901b830160008001601d6101000a81548160ff021916908360ff1602179055507f973d8d92bb299f4af6ce49b52a8adb85ae46b9f214c4c4fc06ac77401237b13360108260ff168161345c57fe5b0660048360ff16901c8585604051808560ff1681526020018460ff1681526020018360ff1681526020018260ff16815260200194505050505060405180910390a150600160008001601e6101000a81548160ff0219169083151502179055505050565b60008060008001601e9054906101000a900460ff16613546576040517f08c379a00000000000000000000000000000000000000000000000000000000081526004018080602001828103825260038152602001807f4c4f4b000000000000000000000000000000000000000000000000000000000081525060200191505060405180910390fd5b600080600001601e6101000a81548160ff0219169083151502179055507f000000000000000000000000000000000000000000000000000000000000000073ffffffffffffffffffffffffffffffffffffffff16638da5cb5b6040518163ffffffff1660e01b815260040160206040518083038186803b1580156135c957600080fd5b505afa1580156135dd573d6000803e3d6000fd5b505050506040513d60208110156135f357600080fd5b810190808051906020019092919050505073ffffffffffffffffffffffffffffffffffffffff163373ffffffffffffffffffffffffffffffffffffffff161461363b57600080fd5b600460000160009054906101000a90046fffffffffffffffffffffffffffffffff166fffffffffffffffffffffffffffffffff16846fffffffffffffffffffffffffffffffff161161368d57836136b0565b600460000160009054906101000a90046fffffffffffffffffffffffffffffffff165b9150600460000160109054906101000a90046fffffffffffffffffffffffffffffffff166fffffffffffffffffffffffffffffffff16836fffffffffffffffffffffffffffffffff16116137045782613727565b600460000160109054906101000a90046fffffffffffffffffffffffffffffffff165b90506000826fffffffffffffffffffffffffffffffff16111561383657600460000160009054906101000a90046fffffffffffffffffffffffffffffffff166fffffffffffffffffffffffffffffffff16826fffffffffffffffffffffffffffffffff16141561379b578180600190039250505b81600460000160008282829054906101000a90046fffffffffffffffffffffffffffffffff160392506101000a8154816fffffffffffffffffffffffffffffffff02191690836fffffffffffffffffffffffffffffffff1602179055506138357f000000000000000000000000000000000000000000000000000000000000000086846fffffffffffffffffffffffffffffffff16615adf565b5b6000816fffffffffffffffffffffffffffffffff16111561394357600460000160109054906101000a90046fffffffffffffffffffffffffffffffff166fffffffffffffffffffffffffffffffff16816fffffffffffffffffffffffffffffffff1614156138a8578080600190039150505b80600460000160108282829054906101000a90046fffffffffffffffffffffffffffffffff160392506101000a8154816fffffffffffffffffffffffffffffffff02191690836fffffffffffffffffffffffffffffffff1602179055506139427f000000000000000000000000000000000000000000000000000000000000000086836fffffffffffffffffffffffffffffffff16615adf565b5b8473ffffffffffffffffffffffffffffffffffffffff163373ffffffffffffffffffffffffffffffffffffffff167f596b573906218d3411850b26a6b437d6c4522fdb43d2d2386263f86d50b8b151848460405180836fffffffffffffffffffffffffffffffff168152602001826fffffffffffffffffffffffffffffffff1681526020019250505060405180910390a3600160008001601e6101000a81548160ff021916908315150217905550935093915050565b606080613a046145be565b613abd613a0f614618565b858580806020026020016040519081016040528093929190818152602001838360200280828437600081840152601f19601f820116905080830192505050505050506000800160149054906101000a900460020b6000800160179054906101000a900461ffff16600560009054906101000a90046fffffffffffffffffffffffffffffffff166000800160199054906101000a900461ffff16600961657c909695949392919063ffffffff16565b915091509250929050565b60008060008001601e9054906101000a900460ff16613b4f576040517f08c379a00000000000000000000000000000000000000000000000000000000081526004018080602001828103825260038152602001807f4c4f4b000000000000000000000000000000000000000000000000000000000081525060200191505060405180910390fd5b600080600001601e6101000a81548160ff0219169083151502179055506000806000613bd660405180608001604052803373ffffffffffffffffffffffffffffffffffffffff1681526020018a60020b81526020018960020b8152602001613bc8896fffffffffffffffffffffffffffffffff16616144565b600003600f0b81525061615d565b9250925092508160000394508060000393506000851180613bf75750600084115b15613cbf57848360030160009054906101000a90046fffffffffffffffffffffffffffffffff1601848460030160109054906101000a90046fffffffffffffffffffffffffffffffff16018460030160008660030160108491906101000a8154816fffffffffffffffffffffffffffffffff02191690836fffffffffffffffffffffffffffffffff1602179055508391906101000a8154816fffffffffffffffffffffffffffffffff02191690836fffffffffffffffffffffffffffffffff16021790555050505b8660020b8860020b3373ffffffffffffffffffffffffffffffffffffffff167f0c396cd989a39f4459b5fa1aed6a9a8dcdbc45908acfd67e028cd568da98982c89898960405180846fffffffffffffffffffffffffffffffff168152602001838152602001828152602001935050505060405180910390a4505050600160008001601e6101000a81548160ff021916908315150217905550935093915050565b6000806000613d6c6145be565b613d768585616737565b6000806000806000806000600660008d60020b60020b815260200190815260200160002090506000600660008d60020b60020b8152602001908152602001600020905060008260030160009054906101000a900460060b8360030160079054906101000a900473ffffffffffffffffffffffffffffffffffffffff1684600301601b9054906101000a900463ffffffff1685600301601f9054906101000a900460ff16809450819850829a50839c505050505080613e3357600080fd5b60008260030160009054906101000a900460060b8360030160079054906101000a900473ffffffffffffffffffffffffffffffffffffffff1684600301601b9054906101000a900463ffffffff1685600301601f9054906101000a900460ff16809450819850829a50839c505050505080613ead57600080fd5b50505050600080604051806101000160405290816000820160009054906101000a900473ffffffffffffffffffffffffffffffffffffffff1673ffffffffffffffffffffffffffffffffffffffff1673ffffffffffffffffffffffffffffffffffffffff1681526020016000820160149054906101000a900460020b60020b60020b81526020016000820160179054906101000a900461ffff1661ffff1661ffff1681526020016000820160199054906101000a900461ffff1661ffff1661ffff16815260200160008201601b9054906101000a900461ffff1661ffff1661ffff16815260200160008201601d9054906101000a900460ff1660ff1660ff16815260200160008201601e9054906101000a900460ff161515151581526020016001820160009054906101000a900462ffffff1662ffffff1662ffffff168152505090508b60020b816020015160020b121561401d57858703848603838503995099509950505050505050506140c6565b8a60020b816020015160020b12156140af576000614039614618565b905060008061408783600086602001518760400151600560009054906101000a90046fffffffffffffffffffffffffffffffff1689606001516009614fe9909695949392919063ffffffff16565b91509150888a830303878983030386888603039c509c509c50505050505050505050506140c6565b868603858503848403995099509950505050505050505b9250925092565b7f000000000000000000000000000000000000000000000000000000000000000081565b7f000000000000000000000000000000000000000000000000000000000000000081565b7f000000000000000000000000000000000000000000000000000000000000000081565b7f000000000000000000000000000000000000000000000000000000000000000081565b60025481565b60066020528060005260406000206000915090508060000160009054906101000a90046fffffffffffffffffffffffffffffffff16908060000160109054906101000a9004600f0b908060010154908060020154908060030160009054906101000a900460060b908060030160079054906101000a900473ffffffffffffffffffffffffffffffffffffffff169080600301601b9054906101000a900463ffffffff169080600301601f9054906101000a900460ff16905088565b60008060000160009054906101000a900473ffffffffffffffffffffffffffffffffffffffff1673ffffffffffffffffffffffffffffffffffffffff16146142ce576040517f08c379a00000000000000000000000000000000000000000000000000000000081526004018080602001828103825260028152602001807f414900000000000000000000000000000000000000000000000000000000000081525060200191505060405180910390fd5b60006142d9826154b1565b90506000806142f96142e9614618565b60096168f190919063ffffffff16565b915091506040518061010001604052808573ffffffffffffffffffffffffffffffffffffffff1681526020018460020b8152602001600061ffff1681526020018361ffff1681526020018261ffff168152602001600060ff168152602001600115158152602001600062ffffff168152506000808201518160000160006101000a81548173ffffffffffffffffffffffffffffffffffffffff021916908373ffffffffffffffffffffffffffffffffffffffff16021790555060208201518160000160146101000a81548162ffffff021916908360020b62ffffff16021790555060408201518160000160176101000a81548161ffff021916908361ffff16021790555060608201518160000160196101000a81548161ffff021916908361ffff160217905550608082015181600001601b6101000a81548161ffff021916908361ffff16021790555060a082015181600001601d6101000a81548160ff021916908360ff16021790555060c082015181600001601e6101000a81548160ff02191690831515021790555060e08201518160010160006101000a81548162ffffff021916908362ffffff1602179055509050507f98636036cb66a9c19a37435efc1e90142190214e8abeb821bdba3f2990dd4c958484604051808373ffffffffffffffffffffffffffffffffffffffff1681526020018260020b81526020019250505060405180910390a150505050565b600080828360020b7ffffffffffffffffffffffffffffffffffffffffffffffffffffffffffff2761860020b8161453d57fe5b050290506000838460020b7ffffffffffffffffffffffffffffffffffffffffffffffffffffffffffff2761860000360020b8161457657fe5b05029050600060018560020b84840360020b8161458f57fe5b050190508062ffffff166fffffffffffffffffffffffffffffffff8016816145b357fe5b049350505050919050565b7f000000000000000000000000000000000000000000000000000000000000000073ffffffffffffffffffffffffffffffffffffffff163073ffffffffffffffffffffffffffffffffffffffff161461461657600080fd5b565b600042905090565b60008060008460020b8660020b8161463457fe5b05905060008660020b12801561465d575060008560020b8760020b8161465657fe5b0760020b14155b1561466c578080600190039150505b83156146f05760008061467e83616a17565b9150915060008160ff166001901b60018360ff166001901b030190506000818b60008660010b60010b81526020019081526020016000205416905060008114159550856146d257888360ff168603026146e5565b886146dc82616a3a565b840360ff168603025b96505050505061476e565b6000806146ff60018401616a17565b91509150600060018260ff166001901b031990506000818b60008660010b60010b815260200190815260200160002054169050600081141595508561475157888360ff0360ff16600187010102614767565b888361475c83616b15565b0360ff166001870101025b9650505050505b5094509492505050565b60008060008360020b1261478f578260020b614797565b8260020b6000035b90507ffffffffffffffffffffffffffffffffffffffffffffffffffffffffffff2761860000360020b811115614835576040517f08c379a00000000000000000000000000000000000000000000000000000000081526004018080602001828103825260018152602001807f540000000000000000000000000000000000000000000000000000000000000081525060200191505060405180910390fd5b6000806001831614156148595770010000000000000000000000000000000061486b565b6ffffcb933bd6fad37aa2d162d1a5940015b70ffffffffffffffffffffffffffffffffff169050600060028316146148a55760806ffff97272373d413259a46990580e213a8202901c90505b600060048316146148ca5760806ffff2e50f5f656932ef12357cf3c7fdcc8202901c90505b600060088316146148ef5760806fffe5caca7e10e4e61c3624eaa0941cd08202901c90505b600060108316146149145760806fffcb9843d60f6159c9db58835c9266448202901c90505b600060208316146149395760806fff973b41fa98c081472e6896dfb254c08202901c90505b6000604083161461495e5760806fff2ea16466c96a3843ec78b326b528618202901c90505b600060808316146149835760806ffe5dee046a99a2a811c461f1969c30538202901c90505b60006101008316146149a95760806ffcbe86c7900a88aedcffc83b479aa3a48202901c90505b60006102008316146149cf5760806ff987a7253ac413176f2b074cf7815e548202901c90505b60006104008316146149f55760806ff3392b0822b70005940c7a398e4b70f38202901c90505b6000610800831614614a1b5760806fe7159475a2c29b7443b29c7fa6e889d98202901c90505b6000611000831614614a415760806fd097f3bdfd2022b8845ad8f792aa58258202901c90505b6000612000831614614a675760806fa9f746462d870fdf8a65dc1f90e061e58202901c90505b6000614000831614614a8d5760806f70d869a156d2a1b890bb3df62baf32f78202901c90505b6000618000831614614ab35760806f31be135f97d08fd981231505542fcfa68202901c90505b600062010000831614614ada5760806f09aa508b5b7a84e1c677de54f3e99bc98202901c90505b600062020000831614614b005760806e5d6af8dedb81196699c329225ee6048202901c90505b600062040000831614614b255760806d2216e584f5fa1ea926041bedfe988202901c90505b600062080000831614614b485760806b048a170391f7dc42444e8fa28202901c90505b60008460020b1315614b8157807fffffffffffffffffffffffffffffffffffffffffffffffffffffffffffffffff81614b7d57fe5b0490505b60006401000000008281614b9157fe5b0614614b9e576001614ba1565b60005b60ff16602082901c0192505050919050565b600080614be36000800160009054906101000a900473ffffffffffffffffffffffffffffffffffffffff16616c3c565b90506000614bef616c82565b90506000614bfd8383616ccf565b90506032811015614c15576101f49350505050614c34565b6096811115614c2b576127109350505050614c34565b610bb893505050505b90565b60008060008060008873ffffffffffffffffffffffffffffffffffffffff168a73ffffffffffffffffffffffffffffffffffffffff161015905060008088121590508015614ce6576000614c998989620f42400362ffffff16620f4240614f0f565b905082614cb257614cad8c8c8c6001616d11565b614cc0565b614cbf8b8d8c6001616deb565b5b9550858110614cd1578a9650614ce0565b614cdd8c8b8386616f21565b96505b50614d32565b81614cfd57614cf88b8b8b6000616deb565b614d0b565b614d0a8a8c8b6000616d11565b5b9350838860000310614d1f57899550614d31565b614d2e8b8a8a60000385616f93565b95505b5b60008673ffffffffffffffffffffffffffffffffffffffff168b73ffffffffffffffffffffffffffffffffffffffff161490508215614db957808015614d755750815b614d8b57614d86878d8c6001616deb565b614d8d565b855b9550808015614d9a575081155b614db057614dab878d8c6000616d11565b614db2565b845b9450614e03565b808015614dc35750815b614dd957614dd48c888c6001616d11565b614ddb565b855b9550808015614de8575081155b614dfe57614df98c888c6000616deb565b614e00565b845b94505b81158015614e1357508860000385115b15614e1f578860000394505b818015614e5857508a73ffffffffffffffffffffffffffffffffffffffff168773ffffffffffffffffffffffffffffffffffffffff1614155b15614e67578589039350614e84565b614e81868962ffffff168a620f42400362ffffff166164a5565b93505b50505095509550955095915050565b60007f80000000000000000000000000000000000000000000000000000000000000008210614ec157600080fd5b819050919050565b6000808212151515838385039250821315151514614ee657600080fd5b92915050565b6000808212151515838385019250821215151514614f0957600080fd5b92915050565b600080600080198587098587029250828110838203039150506000811415614f4a5760008411614f3e57600080fd5b83820492505050614fe2565b808411614f5657600080fd5b600084868809905082811182039150808303925060008586600003169050808604955080840493506001818260000304019050808302841793506000600287600302189050808702600203810290508087026002038102905080870260020381029050808702600203810290508087026002038102905080870260020381029050808502955050505050505b9392505050565b60008060008763ffffffff16141561510a576000898661ffff1661ffff811061500e57fe5b016040518060800160405290816000820160009054906101000a900463ffffffff1663ffffffff1663ffffffff1681526020016000820160049054906101000a900460060b60060b60060b815260200160008201600b9054906101000a900473ffffffffffffffffffffffffffffffffffffffff1673ffffffffffffffffffffffffffffffffffffffff1673ffffffffffffffffffffffffffffffffffffffff16815260200160008201601f9054906101000a900460ff16151515158152505090508863ffffffff16816000015163ffffffff16146150f6576150f3818a8988617005565b90505b806020015181604001519250925050615210565b600087890390506000806151238c8c858c8c8c8c6170f0565b91509150816000015163ffffffff168363ffffffff161415615155578160200151826040015194509450505050615210565b806000015163ffffffff168363ffffffff161415615183578060200151816040015194509450505050615210565b60008260000151826000015103905060008360000151850390508063ffffffff168263ffffffff16856020015185602001510360060b816151c057fe5b05028460200151018263ffffffff168263ffffffff16866040015186604001510373ffffffffffffffffffffffffffffffffffffffff1602816151ff57fe5b048560400151019650965050505050505b97509795505050505050565b6000808860008960020b60020b815260200190815260200160002090508060010154870381600101819055508060020154860381600201819055508060030160079054906101000a900473ffffffffffffffffffffffffffffffffffffffff1685038160030160076101000a81548173ffffffffffffffffffffffffffffffffffffffff021916908373ffffffffffffffffffffffffffffffffffffffff1602179055508060030160009054906101000a900460060b84038160030160006101000a81548166ffffffffffffff021916908360060b66ffffffffffffff16021790555080600301601b9054906101000a900463ffffffff16830381600301601b6101000a81548163ffffffff021916908363ffffffff1602179055508060000160109054906101000a9004600f0b915050979650505050505050565b60008082600f0b121561540b57826fffffffffffffffffffffffffffffffff168260000384039150816fffffffffffffffffffffffffffffffff1610615406576040517f08c379a00000000000000000000000000000000000000000000000000000000081526004018080602001828103825260028152602001807f4c5300000000000000000000000000000000000000000000000000000000000081525060200191505060405180910390fd5b6154ab565b826fffffffffffffffffffffffffffffffff168284019150816fffffffffffffffffffffffffffffffff1610156154aa576040517f08c379a00000000000000000000000000000000000000000000000000000000081526004018080602001828103825260028152602001807f4c4100000000000000000000000000000000000000000000000000000000000081525060200191505060405180910390fd5b5b92915050565b60006401000276a373ffffffffffffffffffffffffffffffffffffffff168273ffffffffffffffffffffffffffffffffffffffff1610158015615533575073fffd8963efd1fc6a506488495d951d5263988d2673ffffffffffffffffffffffffffffffffffffffff168273ffffffffffffffffffffffffffffffffffffffff16105b6155a5576040517f08c379a00000000000000000000000000000000000000000000000000000000081526004018080602001828103825260018152602001807f520000000000000000000000000000000000000000000000000000000000000081525060200191505060405180910390fd5b600060208373ffffffffffffffffffffffffffffffffffffffff16901b9050600081905060006fffffffffffffffffffffffffffffffff821160071b808217915082811c92505067ffffffffffffffff821160061b808217915082811c92505063ffffffff821160051b808217915082811c92505061ffff821160041b808217915082811c92505060ff821160031b808217915082811c925050600f821160021b808217915082811c9250506003821160011b808217915082811c925050600182118082179150506080811061568357607f810383901c915061568d565b80607f0383901b91505b6000604060808303901b9050828302607f1c92508260801c80603f1b8217915083811c935050828302607f1c92508260801c80603e1b8217915083811c935050828302607f1c92508260801c80603d1b8217915083811c935050828302607f1c92508260801c80603c1b8217915083811c935050828302607f1c92508260801c80603b1b8217915083811c935050828302607f1c92508260801c80603a1b8217915083811c935050828302607f1c92508260801c8060391b8217915083811c935050828302607f1c92508260801c8060381b8217915083811c935050828302607f1c92508260801c8060371b8217915083811c935050828302607f1c92508260801c8060361b8217915083811c935050828302607f1c92508260801c8060351b8217915083811c935050828302607f1c92508260801c8060341b8217915083811c935050828302607f1c92508260801c8060331b8217915083811c935050828302607f1c92508260801c8060321b82179150506000693627a301d71055774c8582029050600060806f028f6481ab7f045a5af012a19d003aaa8303901d9050600060806fdb2df09e81959a81455e260799a0632f8401901d90508060020b8260020b1461589d578873ffffffffffffffffffffffffffffffffffffffff1661587482614778565b73ffffffffffffffffffffffffffffffffffffffff1611156158965781615898565b805b61589f565b815b975050505050505050919050565b6000806000898961ffff1661ffff81106158c357fe5b016040518060800160405290816000820160009054906101000a900463ffffffff1663ffffffff1663ffffffff1681526020016000820160049054906101000a900460060b60060b60060b815260200160008201600b9054906101000a900473ffffffffffffffffffffffffffffffffffffffff1673ffffffffffffffffffffffffffffffffffffffff1673ffffffffffffffffffffffffffffffffffffffff16815260200160008201601f9054906101000a900460ff16151515158152505090508763ffffffff16816000015163ffffffff1614156159a95788859250925050615ad3565b8461ffff168461ffff161180156159ca57506001850361ffff168961ffff16145b156159d7578391506159db565b8491505b8161ffff1660018a0161ffff16816159ef57fe5b0692506159fe81898989617005565b8a8461ffff1661ffff8110615a0f57fe5b0160008201518160000160006101000a81548163ffffffff021916908363ffffffff16021790555060208201518160000160046101000a81548166ffffffffffffff021916908360060b66ffffffffffffff160217905550604082015181600001600b6101000a81548173ffffffffffffffffffffffffffffffffffffffff021916908373ffffffffffffffffffffffffffffffffffffffff160217905550606082015181600001601f6101000a81548160ff021916908315150217905550905050505b97509795505050505050565b6000808473ffffffffffffffffffffffffffffffffffffffff1663a9059cbb60e01b8585604051602401808373ffffffffffffffffffffffffffffffffffffffff16815260200182815260200192505050604051602081830303815290604052907bffffffffffffffffffffffffffffffffffffffffffffffffffffffff19166020820180517bffffffffffffffffffffffffffffffffffffffffffffffffffffffff83818316178352505050506040518082805190602001908083835b60208310615bc05780518252602082019150602081019050602083039250615b9d565b6001836020036101000a0380198251168184511680821785525050505050509050019150506000604051808303816000865af19150503d8060008114615c22576040519150601f19603f3d011682016040523d82523d6000602084013e615c27565b606091505b5091509150818015615c675750600081511480615c665750808060200190516020811015615c5457600080fd5b81019080805190602001909291905050505b5b615cd9576040517f08c379a00000000000000000000000000000000000000000000000000000000081526004018080602001828103825260028152602001807f544600000000000000000000000000000000000000000000000000000000000081525060200191505060405180910390fd5b5050505050565b60008060007f000000000000000000000000000000000000000000000000000000000000000073ffffffffffffffffffffffffffffffffffffffff166370a0823160e01b30604051602401808273ffffffffffffffffffffffffffffffffffffffff168152602001915050604051602081830303815290604052907bffffffffffffffffffffffffffffffffffffffffffffffffffffffff19166020820180517bffffffffffffffffffffffffffffffffffffffffffffffffffffffff83818316178352505050506040518082805190602001908083835b60208310615ddb5780518252602082019150602081019050602083039250615db8565b6001836020036101000a038019825116818451168082178552505050505050905001915050600060405180830381855afa9150503d8060008114615e3b576040519150601f19603f3d011682016040523d82523d6000602084013e615e40565b606091505b5091509150818015615e5457506020815110155b615e5d57600080fd5b808060200190516020811015615e7257600080fd5b81019080805190602001909291905050509250505090565b6000828284019150811015615e9e57600080fd5b92915050565b60008060007f000000000000000000000000000000000000000000000000000000000000000073ffffffffffffffffffffffffffffffffffffffff166370a0823160e01b30604051602401808273ffffffffffffffffffffffffffffffffffffffff168152602001915050604051602081830303815290604052907bffffffffffffffffffffffffffffffffffffffffffffffffffffffff19166020820180517bffffffffffffffffffffffffffffffffffffffffffffffffffffffff83818316178352505050506040518082805190602001908083835b60208310615f9f5780518252602082019150602081019050602083039250615f7c565b6001836020036101000a038019825116818451168082178552505050505050905001915050600060405180830381855afa9150503d8060008114615fff576040519150601f19603f3d011682016040523d82523d6000602084013e616004565b606091505b509150915081801561601857506020815110155b61602157600080fd5b80806020019051602081101561603657600080fd5b81019080805190602001909291905050509250505090565b6000808361ffff16116160c9576040517f08c379a00000000000000000000000000000000000000000000000000000000081526004018080602001828103825260018152602001807f490000000000000000000000000000000000000000000000000000000000000081525060200191505060405180910390fd5b8261ffff168261ffff16116160e05782905061613d565b60008390505b8261ffff168161ffff161015616138576001858261ffff1661ffff811061610957fe5b0160000160006101000a81548163ffffffff021916908363ffffffff16021790555080806001019150506160e6565b508190505b9392505050565b60008182915081600f0b1461615857600080fd5b919050565b600080600061616a6145be565b61617c84602001518560400151616737565b600080604051806101000160405290816000820160009054906101000a900473ffffffffffffffffffffffffffffffffffffffff1673ffffffffffffffffffffffffffffffffffffffff1673ffffffffffffffffffffffffffffffffffffffff1681526020016000820160149054906101000a900460020b60020b60020b81526020016000820160179054906101000a900461ffff1661ffff1661ffff1681526020016000820160199054906101000a900461ffff1661ffff1661ffff16815260200160008201601b9054906101000a900461ffff1661ffff1661ffff16815260200160008201601d9054906101000a900460ff1660ff1660ff16815260200160008201601e9054906101000a900460ff161515151581526020016001820160009054906101000a900462ffffff1662ffffff1662ffffff168152505090506162dc8560000151866020015187604001518860600151856020015161747a565b935060008560600151600f0b1461649d57846020015160020b816020015160020b12156163315761632a6163138660200151614778565b6163208760400151614778565b87606001516176d3565b925061649c565b846040015160020b816020015160020b1215616471576000600560009054906101000a90046fffffffffffffffffffffffffffffffff16905061639f826040015161637a614618565b8460200151848660600151876080015160096158ad909695949392919063ffffffff16565b6000800160176000800160198491906101000a81548161ffff021916908361ffff1602179055508391906101000a81548161ffff021916908361ffff160217905550505061640282600001516163f88860400151614778565b88606001516176d3565b93506164236164148760200151614778565b8360000151886060015161771e565b9250616433818760600151615358565b600560006101000a8154816fffffffffffffffffffffffffffffffff02191690836fffffffffffffffffffffffffffffffff1602179055505061649b565b6164986164818660200151614778565b61648e8760400151614778565b876060015161771e565b91505b5b5b509193909250565b60006164b2848484614f0f565b9050600082806164be57fe5b84860911156164fc577fffffffffffffffffffffffffffffffffffffffffffffffffffffffffffffffff81106164f357600080fd5b80806001019150505b9392505050565b6000846000858585604051602001808473ffffffffffffffffffffffffffffffffffffffff1660601b81526014018360020b60e81b81526003018260020b60e81b815260030193505050506040516020818303038152906040528051906020012081526020019081526020016000209050949350505050565b60608060008361ffff16116165f9576040517f08c379a00000000000000000000000000000000000000000000000000000000081526004018080602001828103825260018152602001807f490000000000000000000000000000000000000000000000000000000000000081525060200191505060405180910390fd5b865167ffffffffffffffff8111801561661157600080fd5b506040519080825280602002602001820160405280156166405781602001602082028036833780820191505090505b509150865167ffffffffffffffff8111801561665b57600080fd5b5060405190808252806020026020018201604052801561668a5781602001602082028036833780820191505090505b50905060005b875181101561672a576166bb8a8a8a84815181106166aa57fe5b60200260200101518a8a8a8a614fe9565b8483815181106166c757fe5b602002602001018484815181106166da57fe5b602002602001018273ffffffffffffffffffffffffffffffffffffffff1673ffffffffffffffffffffffffffffffffffffffff168152508260060b60060b81525050508080600101915050616690565b5097509795505050505050565b8060020b8260020b126167b2576040517f08c379a00000000000000000000000000000000000000000000000000000000081526004018080602001828103825260038152602001807f544c55000000000000000000000000000000000000000000000000000000000081525060200191505060405180910390fd5b7ffffffffffffffffffffffffffffffffffffffffffffffffffffffffffff2761860020b8260020b121561684e576040517f08c379a00000000000000000000000000000000000000000000000000000000081526004018080602001828103825260038152602001807f544c4d000000000000000000000000000000000000000000000000000000000081525060200191505060405180910390fd5b7ffffffffffffffffffffffffffffffffffffffffffffffffffffffffffff2761860000360020b8160020b13156168ed576040517f08c379a00000000000000000000000000000000000000000000000000000000081526004018080602001828103825260038152602001807f54554d000000000000000000000000000000000000000000000000000000000081525060200191505060405180910390fd5b5050565b60008060405180608001604052808463ffffffff168152602001600060060b8152602001600073ffffffffffffffffffffffffffffffffffffffff1681526020016001151581525084600061ffff811061694757fe5b0160008201518160000160006101000a81548163ffffffff021916908363ffffffff16021790555060208201518160000160046101000a81548166ffffffffffffff021916908360060b66ffffffffffffff160217905550604082015181600001600b6101000a81548173ffffffffffffffffffffffffffffffffffffffff021916908373ffffffffffffffffffffffffffffffffffffffff160217905550606082015181600001601f6101000a81548160ff021916908315150217905550905050600180915091509250929050565b60008060088360020b901d91506101008360020b81616a3257fe5b079050915091565b6000808211616a4857600080fd5b7001000000000000000000000000000000008210616a6e57608082901c91506080810190505b680100000000000000008210616a8c57604082901c91506040810190505b6401000000008210616aa657602082901c91506020810190505b620100008210616abe57601082901c91506010810190505b6101008210616ad557600882901c91506008810190505b60108210616aeb57600482901c91506004810190505b60048210616b0157600282901c91506002810190505b60028210616b10576001810190505b919050565b6000808211616b2357600080fd5b60ff905060006fffffffffffffffffffffffffffffffff801683161115616b4f57608081039050616b57565b608082901c91505b600067ffffffffffffffff801683161115616b7757604081039050616b7f565b604082901c91505b600063ffffffff801683161115616b9b57602081039050616ba3565b602082901c91505b600061ffff801683161115616bbd57601081039050616bc5565b601082901c91505b600060ff801683161115616bde57600881039050616be6565b600882901c91505b6000600f83161115616bfd57600481039050616c05565b600482901c91505b6000600383161115616c1c57600281039050616c24565b600282901c91505b6000600183161115616c37576001810390505b919050565b600060c0670de0b6b3a76400008373ffffffffffffffffffffffffffffffffffffffff168473ffffffffffffffffffffffffffffffffffffffff160202901c9050919050565b600080616c9130610258617769565b5060020b9050600061025863ffffffff1660060b8260060b81616cb057fe5b059050616cc881670de0b6b3a7640000600080617bd6565b9250505090565b600080821415616ce25760009050616d0b565b6000828411616cf357838303616cf7565b8284035b905082612710820281616d0657fe5b049150505b92915050565b60008373ffffffffffffffffffffffffffffffffffffffff168573ffffffffffffffffffffffffffffffffffffffff161115616d5257838580955081965050505b81616d9e57616d99836fffffffffffffffffffffffffffffffff1686860373ffffffffffffffffffffffffffffffffffffffff166c01000000000000000000000000614f0f565b616de1565b616de0836fffffffffffffffffffffffffffffffff1686860373ffffffffffffffffffffffffffffffffffffffff166c010000000000000000000000006164a5565b5b9050949350505050565b60008373ffffffffffffffffffffffffffffffffffffffff168573ffffffffffffffffffffffffffffffffffffffff161115616e2c57838580955081965050505b6000606060ff16846fffffffffffffffffffffffffffffffff16901b9050600086860373ffffffffffffffffffffffffffffffffffffffff16905060008773ffffffffffffffffffffffffffffffffffffffff1611616e8a57600080fd5b83616ed4578673ffffffffffffffffffffffffffffffffffffffff16616ec783838973ffffffffffffffffffffffffffffffffffffffff16614f0f565b81616ece57fe5b04616f15565b616f14616ef883838973ffffffffffffffffffffffffffffffffffffffff166164a5565b8873ffffffffffffffffffffffffffffffffffffffff16617dd9565b5b92505050949350505050565b6000808573ffffffffffffffffffffffffffffffffffffffff1611616f4557600080fd5b6000846fffffffffffffffffffffffffffffffff1611616f6457600080fd5b81616f7b57616f768585856001617dec565b616f89565b616f888585856001617f5e565b5b9050949350505050565b6000808573ffffffffffffffffffffffffffffffffffffffff1611616fb757600080fd5b6000846fffffffffffffffffffffffffffffffff1611616fd657600080fd5b81616fed57616fe88585856000617f5e565b616ffb565b616ffa8585856000617dec565b5b9050949350505050565b61700d618d73565b600085600001518503905060405180608001604052808663ffffffff1681526020018263ffffffff168660020b0288602001510160060b81526020016000856fffffffffffffffffffffffffffffffff161161706a57600161706c565b845b6fffffffffffffffffffffffffffffffff1660808463ffffffff1673ffffffffffffffffffffffffffffffffffffffff16901b73ffffffffffffffffffffffffffffffffffffffff16816170bc57fe5b0488604001510173ffffffffffffffffffffffffffffffffffffffff16815260200160011515815250915050949350505050565b6170f8618d73565b617100618d73565b888561ffff1661ffff811061711157fe5b016040518060800160405290816000820160009054906101000a900463ffffffff1663ffffffff1663ffffffff1681526020016000820160049054906101000a900460060b60060b60060b815260200160008201600b9054906101000a900473ffffffffffffffffffffffffffffffffffffffff1673ffffffffffffffffffffffffffffffffffffffff1673ffffffffffffffffffffffffffffffffffffffff16815260200160008201601f9054906101000a900460ff16151515158152505091506171e2888360000151896180e8565b1561721a578663ffffffff16826000015163ffffffff1614156172045761746e565b8161721183898988617005565b9150915061746e565b888361ffff166001870161ffff168161722f57fe5b0661ffff1661ffff811061723f57fe5b016040518060800160405290816000820160009054906101000a900463ffffffff1663ffffffff1663ffffffff1681526020016000820160049054906101000a900460060b60060b60060b815260200160008201600b9054906101000a900473ffffffffffffffffffffffffffffffffffffffff1673ffffffffffffffffffffffffffffffffffffffff1673ffffffffffffffffffffffffffffffffffffffff16815260200160008201601f9054906101000a900460ff161515151581525050915081606001516173db5788600061ffff811061731857fe5b016040518060800160405290816000820160009054906101000a900463ffffffff1663ffffffff1663ffffffff1681526020016000820160049054906101000a900460060b60060b60060b815260200160008201600b9054906101000a900473ffffffffffffffffffffffffffffffffffffffff1673ffffffffffffffffffffffffffffffffffffffff1673ffffffffffffffffffffffffffffffffffffffff16815260200160008201601f9054906101000a900460ff16151515158152505091505b6173ea888360000151896180e8565b61745c576040517f08c379a00000000000000000000000000000000000000000000000000000000081526004018080602001828103825260038152602001807f4f4c44000000000000000000000000000000000000000000000000000000000081525060200191505060405180910390fd5b61746989898988876181b0565b915091505b97509795505050505050565b60006174948686866008616503909392919063ffffffff16565b90506000600254905060006003549050600080600087600f0b146176475760006174bc614618565b90506000806175338360008060000160149054906101000a900460020b6000800160179054906101000a900461ffff16600560009054906101000a90046fffffffffffffffffffffffffffffffff166000800160199054906101000a900461ffff166009614fe9909695949392919063ffffffff16565b9150915061757e8c8a8c8a8a86888a60007f00000000000000000000000000000000000000000000000000000000000000006006618433909a9998979695949392919063ffffffff16565b94506175c78b8a8c8a8a86888a60017f00000000000000000000000000000000000000000000000000000000000000006006618433909a9998979695949392919063ffffffff16565b93508415617606576176058c7f000000000000000000000000000000000000000000000000000000000000000060076187359092919063ffffffff16565b5b8315617643576176428b7f000000000000000000000000000000000000000000000000000000000000000060076187359092919063ffffffff16565b5b5050505b6000806176668b8b8a898960066187ad9095949392919063ffffffff16565b915091506176818983838a618874909392919063ffffffff16565b600089600f0b12156176c45783156176a8576176a78b6006618bf890919063ffffffff16565b5b82156176c3576176c28a6006618bf890919063ffffffff16565b5b5b50505050505095945050505050565b60008082600f0b126176f9576176f46176ef8585856001616deb565b614e93565b617715565b61771161770c8585856000036000616deb565b614e93565b6000035b90509392505050565b60008082600f0b126177445761773f61773a8585856001616d11565b614e93565b617760565b61775c6177578585856000036000616d11565b614e93565b6000035b90509392505050565b60008060008363ffffffff1614156177e9576040517f08c379a00000000000000000000000000000000000000000000000000000000081526004018080602001828103825260028152602001807f425000000000000000000000000000000000000000000000000000000000000081525060200191505060405180910390fd5b6000600267ffffffffffffffff8111801561780357600080fd5b506040519080825280602002602001820160405280156178325781602001602082028036833780820191505090505b509050838160008151811061784357fe5b602002602001019063ffffffff16908163ffffffff168152505060008160018151811061786c57fe5b602002602001019063ffffffff16908163ffffffff16815250506000808673ffffffffffffffffffffffffffffffffffffffff1663883bdbfd846040518263ffffffff1660e01b81526004018080602001828103825283818151815260200191508051906020019060200280838360005b838110156178f85780820151818401526020810190506178dd565b505050509050019250505060006040518083038186803b15801561791b57600080fd5b505afa15801561792f573d6000803e3d6000fd5b505050506040513d6000823e3d601f19601f82011682018060405250604081101561795957600080fd5b810190808051604051939291908464010000000082111561797957600080fd5b8382019150602082018581111561798f57600080fd5b82518660208202830111640100000000821117156179ac57600080fd5b8083526020830192505050908051906020019060200280838360005b838110156179e35780820151818401526020810190506179c8565b5050505090500160405260200180516040519392919084640100000000821115617a0c57600080fd5b83820191506020820185811115617a2257600080fd5b8251866020820283011164010000000082111715617a3f57600080fd5b8083526020830192505050908051906020019060200280838360005b83811015617a76578082015181840152602081019050617a5b565b5050505090500160405250505091509150600082600081518110617a9657fe5b602002602001015183600181518110617aab57fe5b6020026020010151039050600082600081518110617ac557fe5b602002602001015183600181518110617ada57fe5b60200260200101510390508763ffffffff168260060b81617af757fe5b05965060008260060b128015617b23575060008863ffffffff168360060b81617b1c57fe5b0760060b14155b15617b32578680600190039750505b600073ffffffffffffffffffffffffffffffffffffffff80168963ffffffff1602905060208273ffffffffffffffffffffffffffffffffffffffff1677ffffffffffffffffffffffffffffffffffffffffffffffff16901b77ffffffffffffffffffffffffffffffffffffffffffffffff168177ffffffffffffffffffffffffffffffffffffffffffffffff1681617bc657fe5b0496505050505050509250929050565b600080617be286614778565b90506fffffffffffffffffffffffffffffffff80168173ffffffffffffffffffffffffffffffffffffffff1611617cf35760008173ffffffffffffffffffffffffffffffffffffffff168273ffffffffffffffffffffffffffffffffffffffff160290508373ffffffffffffffffffffffffffffffffffffffff168573ffffffffffffffffffffffffffffffffffffffff1610617cb457617caf7801000000000000000000000000000000000000000000000000876fffffffffffffffffffffffffffffffff1683614f0f565b617ceb565b617cea81876fffffffffffffffffffffffffffffffff167801000000000000000000000000000000000000000000000000614f0f565b5b925050617dd0565b6000617d358273ffffffffffffffffffffffffffffffffffffffff168373ffffffffffffffffffffffffffffffffffffffff1668010000000000000000614f0f565b90508373ffffffffffffffffffffffffffffffffffffffff168573ffffffffffffffffffffffffffffffffffffffff1610617d9d57617d98700100000000000000000000000000000000876fffffffffffffffffffffffffffffffff1683614f0f565b617dcc565b617dcb81876fffffffffffffffffffffffffffffffff16700100000000000000000000000000000000614f0f565b5b9250505b50949350505050565b6000808284061182840401905092915050565b60008115617ea257600073ffffffffffffffffffffffffffffffffffffffff8016841115617e4357617e3e846c01000000000000000000000000876fffffffffffffffffffffffffffffffff16614f0f565b617e67565b846fffffffffffffffffffffffffffffffff16606060ff1685901b81617e6557fe5b045b9050617e9a617e95828873ffffffffffffffffffffffffffffffffffffffff16615e8a90919063ffffffff16565b618cd9565b915050617f56565b600073ffffffffffffffffffffffffffffffffffffffff8016841115617ef157617eec846c01000000000000000000000000876fffffffffffffffffffffffffffffffff166164a5565b617f15565b617f14606060ff1685901b866fffffffffffffffffffffffffffffffff16617dd9565b5b9050808673ffffffffffffffffffffffffffffffffffffffff1611617f3957600080fd5b808673ffffffffffffffffffffffffffffffffffffffff16039150505b949350505050565b600080831415617f70578490506180e0565b6000606060ff16856fffffffffffffffffffffffffffffffff16901b905082156180575760008673ffffffffffffffffffffffffffffffffffffffff16858873ffffffffffffffffffffffffffffffffffffffff16870292508281617fd157fe5b041415618013576000818301905082811061801157618007838973ffffffffffffffffffffffffffffffffffffffff16836164a5565b93505050506180e0565b505b61804e82618049878a73ffffffffffffffffffffffffffffffffffffffff16868161803a57fe5b04615e8a90919063ffffffff16565b617dd9565b925050506180e0565b60008673ffffffffffffffffffffffffffffffffffffffff16858873ffffffffffffffffffffffffffffffffffffffff1687029250828161809457fe5b041480156180a157508082115b6180aa57600080fd5b600081830390506180da6180d5848a73ffffffffffffffffffffffffffffffffffffffff16846164a5565b618cd9565b93505050505b949350505050565b60008363ffffffff168363ffffffff161115801561811257508363ffffffff168263ffffffff1611155b1561812e578163ffffffff168363ffffffff16111590506181a9565b60008463ffffffff168463ffffffff1611618156576401000000008463ffffffff160161815e565b8363ffffffff165b64ffffffffff16905060008563ffffffff168463ffffffff161161818f576401000000008463ffffffff1601618197565b8363ffffffff165b64ffffffffff16905080821115925050505b9392505050565b6181b8618d73565b6181c0618d73565b60008361ffff166001860161ffff16816181d657fe5b0661ffff169050600060018561ffff16830103905060005b6001156184265760028284018161820157fe5b049050898661ffff16828161821257fe5b0661ffff811061821e57fe5b016040518060800160405290816000820160009054906101000a900463ffffffff1663ffffffff1663ffffffff1681526020016000820160049054906101000a900460060b60060b60060b815260200160008201600b9054906101000a900473ffffffffffffffffffffffffffffffffffffffff1673ffffffffffffffffffffffffffffffffffffffff1673ffffffffffffffffffffffffffffffffffffffff16815260200160008201601f9054906101000a900460ff161515151581525050945084606001516182f4576001810192506181ee565b898661ffff16600183018161830557fe5b0661ffff811061831157fe5b016040518060800160405290816000820160009054906101000a900463ffffffff1663ffffffff1663ffffffff1681526020016000820160049054906101000a900460060b60060b60060b815260200160008201600b9054906101000a900473ffffffffffffffffffffffffffffffffffffffff1673ffffffffffffffffffffffffffffffffffffffff1673ffffffffffffffffffffffffffffffffffffffff16815260200160008201601f9054906101000a900460ff161515151581525050935060006183e48a87600001518b6180e8565b90508080156183fe57506183fd8a8a87600001516180e8565b5b156184095750618426565b8061841957600182039250618420565b6001820193505b506181ee565b5050509550959350505050565b6000808c60008d60020b60020b8152602001908152602001600020905060008160000160009054906101000a90046fffffffffffffffffffffffffffffffff1690506000618481828d615358565b9050846fffffffffffffffffffffffffffffffff16816fffffffffffffffffffffffffffffffff16111561851d576040517f08c379a00000000000000000000000000000000000000000000000000000000081526004018080602001828103825260028152602001807f4c4f00000000000000000000000000000000000000000000000000000000000081525060200191505060405180910390fd5b6000826fffffffffffffffffffffffffffffffff161415156000826fffffffffffffffffffffffffffffffff16141515141593506000826fffffffffffffffffffffffffffffffff16141561863c578c60020b8e60020b1361861e578a8360010181905550898360020181905550888360030160076101000a81548173ffffffffffffffffffffffffffffffffffffffff021916908373ffffffffffffffffffffffffffffffffffffffff160217905550878360030160006101000a81548166ffffffffffffff021916908360060b66ffffffffffffff1602179055508683600301601b6101000a81548163ffffffff021916908363ffffffff1602179055505b600183600301601f6101000a81548160ff0219169083151502179055505b808360000160006101000a8154816fffffffffffffffffffffffffffffffff02191690836fffffffffffffffffffffffffffffffff160217905550856186b3576186ae6186a98d600f0b8560000160109054906101000a9004600f0b600f0b614eec90919063ffffffff16565b616144565b6186e6565b6186e56186e08d600f0b8560000160109054906101000a9004600f0b600f0b614ec990919063ffffffff16565b616144565b5b8360000160106101000a8154816fffffffffffffffffffffffffffffffff0219169083600f0b6fffffffffffffffffffffffffffffffff1602179055505050509b9a5050505050505050505050565b60008160020b8360020b8161874657fe5b0760020b1461875457600080fd5b60008061876f8360020b8560020b8161876957fe5b05616a17565b9150915060008160ff166001901b9050808660008560010b60010b815260200190815260200160002060008282541892505081905550505050505050565b60008060008860008960020b60020b8152602001908152602001600020905060008960008960020b60020b815260200190815260200160002090506000808a60020b8960020b1261880b57836001015491508360020154905061881e565b8360010154880391508360020154870390505b6000808b60020b8b60020b1215618842578460010154915084600201549050618855565b84600101548a0391508460020154890390505b81848b0303975080838a03039650505050505050965096945050505050565b6000846040518060a00160405290816000820160009054906101000a90046fffffffffffffffffffffffffffffffff166fffffffffffffffffffffffffffffffff166fffffffffffffffffffffffffffffffff16815260200160018201548152602001600282015481526020016003820160009054906101000a90046fffffffffffffffffffffffffffffffff166fffffffffffffffffffffffffffffffff166fffffffffffffffffffffffffffffffff1681526020016003820160109054906101000a90046fffffffffffffffffffffffffffffffff166fffffffffffffffffffffffffffffffff166fffffffffffffffffffffffffffffffff1681525050905060008085600f0b1415618a1b57600082600001516fffffffffffffffffffffffffffffffff1611618a0f576040517f08c379a00000000000000000000000000000000000000000000000000000000081526004018080602001828103825260028152602001807f4e5000000000000000000000000000000000000000000000000000000000000081525060200191505060405180910390fd5b81600001519050618a2c565b618a29826000015186615358565b90505b6000618a668360200151860384600001516fffffffffffffffffffffffffffffffff16700100000000000000000000000000000000614f0f565b90506000618aa28460400151860385600001516fffffffffffffffffffffffffffffffff16700100000000000000000000000000000000614f0f565b9050600087600f0b14618aeb57828860000160006101000a8154816fffffffffffffffffffffffffffffffff02191690836fffffffffffffffffffffffffffffffff1602179055505b8588600101819055508488600201819055506000826fffffffffffffffffffffffffffffffff161180618b3057506000816fffffffffffffffffffffffffffffffff16115b15618bee57818860030160008282829054906101000a90046fffffffffffffffffffffffffffffffff160192506101000a8154816fffffffffffffffffffffffffffffffff02191690836fffffffffffffffffffffffffffffffff160217905550808860030160108282829054906101000a90046fffffffffffffffffffffffffffffffff160192506101000a8154816fffffffffffffffffffffffffffffffff02191690836fffffffffffffffffffffffffffffffff1602179055505b5050505050505050565b8160008260020b60020b8152602001908152602001600020600080820160006101000a8154906fffffffffffffffffffffffffffffffff02191690556000820160106101000a8154906fffffffffffffffffffffffffffffffff0219169055600182016000905560028201600090556003820160006101000a81549066ffffffffffffff02191690556003820160076101000a81549073ffffffffffffffffffffffffffffffffffffffff021916905560038201601b6101000a81549063ffffffff021916905560038201601f6101000a81549060ff021916905550505050565b6000818291508173ffffffffffffffffffffffffffffffffffffffff1614618d0057600080fd5b919050565b6040518060e00160405280600073ffffffffffffffffffffffffffffffffffffffff168152602001600060020b8152602001600015158152602001600073ffffffffffffffffffffffffffffffffffffffff1681526020016000815260200160008152602001600081525090565b6040518060800160405280600063ffffffff168152602001600060060b8152602001600073ffffffffffffffffffffffffffffffffffffffff168152602001600015158152509056fea2646970667358221220a15315a70e8d3442ee2fac739c13bf5f9dd14e78932aaa642ac9d4df5a77a7f264736f6c63430007060033","linkReferences":{}},"methodIdentifiers":{"burn(int24,int24,uint128)":"a34123a7","collect(address,int24,int24,uint128,uint128)":"4f1eb3d8","collectProtocol(address,uint128,uint128)":"85b66729","factory()":"c45a0155","fee()":"ddca3f43","feeGrowthGlobal0X128()":"f3058399","feeGrowthGlobal1X128()":"46141319","flash(address,uint256,uint256,bytes)":"490e6cbc","increaseObservationCardinalityNext(uint16)":"32148f67","initialize(uint160)":"f637731d","liquidity()":"1a686502","maxLiquidityPerTick()":"70cf754a","mint(address,int24,int24,uint128,bytes)":"3c8a7d8d","observations(uint256)":"252c09d7","observe(uint32[])":"883bdbfd","positions(bytes32)":"514ea4bf","protocolFees()":"1ad8b03b","setFeeProtocol(uint8,uint8)":"8206a4d1","slot0()":"3850c7bd","snapshotCumulativesInside(int24,int24)":"a38807f2","swap(address,bool,int256,uint160,bytes)":"128acb08","tickBitmap(int16)":"5339c296","tickSpacing()":"d0c93a7c","ticks(int24)":"f30dba93","token0()":"0dfe1681","token1()":"d21220a7"},"id":2}