{"abi":[{"type":"function","name":"checkMulDiv","inputs":[{"name":"x","type":"uint256","internalType":"uint256"},{"name":"y","type":"uint256","internalType":"uint256"},{"name":"d","type":"uint256","internalType":"uint256"}],"outputs":[],"stateMutability":"pure"},{"type":"function","name":"checkMulDivRounding","inputs":[{"name":"x","type":"uint256","internalType":"uint256"},{"name":"y","type":"uint256","internalType":"uint256"},{"name":"d","type":"uint256","internalType":"uint256"}],"outputs":[],"stateMutability":"pure"},{"type":"function","name":"checkMulDivRoundingUp","inputs":[{"name":"x","type":"uint256","internalType":"uint256"},{"name":"y","type":"uint256","internalType":"uint256"},{"name":"d","type":"uint256","internalType":"uint256"}],"outputs":[],"stateMutability":"pure"}],"bytecode":{"object":"0x608060405234801561001057600080fd5b506103fc806100206000396000f3fe608060405234801561001057600080fd5b50600436106100415760003560e01c8063695363a31461004657806379eee48714610088578063bf08c391146100ca575b600080fd5b6100866004803603606081101561005c57600080fd5b8101908080359060200190929190803590602001909291908035906020019092919050505061010c565b005b6100c86004803603606081101561009e57600080fd5b8101908080359060200190929190803590602001909291908035906020019092919050505061016c565b005b61010a600480360360608110156100e057600080fd5b810190808035906020019092919080359060200190929190803590602001909291905050506101fd565b005b6000811161011957600080fd5b600061012684848461028e565b905060006101358585856102ec565b90506000838061014157fe5b858709111561015b5760018183031461015657fe5b610165565b80821461016457fe5b5b5050505050565b6000811161017957600080fd5b600061018684848461028e565b905060008414806101975750600083145b156101ac57600081146101a657fe5b506101f8565b60006101b98284866102ec565b905060006101c88385886102ec565b9050858210156101d457fe5b848110156101de57fe5b83868303106101e957fe5b83858203106101f457fe5b5050505b505050565b6000811161020a57600080fd5b60006102178484846102ec565b905060008414806102285750600083145b1561023d576000811461023757fe5b50610289565b600061024a8284866102ec565b905060006102598385886102ec565b90508582111561026557fe5b8481111561026f57fe5b838287031061027a57fe5b838186031061028557fe5b5050505b505050565b600061029b8484846102ec565b9050600082806102a757fe5b84860911156102e5577fffffffffffffffffffffffffffffffffffffffffffffffffffffffffffffffff81106102dc57600080fd5b80806001019150505b9392505050565b600080600080198587098587029250828110838203039150506000811415610327576000841161031b57600080fd5b838204925050506103bf565b80841161033357600080fd5b600084868809905082811182039150808303925060008586600003169050808604955080840493506001818260000304019050808302841793506000600287600302189050808702600203810290508087026002038102905080870260020381029050808702600203810290508087026002038102905080870260020381029050808502955050505050505b939250505056fea2646970667358221220acf492ca932b19092299671c9a3bf1482e85d7c98230d6f76abbf92a3dff1d2e64736f6c63430007060033","linkReferences":{}},"methodIdentifiers":{"checkMulDiv(uint256,uint256,uint256)":"bf08c391","checkMulDivRounding(uint256,uint256,uint256)":"695363a3","checkMulDivRoundingUp(uint256,uint256,uint256)":"79eee487"},"id":36}