{"abi":[{"type":"function","name":"advanceTime","inputs":[{"name":"by","type":"uint256","internalType":"uint256"}],"outputs":[],"stateMutability":"nonpayable"},{"type":"function","name":"burn","inputs":[{"name":"tickLower","type":"int24","internalType":"int24"},{"name":"tickUpper","type":"int24","internalType":"int24"},{"name":"amount","type":"uint128","internalType":"uint128"}],"outputs":[{"name":"amount0","type":"uint256","internalType":"uint256"},{"name":"amount1","type":"uint256","internalType":"uint256"}],"stateMutability":"nonpayable"},{"type":"function","name":"collect","inputs":[{"name":"recipient","type":"address","internalType":"address"},{"name":"tickLower","type":"int24","internalType":"int24"},{"name":"tickUpper","type":"int24","internalType":"int24"},{"name":"amount0Requested","type":"uint128","internalType":"uint128"},{"name":"amount1Requested","type":"uint128","internalType":"uint128"}],"outputs":[{"name":"amount0","type":"uint128","internalType":"uint128"},{"name":"amount1","type":"uint128","internalType":"uint128"}],"stateMutability":"nonpayable"},{"type":"function","name":"collectProtocol","inputs":[{"name":"recipient","type":"address","internalType":"address"},{"name":"amount0Requested","type":"uint128","internalType":"uint128"},{"name":"amount1Requested","type":"uint128","internalType":"uint128"}],"outputs":[{"name":"amount0","type":"uint128","internalType":"uint128"},{"name":"amount1","type":"uint128","internalType":"uint128"}],"stateMutability":"nonpayable"},{"type":"function","name":"factory","inputs":[],"outputs":[{"name":"","type":"address","internalType":"address"}],"stateMutability":"view"},{"type":"function","name":"fee","inputs":[],"outputs":[{"name":"","type":"uint24","internalType":"uint24"}],"stateMutability":"view"},{"type":"function","name":"feeGrowthGlobal0X128","inputs":[],"outputs":[{"name":"","type":"uint256","internalType":"uint256"}],"stateMutability":"view"},{"type":"function","name":"feeGrowthGlobal1X128","inputs":[],"outputs":[{"name":"","type":"uint256","internalType":"uint256"}],"stateMutability":"view"},{"type":"function","name":"flash","inputs":[{"name":"recipient","type":"address","internalType":"address"},{"name":"amount0","type":"uint256","internalType":"uint256"},{"name":"amount1","type":"uint256","internalType":"uint256"},{"name":"data","type":"bytes","internalType":"bytes"}],"outputs":[],"stateMutability":"nonpayable"},{"type":"function","name":"increaseObservationCardinalityNext","inputs":[{"name":"observationCardinalityNext","type":"uint16","internalType":"uint16"}],"outputs":[],"stateMutability":"nonpayable"},{"type":"function","name":"initialize","inputs":[{"name":"sqrtPriceX96","type":"uint160","internalType":"uint160"}],"outputs":[],"stateMutability":"nonpayable"},{"type":"function","name":"liquidity","inputs":[],"outputs":[{"name":"","type":"uint128","internalType":"uint128"}],"stateMutability":"view"},{"type":"function","name":"maxLiquidityPerTick","inputs":[],"outputs":[{"name":"","type":"uint128","internalType":"uint128"}],"stateMutability":"view"},{"type":"function","name":"mint","inputs":[{"name":"recipient","type":"address","internalType":"address"},{"name":"tickLower","type":"int24","internalType":"int24"},{"name":"tickUpper","type":"int24","internalType":"int24"},{"name":"amount","type":"uint128","internalType":"uint128"},{"name":"data","type":"bytes","internalType":"bytes"}],"outputs":[{"name":"amount0","type":"uint256","internalType":"uint256"},{"name":"amount1","type":"uint256","internalType":"uint256"}],"stateMutability":"nonpayable"},{"type":"function","name":"observations","inputs":[{"name":"","type":"uint256","internalType":"uint256"}],"outputs":[{"name":"blockTimestamp","type":"uint32","internalType":"uint32"},{"name":"tickCumulative","type":"int56","internalType":"int56"},{"name":"secondsPerLiquidityCumulativeX128","type":"uint160","internalType":"uint160"},{"name":"initialized","type":"bool","internalType":"bool"}],"stateMutability":"view"},{"type":"function","name":"observe","inputs":[{"name":"secondsAgos","type":"uint32[]","internalType":"uint32[]"}],"outputs":[{"name":"tickCumulatives","type":"int56[]","internalType":"int56[]"},{"name":"secondsPerLiquidityCumulativeX128s","type":"uint160[]","internalType":"uint160[]"}],"stateMutability":"view"},{"type":"function","name":"positions","inputs":[{"name":"","type":"bytes32","internalType":"bytes32"}],"outputs":[{"name":"liquidity","type":"uint128","internalType":"uint128"},{"name":"feeGrowthInside0LastX128","type":"uint256","internalType":"uint256"},{"name":"feeGrowthInside1LastX128","type":"uint256","internalType":"uint256"},{"name":"tokensOwed0","type":"uint128","internalType":"uint128"},{"name":"tokensOwed1","type":"uint128","internalType":"uint128"}],"stateMutability":"view"},{"type":"function","name":"protocolFees","inputs":[],"outputs":[{"name":"token0","type":"uint128","internalType":"uint128"},{"name":"token1","type":"uint128","internalType":"uint128"}],"stateMutability":"view"},{"type":"function","name":"setFeeGrowthGlobal0X128","inputs":[{"name":"_feeGrowthGlobal0X128","type":"uint256","internalType":"uint256"}],"outputs":[],"stateMutability":"nonpayable"},{"type":"function","name":"setFeeGrowthGlobal1X128","inputs":[{"name":"_feeGrowthGlobal1X128","type":"uint256","internalType":"uint256"}],"outputs":[],"stateMutability":"nonpayable"},{"type":"function","name":"setFeeProtocol","inputs":[{"name":"feeProtocol0","type":"uint8","internalType":"uint8"},{"name":"feeProtocol1","type":"uint8","internalType":"uint8"}],"outputs":[],"stateMutability":"nonpayable"},{"type":"function","name":"slot0","inputs":[],"outputs":[{"name":"sqrtPriceX96","type":"uint160","internalType":"uint160"},{"name":"tick","type":"int24","internalType":"int24"},{"name":"observationIndex","type":"uint16","internalType":"uint16"},{"name":"observationCardinality","type":"uint16","internalType":"uint16"},{"name":"observationCardinalityNext","type":"uint16","internalType":"uint16"},{"name":"feeProtocol","type":"uint8","internalType":"uint8"},{"name":"unlocked","type":"bool","internalType":"bool"},{"name":"currentDynamicFee","type":"uint24","internalType":"uint24"}],"stateMutability":"view"},{"type":"function","name":"snapshotCumulativesInside","inputs":[{"name":"tickLower","type":"int24","internalType":"int24"},{"name":"tickUpper","type":"int24","internalType":"int24"}],"outputs":[{"name":"tickCumulativeInside","type":"int56","internalType":"int56"},{"name":"secondsPerLiquidityInsideX128","type":"uint160","internalType":"uint160"},{"name":"secondsInside","type":"uint32","internalType":"uint32"}],"stateMutability":"view"},{"type":"function","name":"swap","inputs":[{"name":"recipient","type":"address","internalType":"address"},{"name":"zeroForOne","type":"bool","internalType":"bool"},{"name":"amountSpecified","type":"int256","internalType":"int256"},{"name":"sqrtPriceLimitX96","type":"uint160","internalType":"uint160"},{"name":"data","type":"bytes","internalType":"bytes"}],"outputs":[{"name":"amount0","type":"int256","internalType":"int256"},{"name":"amount1","type":"int256","internalType":"int256"}],"stateMutability":"nonpayable"},{"type":"function","name":"tickBitmap","inputs":[{"name":"","type":"int16","internalType":"int16"}],"outputs":[{"name":"","type":"uint256","internalType":"uint256"}],"stateMutability":"view"},{"type":"function","name":"tickSpacing","inputs":[],"outputs":[{"name":"","type":"int24","internalType":"int24"}],"stateMutability":"view"},{"type":"function","name":"ticks","inputs":[{"name":"","type":"int24","internalType":"int24"}],"outputs":[{"name":"liquidityGross","type":"uint128","internalType":"uint128"},{"name":"liquidityNet","type":"int128","internalType":"int128"},{"name":"feeGrowthOutside0X128","type":"uint256","internalType":"uint256"},{"name":"feeGrowthOutside1X128","type":"uint256","internalType":"uint256"},{"name":"tickCumulativeOutside","type":"int56","internalType":"int56"},{"name":"secondsPerLiquidityOutsideX128","type":"uint160","internalType":"uint160"},{"name":"secondsOutside","type":"uint32","internalType":"uint32"},{"name":"initialized","type":"bool","internalType":"bool"}],"stateMutability":"view"},{"type":"function","name":"time","inputs":[],"outputs":[{"name":"","type":"uint256","internalType":"uint256"}],"stateMutability":"view"},{"type":"function","name":"token0","inputs":[],"outputs":[{"name":"","type":"address","internalType":"address"}],"stateMutability":"view"},{"type":"function","name":"token1","inputs":[],"outputs":[{"name":"","type":"address","internalType":"address"}],"stateMutability":"view"},{"type":"event","name":"Burn","inputs":[{"name":"owner","type":"address","indexed":true,"internalType":"address"},{"name":"tickLower","type":"int24","indexed":true,"internalType":"int24"},{"name":"tickUpper","type":"int24","indexed":true,"internalType":"int24"},{"name":"amount","type":"uint128","indexed":false,"internalType":"uint128"},{"name":"amount0","type":"uint256","indexed":false,"internalType":"uint256"},{"name":"amount1","type":"uint256","indexed":false,"internalType":"uint256"}],"anonymous":false},{"type":"event","name":"Collect","inputs":[{"name":"owner","type":"address","indexed":true,"internalType":"address"},{"name":"recipient","type":"address","indexed":false,"internalType":"address"},{"name":"tickLower","type":"int24","indexed":true,"internalType":"int24"},{"name":"tickUpper","type":"int24","indexed":true,"internalType":"int24"},{"name":"amount0","type":"uint128","indexed":false,"internalType":"uint128"},{"name":"amount1","type":"uint128","indexed":false,"internalType":"uint128"}],"anonymous":false},{"type":"event","name":"CollectProtocol","inputs":[{"name":"sender","type":"address","indexed":true,"internalType":"address"},{"name":"recipient","type":"address","indexed":true,"internalType":"address"},{"name":"amount0","type":"uint128","indexed":false,"internalType":"uint128"},{"name":"amount1","type":"uint128","indexed":false,"internalType":"uint128"}],"anonymous":false},{"type":"event","name":"Flash","inputs":[{"name":"sender","type":"address","indexed":true,"internalType":"address"},{"name":"recipient","type":"address","indexed":true,"internalType":"address"},{"name":"amount0","type":"uint256","indexed":false,"internalType":"uint256"},{"name":"amount1","type":"uint256","indexed":false,"internalType":"uint256"},{"name":"paid0","type":"uint256","indexed":false,"internalType":"uint256"},{"name":"paid1","type":"uint256","indexed":false,"internalType":"uint256"}],"anonymous":false},{"type":"event","name":"IncreaseObservationCardinalityNext","inputs":[{"name":"observationCardinalityNextOld","type":"uint16","indexed":false,"internalType":"uint16"},{"name":"observationCardinalityNextNew","type":"uint16","indexed":false,"internalType":"uint16"}],"anonymous":false},{"type":"event","name":"Initialize","inputs":[{"name":"sqrtPriceX96","type":"uint160","indexed":false,"internalType":"uint160"},{"name":"tick","type":"int24","indexed":false,"internalType":"int24"}],"anonymous":false},{"type":"event","name":"Mint","inputs":[{"name":"sender","type":"address","indexed":false,"internalType":"address"},{"name":"owner","type":"address","indexed":true,"internalType":"address"},{"name":"tickLower","type":"int24","indexed":true,"internalType":"int24"},{"name":"tickUpper","type":"int24","indexed":true,"internalType":"int24"},{"name":"amount","type":"uint128","indexed":false,"internalType":"uint128"},{"name":"amount0","type":"uint256","indexed":false,"internalType":"uint256"},{"name":"amount1","type":"uint256","indexed":false,"internalType":"uint256"}],"anonymous":false},{"type":"event","name":"SetFeeProtocol","inputs":[{"name":"feeProtocol0Old","type":"uint8","indexed":false,"internalType":"uint8"},{"name":"feeProtocol1Old","type":"uint8","indexed":false,"internalType":"uint8"},{"name":"feeProtocol0New","type":"uint8","indexed":false,"internalType":"uint8"},{"name":"feeProtocol1New","type":"uint8","indexed":false,"internalType":"uint8"}],"anonymous":false},{"type":"event","name":"Swap","inputs":[{"name":"sender","type":"address","indexed":true,"internalType":"address"},{"name":"recipient","type":"address","indexed":true,"internalType":"address"},{"name":"amount0","type":"int256","indexed":false,"internalType":"int256"},{"name":"amount1","type":"int256","indexed":false,"internalType":"int256"},{"name":"sqrtPriceX96","type":"uint160","indexed":false,"internalType":"uint160"},{"name":"liquidity","type":"uint128","indexed":false,"internalType":"uint128"},{"name":"tick","type":"int24","indexed":false,"internalType":"int24"}],"anonymous":false}],"bytecode":{"object":"0x610160604052635f7b26e062010008553480156200001c57600080fd5b503073ffffffffffffffffffffffffffffffffffffffff1660808173ffffffffffffffffffffffffffffffffffffffff1660601b8152505060003373ffffffffffffffffffffffffffffffffffffffff1663890357306040518163ffffffff1660e01b815260040160a06040518083038186803b1580156200009d57600080fd5b505afa158015620000b2573d6000803e3d6000fd5b505050506040513d60a0811015620000c957600080fd5b8101908080519060200190929190805190602001909291908051906020019092919080519060200190929190805190602001909291905050508095508162ffffff166101009062ffffff1660e81b8152508273ffffffffffffffffffffffffffffffffffffffff1660e09073ffffffffffffffffffffffffffffffffffffffff1660601b8152508373ffffffffffffffffffffffffffffffffffffffff1660c09073ffffffffffffffffffffffffffffffffffffffff1660601b8152508473ffffffffffffffffffffffffffffffffffffffff1660a09073ffffffffffffffffffffffffffffffffffffffff1660601b81525050505050508060020b6101208160020b60e81b81525050620001e9816200021f60201b6200462f1760201c565b6fffffffffffffffffffffffffffffffff16610140816fffffffffffffffffffffffffffffffff1660801b8152505050620002d7565b600080828360020b7ffffffffffffffffffffffffffffffffffffffffffffffffffffffffffff2761860020b816200025357fe5b050290506000838460020b7ffffffffffffffffffffffffffffffffffffffffffffffffffffffffffff2761860000360020b816200028d57fe5b05029050600060018560020b84840360020b81620002a757fe5b050190508062ffffff166fffffffffffffffffffffffffffffffff801681620002cc57fe5b049350505050919050565b60805160601c60a05160601c60c05160601c60e05160601c6101005160e81c6101205160e81c6101405160801c618f1b6200039f6000398061330b528061766f52806176b8525080611377528061420452806176fe528061773b52508061290e52806129455280614256525080611cc352806129cf52806131665280613a1b52806142285280615fd4525080610dad5280611e43528061299a52806130b1528061390e5280615e105250806133d0528061367652806141e05250806146e55250618f1b6000f3fe608060405234801561001057600080fd5b50600436106101da5760003560e01c806370cf754a11610104578063d0c93a7c116100a2578063f305839911610071578063f305839914610c5a578063f30dba9314610c78578063f637731d14610d24578063f6eb760f14610d68576101da565b8063d0c93a7c14610bb4578063d21220a714610bd5578063d380c67914610c09578063ddca3f4314610c37576101da565b8063883bdbfd116100de578063883bdbfd14610976578063a34123a714610a8c578063a38807f214610b01578063c45a015514610b80576101da565b806370cf754a1461084d5780638206a4d11461087d57806385b66729146108bb576101da565b806332148f671161017c578063490e6cbc1161014b578063490e6cbc146105f25780634f1eb3d81461069f578063514ea4bf146107745780635339c29614610808576101da565b806332148f671461043a5780633850c7bd1461046c5780633c8a7d8d146104ea57806346141319146105d4576101da565b806316ada547116101b857806316ada5471461032b5780631a686502146103495780631ad8b03b14610379578063252c09d7146103c2576101da565b806307e32f0a146101df5780630dfe16811461020d578063128acb0814610241575b600080fd5b61020b600480360360208110156101f557600080fd5b8101908080359060200190929190505050610d96565b005b610215610dab565b604051808273ffffffffffffffffffffffffffffffffffffffff16815260200191505060405180910390f35b61030e600480360360a081101561025757600080fd5b81019080803573ffffffffffffffffffffffffffffffffffffffff16906020019092919080351515906020019092919080359060200190929190803573ffffffffffffffffffffffffffffffffffffffff169060200190929190803590602001906401000000008111156102ca57600080fd5b8201836020820111156102dc57600080fd5b803590602001918460018302840111640100000000831117156102fe57600080fd5b9091929391929390505050610dcf565b604051808381526020018281526020019250505060405180910390f35b610333612099565b6040518082815260200191505060405180910390f35b6103516120a1565b60405180826fffffffffffffffffffffffffffffffff16815260200191505060405180910390f35b6103816120c3565b60405180836fffffffffffffffffffffffffffffffff168152602001826fffffffffffffffffffffffffffffffff1681526020019250505060405180910390f35b6103ee600480360360208110156103d857600080fd5b810190808035906020019092919050505061210d565b604051808563ffffffff1681526020018460060b81526020018373ffffffffffffffffffffffffffffffffffffffff168152602001821515815260200194505050505060405180910390f35b61046a6004803603602081101561045057600080fd5b81019080803561ffff16906020019092919050505061218b565b005b6104746122fd565b604051808973ffffffffffffffffffffffffffffffffffffffff1681526020018860020b81526020018761ffff1681526020018661ffff1681526020018561ffff1681526020018460ff16815260200183151581526020018262ffffff1681526020019850505050505050505060405180910390f35b6105b7600480360360a081101561050057600080fd5b81019080803573ffffffffffffffffffffffffffffffffffffffff169060200190929190803560020b9060200190929190803560020b906020019092919080356fffffffffffffffffffffffffffffffff1690602001909291908035906020019064010000000081111561057357600080fd5b82018360208201111561058557600080fd5b803590602001918460018302840111640100000000831117156105a757600080fd5b90919293919293905050506123b3565b604051808381526020018281526020019250505060405180910390f35b6105dc6127ac565b6040518082815260200191505060405180910390f35b61069d6004803603608081101561060857600080fd5b81019080803573ffffffffffffffffffffffffffffffffffffffff16906020019092919080359060200190929190803590602001909291908035906020019064010000000081111561065957600080fd5b82018360208201111561066b57600080fd5b8035906020019184600183028401116401000000008311171561068d57600080fd5b90919293919293905050506127b2565b005b610733600480360360a08110156106b557600080fd5b81019080803573ffffffffffffffffffffffffffffffffffffffff169060200190929190803560020b9060200190929190803560020b906020019092919080356fffffffffffffffffffffffffffffffff16906020019092919080356fffffffffffffffffffffffffffffffff169060200190929190505050612e8b565b60405180836fffffffffffffffffffffffffffffffff168152602001826fffffffffffffffffffffffffffffffff1681526020019250505060405180910390f35b6107a06004803603602081101561078a57600080fd5b8101908080359060200190929190505050613267565b60405180866fffffffffffffffffffffffffffffffff168152602001858152602001848152602001836fffffffffffffffffffffffffffffffff168152602001826fffffffffffffffffffffffffffffffff1681526020019550505050505060405180910390f35b6108376004803603602081101561081e57600080fd5b81019080803560010b90602001909291905050506132f1565b6040518082815260200191505060405180910390f35b610855613309565b60405180826fffffffffffffffffffffffffffffffff16815260200191505060405180910390f35b6108b96004803603604081101561089357600080fd5b81019080803560ff169060200190929190803560ff16906020019092919050505061332d565b005b610935600480360360608110156108d157600080fd5b81019080803573ffffffffffffffffffffffffffffffffffffffff16906020019092919080356fffffffffffffffffffffffffffffffff16906020019092919080356fffffffffffffffffffffffffffffffff1690602001909291905050506135d0565b60405180836fffffffffffffffffffffffffffffffff168152602001826fffffffffffffffffffffffffffffffff1681526020019250505060405180910390f35b6109ed6004803603602081101561098c57600080fd5b81019080803590602001906401000000008111156109a957600080fd5b8201836020820111156109bb57600080fd5b803590602001918460208302840111640100000000831117156109dd57600080fd5b9091929391929390505050613b0a565b604051808060200180602001838103835285818151815260200191508051906020019060200280838360005b83811015610a34578082015181840152602081019050610a19565b50505050905001838103825284818151815260200191508051906020019060200280838360005b83811015610a76578082015181840152602081019050610a5b565b5050505090500194505050505060405180910390f35b610ae460048036036060811015610aa257600080fd5b81019080803560020b9060200190929190803560020b906020019092919080356fffffffffffffffffffffffffffffffff169060200190929190505050613bd9565b604051808381526020018281526020019250505060405180910390f35b610b3d60048036036040811015610b1757600080fd5b81019080803560020b9060200190929190803560020b9060200190929190505050613e70565b604051808460060b81526020018373ffffffffffffffffffffffffffffffffffffffff1681526020018263ffffffff168152602001935050505060405180910390f35b610b886141de565b604051808273ffffffffffffffffffffffffffffffffffffffff16815260200191505060405180910390f35b610bbc614202565b604051808260020b815260200191505060405180910390f35b610bdd614226565b604051808273ffffffffffffffffffffffffffffffffffffffff16815260200191505060405180910390f35b610c3560048036036020811015610c1f57600080fd5b810190808035906020019092919050505061424a565b005b610c3f614254565b604051808262ffffff16815260200191505060405180910390f35b610c62614278565b6040518082815260200191505060405180910390f35b610ca760048036036020811015610c8e57600080fd5b81019080803560020b906020019092919050505061427e565b60405180896fffffffffffffffffffffffffffffffff16815260200188600f0b81526020018781526020018681526020018560060b81526020018473ffffffffffffffffffffffffffffffffffffffff1681526020018363ffffffff16815260200182151581526020019850505050505050505060405180910390f35b610d6660048036036020811015610d3a57600080fd5b81019080803573ffffffffffffffffffffffffffffffffffffffff169060200190929190505050614339565b005b610d9460048036036020811015610d7e57600080fd5b8101908080359060200190929190505050614625565b005b80620100086000828254019250508190555050565b7f000000000000000000000000000000000000000000000000000000000000000081565b600080610dda6146e3565b6000861415610e51576040517f08c379a00000000000000000000000000000000000000000000000000000000081526004018080602001828103825260028152602001807f415300000000000000000000000000000000000000000000000000000000000081525060200191505060405180910390fd5b600080604051806101000160405290816000820160009054906101000a900473ffffffffffffffffffffffffffffffffffffffff1673ffffffffffffffffffffffffffffffffffffffff1673ffffffffffffffffffffffffffffffffffffffff1681526020016000820160149054906101000a900460020b60020b60020b81526020016000820160179054906101000a900461ffff1661ffff1661ffff1681526020016000820160199054906101000a900461ffff1661ffff1661ffff16815260200160008201601b9054906101000a900461ffff1661ffff1661ffff16815260200160008201601d9054906101000a900460ff1660ff1660ff16815260200160008201601e9054906101000a900460ff161515151581526020016001820160009054906101000a900462ffffff1662ffffff1662ffffff168152505090508060c00151611007576040517f08c379a00000000000000000000000000000000000000000000000000000000081526004018080602001828103825260038152602001807f4c4f4b000000000000000000000000000000000000000000000000000000000081525060200191505060405180910390fd5b8761108f57806000015173ffffffffffffffffffffffffffffffffffffffff168673ffffffffffffffffffffffffffffffffffffffff1611801561108a575073fffd8963efd1fc6a506488495d951d5263988d2673ffffffffffffffffffffffffffffffffffffffff168673ffffffffffffffffffffffffffffffffffffffff16105b6110ff565b806000015173ffffffffffffffffffffffffffffffffffffffff168673ffffffffffffffffffffffffffffffffffffffff161080156110fe57506401000276a373ffffffffffffffffffffffffffffffffffffffff168673ffffffffffffffffffffffffffffffffffffffff16115b5b611171576040517f08c379a00000000000000000000000000000000000000000000000000000000081526004018080602001828103825260038152602001807f53504c000000000000000000000000000000000000000000000000000000000081525060200191505060405180910390fd5b600080600001601e6101000a81548160ff02191690831515021790555060006040518060c001604052808a6111b15760048460a0015160ff16901c6111c4565b60108460a0015160ff16816111c257fe5b065b60ff168152602001600560009054906101000a90046fffffffffffffffffffffffffffffffff166fffffffffffffffffffffffffffffffff16815260200161120a61473d565b63ffffffff168152602001600060060b8152602001600073ffffffffffffffffffffffffffffffffffffffff1681526020016000151581525090506000808913905060006040518060e001604052808b815260200160008152602001856000015173ffffffffffffffffffffffffffffffffffffffff168152602001856020015160020b81526020018c6112a0576003546112a4565b6002545b815260200160006fffffffffffffffffffffffffffffffff16815260200184602001516fffffffffffffffffffffffffffffffff1681525090505b600081600001511415801561132457508873ffffffffffffffffffffffffffffffffffffffff16816040015173ffffffffffffffffffffffffffffffffffffffff1614155b1561198b57611331618e2e565b8160400151816000019073ffffffffffffffffffffffffffffffffffffffff16908173ffffffffffffffffffffffffffffffffffffffff16815250506113a982606001517f00000000000000000000000000000000000000000000000000000000000000008e6007614749909392919063ffffffff16565b826020018360400182151515158152508260020b60020b81525050507ffffffffffffffffffffffffffffffffffffffffffffffffffffffffffff2761860020b816020015160020b121561142e577ffffffffffffffffffffffffffffffffffffffffffffffffffffffffffff27618816020019060020b908160020b8152505061149a565b7ffffffffffffffffffffffffffffffffffffffffffffffffffffffffffff2761860000360020b816020015160020b1315611499577ffffffffffffffffffffffffffffffffffffffffffffffffffffffffffff27618600003816020019060020b908160020b815250505b5b6114a781602001516148a1565b816060019073ffffffffffffffffffffffffffffffffffffffff16908173ffffffffffffffffffffffffffffffffffffffff16815250506114e6614cdc565b600060010160006101000a81548162ffffff021916908362ffffff1602179055506115b482604001518d61154c578b73ffffffffffffffffffffffffffffffffffffffff16836060015173ffffffffffffffffffffffffffffffffffffffff1611611580565b8b73ffffffffffffffffffffffffffffffffffffffff16836060015173ffffffffffffffffffffffffffffffffffffffff16105b61158e578260600151611590565b8b5b8460c001518560000151600060010160009054906101000a900462ffffff16614d60565b85604001856080018660a0018760c0018481525084815250848152508473ffffffffffffffffffffffffffffffffffffffff1673ffffffffffffffffffffffffffffffffffffffff1681525050505050821561165d5761161d8160c00151826080015101614fbc565b82600001818151039150818152505061164f61163c8260a00151614fbc565b8360200151614ff290919063ffffffff16565b8260200181815250506116ac565b61166a8160a00151614fbc565b8260000181815101915081815250506116a261168f8260c00151836080015101614fbc565b836020015161501590919063ffffffff16565b8260200181815250505b6000846000015160ff16111561171d576000846000015160ff168260c00151816116d257fe5b049050808260c0018181510391508181525050808360a001818151019150906fffffffffffffffffffffffffffffffff1690816fffffffffffffffffffffffffffffffff1681525050505b60008260c001516fffffffffffffffffffffffffffffffff161115611782576117728160c001517001000000000000000000000000000000008460c001516fffffffffffffffffffffffffffffffff16615038565b8260800181815101915081815250505b806060015173ffffffffffffffffffffffffffffffffffffffff16826040015173ffffffffffffffffffffffffffffffffffffffff16141561192a578060400151156118fc578360a0015161185a57611804846040015160008760200151886040015188602001518a606001516009615112909695949392919063ffffffff16565b85606001866080018273ffffffffffffffffffffffffffffffffffffffff1673ffffffffffffffffffffffffffffffffffffffff168152508260060b60060b815250505060018460a00190151590811515815250505b60006118ae82602001518e61187157600254611877565b84608001515b8f61188657856080015161188a565b6003545b886080015189606001518a604001516006615345909695949392919063ffffffff16565b90508c156118bd578060000390505b6118cb8360c0015182615481565b8360c001906fffffffffffffffffffffffffffffffff1690816fffffffffffffffffffffffffffffffff1681525050505b8b61190b578060200151611914565b60018160200151035b826060019060020b908160020b81525050611985565b806000015173ffffffffffffffffffffffffffffffffffffffff16826040015173ffffffffffffffffffffffffffffffffffffffff16146119845761197282604001516155da565b826060019060020b908160020b815250505b5b506112df565b836020015160020b816060015160020b14611aa1576000806119d986604001518660400151886020015188602001518a606001518b6080015160096159d6909695949392919063ffffffff16565b915091508260400151836060015183836000800160008060000160146000800160176000800160198891906101000a81548161ffff021916908361ffff1602179055508791906101000a81548161ffff021916908361ffff1602179055508691906101000a81548162ffffff021916908360020b62ffffff1602179055508591906101000a81548173ffffffffffffffffffffffffffffffffffffffff021916908373ffffffffffffffffffffffffffffffffffffffff160217905550505050505050611ae9565b80604001516000800160006101000a81548173ffffffffffffffffffffffffffffffffffffffff021916908373ffffffffffffffffffffffffffffffffffffffff1602179055505b8060c001516fffffffffffffffffffffffffffffffff1683602001516fffffffffffffffffffffffffffffffff1614611b5a578060c00151600560006101000a8154816fffffffffffffffffffffffffffffffff02191690836fffffffffffffffffffffffffffffffff1602179055505b8a15611bf157806080015160028190555060008160a001516fffffffffffffffffffffffffffffffff161115611bec578060a00151600460000160008282829054906101000a90046fffffffffffffffffffffffffffffffff160192506101000a8154816fffffffffffffffffffffffffffffffff02191690836fffffffffffffffffffffffffffffffff1602179055505b611c7e565b806080015160038190555060008160a001516fffffffffffffffffffffffffffffffff161115611c7d578060a00151600460000160108282829054906101000a90046fffffffffffffffffffffffffffffffff160192506101000a8154816fffffffffffffffffffffffffffffffff02191690836fffffffffffffffffffffffffffffffff1602179055505b5b8115158b151514611c9a57806020015181600001518b03611ca7565b80600001518a0381602001515b80965081975050508a15611e35576000851215611ced57611cec7f00000000000000000000000000000000000000000000000000000000000000008d87600003615c08565b5b6000611cf7615e09565b90503373ffffffffffffffffffffffffffffffffffffffff1663fa461e3388888c8c6040518563ffffffff1660e01b815260040180858152602001848152602001806020018281038252848482818152602001925080828437600081840152601f19601f82011690508083019250505095505050505050600060405180830381600087803b158015611d8857600080fd5b505af1158015611d9c573d6000803e3d6000fd5b50505050611da8615e09565b611dbb8883615fb390919063ffffffff16565b1115611e2f576040517f08c379a00000000000000000000000000000000000000000000000000000000081526004018080602001828103825260038152602001807f494941000000000000000000000000000000000000000000000000000000000081525060200191505060405180910390fd5b50611fb1565b6000861215611e6d57611e6c7f00000000000000000000000000000000000000000000000000000000000000008d88600003615c08565b5b6000611e77615fcd565b90503373ffffffffffffffffffffffffffffffffffffffff1663fa461e3388888c8c6040518563ffffffff1660e01b815260040180858152602001848152602001806020018281038252848482818152602001925080828437600081840152601f19601f82011690508083019250505095505050505050600060405180830381600087803b158015611f0857600080fd5b505af1158015611f1c573d6000803e3d6000fd5b50505050611f28615fcd565b611f3b8783615fb390919063ffffffff16565b1115611faf576040517f08c379a00000000000000000000000000000000000000000000000000000000081526004018080602001828103825260038152602001807f494941000000000000000000000000000000000000000000000000000000000081525060200191505060405180910390fd5b505b8b73ffffffffffffffffffffffffffffffffffffffff163373ffffffffffffffffffffffffffffffffffffffff167fc42079f94a6350d7e6235f29174924f928cc2ac818eb64fed8004e115fbcca67888885604001518660c001518760600151604051808681526020018581526020018473ffffffffffffffffffffffffffffffffffffffff168152602001836fffffffffffffffffffffffffffffffff1681526020018260020b81526020019550505050505060405180910390a3600160008001601e6101000a81548160ff02191690831515021790555050505050965096945050505050565b620100085481565b600560009054906101000a90046fffffffffffffffffffffffffffffffff1681565b60048060000160009054906101000a90046fffffffffffffffffffffffffffffffff16908060000160109054906101000a90046fffffffffffffffffffffffffffffffff16905082565b60098161ffff811061211e57600080fd5b016000915090508060000160009054906101000a900463ffffffff16908060000160049054906101000a900460060b9080600001600b9054906101000a900473ffffffffffffffffffffffffffffffffffffffff169080600001601f9054906101000a900460ff16905084565b60008001601e9054906101000a900460ff1661220f576040517f08c379a00000000000000000000000000000000000000000000000000000000081526004018080602001828103825260038152602001807f4c4f4b000000000000000000000000000000000000000000000000000000000081525060200191505060405180910390fd5b600080600001601e6101000a81548160ff0219169083151502179055506122346146e3565b600080600001601b9054906101000a900461ffff1690506000612263828460096161779092919063ffffffff16565b90508060008001601b6101000a81548161ffff021916908361ffff1602179055508061ffff168261ffff16146122db577fac49e518f90a358f652e4400164f05a5d8f7e35e7747279bc3a93dbf584e125a8282604051808361ffff1681526020018261ffff1681526020019250505060405180910390a15b5050600160008001601e6101000a81548160ff02191690831515021790555050565b60008060000160009054906101000a900473ffffffffffffffffffffffffffffffffffffffff16908060000160149054906101000a900460020b908060000160179054906101000a900461ffff16908060000160199054906101000a900461ffff169080600001601b9054906101000a900461ffff169080600001601d9054906101000a900460ff169080600001601e9054906101000a900460ff16908060010160009054906101000a900462ffffff16905088565b60008060008001601e9054906101000a900460ff1661243a576040517f08c379a00000000000000000000000000000000000000000000000000000000081526004018080602001828103825260038152602001807f4c4f4b000000000000000000000000000000000000000000000000000000000081525060200191505060405180910390fd5b600080600001601e6101000a81548160ff0219169083151502179055506000856fffffffffffffffffffffffffffffffff161161247657600080fd5b6000806124db60405180608001604052808c73ffffffffffffffffffffffffffffffffffffffff1681526020018b60020b81526020018a60020b81526020016124d08a6fffffffffffffffffffffffffffffffff1661626d565b600f0b815250616286565b925092505081935080925060008060008611156124fd576124fa615e09565b91505b60008511156125115761250e615fcd565b90505b3373ffffffffffffffffffffffffffffffffffffffff1663d348799787878b8b6040518563ffffffff1660e01b815260040180858152602001848152602001806020018281038252848482818152602001925080828437600081840152601f19601f82011690508083019250505095505050505050600060405180830381600087803b1580156125a057600080fd5b505af11580156125b4573d6000803e3d6000fd5b505050506000861115612651576125c9615e09565b6125dc8784615fb390919063ffffffff16565b1115612650576040517f08c379a00000000000000000000000000000000000000000000000000000000081526004018080602001828103825260028152602001807f4d3000000000000000000000000000000000000000000000000000000000000081525060200191505060405180910390fd5b5b60008511156126ea57612662615fcd565b6126758683615fb390919063ffffffff16565b11156126e9576040517f08c379a00000000000000000000000000000000000000000000000000000000081526004018080602001828103825260028152602001807f4d3100000000000000000000000000000000000000000000000000000000000081525060200191505060405180910390fd5b5b8960020b8b60020b8d73ffffffffffffffffffffffffffffffffffffffff167f7a53080ba414158be7ec69b987b5fb7d07dee101fe85488f0853ae16239d0bde338d8b8b604051808573ffffffffffffffffffffffffffffffffffffffff168152602001846fffffffffffffffffffffffffffffffff16815260200183815260200182815260200194505050505060405180910390a450505050600160008001601e6101000a81548160ff021916908315150217905550965096945050505050565b60035481565b60008001601e9054906101000a900460ff16612836576040517f08c379a00000000000000000000000000000000000000000000000000000000081526004018080602001828103825260038152602001807f4c4f4b000000000000000000000000000000000000000000000000000000000081525060200191505060405180910390fd5b600080600001601e6101000a81548160ff02191690831515021790555061285b6146e3565b6000600560009054906101000a90046fffffffffffffffffffffffffffffffff1690506000816fffffffffffffffffffffffffffffffff1611612906576040517f08c379a00000000000000000000000000000000000000000000000000000000081526004018080602001828103825260018152602001807f4c0000000000000000000000000000000000000000000000000000000000000081525060200191505060405180910390fd5b600061293b867f000000000000000000000000000000000000000000000000000000000000000062ffffff16620f42406165ce565b90506000612972867f000000000000000000000000000000000000000000000000000000000000000062ffffff16620f42406165ce565b9050600061297e615e09565b9050600061298a615fcd565b905060008911156129c1576129c07f00000000000000000000000000000000000000000000000000000000000000008b8b615c08565b5b60008811156129f6576129f57f00000000000000000000000000000000000000000000000000000000000000008b8a615c08565b5b3373ffffffffffffffffffffffffffffffffffffffff1663e9cbafb085858a8a6040518563ffffffff1660e01b815260040180858152602001848152602001806020018281038252848482818152602001925080828437600081840152601f19601f82011690508083019250505095505050505050600060405180830381600087803b158015612a8557600080fd5b505af1158015612a99573d6000803e3d6000fd5b505050506000612aa7615e09565b90506000612ab3615fcd565b905081612ac98786615fb390919063ffffffff16565b1115612b3d576040517f08c379a00000000000000000000000000000000000000000000000000000000081526004018080602001828103825260028152602001807f463000000000000000000000000000000000000000000000000000000000000081525060200191505060405180910390fd5b80612b518685615fb390919063ffffffff16565b1115612bc5576040517f08c379a00000000000000000000000000000000000000000000000000000000081526004018080602001828103825260028152602001807f463100000000000000000000000000000000000000000000000000000000000081525060200191505060405180910390fd5b60008483039050600084830390506000821115612cdd576000601060008001601d9054906101000a900460ff1660ff1681612bfc57fe5b0690506000808260ff1614612c1d578160ff168481612c1757fe5b04612c20565b60005b90506000816fffffffffffffffffffffffffffffffff161115612c9b5780600460000160008282829054906101000a90046fffffffffffffffffffffffffffffffff160192506101000a8154816fffffffffffffffffffffffffffffffff02191690836fffffffffffffffffffffffffffffffff1602179055505b612ccb8185037001000000000000000000000000000000008d6fffffffffffffffffffffffffffffffff16615038565b60026000828254019250508190555050505b6000811115612de1576000600460008001601d9054906101000a900460ff1660ff16901c90506000808260ff1614612d21578160ff168381612d1b57fe5b04612d24565b60005b90506000816fffffffffffffffffffffffffffffffff161115612d9f5780600460000160108282829054906101000a90046fffffffffffffffffffffffffffffffff160192506101000a8154816fffffffffffffffffffffffffffffffff02191690836fffffffffffffffffffffffffffffffff1602179055505b612dcf8184037001000000000000000000000000000000008d6fffffffffffffffffffffffffffffffff16615038565b60036000828254019250508190555050505b8d73ffffffffffffffffffffffffffffffffffffffff163373ffffffffffffffffffffffffffffffffffffffff167fbdbdb71d7860376ba52b25a5028beea23581364a40522f6bcfb86bb1f2dca6338f8f86866040518085815260200184815260200183815260200182815260200194505050505060405180910390a3505050505050505050600160008001601e6101000a81548160ff0219169083151502179055505050505050565b60008060008001601e9054906101000a900460ff16612f12576040517f08c379a00000000000000000000000000000000000000000000000000000000081526004018080602001828103825260038152602001807f4c4f4b000000000000000000000000000000000000000000000000000000000081525060200191505060405180910390fd5b600080600001601e6101000a81548160ff0219169083151502179055506000612f49338888600861662c909392919063ffffffff16565b90508060030160009054906101000a90046fffffffffffffffffffffffffffffffff166fffffffffffffffffffffffffffffffff16856fffffffffffffffffffffffffffffffff1611612f9c5784612fbe565b8060030160009054906101000a90046fffffffffffffffffffffffffffffffff165b92508060030160109054906101000a90046fffffffffffffffffffffffffffffffff166fffffffffffffffffffffffffffffffff16846fffffffffffffffffffffffffffffffff16116130115783613033565b8060030160109054906101000a90046fffffffffffffffffffffffffffffffff165b91506000836fffffffffffffffffffffffffffffffff1611156130ea57828160030160008282829054906101000a90046fffffffffffffffffffffffffffffffff160392506101000a8154816fffffffffffffffffffffffffffffffff02191690836fffffffffffffffffffffffffffffffff1602179055506130e97f000000000000000000000000000000000000000000000000000000000000000089856fffffffffffffffffffffffffffffffff16615c08565b5b6000826fffffffffffffffffffffffffffffffff16111561319f57818160030160108282829054906101000a90046fffffffffffffffffffffffffffffffff160392506101000a8154816fffffffffffffffffffffffffffffffff02191690836fffffffffffffffffffffffffffffffff16021790555061319e7f000000000000000000000000000000000000000000000000000000000000000089846fffffffffffffffffffffffffffffffff16615c08565b5b8560020b8760020b3373ffffffffffffffffffffffffffffffffffffffff167f70935338e69775456a85ddef226c395fb668b63fa0115f5f20610b388e6ca9c08b8787604051808473ffffffffffffffffffffffffffffffffffffffff168152602001836fffffffffffffffffffffffffffffffff168152602001826fffffffffffffffffffffffffffffffff168152602001935050505060405180910390a450600160008001601e6101000a81548160ff0219169083151502179055509550959350505050565b60086020528060005260406000206000915090508060000160009054906101000a90046fffffffffffffffffffffffffffffffff16908060010154908060020154908060030160009054906101000a90046fffffffffffffffffffffffffffffffff16908060030160109054906101000a90046fffffffffffffffffffffffffffffffff16905085565b60076020528060005260406000206000915090505481565b7f000000000000000000000000000000000000000000000000000000000000000081565b60008001601e9054906101000a900460ff166133b1576040517f08c379a00000000000000000000000000000000000000000000000000000000081526004018080602001828103825260038152602001807f4c4f4b000000000000000000000000000000000000000000000000000000000081525060200191505060405180910390fd5b600080600001601e6101000a81548160ff0219169083151502179055507f000000000000000000000000000000000000000000000000000000000000000073ffffffffffffffffffffffffffffffffffffffff16638da5cb5b6040518163ffffffff1660e01b815260040160206040518083038186803b15801561343457600080fd5b505afa158015613448573d6000803e3d6000fd5b505050506040513d602081101561345e57600080fd5b810190808051906020019092919050505073ffffffffffffffffffffffffffffffffffffffff163373ffffffffffffffffffffffffffffffffffffffff16146134a657600080fd5b60008260ff1614806134cc575060048260ff16101580156134cb5750600a8260ff1611155b5b80156134fa575060008160ff1614806134f9575060048160ff16101580156134f85750600a8160ff1611155b5b5b61350357600080fd5b600080600001601d9054906101000a900460ff16905060048260ff16901b830160008001601d6101000a81548160ff021916908360ff1602179055507f973d8d92bb299f4af6ce49b52a8adb85ae46b9f214c4c4fc06ac77401237b13360108260ff168161356d57fe5b0660048360ff16901c8585604051808560ff1681526020018460ff1681526020018360ff1681526020018260ff16815260200194505050505060405180910390a150600160008001601e6101000a81548160ff0219169083151502179055505050565b60008060008001601e9054906101000a900460ff16613657576040517f08c379a00000000000000000000000000000000000000000000000000000000081526004018080602001828103825260038152602001807f4c4f4b000000000000000000000000000000000000000000000000000000000081525060200191505060405180910390fd5b600080600001601e6101000a81548160ff0219169083151502179055507f000000000000000000000000000000000000000000000000000000000000000073ffffffffffffffffffffffffffffffffffffffff16638da5cb5b6040518163ffffffff1660e01b815260040160206040518083038186803b1580156136da57600080fd5b505afa1580156136ee573d6000803e3d6000fd5b505050506040513d602081101561370457600080fd5b810190808051906020019092919050505073ffffffffffffffffffffffffffffffffffffffff163373ffffffffffffffffffffffffffffffffffffffff161461374c57600080fd5b600460000160009054906101000a90046fffffffffffffffffffffffffffffffff166fffffffffffffffffffffffffffffffff16846fffffffffffffffffffffffffffffffff161161379e57836137c1565b600460000160009054906101000a90046fffffffffffffffffffffffffffffffff165b9150600460000160109054906101000a90046fffffffffffffffffffffffffffffffff166fffffffffffffffffffffffffffffffff16836fffffffffffffffffffffffffffffffff16116138155782613838565b600460000160109054906101000a90046fffffffffffffffffffffffffffffffff165b90506000826fffffffffffffffffffffffffffffffff16111561394757600460000160009054906101000a90046fffffffffffffffffffffffffffffffff166fffffffffffffffffffffffffffffffff16826fffffffffffffffffffffffffffffffff1614156138ac578180600190039250505b81600460000160008282829054906101000a90046fffffffffffffffffffffffffffffffff160392506101000a8154816fffffffffffffffffffffffffffffffff02191690836fffffffffffffffffffffffffffffffff1602179055506139467f000000000000000000000000000000000000000000000000000000000000000086846fffffffffffffffffffffffffffffffff16615c08565b5b6000816fffffffffffffffffffffffffffffffff161115613a5457600460000160109054906101000a90046fffffffffffffffffffffffffffffffff166fffffffffffffffffffffffffffffffff16816fffffffffffffffffffffffffffffffff1614156139b9578080600190039150505b80600460000160108282829054906101000a90046fffffffffffffffffffffffffffffffff160392506101000a8154816fffffffffffffffffffffffffffffffff02191690836fffffffffffffffffffffffffffffffff160217905550613a537f000000000000000000000000000000000000000000000000000000000000000086836fffffffffffffffffffffffffffffffff16615c08565b5b8473ffffffffffffffffffffffffffffffffffffffff163373ffffffffffffffffffffffffffffffffffffffff167f596b573906218d3411850b26a6b437d6c4522fdb43d2d2386263f86d50b8b151848460405180836fffffffffffffffffffffffffffffffff168152602001826fffffffffffffffffffffffffffffffff1681526020019250505060405180910390a3600160008001601e6101000a81548160ff021916908315150217905550935093915050565b606080613b156146e3565b613bce613b2061473d565b858580806020026020016040519081016040528093929190818152602001838360200280828437600081840152601f19601f820116905080830192505050505050506000800160149054906101000a900460020b6000800160179054906101000a900461ffff16600560009054906101000a90046fffffffffffffffffffffffffffffffff166000800160199054906101000a900461ffff1660096166a5909695949392919063ffffffff16565b915091509250929050565b60008060008001601e9054906101000a900460ff16613c60576040517f08c379a00000000000000000000000000000000000000000000000000000000081526004018080602001828103825260038152602001807f4c4f4b000000000000000000000000000000000000000000000000000000000081525060200191505060405180910390fd5b600080600001601e6101000a81548160ff0219169083151502179055506000806000613ce760405180608001604052803373ffffffffffffffffffffffffffffffffffffffff1681526020018a60020b81526020018960020b8152602001613cd9896fffffffffffffffffffffffffffffffff1661626d565b600003600f0b815250616286565b9250925092508160000394508060000393506000851180613d085750600084115b15613dd057848360030160009054906101000a90046fffffffffffffffffffffffffffffffff1601848460030160109054906101000a90046fffffffffffffffffffffffffffffffff16018460030160008660030160108491906101000a8154816fffffffffffffffffffffffffffffffff02191690836fffffffffffffffffffffffffffffffff1602179055508391906101000a8154816fffffffffffffffffffffffffffffffff02191690836fffffffffffffffffffffffffffffffff16021790555050505b8660020b8860020b3373ffffffffffffffffffffffffffffffffffffffff167f0c396cd989a39f4459b5fa1aed6a9a8dcdbc45908acfd67e028cd568da98982c89898960405180846fffffffffffffffffffffffffffffffff168152602001838152602001828152602001935050505060405180910390a4505050600160008001601e6101000a81548160ff021916908315150217905550935093915050565b6000806000613e7d6146e3565b613e878585616860565b6000806000806000806000600660008d60020b60020b815260200190815260200160002090506000600660008d60020b60020b8152602001908152602001600020905060008260030160009054906101000a900460060b8360030160079054906101000a900473ffffffffffffffffffffffffffffffffffffffff1684600301601b9054906101000a900463ffffffff1685600301601f9054906101000a900460ff16809450819850829a50839c505050505080613f4457600080fd5b60008260030160009054906101000a900460060b8360030160079054906101000a900473ffffffffffffffffffffffffffffffffffffffff1684600301601b9054906101000a900463ffffffff1685600301601f9054906101000a900460ff16809450819850829a50839c505050505080613fbe57600080fd5b50505050600080604051806101000160405290816000820160009054906101000a900473ffffffffffffffffffffffffffffffffffffffff1673ffffffffffffffffffffffffffffffffffffffff1673ffffffffffffffffffffffffffffffffffffffff1681526020016000820160149054906101000a900460020b60020b60020b81526020016000820160179054906101000a900461ffff1661ffff1661ffff1681526020016000820160199054906101000a900461ffff1661ffff1661ffff16815260200160008201601b9054906101000a900461ffff1661ffff1661ffff16815260200160008201601d9054906101000a900460ff1660ff1660ff16815260200160008201601e9054906101000a900460ff161515151581526020016001820160009054906101000a900462ffffff1662ffffff1662ffffff168152505090508b60020b816020015160020b121561412e57858703848603838503995099509950505050505050506141d7565b8a60020b816020015160020b12156141c057600061414a61473d565b905060008061419883600086602001518760400151600560009054906101000a90046fffffffffffffffffffffffffffffffff1689606001516009615112909695949392919063ffffffff16565b91509150888a830303878983030386888603039c509c509c50505050505050505050506141d7565b868603858503848403995099509950505050505050505b9250925092565b7f000000000000000000000000000000000000000000000000000000000000000081565b7f000000000000000000000000000000000000000000000000000000000000000081565b7f000000000000000000000000000000000000000000000000000000000000000081565b8060028190555050565b7f000000000000000000000000000000000000000000000000000000000000000081565b60025481565b60066020528060005260406000206000915090508060000160009054906101000a90046fffffffffffffffffffffffffffffffff16908060000160109054906101000a9004600f0b908060010154908060020154908060030160009054906101000a900460060b908060030160079054906101000a900473ffffffffffffffffffffffffffffffffffffffff169080600301601b9054906101000a900463ffffffff169080600301601f9054906101000a900460ff16905088565b60008060000160009054906101000a900473ffffffffffffffffffffffffffffffffffffffff1673ffffffffffffffffffffffffffffffffffffffff16146143e9576040517f08c379a00000000000000000000000000000000000000000000000000000000081526004018080602001828103825260028152602001807f414900000000000000000000000000000000000000000000000000000000000081525060200191505060405180910390fd5b60006143f4826155da565b905060008061441461440461473d565b6009616a1a90919063ffffffff16565b915091506040518061010001604052808573ffffffffffffffffffffffffffffffffffffffff1681526020018460020b8152602001600061ffff1681526020018361ffff1681526020018261ffff168152602001600060ff168152602001600115158152602001600062ffffff168152506000808201518160000160006101000a81548173ffffffffffffffffffffffffffffffffffffffff021916908373ffffffffffffffffffffffffffffffffffffffff16021790555060208201518160000160146101000a81548162ffffff021916908360020b62ffffff16021790555060408201518160000160176101000a81548161ffff021916908361ffff16021790555060608201518160000160196101000a81548161ffff021916908361ffff160217905550608082015181600001601b6101000a81548161ffff021916908361ffff16021790555060a082015181600001601d6101000a81548160ff021916908360ff16021790555060c082015181600001601e6101000a81548160ff02191690831515021790555060e08201518160010160006101000a81548162ffffff021916908362ffffff1602179055509050507f98636036cb66a9c19a37435efc1e90142190214e8abeb821bdba3f2990dd4c958484604051808373ffffffffffffffffffffffffffffffffffffffff1681526020018260020b81526020019250505060405180910390a150505050565b8060038190555050565b600080828360020b7ffffffffffffffffffffffffffffffffffffffffffffffffffffffffffff2761860020b8161466257fe5b050290506000838460020b7ffffffffffffffffffffffffffffffffffffffffffffffffffffffffffff2761860000360020b8161469b57fe5b05029050600060018560020b84840360020b816146b457fe5b050190508062ffffff166fffffffffffffffffffffffffffffffff8016816146d857fe5b049350505050919050565b7f000000000000000000000000000000000000000000000000000000000000000073ffffffffffffffffffffffffffffffffffffffff163073ffffffffffffffffffffffffffffffffffffffff161461473b57600080fd5b565b60006201000854905090565b60008060008460020b8660020b8161475d57fe5b05905060008660020b128015614786575060008560020b8760020b8161477f57fe5b0760020b14155b15614795578080600190039150505b8315614819576000806147a783616b40565b9150915060008160ff166001901b60018360ff166001901b030190506000818b60008660010b60010b81526020019081526020016000205416905060008114159550856147fb57888360ff1686030261480e565b8861480582616b63565b840360ff168603025b965050505050614897565b60008061482860018401616b40565b91509150600060018260ff166001901b031990506000818b60008660010b60010b815260200190815260200160002054169050600081141595508561487a57888360ff0360ff16600187010102614890565b888361488583616c3e565b0360ff166001870101025b9650505050505b5094509492505050565b60008060008360020b126148b8578260020b6148c0565b8260020b6000035b90507ffffffffffffffffffffffffffffffffffffffffffffffffffffffffffff2761860000360020b81111561495e576040517f08c379a00000000000000000000000000000000000000000000000000000000081526004018080602001828103825260018152602001807f540000000000000000000000000000000000000000000000000000000000000081525060200191505060405180910390fd5b60008060018316141561498257700100000000000000000000000000000000614994565b6ffffcb933bd6fad37aa2d162d1a5940015b70ffffffffffffffffffffffffffffffffff169050600060028316146149ce5760806ffff97272373d413259a46990580e213a8202901c90505b600060048316146149f35760806ffff2e50f5f656932ef12357cf3c7fdcc8202901c90505b60006008831614614a185760806fffe5caca7e10e4e61c3624eaa0941cd08202901c90505b60006010831614614a3d5760806fffcb9843d60f6159c9db58835c9266448202901c90505b60006020831614614a625760806fff973b41fa98c081472e6896dfb254c08202901c90505b60006040831614614a875760806fff2ea16466c96a3843ec78b326b528618202901c90505b60006080831614614aac5760806ffe5dee046a99a2a811c461f1969c30538202901c90505b6000610100831614614ad25760806ffcbe86c7900a88aedcffc83b479aa3a48202901c90505b6000610200831614614af85760806ff987a7253ac413176f2b074cf7815e548202901c90505b6000610400831614614b1e5760806ff3392b0822b70005940c7a398e4b70f38202901c90505b6000610800831614614b445760806fe7159475a2c29b7443b29c7fa6e889d98202901c90505b6000611000831614614b6a5760806fd097f3bdfd2022b8845ad8f792aa58258202901c90505b6000612000831614614b905760806fa9f746462d870fdf8a65dc1f90e061e58202901c90505b6000614000831614614bb65760806f70d869a156d2a1b890bb3df62baf32f78202901c90505b6000618000831614614bdc5760806f31be135f97d08fd981231505542fcfa68202901c90505b600062010000831614614c035760806f09aa508b5b7a84e1c677de54f3e99bc98202901c90505b600062020000831614614c295760806e5d6af8dedb81196699c329225ee6048202901c90505b600062040000831614614c4e5760806d2216e584f5fa1ea926041bedfe988202901c90505b600062080000831614614c715760806b048a170391f7dc42444e8fa28202901c90505b60008460020b1315614caa57807fffffffffffffffffffffffffffffffffffffffffffffffffffffffffffffffff81614ca657fe5b0490505b60006401000000008281614cba57fe5b0614614cc7576001614cca565b60005b60ff16602082901c0192505050919050565b600080614d0c6000800160009054906101000a900473ffffffffffffffffffffffffffffffffffffffff16616d65565b90506000614d18616dab565b90506000614d268383616df8565b90506032811015614d3e576101f49350505050614d5d565b6096811115614d54576127109350505050614d5d565b610bb893505050505b90565b60008060008060008873ffffffffffffffffffffffffffffffffffffffff168a73ffffffffffffffffffffffffffffffffffffffff161015905060008088121590508015614e0f576000614dc28989620f42400362ffffff16620f4240615038565b905082614ddb57614dd68c8c8c6001616e3a565b614de9565b614de88b8d8c6001616f14565b5b9550858110614dfa578a9650614e09565b614e068c8b838661704a565b96505b50614e5b565b81614e2657614e218b8b8b6000616f14565b614e34565b614e338a8c8b6000616e3a565b5b9350838860000310614e4857899550614e5a565b614e578b8a8a600003856170bc565b95505b5b60008673ffffffffffffffffffffffffffffffffffffffff168b73ffffffffffffffffffffffffffffffffffffffff161490508215614ee257808015614e9e5750815b614eb457614eaf878d8c6001616f14565b614eb6565b855b9550808015614ec3575081155b614ed957614ed4878d8c6000616e3a565b614edb565b845b9450614f2c565b808015614eec5750815b614f0257614efd8c888c6001616e3a565b614f04565b855b9550808015614f11575081155b614f2757614f228c888c6000616f14565b614f29565b845b94505b81158015614f3c57508860000385115b15614f48578860000394505b818015614f8157508a73ffffffffffffffffffffffffffffffffffffffff168773ffffffffffffffffffffffffffffffffffffffff1614155b15614f90578589039350614fad565b614faa868962ffffff168a620f42400362ffffff166165ce565b93505b50505095509550955095915050565b60007f80000000000000000000000000000000000000000000000000000000000000008210614fea57600080fd5b819050919050565b600080821215151583838503925082131515151461500f57600080fd5b92915050565b600080821215151583838501925082121515151461503257600080fd5b92915050565b600080600080198587098587029250828110838203039150506000811415615073576000841161506757600080fd5b8382049250505061510b565b80841161507f57600080fd5b600084868809905082811182039150808303925060008586600003169050808604955080840493506001818260000304019050808302841793506000600287600302189050808702600203810290508087026002038102905080870260020381029050808702600203810290508087026002038102905080870260020381029050808502955050505050505b9392505050565b60008060008763ffffffff161415615233576000898661ffff1661ffff811061513757fe5b016040518060800160405290816000820160009054906101000a900463ffffffff1663ffffffff1663ffffffff1681526020016000820160049054906101000a900460060b60060b60060b815260200160008201600b9054906101000a900473ffffffffffffffffffffffffffffffffffffffff1673ffffffffffffffffffffffffffffffffffffffff1673ffffffffffffffffffffffffffffffffffffffff16815260200160008201601f9054906101000a900460ff16151515158152505090508863ffffffff16816000015163ffffffff161461521f5761521c818a898861712e565b90505b806020015181604001519250925050615339565b6000878903905060008061524c8c8c858c8c8c8c617219565b91509150816000015163ffffffff168363ffffffff16141561527e578160200151826040015194509450505050615339565b806000015163ffffffff168363ffffffff1614156152ac578060200151816040015194509450505050615339565b60008260000151826000015103905060008360000151850390508063ffffffff168263ffffffff16856020015185602001510360060b816152e957fe5b05028460200151018263ffffffff168263ffffffff16866040015186604001510373ffffffffffffffffffffffffffffffffffffffff16028161532857fe5b048560400151019650965050505050505b97509795505050505050565b6000808860008960020b60020b815260200190815260200160002090508060010154870381600101819055508060020154860381600201819055508060030160079054906101000a900473ffffffffffffffffffffffffffffffffffffffff1685038160030160076101000a81548173ffffffffffffffffffffffffffffffffffffffff021916908373ffffffffffffffffffffffffffffffffffffffff1602179055508060030160009054906101000a900460060b84038160030160006101000a81548166ffffffffffffff021916908360060b66ffffffffffffff16021790555080600301601b9054906101000a900463ffffffff16830381600301601b6101000a81548163ffffffff021916908363ffffffff1602179055508060000160109054906101000a9004600f0b915050979650505050505050565b60008082600f0b121561553457826fffffffffffffffffffffffffffffffff168260000384039150816fffffffffffffffffffffffffffffffff161061552f576040517f08c379a00000000000000000000000000000000000000000000000000000000081526004018080602001828103825260028152602001807f4c5300000000000000000000000000000000000000000000000000000000000081525060200191505060405180910390fd5b6155d4565b826fffffffffffffffffffffffffffffffff168284019150816fffffffffffffffffffffffffffffffff1610156155d3576040517f08c379a00000000000000000000000000000000000000000000000000000000081526004018080602001828103825260028152602001807f4c4100000000000000000000000000000000000000000000000000000000000081525060200191505060405180910390fd5b5b92915050565b60006401000276a373ffffffffffffffffffffffffffffffffffffffff168273ffffffffffffffffffffffffffffffffffffffff161015801561565c575073fffd8963efd1fc6a506488495d951d5263988d2673ffffffffffffffffffffffffffffffffffffffff168273ffffffffffffffffffffffffffffffffffffffff16105b6156ce576040517f08c379a00000000000000000000000000000000000000000000000000000000081526004018080602001828103825260018152602001807f520000000000000000000000000000000000000000000000000000000000000081525060200191505060405180910390fd5b600060208373ffffffffffffffffffffffffffffffffffffffff16901b9050600081905060006fffffffffffffffffffffffffffffffff821160071b808217915082811c92505067ffffffffffffffff821160061b808217915082811c92505063ffffffff821160051b808217915082811c92505061ffff821160041b808217915082811c92505060ff821160031b808217915082811c925050600f821160021b808217915082811c9250506003821160011b808217915082811c92505060018211808217915050608081106157ac57607f810383901c91506157b6565b80607f0383901b91505b6000604060808303901b9050828302607f1c92508260801c80603f1b8217915083811c935050828302607f1c92508260801c80603e1b8217915083811c935050828302607f1c92508260801c80603d1b8217915083811c935050828302607f1c92508260801c80603c1b8217915083811c935050828302607f1c92508260801c80603b1b8217915083811c935050828302607f1c92508260801c80603a1b8217915083811c935050828302607f1c92508260801c8060391b8217915083811c935050828302607f1c92508260801c8060381b8217915083811c935050828302607f1c92508260801c8060371b8217915083811c935050828302607f1c92508260801c8060361b8217915083811c935050828302607f1c92508260801c8060351b8217915083811c935050828302607f1c92508260801c8060341b8217915083811c935050828302607f1c92508260801c8060331b8217915083811c935050828302607f1c92508260801c8060321b82179150506000693627a301d71055774c8582029050600060806f028f6481ab7f045a5af012a19d003aaa8303901d9050600060806fdb2df09e81959a81455e260799a0632f8401901d90508060020b8260020b146159c6578873ffffffffffffffffffffffffffffffffffffffff1661599d826148a1565b73ffffffffffffffffffffffffffffffffffffffff1611156159bf57816159c1565b805b6159c8565b815b975050505050505050919050565b6000806000898961ffff1661ffff81106159ec57fe5b016040518060800160405290816000820160009054906101000a900463ffffffff1663ffffffff1663ffffffff1681526020016000820160049054906101000a900460060b60060b60060b815260200160008201600b9054906101000a900473ffffffffffffffffffffffffffffffffffffffff1673ffffffffffffffffffffffffffffffffffffffff1673ffffffffffffffffffffffffffffffffffffffff16815260200160008201601f9054906101000a900460ff16151515158152505090508763ffffffff16816000015163ffffffff161415615ad25788859250925050615bfc565b8461ffff168461ffff16118015615af357506001850361ffff168961ffff16145b15615b0057839150615b04565b8491505b8161ffff1660018a0161ffff1681615b1857fe5b069250615b278189898961712e565b8a8461ffff1661ffff8110615b3857fe5b0160008201518160000160006101000a81548163ffffffff021916908363ffffffff16021790555060208201518160000160046101000a81548166ffffffffffffff021916908360060b66ffffffffffffff160217905550604082015181600001600b6101000a81548173ffffffffffffffffffffffffffffffffffffffff021916908373ffffffffffffffffffffffffffffffffffffffff160217905550606082015181600001601f6101000a81548160ff021916908315150217905550905050505b97509795505050505050565b6000808473ffffffffffffffffffffffffffffffffffffffff1663a9059cbb60e01b8585604051602401808373ffffffffffffffffffffffffffffffffffffffff16815260200182815260200192505050604051602081830303815290604052907bffffffffffffffffffffffffffffffffffffffffffffffffffffffff19166020820180517bffffffffffffffffffffffffffffffffffffffffffffffffffffffff83818316178352505050506040518082805190602001908083835b60208310615ce95780518252602082019150602081019050602083039250615cc6565b6001836020036101000a0380198251168184511680821785525050505050509050019150506000604051808303816000865af19150503d8060008114615d4b576040519150601f19603f3d011682016040523d82523d6000602084013e615d50565b606091505b5091509150818015615d905750600081511480615d8f5750808060200190516020811015615d7d57600080fd5b81019080805190602001909291905050505b5b615e02576040517f08c379a00000000000000000000000000000000000000000000000000000000081526004018080602001828103825260028152602001807f544600000000000000000000000000000000000000000000000000000000000081525060200191505060405180910390fd5b5050505050565b60008060007f000000000000000000000000000000000000000000000000000000000000000073ffffffffffffffffffffffffffffffffffffffff166370a0823160e01b30604051602401808273ffffffffffffffffffffffffffffffffffffffff168152602001915050604051602081830303815290604052907bffffffffffffffffffffffffffffffffffffffffffffffffffffffff19166020820180517bffffffffffffffffffffffffffffffffffffffffffffffffffffffff83818316178352505050506040518082805190602001908083835b60208310615f045780518252602082019150602081019050602083039250615ee1565b6001836020036101000a038019825116818451168082178552505050505050905001915050600060405180830381855afa9150503d8060008114615f64576040519150601f19603f3d011682016040523d82523d6000602084013e615f69565b606091505b5091509150818015615f7d57506020815110155b615f8657600080fd5b808060200190516020811015615f9b57600080fd5b81019080805190602001909291905050509250505090565b6000828284019150811015615fc757600080fd5b92915050565b60008060007f000000000000000000000000000000000000000000000000000000000000000073ffffffffffffffffffffffffffffffffffffffff166370a0823160e01b30604051602401808273ffffffffffffffffffffffffffffffffffffffff168152602001915050604051602081830303815290604052907bffffffffffffffffffffffffffffffffffffffffffffffffffffffff19166020820180517bffffffffffffffffffffffffffffffffffffffffffffffffffffffff83818316178352505050506040518082805190602001908083835b602083106160c857805182526020820191506020810190506020830392506160a5565b6001836020036101000a038019825116818451168082178552505050505050905001915050600060405180830381855afa9150503d8060008114616128576040519150601f19603f3d011682016040523d82523d6000602084013e61612d565b606091505b509150915081801561614157506020815110155b61614a57600080fd5b80806020019051602081101561615f57600080fd5b81019080805190602001909291905050509250505090565b6000808361ffff16116161f2576040517f08c379a00000000000000000000000000000000000000000000000000000000081526004018080602001828103825260018152602001807f490000000000000000000000000000000000000000000000000000000000000081525060200191505060405180910390fd5b8261ffff168261ffff161161620957829050616266565b60008390505b8261ffff168161ffff161015616261576001858261ffff1661ffff811061623257fe5b0160000160006101000a81548163ffffffff021916908363ffffffff160217905550808060010191505061620f565b508190505b9392505050565b60008182915081600f0b1461628157600080fd5b919050565b60008060006162936146e3565b6162a584602001518560400151616860565b600080604051806101000160405290816000820160009054906101000a900473ffffffffffffffffffffffffffffffffffffffff1673ffffffffffffffffffffffffffffffffffffffff1673ffffffffffffffffffffffffffffffffffffffff1681526020016000820160149054906101000a900460020b60020b60020b81526020016000820160179054906101000a900461ffff1661ffff1661ffff1681526020016000820160199054906101000a900461ffff1661ffff1661ffff16815260200160008201601b9054906101000a900461ffff1661ffff1661ffff16815260200160008201601d9054906101000a900460ff1660ff1660ff16815260200160008201601e9054906101000a900460ff161515151581526020016001820160009054906101000a900462ffffff1662ffffff1662ffffff16815250509050616405856000015186602001518760400151886060015185602001516175a3565b935060008560600151600f0b146165c657846020015160020b816020015160020b121561645a5761645361643c86602001516148a1565b61644987604001516148a1565b87606001516177fc565b92506165c5565b846040015160020b816020015160020b121561659a576000600560009054906101000a90046fffffffffffffffffffffffffffffffff1690506164c882604001516164a361473d565b8460200151848660600151876080015160096159d6909695949392919063ffffffff16565b6000800160176000800160198491906101000a81548161ffff021916908361ffff1602179055508391906101000a81548161ffff021916908361ffff160217905550505061652b826000015161652188604001516148a1565b88606001516177fc565b935061654c61653d87602001516148a1565b83600001518860600151617847565b925061655c818760600151615481565b600560006101000a8154816fffffffffffffffffffffffffffffffff02191690836fffffffffffffffffffffffffffffffff160217905550506165c4565b6165c16165aa86602001516148a1565b6165b787604001516148a1565b8760600151617847565b91505b5b5b509193909250565b60006165db848484615038565b9050600082806165e757fe5b8486091115616625577fffffffffffffffffffffffffffffffffffffffffffffffffffffffffffffffff811061661c57600080fd5b80806001019150505b9392505050565b6000846000858585604051602001808473ffffffffffffffffffffffffffffffffffffffff1660601b81526014018360020b60e81b81526003018260020b60e81b815260030193505050506040516020818303038152906040528051906020012081526020019081526020016000209050949350505050565b60608060008361ffff1611616722576040517f08c379a00000000000000000000000000000000000000000000000000000000081526004018080602001828103825260018152602001807f490000000000000000000000000000000000000000000000000000000000000081525060200191505060405180910390fd5b865167ffffffffffffffff8111801561673a57600080fd5b506040519080825280602002602001820160405280156167695781602001602082028036833780820191505090505b509150865167ffffffffffffffff8111801561678457600080fd5b506040519080825280602002602001820160405280156167b35781602001602082028036833780820191505090505b50905060005b8751811015616853576167e48a8a8a84815181106167d357fe5b60200260200101518a8a8a8a615112565b8483815181106167f057fe5b6020026020010184848151811061680357fe5b602002602001018273ffffffffffffffffffffffffffffffffffffffff1673ffffffffffffffffffffffffffffffffffffffff168152508260060b60060b815250505080806001019150506167b9565b5097509795505050505050565b8060020b8260020b126168db576040517f08c379a00000000000000000000000000000000000000000000000000000000081526004018080602001828103825260038152602001807f544c55000000000000000000000000000000000000000000000000000000000081525060200191505060405180910390fd5b7ffffffffffffffffffffffffffffffffffffffffffffffffffffffffffff2761860020b8260020b1215616977576040517f08c379a00000000000000000000000000000000000000000000000000000000081526004018080602001828103825260038152602001807f544c4d000000000000000000000000000000000000000000000000000000000081525060200191505060405180910390fd5b7ffffffffffffffffffffffffffffffffffffffffffffffffffffffffffff2761860000360020b8160020b1315616a16576040517f08c379a00000000000000000000000000000000000000000000000000000000081526004018080602001828103825260038152602001807f54554d000000000000000000000000000000000000000000000000000000000081525060200191505060405180910390fd5b5050565b60008060405180608001604052808463ffffffff168152602001600060060b8152602001600073ffffffffffffffffffffffffffffffffffffffff1681526020016001151581525084600061ffff8110616a7057fe5b0160008201518160000160006101000a81548163ffffffff021916908363ffffffff16021790555060208201518160000160046101000a81548166ffffffffffffff021916908360060b66ffffffffffffff160217905550604082015181600001600b6101000a81548173ffffffffffffffffffffffffffffffffffffffff021916908373ffffffffffffffffffffffffffffffffffffffff160217905550606082015181600001601f6101000a81548160ff021916908315150217905550905050600180915091509250929050565b60008060088360020b901d91506101008360020b81616b5b57fe5b079050915091565b6000808211616b7157600080fd5b7001000000000000000000000000000000008210616b9757608082901c91506080810190505b680100000000000000008210616bb557604082901c91506040810190505b6401000000008210616bcf57602082901c91506020810190505b620100008210616be757601082901c91506010810190505b6101008210616bfe57600882901c91506008810190505b60108210616c1457600482901c91506004810190505b60048210616c2a57600282901c91506002810190505b60028210616c39576001810190505b919050565b6000808211616c4c57600080fd5b60ff905060006fffffffffffffffffffffffffffffffff801683161115616c7857608081039050616c80565b608082901c91505b600067ffffffffffffffff801683161115616ca057604081039050616ca8565b604082901c91505b600063ffffffff801683161115616cc457602081039050616ccc565b602082901c91505b600061ffff801683161115616ce657601081039050616cee565b601082901c91505b600060ff801683161115616d0757600881039050616d0f565b600882901c91505b6000600f83161115616d2657600481039050616d2e565b600482901c91505b6000600383161115616d4557600281039050616d4d565b600282901c91505b6000600183161115616d60576001810390505b919050565b600060c0670de0b6b3a76400008373ffffffffffffffffffffffffffffffffffffffff168473ffffffffffffffffffffffffffffffffffffffff160202901c9050919050565b600080616dba30610258617892565b5060020b9050600061025863ffffffff1660060b8260060b81616dd957fe5b059050616df181670de0b6b3a7640000600080617cff565b9250505090565b600080821415616e0b5760009050616e34565b6000828411616e1c57838303616e20565b8284035b905082612710820281616e2f57fe5b049150505b92915050565b60008373ffffffffffffffffffffffffffffffffffffffff168573ffffffffffffffffffffffffffffffffffffffff161115616e7b57838580955081965050505b81616ec757616ec2836fffffffffffffffffffffffffffffffff1686860373ffffffffffffffffffffffffffffffffffffffff166c01000000000000000000000000615038565b616f0a565b616f09836fffffffffffffffffffffffffffffffff1686860373ffffffffffffffffffffffffffffffffffffffff166c010000000000000000000000006165ce565b5b9050949350505050565b60008373ffffffffffffffffffffffffffffffffffffffff168573ffffffffffffffffffffffffffffffffffffffff161115616f5557838580955081965050505b6000606060ff16846fffffffffffffffffffffffffffffffff16901b9050600086860373ffffffffffffffffffffffffffffffffffffffff16905060008773ffffffffffffffffffffffffffffffffffffffff1611616fb357600080fd5b83616ffd578673ffffffffffffffffffffffffffffffffffffffff16616ff083838973ffffffffffffffffffffffffffffffffffffffff16615038565b81616ff757fe5b0461703e565b61703d61702183838973ffffffffffffffffffffffffffffffffffffffff166165ce565b8873ffffffffffffffffffffffffffffffffffffffff16617f02565b5b92505050949350505050565b6000808573ffffffffffffffffffffffffffffffffffffffff161161706e57600080fd5b6000846fffffffffffffffffffffffffffffffff161161708d57600080fd5b816170a45761709f8585856001617f15565b6170b2565b6170b18585856001618087565b5b9050949350505050565b6000808573ffffffffffffffffffffffffffffffffffffffff16116170e057600080fd5b6000846fffffffffffffffffffffffffffffffff16116170ff57600080fd5b81617116576171118585856000618087565b617124565b6171238585856000617f15565b5b9050949350505050565b617136618e9c565b600085600001518503905060405180608001604052808663ffffffff1681526020018263ffffffff168660020b0288602001510160060b81526020016000856fffffffffffffffffffffffffffffffff1611617193576001617195565b845b6fffffffffffffffffffffffffffffffff1660808463ffffffff1673ffffffffffffffffffffffffffffffffffffffff16901b73ffffffffffffffffffffffffffffffffffffffff16816171e557fe5b0488604001510173ffffffffffffffffffffffffffffffffffffffff16815260200160011515815250915050949350505050565b617221618e9c565b617229618e9c565b888561ffff1661ffff811061723a57fe5b016040518060800160405290816000820160009054906101000a900463ffffffff1663ffffffff1663ffffffff1681526020016000820160049054906101000a900460060b60060b60060b815260200160008201600b9054906101000a900473ffffffffffffffffffffffffffffffffffffffff1673ffffffffffffffffffffffffffffffffffffffff1673ffffffffffffffffffffffffffffffffffffffff16815260200160008201601f9054906101000a900460ff161515151581525050915061730b88836000015189618211565b15617343578663ffffffff16826000015163ffffffff16141561732d57617597565b8161733a8389898861712e565b91509150617597565b888361ffff166001870161ffff168161735857fe5b0661ffff1661ffff811061736857fe5b016040518060800160405290816000820160009054906101000a900463ffffffff1663ffffffff1663ffffffff1681526020016000820160049054906101000a900460060b60060b60060b815260200160008201600b9054906101000a900473ffffffffffffffffffffffffffffffffffffffff1673ffffffffffffffffffffffffffffffffffffffff1673ffffffffffffffffffffffffffffffffffffffff16815260200160008201601f9054906101000a900460ff161515151581525050915081606001516175045788600061ffff811061744157fe5b016040518060800160405290816000820160009054906101000a900463ffffffff1663ffffffff1663ffffffff1681526020016000820160049054906101000a900460060b60060b60060b815260200160008201600b9054906101000a900473ffffffffffffffffffffffffffffffffffffffff1673ffffffffffffffffffffffffffffffffffffffff1673ffffffffffffffffffffffffffffffffffffffff16815260200160008201601f9054906101000a900460ff16151515158152505091505b61751388836000015189618211565b617585576040517f08c379a00000000000000000000000000000000000000000000000000000000081526004018080602001828103825260038152602001807f4f4c44000000000000000000000000000000000000000000000000000000000081525060200191505060405180910390fd5b61759289898988876182d9565b915091505b97509795505050505050565b60006175bd868686600861662c909392919063ffffffff16565b90506000600254905060006003549050600080600087600f0b146177705760006175e561473d565b905060008061765c8360008060000160149054906101000a900460020b6000800160179054906101000a900461ffff16600560009054906101000a90046fffffffffffffffffffffffffffffffff166000800160199054906101000a900461ffff166009615112909695949392919063ffffffff16565b915091506176a78c8a8c8a8a86888a60007f0000000000000000000000000000000000000000000000000000000000000000600661855c909a9998979695949392919063ffffffff16565b94506176f08b8a8c8a8a86888a60017f0000000000000000000000000000000000000000000000000000000000000000600661855c909a9998979695949392919063ffffffff16565b9350841561772f5761772e8c7f0000000000000000000000000000000000000000000000000000000000000000600761885e9092919063ffffffff16565b5b831561776c5761776b8b7f0000000000000000000000000000000000000000000000000000000000000000600761885e9092919063ffffffff16565b5b5050505b60008061778f8b8b8a898960066188d69095949392919063ffffffff16565b915091506177aa8983838a61899d909392919063ffffffff16565b600089600f0b12156177ed5783156177d1576177d08b6006618d2190919063ffffffff16565b5b82156177ec576177eb8a6006618d2190919063ffffffff16565b5b5b50505050505095945050505050565b60008082600f0b126178225761781d6178188585856001616f14565b614fbc565b61783e565b61783a6178358585856000036000616f14565b614fbc565b6000035b90509392505050565b60008082600f0b1261786d576178686178638585856001616e3a565b614fbc565b617889565b6178856178808585856000036000616e3a565b614fbc565b6000035b90509392505050565b60008060008363ffffffff161415617912576040517f08c379a00000000000000000000000000000000000000000000000000000000081526004018080602001828103825260028152602001807f425000000000000000000000000000000000000000000000000000000000000081525060200191505060405180910390fd5b6000600267ffffffffffffffff8111801561792c57600080fd5b5060405190808252806020026020018201604052801561795b5781602001602082028036833780820191505090505b509050838160008151811061796c57fe5b602002602001019063ffffffff16908163ffffffff168152505060008160018151811061799557fe5b602002602001019063ffffffff16908163ffffffff16815250506000808673ffffffffffffffffffffffffffffffffffffffff1663883bdbfd846040518263ffffffff1660e01b81526004018080602001828103825283818151815260200191508051906020019060200280838360005b83811015617a21578082015181840152602081019050617a06565b505050509050019250505060006040518083038186803b158015617a4457600080fd5b505afa158015617a58573d6000803e3d6000fd5b505050506040513d6000823e3d601f19601f820116820180604052506040811015617a8257600080fd5b8101908080516040519392919084640100000000821115617aa257600080fd5b83820191506020820185811115617ab857600080fd5b8251866020820283011164010000000082111715617ad557600080fd5b8083526020830192505050908051906020019060200280838360005b83811015617b0c578082015181840152602081019050617af1565b5050505090500160405260200180516040519392919084640100000000821115617b3557600080fd5b83820191506020820185811115617b4b57600080fd5b8251866020820283011164010000000082111715617b6857600080fd5b8083526020830192505050908051906020019060200280838360005b83811015617b9f578082015181840152602081019050617b84565b5050505090500160405250505091509150600082600081518110617bbf57fe5b602002602001015183600181518110617bd457fe5b6020026020010151039050600082600081518110617bee57fe5b602002602001015183600181518110617c0357fe5b60200260200101510390508763ffffffff168260060b81617c2057fe5b05965060008260060b128015617c4c575060008863ffffffff168360060b81617c4557fe5b0760060b14155b15617c5b578680600190039750505b600073ffffffffffffffffffffffffffffffffffffffff80168963ffffffff1602905060208273ffffffffffffffffffffffffffffffffffffffff1677ffffffffffffffffffffffffffffffffffffffffffffffff16901b77ffffffffffffffffffffffffffffffffffffffffffffffff168177ffffffffffffffffffffffffffffffffffffffffffffffff1681617cef57fe5b0496505050505050509250929050565b600080617d0b866148a1565b90506fffffffffffffffffffffffffffffffff80168173ffffffffffffffffffffffffffffffffffffffff1611617e1c5760008173ffffffffffffffffffffffffffffffffffffffff168273ffffffffffffffffffffffffffffffffffffffff160290508373ffffffffffffffffffffffffffffffffffffffff168573ffffffffffffffffffffffffffffffffffffffff1610617ddd57617dd87801000000000000000000000000000000000000000000000000876fffffffffffffffffffffffffffffffff1683615038565b617e14565b617e1381876fffffffffffffffffffffffffffffffff167801000000000000000000000000000000000000000000000000615038565b5b925050617ef9565b6000617e5e8273ffffffffffffffffffffffffffffffffffffffff168373ffffffffffffffffffffffffffffffffffffffff1668010000000000000000615038565b90508373ffffffffffffffffffffffffffffffffffffffff168573ffffffffffffffffffffffffffffffffffffffff1610617ec657617ec1700100000000000000000000000000000000876fffffffffffffffffffffffffffffffff1683615038565b617ef5565b617ef481876fffffffffffffffffffffffffffffffff16700100000000000000000000000000000000615038565b5b9250505b50949350505050565b6000808284061182840401905092915050565b60008115617fcb57600073ffffffffffffffffffffffffffffffffffffffff8016841115617f6c57617f67846c01000000000000000000000000876fffffffffffffffffffffffffffffffff16615038565b617f90565b846fffffffffffffffffffffffffffffffff16606060ff1685901b81617f8e57fe5b045b9050617fc3617fbe828873ffffffffffffffffffffffffffffffffffffffff16615fb390919063ffffffff16565b618e02565b91505061807f565b600073ffffffffffffffffffffffffffffffffffffffff801684111561801a57618015846c01000000000000000000000000876fffffffffffffffffffffffffffffffff166165ce565b61803e565b61803d606060ff1685901b866fffffffffffffffffffffffffffffffff16617f02565b5b9050808673ffffffffffffffffffffffffffffffffffffffff161161806257600080fd5b808673ffffffffffffffffffffffffffffffffffffffff16039150505b949350505050565b60008083141561809957849050618209565b6000606060ff16856fffffffffffffffffffffffffffffffff16901b905082156181805760008673ffffffffffffffffffffffffffffffffffffffff16858873ffffffffffffffffffffffffffffffffffffffff168702925082816180fa57fe5b04141561813c576000818301905082811061813a57618130838973ffffffffffffffffffffffffffffffffffffffff16836165ce565b9350505050618209565b505b61817782618172878a73ffffffffffffffffffffffffffffffffffffffff16868161816357fe5b04615fb390919063ffffffff16565b617f02565b92505050618209565b60008673ffffffffffffffffffffffffffffffffffffffff16858873ffffffffffffffffffffffffffffffffffffffff168702925082816181bd57fe5b041480156181ca57508082115b6181d357600080fd5b600081830390506182036181fe848a73ffffffffffffffffffffffffffffffffffffffff16846165ce565b618e02565b93505050505b949350505050565b60008363ffffffff168363ffffffff161115801561823b57508363ffffffff168263ffffffff1611155b15618257578163ffffffff168363ffffffff16111590506182d2565b60008463ffffffff168463ffffffff161161827f576401000000008463ffffffff1601618287565b8363ffffffff165b64ffffffffff16905060008563ffffffff168463ffffffff16116182b8576401000000008463ffffffff16016182c0565b8363ffffffff165b64ffffffffff16905080821115925050505b9392505050565b6182e1618e9c565b6182e9618e9c565b60008361ffff166001860161ffff16816182ff57fe5b0661ffff169050600060018561ffff16830103905060005b60011561854f5760028284018161832a57fe5b049050898661ffff16828161833b57fe5b0661ffff811061834757fe5b016040518060800160405290816000820160009054906101000a900463ffffffff1663ffffffff1663ffffffff1681526020016000820160049054906101000a900460060b60060b60060b815260200160008201600b9054906101000a900473ffffffffffffffffffffffffffffffffffffffff1673ffffffffffffffffffffffffffffffffffffffff1673ffffffffffffffffffffffffffffffffffffffff16815260200160008201601f9054906101000a900460ff1615151515815250509450846060015161841d57600181019250618317565b898661ffff16600183018161842e57fe5b0661ffff811061843a57fe5b016040518060800160405290816000820160009054906101000a900463ffffffff1663ffffffff1663ffffffff1681526020016000820160049054906101000a900460060b60060b60060b815260200160008201600b9054906101000a900473ffffffffffffffffffffffffffffffffffffffff1673ffffffffffffffffffffffffffffffffffffffff1673ffffffffffffffffffffffffffffffffffffffff16815260200160008201601f9054906101000a900460ff1615151515815250509350600061850d8a87600001518b618211565b905080801561852757506185268a8a8760000151618211565b5b15618532575061854f565b8061854257600182039250618549565b6001820193505b50618317565b5050509550959350505050565b6000808c60008d60020b60020b8152602001908152602001600020905060008160000160009054906101000a90046fffffffffffffffffffffffffffffffff16905060006185aa828d615481565b9050846fffffffffffffffffffffffffffffffff16816fffffffffffffffffffffffffffffffff161115618646576040517f08c379a00000000000000000000000000000000000000000000000000000000081526004018080602001828103825260028152602001807f4c4f00000000000000000000000000000000000000000000000000000000000081525060200191505060405180910390fd5b6000826fffffffffffffffffffffffffffffffff161415156000826fffffffffffffffffffffffffffffffff16141515141593506000826fffffffffffffffffffffffffffffffff161415618765578c60020b8e60020b13618747578a8360010181905550898360020181905550888360030160076101000a81548173ffffffffffffffffffffffffffffffffffffffff021916908373ffffffffffffffffffffffffffffffffffffffff160217905550878360030160006101000a81548166ffffffffffffff021916908360060b66ffffffffffffff1602179055508683600301601b6101000a81548163ffffffff021916908363ffffffff1602179055505b600183600301601f6101000a81548160ff0219169083151502179055505b808360000160006101000a8154816fffffffffffffffffffffffffffffffff02191690836fffffffffffffffffffffffffffffffff160217905550856187dc576187d76187d28d600f0b8560000160109054906101000a9004600f0b600f0b61501590919063ffffffff16565b61626d565b61880f565b61880e6188098d600f0b8560000160109054906101000a9004600f0b600f0b614ff290919063ffffffff16565b61626d565b5b8360000160106101000a8154816fffffffffffffffffffffffffffffffff0219169083600f0b6fffffffffffffffffffffffffffffffff1602179055505050509b9a5050505050505050505050565b60008160020b8360020b8161886f57fe5b0760020b1461887d57600080fd5b6000806188988360020b8560020b8161889257fe5b05616b40565b9150915060008160ff166001901b9050808660008560010b60010b815260200190815260200160002060008282541892505081905550505050505050565b60008060008860008960020b60020b8152602001908152602001600020905060008960008960020b60020b815260200190815260200160002090506000808a60020b8960020b12618934578360010154915083600201549050618947565b8360010154880391508360020154870390505b6000808b60020b8b60020b121561896b57846001015491508460020154905061897e565b84600101548a0391508460020154890390505b81848b0303975080838a03039650505050505050965096945050505050565b6000846040518060a00160405290816000820160009054906101000a90046fffffffffffffffffffffffffffffffff166fffffffffffffffffffffffffffffffff166fffffffffffffffffffffffffffffffff16815260200160018201548152602001600282015481526020016003820160009054906101000a90046fffffffffffffffffffffffffffffffff166fffffffffffffffffffffffffffffffff166fffffffffffffffffffffffffffffffff1681526020016003820160109054906101000a90046fffffffffffffffffffffffffffffffff166fffffffffffffffffffffffffffffffff166fffffffffffffffffffffffffffffffff1681525050905060008085600f0b1415618b4457600082600001516fffffffffffffffffffffffffffffffff1611618b38576040517f08c379a00000000000000000000000000000000000000000000000000000000081526004018080602001828103825260028152602001807f4e5000000000000000000000000000000000000000000000000000000000000081525060200191505060405180910390fd5b81600001519050618b55565b618b52826000015186615481565b90505b6000618b8f8360200151860384600001516fffffffffffffffffffffffffffffffff16700100000000000000000000000000000000615038565b90506000618bcb8460400151860385600001516fffffffffffffffffffffffffffffffff16700100000000000000000000000000000000615038565b9050600087600f0b14618c1457828860000160006101000a8154816fffffffffffffffffffffffffffffffff02191690836fffffffffffffffffffffffffffffffff1602179055505b8588600101819055508488600201819055506000826fffffffffffffffffffffffffffffffff161180618c5957506000816fffffffffffffffffffffffffffffffff16115b15618d1757818860030160008282829054906101000a90046fffffffffffffffffffffffffffffffff160192506101000a8154816fffffffffffffffffffffffffffffffff02191690836fffffffffffffffffffffffffffffffff160217905550808860030160108282829054906101000a90046fffffffffffffffffffffffffffffffff160192506101000a8154816fffffffffffffffffffffffffffffffff02191690836fffffffffffffffffffffffffffffffff1602179055505b5050505050505050565b8160008260020b60020b8152602001908152602001600020600080820160006101000a8154906fffffffffffffffffffffffffffffffff02191690556000820160106101000a8154906fffffffffffffffffffffffffffffffff0219169055600182016000905560028201600090556003820160006101000a81549066ffffffffffffff02191690556003820160076101000a81549073ffffffffffffffffffffffffffffffffffffffff021916905560038201601b6101000a81549063ffffffff021916905560038201601f6101000a81549060ff021916905550505050565b6000818291508173ffffffffffffffffffffffffffffffffffffffff1614618e2957600080fd5b919050565b6040518060e00160405280600073ffffffffffffffffffffffffffffffffffffffff168152602001600060020b8152602001600015158152602001600073ffffffffffffffffffffffffffffffffffffffff1681526020016000815260200160008152602001600081525090565b6040518060800160405280600063ffffffff168152602001600060060b8152602001600073ffffffffffffffffffffffffffffffffffffffff168152602001600015158152509056fea26469706673582212204e1b8e1441651e9be77cb564512b267cb6f6d64a0ca949814c358070552f6ee764736f6c63430007060033","linkReferences":{}},"methodIdentifiers":{"advanceTime(uint256)":"07e32f0a","burn(int24,int24,uint128)":"a34123a7","collect(address,int24,int24,uint128,uint128)":"4f1eb3d8","collectProtocol(address,uint128,uint128)":"85b66729","factory()":"c45a0155","fee()":"ddca3f43","feeGrowthGlobal0X128()":"f3058399","feeGrowthGlobal1X128()":"46141319","flash(address,uint256,uint256,bytes)":"490e6cbc","increaseObservationCardinalityNext(uint16)":"32148f67","initialize(uint160)":"f637731d","liquidity()":"1a686502","maxLiquidityPerTick()":"70cf754a","mint(address,int24,int24,uint128,bytes)":"3c8a7d8d","observations(uint256)":"252c09d7","observe(uint32[])":"883bdbfd","positions(bytes32)":"514ea4bf","protocolFees()":"1ad8b03b","setFeeGrowthGlobal0X128(uint256)":"d380c679","setFeeGrowthGlobal1X128(uint256)":"f6eb760f","setFeeProtocol(uint8,uint8)":"8206a4d1","slot0()":"3850c7bd","snapshotCumulativesInside(int24,int24)":"a38807f2","swap(address,bool,int256,uint160,bytes)":"128acb08","tickBitmap(int16)":"5339c296","tickSpacing()":"d0c93a7c","ticks(int24)":"f30dba93","time()":"16ada547","token0()":"0dfe1681","token1()":"d21220a7"},"id":34}