{"abi":[{"type":"function","name":"checkDivRoundingUp","inputs":[{"name":"x","type":"uint256","internalType":"uint256"},{"name":"d","type":"uint256","internalType":"uint256"}],"outputs":[],"stateMutability":"pure"}],"bytecode":{"object":"0x608060405234801561001057600080fd5b5060ff8061001f6000396000f3fe6080604052348015600f57600080fd5b506004361060285760003560e01c80632724da4e14602d575b600080fd5b606060048036036040811015604157600080fd5b8101908080359060200190929190803590602001909291905050506062565b005b60008111606e57600080fd5b60006078838360b6565b90506000828481608457fe5b04820390506000838581609357fe5b06141560a6576000811460a257fe5b60b0565b6001811460af57fe5b5b50505050565b600080828406118284040190509291505056fea2646970667358221220ea59cee0453c234cb54fd7a3300aabe2fe9076ada38bd6816feba152cac76cd064736f6c63430007060033","linkReferences":{}},"methodIdentifiers":{"checkDivRoundingUp(uint256,uint256)":"2724da4e"},"id":63}