{"abi":[{"type":"function","name":"addDelta","inputs":[{"name":"x","type":"uint128","internalType":"uint128"},{"name":"y","type":"int128","internalType":"int128"}],"outputs":[{"name":"z","type":"uint128","internalType":"uint128"}],"stateMutability":"pure"},{"type":"function","name":"getGasCostOfAddDelta","inputs":[{"name":"x","type":"uint128","internalType":"uint128"},{"name":"y","type":"int128","internalType":"int128"}],"outputs":[{"name":"","type":"uint256","internalType":"uint256"}],"stateMutability":"view"}],"bytecode":{"object":"0x608060405234801561001057600080fd5b506102cf806100206000396000f3fe608060405234801561001057600080fd5b50600436106100365760003560e01c8063402d44fb1461003b578063cf41632f146100ae575b600080fd5b6100866004803603604081101561005157600080fd5b8101908080356fffffffffffffffffffffffffffffffff1690602001909291908035600f0b906020019092919050505061010f565b60405180826fffffffffffffffffffffffffffffffff16815260200191505060405180910390f35b6100f9600480360360408110156100c457600080fd5b8101908080356fffffffffffffffffffffffffffffffff1690602001909291908035600f0b9060200190929190505050610123565b6040518082815260200191505060405180910390f35b600061011b8383610140565b905092915050565b6000805a90506101338484610140565b505a810391505092915050565b60008082600f0b12156101f357826fffffffffffffffffffffffffffffffff168260000384039150816fffffffffffffffffffffffffffffffff16106101ee576040517f08c379a00000000000000000000000000000000000000000000000000000000081526004018080602001828103825260028152602001807f4c5300000000000000000000000000000000000000000000000000000000000081525060200191505060405180910390fd5b610293565b826fffffffffffffffffffffffffffffffff168284019150816fffffffffffffffffffffffffffffffff161015610292576040517f08c379a00000000000000000000000000000000000000000000000000000000081526004018080602001828103825260028152602001807f4c4100000000000000000000000000000000000000000000000000000000000081525060200191505060405180910390fd5b5b9291505056fea26469706673582212206d498a5d6be863948216401ea2f293f90e6fc39ac9d1df5f49ffdafe7a2dfe7d64736f6c63430007060033","linkReferences":{}},"methodIdentifiers":{"addDelta(uint128,int128)":"402d44fb","getGasCostOfAddDelta(uint128,int128)":"cf41632f"},"id":38}