{"abi":[{"type":"function","name":"callsIntoNoDelegateCallFunction","inputs":[],"outputs":[],"stateMutability":"view"},{"type":"function","name":"canBeDelegateCalled","inputs":[],"outputs":[{"name":"","type":"uint256","internalType":"uint256"}],"stateMutability":"view"},{"type":"function","name":"cannotBeDelegateCalled","inputs":[],"outputs":[{"name":"","type":"uint256","internalType":"uint256"}],"stateMutability":"view"},{"type":"function","name":"getGasCostOfCanBeDelegateCalled","inputs":[],"outputs":[{"name":"","type":"uint256","internalType":"uint256"}],"stateMutability":"view"},{"type":"function","name":"getGasCostOfCannotBeDelegateCalled","inputs":[],"outputs":[{"name":"","type":"uint256","internalType":"uint256"}],"stateMutability":"view"}],"bytecode":{"object":"0x60a060405234801561001057600080fd5b503073ffffffffffffffffffffffffffffffffffffffff1660808173ffffffffffffffffffffffffffffffffffffffff1660601b8152505060805160601c6101de6100656000398061014652506101de6000f3fe608060405234801561001057600080fd5b50600436106100575760003560e01c80633045a6e01461005c5780633c7c8dd01461007a578063423ecb051461009857806364270164146100b6578063f45f416e146100c0575b600080fd5b6100646100de565b6040518082815260200191505060405180910390f35b6100826100f6565b6040518082815260200191505060405180910390f35b6100a061010e565b6040518082815260200191505060405180910390f35b6100be610128565b005b6100c8610132565b6040518082815260200191505060405180910390f35b6000805a90506100ec610132565b505a810391505090565b6000805a905061010461010e565b505a810391505090565b6000610118610144565b6005428161012257fe5b04905090565b61013061019e565b565b60006005428161013e57fe5b04905090565b7f000000000000000000000000000000000000000000000000000000000000000073ffffffffffffffffffffffffffffffffffffffff163073ffffffffffffffffffffffffffffffffffffffff161461019c57600080fd5b565b6101a6610144565b56fea2646970667358221220e138b0fc7247a8534ee9696c4b13055e9994a52ab27f99c48ed64ff0e46f48bd64736f6c63430007060033","linkReferences":{}},"methodIdentifiers":{"callsIntoNoDelegateCallFunction()":"64270164","canBeDelegateCalled()":"f45f416e","cannotBeDelegateCalled()":"423ecb05","getGasCostOfCanBeDelegateCalled()":"3045a6e0","getGasCostOfCannotBeDelegateCalled()":"3c7c8dd0"},"id":42}