{"abi":[{"type":"function","name":"advanceTime","inputs":[{"name":"by","type":"uint32","internalType":"uint32"}],"outputs":[],"stateMutability":"nonpayable"},{"type":"function","name":"batchUpdate","inputs":[{"name":"params","type":"tuple[]","internalType":"struct OracleTest.UpdateParams[]","components":[{"name":"advanceTimeBy","type":"uint32","internalType":"uint32"},{"name":"tick","type":"int24","internalType":"int24"},{"name":"liquidity","type":"uint128","internalType":"uint128"}]}],"outputs":[],"stateMutability":"nonpayable"},{"type":"function","name":"cardinality","inputs":[],"outputs":[{"name":"","type":"uint16","internalType":"uint16"}],"stateMutability":"view"},{"type":"function","name":"cardinalityNext","inputs":[],"outputs":[{"name":"","type":"uint16","internalType":"uint16"}],"stateMutability":"view"},{"type":"function","name":"getGasCostOfObserve","inputs":[{"name":"secondsAgos","type":"uint32[]","internalType":"uint32[]"}],"outputs":[{"name":"","type":"uint256","internalType":"uint256"}],"stateMutability":"view"},{"type":"function","name":"grow","inputs":[{"name":"_cardinalityNext","type":"uint16","internalType":"uint16"}],"outputs":[],"stateMutability":"nonpayable"},{"type":"function","name":"index","inputs":[],"outputs":[{"name":"","type":"uint16","internalType":"uint16"}],"stateMutability":"view"},{"type":"function","name":"initialize","inputs":[{"name":"params","type":"tuple","internalType":"struct OracleTest.InitializeParams","components":[{"name":"time","type":"uint32","internalType":"uint32"},{"name":"tick","type":"int24","internalType":"int24"},{"name":"liquidity","type":"uint128","internalType":"uint128"}]}],"outputs":[],"stateMutability":"nonpayable"},{"type":"function","name":"liquidity","inputs":[],"outputs":[{"name":"","type":"uint128","internalType":"uint128"}],"stateMutability":"view"},{"type":"function","name":"observations","inputs":[{"name":"","type":"uint256","internalType":"uint256"}],"outputs":[{"name":"blockTimestamp","type":"uint32","internalType":"uint32"},{"name":"tickCumulative","type":"int56","internalType":"int56"},{"name":"secondsPerLiquidityCumulativeX128","type":"uint160","internalType":"uint160"},{"name":"initialized","type":"bool","internalType":"bool"}],"stateMutability":"view"},{"type":"function","name":"observe","inputs":[{"name":"secondsAgos","type":"uint32[]","internalType":"uint32[]"}],"outputs":[{"name":"tickCumulatives","type":"int56[]","internalType":"int56[]"},{"name":"secondsPerLiquidityCumulativeX128s","type":"uint160[]","internalType":"uint160[]"}],"stateMutability":"view"},{"type":"function","name":"tick","inputs":[],"outputs":[{"name":"","type":"int24","internalType":"int24"}],"stateMutability":"view"},{"type":"function","name":"time","inputs":[],"outputs":[{"name":"","type":"uint32","internalType":"uint32"}],"stateMutability":"view"},{"type":"function","name":"update","inputs":[{"name":"params","type":"tuple","internalType":"struct OracleTest.UpdateParams","components":[{"name":"advanceTimeBy","type":"uint32","internalType":"uint32"},{"name":"tick","type":"int24","internalType":"int24"},{"name":"liquidity","type":"uint128","internalType":"uint128"}]}],"outputs":[],"stateMutability":"nonpayable"}],"bytecode":{"object":"0x608060405234801561001057600080fd5b506122c4806100206000396000f3fe608060405234801561001057600080fd5b50600436106100ea5760003560e01c8063761eb23e1161008c578063daf50f6b11610066578063daf50f6b1461024f578063dbffe9ad1461026b578063dd158c1814610289578063f7fd2cfa146102a7576100ea565b8063761eb23e146101e6578063883bdbfd14610202578063d81740db14610233576100ea565b80632986c0e5116100c85780632986c0e51461015e5780633eaf5d9f1461017c57806365829dc51461019a57806374e69cef146101b6576100ea565b806316ada547146100ef5780631a6865021461010d578063252c09d71461012b575b600080fd5b6100f76102c3565b60405161010491906120ae565b60405180910390f35b6101156102da565b604051610122919061205d565b60405180910390f35b61014560048036038101906101409190611dd7565b6102fd565b60405161015594939291906120c9565b60405180910390f35b61016661037b565b6040516101739190612078565b60405180910390f35b610184610390565b6040516101919190612022565b60405180910390f35b6101b460048036038101906101af9190611d5c565b6103a4565b005b6101d060048036038101906101cb9190611cc5565b610518565b6040516101dd9190612093565b60405180910390f35b61020060048036038101906101fb9190611dae565b610606565b005b61021c60048036038101906102179190611cc5565b61064d565b60405161022a929190611feb565b60405180910390f35b61024d60048036038101906102489190611c80565b61071e565b005b61026960048036038101906102649190611d33565b61092c565b005b610273610aa4565b6040516102809190612078565b60405180910390f35b610291610ab9565b60405161029e9190612078565b60405180910390f35b6102c160048036038101906102bc9190611e00565b610ace565b005b61ffff60009054906101000a900463ffffffff1681565b61ffff60079054906101000a90046fffffffffffffffffffffffffffffffff1681565b60008161ffff811061030e57600080fd5b016000915090508060000160009054906101000a900463ffffffff16908060000160049054906101000a900460060b9080600001600b9054906101000a900473ffffffffffffffffffffffffffffffffffffffff169080600001601f9054906101000a900460ff16905084565b61ffff60179054906101000a900461ffff1681565b61ffff60049054906101000a900460020b81565b6103bf8160000160208101906103ba9190611e00565b610ace565b61045261ffff60179054906101000a900461ffff1661ffff60009054906101000a900463ffffffff1661ffff60049054906101000a900460020b61ffff60079054906101000a90046fffffffffffffffffffffffffffffffff1661ffff60199054906101000a900461ffff1661ffff601b9054906101000a900461ffff166000610b08909695949392919063ffffffff16565b61ffff601761ffff60198491906101000a81548161ffff021916908361ffff1602179055508391906101000a81548161ffff021916908361ffff16021790555050508060200160208101906104a79190611d0a565b61ffff60046101000a81548162ffffff021916908360020b62ffffff1602179055508060400160208101906104dc9190611d85565b61ffff60076101000a8154816fffffffffffffffffffffffffffffffff02191690836fffffffffffffffffffffffffffffffff16021790555050565b600080600080600061ffff60009054906101000a900463ffffffff1661ffff60049054906101000a900460020b61ffff60079054906101000a90046fffffffffffffffffffffffffffffffff1661ffff60179054906101000a900461ffff16935093509350935060005a90506105f485898980806020026020016040519081016040528093929190818152602001838360200280828437600081840152601f19601f8201169050808301925050505050505086858761ffff60199054906101000a900461ffff166000610d3a909695949392919063ffffffff16565b50505a81039550505050505092915050565b61062d61ffff601b9054906101000a900461ffff16826000610ef59092919063ffffffff16565b61ffff601b6101000a81548161ffff021916908361ffff16021790555050565b60608061071361ffff60009054906101000a900463ffffffff16858580806020026020016040519081016040528093929190818152602001838360200280828437600081840152601f19601f8201169050808301925050505050505061ffff60049054906101000a900460020b61ffff60179054906101000a900461ffff1661ffff60079054906101000a90046fffffffffffffffffffffffffffffffff1661ffff60199054906101000a900461ffff166000610d3a909695949392919063ffffffff16565b915091509250929050565b600061ffff60049054906101000a900460020b9050600061ffff60079054906101000a90046fffffffffffffffffffffffffffffffff169050600061ffff60179054906101000a900461ffff169050600061ffff60199054906101000a900461ffff169050600061ffff601b9054906101000a900461ffff169050600061ffff60009054906101000a900463ffffffff16905060005b88889050811015610866578888828181106107cb57fe5b90506060020160000160208101906107e39190611e00565b820191506108058583898988886000610b08909695949392919063ffffffff16565b809550819650505088888281811061081957fe5b90506060020160200160208101906108319190611d0a565b965088888281811061083f57fe5b90506060020160400160208101906108579190611d85565b955080806001019150506107b4565b508561ffff60046101000a81548162ffffff021916908360020b62ffffff1602179055508461ffff60076101000a8154816fffffffffffffffffffffffffffffffff02191690836fffffffffffffffffffffffffffffffff1602179055508361ffff60176101000a81548161ffff021916908361ffff1602179055508261ffff60196101000a81548161ffff021916908361ffff1602179055508061ffff60006101000a81548163ffffffff021916908363ffffffff1602179055505050505050505050565b600061ffff60199054906101000a900461ffff1661ffff1614610984576040517f08c379a000000000000000000000000000000000000000000000000000000000815260040161097b9061203d565b60405180910390fd5b8060000160208101906109979190611e00565b61ffff60006101000a81548163ffffffff021916908363ffffffff1602179055508060200160208101906109cb9190611d0a565b61ffff60046101000a81548162ffffff021916908360020b62ffffff160217905550806040016020810190610a009190611d85565b61ffff60076101000a8154816fffffffffffffffffffffffffffffffff02191690836fffffffffffffffffffffffffffffffff160217905550610a5f816000016020810190610a4f9190611e00565b6000610feb90919063ffffffff16565b61ffff601961ffff601b8491906101000a81548161ffff021916908361ffff1602179055508391906101000a81548161ffff021916908361ffff160217905550505050565b61ffff60199054906101000a900461ffff1681565b61ffff601b9054906101000a900461ffff1681565b8061ffff60008282829054906101000a900463ffffffff160192506101000a81548163ffffffff021916908363ffffffff16021790555050565b6000806000898961ffff1661ffff8110610b1e57fe5b016040518060800160405290816000820160009054906101000a900463ffffffff1663ffffffff1663ffffffff1681526020016000820160049054906101000a900460060b60060b60060b815260200160008201600b9054906101000a900473ffffffffffffffffffffffffffffffffffffffff1673ffffffffffffffffffffffffffffffffffffffff1673ffffffffffffffffffffffffffffffffffffffff16815260200160008201601f9054906101000a900460ff16151515158152505090508763ffffffff16816000015163ffffffff161415610c045788859250925050610d2e565b8461ffff168461ffff16118015610c2557506001850361ffff168961ffff16145b15610c3257839150610c36565b8491505b8161ffff1660018a0161ffff1681610c4a57fe5b069250610c5981898989611111565b8a8461ffff1661ffff8110610c6a57fe5b0160008201518160000160006101000a81548163ffffffff021916908363ffffffff16021790555060208201518160000160046101000a81548166ffffffffffffff021916908360060b66ffffffffffffff160217905550604082015181600001600b6101000a81548173ffffffffffffffffffffffffffffffffffffffff021916908373ffffffffffffffffffffffffffffffffffffffff160217905550606082015181600001601f6101000a81548160ff021916908315150217905550905050505b97509795505050505050565b60608060008361ffff1611610db7576040517f08c379a00000000000000000000000000000000000000000000000000000000081526004018080602001828103825260018152602001807f490000000000000000000000000000000000000000000000000000000000000081525060200191505060405180910390fd5b865167ffffffffffffffff81118015610dcf57600080fd5b50604051908082528060200260200182016040528015610dfe5781602001602082028036833780820191505090505b509150865167ffffffffffffffff81118015610e1957600080fd5b50604051908082528060200260200182016040528015610e485781602001602082028036833780820191505090505b50905060005b8751811015610ee857610e798a8a8a8481518110610e6857fe5b60200260200101518a8a8a8a6111fc565b848381518110610e8557fe5b60200260200101848481518110610e9857fe5b602002602001018273ffffffffffffffffffffffffffffffffffffffff1673ffffffffffffffffffffffffffffffffffffffff168152508260060b60060b81525050508080600101915050610e4e565b5097509795505050505050565b6000808361ffff1611610f70576040517f08c379a00000000000000000000000000000000000000000000000000000000081526004018080602001828103825260018152602001807f490000000000000000000000000000000000000000000000000000000000000081525060200191505060405180910390fd5b8261ffff168261ffff1611610f8757829050610fe4565b60008390505b8261ffff168161ffff161015610fdf576001858261ffff1661ffff8110610fb057fe5b0160000160006101000a81548163ffffffff021916908363ffffffff1602179055508080600101915050610f8d565b508190505b9392505050565b60008060405180608001604052808463ffffffff168152602001600060060b8152602001600073ffffffffffffffffffffffffffffffffffffffff1681526020016001151581525084600061ffff811061104157fe5b0160008201518160000160006101000a81548163ffffffff021916908363ffffffff16021790555060208201518160000160046101000a81548166ffffffffffffff021916908360060b66ffffffffffffff160217905550604082015181600001600b6101000a81548173ffffffffffffffffffffffffffffffffffffffff021916908373ffffffffffffffffffffffffffffffffffffffff160217905550606082015181600001601f6101000a81548160ff021916908315150217905550905050600180915091509250929050565b611119611b04565b600085600001518503905060405180608001604052808663ffffffff1681526020018263ffffffff168660020b0288602001510160060b81526020016000856fffffffffffffffffffffffffffffffff1611611176576001611178565b845b6fffffffffffffffffffffffffffffffff1660808463ffffffff1673ffffffffffffffffffffffffffffffffffffffff16901b73ffffffffffffffffffffffffffffffffffffffff16816111c857fe5b0488604001510173ffffffffffffffffffffffffffffffffffffffff16815260200160011515815250915050949350505050565b60008060008763ffffffff16141561131d576000898661ffff1661ffff811061122157fe5b016040518060800160405290816000820160009054906101000a900463ffffffff1663ffffffff1663ffffffff1681526020016000820160049054906101000a900460060b60060b60060b815260200160008201600b9054906101000a900473ffffffffffffffffffffffffffffffffffffffff1673ffffffffffffffffffffffffffffffffffffffff1673ffffffffffffffffffffffffffffffffffffffff16815260200160008201601f9054906101000a900460ff16151515158152505090508863ffffffff16816000015163ffffffff161461130957611306818a8988611111565b90505b806020015181604001519250925050611423565b600087890390506000806113368c8c858c8c8c8c61142f565b91509150816000015163ffffffff168363ffffffff161415611368578160200151826040015194509450505050611423565b806000015163ffffffff168363ffffffff161415611396578060200151816040015194509450505050611423565b60008260000151826000015103905060008360000151850390508063ffffffff168263ffffffff16856020015185602001510360060b816113d357fe5b05028460200151018263ffffffff168263ffffffff16866040015186604001510373ffffffffffffffffffffffffffffffffffffffff16028161141257fe5b048560400151019650965050505050505b97509795505050505050565b611437611b04565b61143f611b04565b888561ffff1661ffff811061145057fe5b016040518060800160405290816000820160009054906101000a900463ffffffff1663ffffffff1663ffffffff1681526020016000820160049054906101000a900460060b60060b60060b815260200160008201600b9054906101000a900473ffffffffffffffffffffffffffffffffffffffff1673ffffffffffffffffffffffffffffffffffffffff1673ffffffffffffffffffffffffffffffffffffffff16815260200160008201601f9054906101000a900460ff1615151515815250509150611521888360000151896117b9565b15611559578663ffffffff16826000015163ffffffff161415611543576117ad565b8161155083898988611111565b915091506117ad565b888361ffff166001870161ffff168161156e57fe5b0661ffff1661ffff811061157e57fe5b016040518060800160405290816000820160009054906101000a900463ffffffff1663ffffffff1663ffffffff1681526020016000820160049054906101000a900460060b60060b60060b815260200160008201600b9054906101000a900473ffffffffffffffffffffffffffffffffffffffff1673ffffffffffffffffffffffffffffffffffffffff1673ffffffffffffffffffffffffffffffffffffffff16815260200160008201601f9054906101000a900460ff1615151515815250509150816060015161171a5788600061ffff811061165757fe5b016040518060800160405290816000820160009054906101000a900463ffffffff1663ffffffff1663ffffffff1681526020016000820160049054906101000a900460060b60060b60060b815260200160008201600b9054906101000a900473ffffffffffffffffffffffffffffffffffffffff1673ffffffffffffffffffffffffffffffffffffffff1673ffffffffffffffffffffffffffffffffffffffff16815260200160008201601f9054906101000a900460ff16151515158152505091505b611729888360000151896117b9565b61179b576040517f08c379a00000000000000000000000000000000000000000000000000000000081526004018080602001828103825260038152602001807f4f4c44000000000000000000000000000000000000000000000000000000000081525060200191505060405180910390fd5b6117a88989898887611881565b915091505b97509795505050505050565b60008363ffffffff168363ffffffff16111580156117e357508363ffffffff168263ffffffff1611155b156117ff578163ffffffff168363ffffffff161115905061187a565b60008463ffffffff168463ffffffff1611611827576401000000008463ffffffff160161182f565b8363ffffffff165b64ffffffffff16905060008563ffffffff168463ffffffff1611611860576401000000008463ffffffff1601611868565b8363ffffffff165b64ffffffffff16905080821115925050505b9392505050565b611889611b04565b611891611b04565b60008361ffff166001860161ffff16816118a757fe5b0661ffff169050600060018561ffff16830103905060005b600115611af7576002828401816118d257fe5b049050898661ffff1682816118e357fe5b0661ffff81106118ef57fe5b016040518060800160405290816000820160009054906101000a900463ffffffff1663ffffffff1663ffffffff1681526020016000820160049054906101000a900460060b60060b60060b815260200160008201600b9054906101000a900473ffffffffffffffffffffffffffffffffffffffff1673ffffffffffffffffffffffffffffffffffffffff1673ffffffffffffffffffffffffffffffffffffffff16815260200160008201601f9054906101000a900460ff161515151581525050945084606001516119c5576001810192506118bf565b898661ffff1660018301816119d657fe5b0661ffff81106119e257fe5b016040518060800160405290816000820160009054906101000a900463ffffffff1663ffffffff1663ffffffff1681526020016000820160049054906101000a900460060b60060b60060b815260200160008201600b9054906101000a900473ffffffffffffffffffffffffffffffffffffffff1673ffffffffffffffffffffffffffffffffffffffff1673ffffffffffffffffffffffffffffffffffffffff16815260200160008201601f9054906101000a900460ff16151515158152505093506000611ab58a87600001518b6117b9565b9050808015611acf5750611ace8a8a87600001516117b9565b5b15611ada5750611af7565b80611aea57600182039250611af1565b6001820193505b506118bf565b5050509550959350505050565b6040518060800160405280600063ffffffff168152602001600060060b8152602001600073ffffffffffffffffffffffffffffffffffffffff1681526020016000151581525090565b60008083601f840112611b5f57600080fd5b8235905067ffffffffffffffff811115611b7857600080fd5b602083019150836060820283011115611b9057600080fd5b9250929050565b60008083601f840112611ba957600080fd5b8235905067ffffffffffffffff811115611bc257600080fd5b602083019150836020820283011115611bda57600080fd5b9250929050565b600081359050611bf08161221b565b92915050565b600060608284031215611c0857600080fd5b81905092915050565b600060608284031215611c2357600080fd5b81905092915050565b600081359050611c3b81612232565b92915050565b600081359050611c5081612249565b92915050565b600081359050611c6581612260565b92915050565b600081359050611c7a81612277565b92915050565b60008060208385031215611c9357600080fd5b600083013567ffffffffffffffff811115611cad57600080fd5b611cb985828601611b4d565b92509250509250929050565b60008060208385031215611cd857600080fd5b600083013567ffffffffffffffff811115611cf257600080fd5b611cfe85828601611b97565b92509250509250929050565b600060208284031215611d1c57600080fd5b6000611d2a84828501611be1565b91505092915050565b600060608284031215611d4557600080fd5b6000611d5384828501611bf6565b91505092915050565b600060608284031215611d6e57600080fd5b6000611d7c84828501611c11565b91505092915050565b600060208284031215611d9757600080fd5b6000611da584828501611c2c565b91505092915050565b600060208284031215611dc057600080fd5b6000611dce84828501611c41565b91505092915050565b600060208284031215611de957600080fd5b6000611df784828501611c56565b91505092915050565b600060208284031215611e1257600080fd5b6000611e2084828501611c6b565b91505092915050565b6000611e358383611f33565b60208301905092915050565b6000611e4d8383611fa0565b60208301905092915050565b6000611e648261212e565b611e6e818561215e565b9350611e798361210e565b8060005b83811015611eaa578151611e918882611e29565b9750611e9c83612144565b925050600181019050611e7d565b5085935050505092915050565b6000611ec282612139565b611ecc818561216f565b9350611ed78361211e565b8060005b83811015611f08578151611eef8882611e41565b9750611efa83612151565b925050600181019050611edb565b5085935050505092915050565b611f1e81612191565b82525050565b611f2d8161219d565b82525050565b611f3c816121aa565b82525050565b611f4b816121aa565b82525050565b6000611f5e601383612180565b91507f616c726561647920696e697469616c697a6564000000000000000000000000006000830152602082019050919050565b611f9a816121b7565b82525050565b611fa9816121e1565b82525050565b611fb8816121e1565b82525050565b611fc7816121d3565b82525050565b611fd681612201565b82525050565b611fe58161220b565b82525050565b600060408201905081810360008301526120058185611e59565b905081810360208301526120198184611eb7565b90509392505050565b60006020820190506120376000830184611f24565b92915050565b6000602082019050818103600083015261205681611f51565b9050919050565b60006020820190506120726000830184611f91565b92915050565b600060208201905061208d6000830184611fbe565b92915050565b60006020820190506120a86000830184611fcd565b92915050565b60006020820190506120c36000830184611fdc565b92915050565b60006080820190506120de6000830187611fdc565b6120eb6020830186611f42565b6120f86040830185611faf565b6121056060830184611f15565b95945050505050565b6000819050602082019050919050565b6000819050602082019050919050565b600081519050919050565b600081519050919050565b6000602082019050919050565b6000602082019050919050565b600082825260208201905092915050565b600082825260208201905092915050565b600082825260208201905092915050565b60008115159050919050565b60008160020b9050919050565b60008160060b9050919050565b60006fffffffffffffffffffffffffffffffff82169050919050565b600061ffff82169050919050565b600073ffffffffffffffffffffffffffffffffffffffff82169050919050565b6000819050919050565b600063ffffffff82169050919050565b6122248161219d565b811461222f57600080fd5b50565b61223b816121b7565b811461224657600080fd5b50565b612252816121d3565b811461225d57600080fd5b50565b61226981612201565b811461227457600080fd5b50565b6122808161220b565b811461228b57600080fd5b5056fea26469706673582212202a76e5e3f4f0b971c56f62dda073ba9302804f10655cf0e6b3de06320c01052864736f6c63430007060033","linkReferences":{}},"methodIdentifiers":{"advanceTime(uint32)":"f7fd2cfa","batchUpdate((uint32,int24,uint128)[])":"d81740db","cardinality()":"dbffe9ad","cardinalityNext()":"dd158c18","getGasCostOfObserve(uint32[])":"74e69cef","grow(uint16)":"761eb23e","index()":"2986c0e5","initialize((uint32,int24,uint128))":"daf50f6b","liquidity()":"1a686502","observations(uint256)":"252c09d7","observe(uint32[])":"883bdbfd","tick()":"3eaf5d9f","time()":"16ada547","update((uint32,int24,uint128))":"65829dc5"},"id":44}