{"abi":[{"type":"function","name":"deploy","inputs":[{"name":"factory","type":"address","internalType":"address"},{"name":"token0","type":"address","internalType":"address"},{"name":"token1","type":"address","internalType":"address"},{"name":"fee","type":"uint24","internalType":"uint24"},{"name":"tickSpacing","type":"int24","internalType":"int24"}],"outputs":[{"name":"pool","type":"address","internalType":"address"}],"stateMutability":"nonpayable"},{"type":"function","name":"parameters","inputs":[],"outputs":[{"name":"factory","type":"address","internalType":"address"},{"name":"token0","type":"address","internalType":"address"},{"name":"token1","type":"address","internalType":"address"},{"name":"fee","type":"uint24","internalType":"uint24"},{"name":"tickSpacing","type":"int24","internalType":"int24"}],"stateMutability":"view"},{"type":"event","name":"PoolDeployed","inputs":[{"name":"pool","type":"address","indexed":false,"internalType":"address"}],"anonymous":false}],"bytecode":{"object":"0x608060405234801561001057600080fd5b506197e7806100206000396000f3fe608060405234801561001057600080fd5b50600436106100365760003560e01c8063890357301461003b578063fad5359f146100bf575b600080fd5b610043610189565b604051808673ffffffffffffffffffffffffffffffffffffffff1681526020018573ffffffffffffffffffffffffffffffffffffffff1681526020018473ffffffffffffffffffffffffffffffffffffffff1681526020018362ffffff1681526020018260020b81526020019550505050505060405180910390f35b61015d600480360360a08110156100d557600080fd5b81019080803573ffffffffffffffffffffffffffffffffffffffff169060200190929190803573ffffffffffffffffffffffffffffffffffffffff169060200190929190803573ffffffffffffffffffffffffffffffffffffffff169060200190929190803562ffffff169060200190929190803560020b9060200190929190505050610229565b604051808273ffffffffffffffffffffffffffffffffffffffff16815260200191505060405180910390f35b60008060000160009054906101000a900473ffffffffffffffffffffffffffffffffffffffff16908060010160009054906101000a900473ffffffffffffffffffffffffffffffffffffffff16908060020160009054906101000a900473ffffffffffffffffffffffffffffffffffffffff16908060020160149054906101000a900462ffffff16908060020160179054906101000a900460020b905085565b60006040518060a001604052808773ffffffffffffffffffffffffffffffffffffffff1681526020018673ffffffffffffffffffffffffffffffffffffffff1681526020018573ffffffffffffffffffffffffffffffffffffffff1681526020018462ffffff1681526020018360020b8152506000808201518160000160006101000a81548173ffffffffffffffffffffffffffffffffffffffff021916908373ffffffffffffffffffffffffffffffffffffffff16021790555060208201518160010160006101000a81548173ffffffffffffffffffffffffffffffffffffffff021916908373ffffffffffffffffffffffffffffffffffffffff16021790555060408201518160020160006101000a81548173ffffffffffffffffffffffffffffffffffffffff021916908373ffffffffffffffffffffffffffffffffffffffff16021790555060608201518160020160146101000a81548162ffffff021916908362ffffff16021790555060808201518160020160176101000a81548162ffffff021916908360020b62ffffff16021790555090505084848484604051602001808573ffffffffffffffffffffffffffffffffffffffff1660601b81526014018473ffffffffffffffffffffffffffffffffffffffff1660601b81526014018362ffffff1660e81b81526003018260020b60e81b81526003019450505050506040516020818303038152906040528051906020012060405161044d9061056c565b8190604051809103906000f590508015801561046d573d6000803e3d6000fd5b5090507ff0d1eeab175eee2e20b8dc452773bf2257b25724b323b42bc6e5b4616233ae1f81604051808273ffffffffffffffffffffffffffffffffffffffff16815260200191505060405180910390a16000806000820160006101000a81549073ffffffffffffffffffffffffffffffffffffffff02191690556001820160006101000a81549073ffffffffffffffffffffffffffffffffffffffff02191690556002820160006101000a81549073ffffffffffffffffffffffffffffffffffffffff02191690556002820160146101000a81549062ffffff02191690556002820160176101000a81549062ffffff0219169055505095945050505050565b6192388061057a8339019056fe610160604052635f7b26e062010008553480156200001c57600080fd5b503073ffffffffffffffffffffffffffffffffffffffff1660808173ffffffffffffffffffffffffffffffffffffffff1660601b8152505060003373ffffffffffffffffffffffffffffffffffffffff1663890357306040518163ffffffff1660e01b815260040160a06040518083038186803b1580156200009d57600080fd5b505afa158015620000b2573d6000803e3d6000fd5b505050506040513d60a0811015620000c957600080fd5b8101908080519060200190929190805190602001909291908051906020019092919080519060200190929190805190602001909291905050508095508162ffffff166101009062ffffff1660e81b8152508273ffffffffffffffffffffffffffffffffffffffff1660e09073ffffffffffffffffffffffffffffffffffffffff1660601b8152508373ffffffffffffffffffffffffffffffffffffffff1660c09073ffffffffffffffffffffffffffffffffffffffff1660601b8152508473ffffffffffffffffffffffffffffffffffffffff1660a09073ffffffffffffffffffffffffffffffffffffffff1660601b81525050505050508060020b6101208160020b60e81b81525050620001e9816200021f60201b620045d11760201c565b6fffffffffffffffffffffffffffffffff16610140816fffffffffffffffffffffffffffffffff1660801b8152505050620002d7565b600080828360020b7ffffffffffffffffffffffffffffffffffffffffffffffffffffffffffff2761860020b816200025357fe5b050290506000838460020b7ffffffffffffffffffffffffffffffffffffffffffffffffffffffffffff2761860000360020b816200028d57fe5b05029050600060018560020b84840360020b81620002a757fe5b050190508062ffffff166fffffffffffffffffffffffffffffffff801681620002cc57fe5b049350505050919050565b60805160601c60a05160601c60c05160601c60e05160601c6101005160e81c6101205160e81c6101405160801c618e996200039f6000398061330352806175ed528061763652508061137552806141d8528061767c52806176b95250806128f15280612928528061422a525080611cbb52806129b252806131495280613a1352806141fc5280615f76525080610dcf5280611e3b528061297d528061309452806139065280615db25250806133c8528061366e52806141b45250806146875250618e996000f3fe608060405234801561001057600080fd5b50600436106101e55760003560e01c806356ccede71161010f578063d0c93a7c116100a2578063f305839911610071578063f305839914610c7c578063f30dba9314610c9a578063f637731d14610d46578063f6eb760f14610d8a576101e5565b8063d0c93a7c14610bd6578063d21220a714610bf7578063d380c67914610c2b578063ddca3f4314610c59576101e5565b8063883bdbfd116100de578063883bdbfd14610998578063a34123a714610aae578063a38807f214610b23578063c45a015514610ba2576101e5565b806356ccede71461084c57806370cf754a1461086f5780638206a4d11461089f57806385b66729146108dd576101e5565b806332148f6711610187578063490e6cbc11610156578063490e6cbc146105f15780634f1eb3d81461069e578063514ea4bf146107735780635339c29614610807576101e5565b806332148f67146104455780633850c7bd146104775780633c8a7d8d146104e957806346141319146105d3576101e5565b806316ada547116101c357806316ada547146103365780631a686502146103545780631ad8b03b14610384578063252c09d7146103cd576101e5565b806307e32f0a146101ea5780630dfe168114610218578063128acb081461024c575b600080fd5b6102166004803603602081101561020057600080fd5b8101908080359060200190929190505050610db8565b005b610220610dcd565b604051808273ffffffffffffffffffffffffffffffffffffffff16815260200191505060405180910390f35b610319600480360360a081101561026257600080fd5b81019080803573ffffffffffffffffffffffffffffffffffffffff16906020019092919080351515906020019092919080359060200190929190803573ffffffffffffffffffffffffffffffffffffffff169060200190929190803590602001906401000000008111156102d557600080fd5b8201836020820111156102e757600080fd5b8035906020019184600183028401116401000000008311171561030957600080fd5b9091929391929390505050610df1565b604051808381526020018281526020019250505060405180910390f35b61033e612091565b6040518082815260200191505060405180910390f35b61035c612099565b60405180826fffffffffffffffffffffffffffffffff16815260200191505060405180910390f35b61038c6120bb565b60405180836fffffffffffffffffffffffffffffffff168152602001826fffffffffffffffffffffffffffffffff1681526020019250505060405180910390f35b6103f9600480360360208110156103e357600080fd5b8101908080359060200190929190505050612105565b604051808563ffffffff1681526020018460060b81526020018373ffffffffffffffffffffffffffffffffffffffff168152602001821515815260200194505050505060405180910390f35b6104756004803603602081101561045b57600080fd5b81019080803561ffff169060200190929190505050612183565b005b61047f6122f5565b604051808873ffffffffffffffffffffffffffffffffffffffff1681526020018760020b81526020018661ffff1681526020018561ffff1681526020018461ffff1681526020018360ff168152602001821515815260200197505050505050505060405180910390f35b6105b6600480360360a08110156104ff57600080fd5b81019080803573ffffffffffffffffffffffffffffffffffffffff169060200190929190803560020b9060200190929190803560020b906020019092919080356fffffffffffffffffffffffffffffffff1690602001909291908035906020019064010000000081111561057257600080fd5b82018360208201111561058457600080fd5b803590602001918460018302840111640100000000831117156105a657600080fd5b9091929391929390505050612396565b604051808381526020018281526020019250505060405180910390f35b6105db61278f565b6040518082815260200191505060405180910390f35b61069c6004803603608081101561060757600080fd5b81019080803573ffffffffffffffffffffffffffffffffffffffff16906020019092919080359060200190929190803590602001909291908035906020019064010000000081111561065857600080fd5b82018360208201111561066a57600080fd5b8035906020019184600183028401116401000000008311171561068c57600080fd5b9091929391929390505050612795565b005b610732600480360360a08110156106b457600080fd5b81019080803573ffffffffffffffffffffffffffffffffffffffff169060200190929190803560020b9060200190929190803560020b906020019092919080356fffffffffffffffffffffffffffffffff16906020019092919080356fffffffffffffffffffffffffffffffff169060200190929190505050612e6e565b60405180836fffffffffffffffffffffffffffffffff168152602001826fffffffffffffffffffffffffffffffff1681526020019250505060405180910390f35b61079f6004803603602081101561078957600080fd5b810190808035906020019092919050505061324a565b60405180866fffffffffffffffffffffffffffffffff168152602001858152602001848152602001836fffffffffffffffffffffffffffffffff168152602001826fffffffffffffffffffffffffffffffff1681526020019550505050505060405180910390f35b6108366004803603602081101561081d57600080fd5b81019080803560010b90602001909291905050506132d4565b6040518082815260200191505060405180910390f35b6108546132ec565b604051808262ffffff16815260200191505060405180910390f35b610877613301565b60405180826fffffffffffffffffffffffffffffffff16815260200191505060405180910390f35b6108db600480360360408110156108b557600080fd5b81019080803560ff169060200190929190803560ff169060200190929190505050613325565b005b610957600480360360608110156108f357600080fd5b81019080803573ffffffffffffffffffffffffffffffffffffffff16906020019092919080356fffffffffffffffffffffffffffffffff16906020019092919080356fffffffffffffffffffffffffffffffff1690602001909291905050506135c8565b60405180836fffffffffffffffffffffffffffffffff168152602001826fffffffffffffffffffffffffffffffff1681526020019250505060405180910390f35b610a0f600480360360208110156109ae57600080fd5b81019080803590602001906401000000008111156109cb57600080fd5b8201836020820111156109dd57600080fd5b803590602001918460208302840111640100000000831117156109ff57600080fd5b9091929391929390505050613b02565b604051808060200180602001838103835285818151815260200191508051906020019060200280838360005b83811015610a56578082015181840152602081019050610a3b565b50505050905001838103825284818151815260200191508051906020019060200280838360005b83811015610a98578082015181840152602081019050610a7d565b5050505090500194505050505060405180910390f35b610b0660048036036060811015610ac457600080fd5b81019080803560020b9060200190929190803560020b906020019092919080356fffffffffffffffffffffffffffffffff169060200190929190505050613bd1565b604051808381526020018281526020019250505060405180910390f35b610b5f60048036036040811015610b3957600080fd5b81019080803560020b9060200190929190803560020b9060200190929190505050613e68565b604051808460060b81526020018373ffffffffffffffffffffffffffffffffffffffff1681526020018263ffffffff168152602001935050505060405180910390f35b610baa6141b2565b604051808273ffffffffffffffffffffffffffffffffffffffff16815260200191505060405180910390f35b610bde6141d6565b604051808260020b815260200191505060405180910390f35b610bff6141fa565b604051808273ffffffffffffffffffffffffffffffffffffffff16815260200191505060405180910390f35b610c5760048036036020811015610c4157600080fd5b810190808035906020019092919050505061421e565b005b610c61614228565b604051808262ffffff16815260200191505060405180910390f35b610c8461424c565b6040518082815260200191505060405180910390f35b610cc960048036036020811015610cb057600080fd5b81019080803560020b9060200190929190505050614252565b60405180896fffffffffffffffffffffffffffffffff16815260200188600f0b81526020018781526020018681526020018560060b81526020018473ffffffffffffffffffffffffffffffffffffffff1681526020018363ffffffff16815260200182151581526020019850505050505050505060405180910390f35b610d8860048036036020811015610d5c57600080fd5b81019080803573ffffffffffffffffffffffffffffffffffffffff16906020019092919050505061430d565b005b610db660048036036020811015610da057600080fd5b81019080803590602001909291905050506145c7565b005b80620100086000828254019250508190555050565b7f000000000000000000000000000000000000000000000000000000000000000081565b600080610dfc614685565b6000861415610e73576040517f08c379a00000000000000000000000000000000000000000000000000000000081526004018080602001828103825260028152602001807f415300000000000000000000000000000000000000000000000000000000000081525060200191505060405180910390fd5b6000806040518060e00160405290816000820160009054906101000a900473ffffffffffffffffffffffffffffffffffffffff1673ffffffffffffffffffffffffffffffffffffffff1673ffffffffffffffffffffffffffffffffffffffff1681526020016000820160149054906101000a900460020b60020b60020b81526020016000820160179054906101000a900461ffff1661ffff1661ffff1681526020016000820160199054906101000a900461ffff1661ffff1661ffff16815260200160008201601b9054906101000a900461ffff1661ffff1661ffff16815260200160008201601d9054906101000a900460ff1660ff1660ff16815260200160008201601e9054906101000a900460ff16151515158152505090508060c00151611005576040517f08c379a00000000000000000000000000000000000000000000000000000000081526004018080602001828103825260038152602001807f4c4f4b000000000000000000000000000000000000000000000000000000000081525060200191505060405180910390fd5b8761108d57806000015173ffffffffffffffffffffffffffffffffffffffff168673ffffffffffffffffffffffffffffffffffffffff16118015611088575073fffd8963efd1fc6a506488495d951d5263988d2673ffffffffffffffffffffffffffffffffffffffff168673ffffffffffffffffffffffffffffffffffffffff16105b6110fd565b806000015173ffffffffffffffffffffffffffffffffffffffff168673ffffffffffffffffffffffffffffffffffffffff161080156110fc57506401000276a373ffffffffffffffffffffffffffffffffffffffff168673ffffffffffffffffffffffffffffffffffffffff16115b5b61116f576040517f08c379a00000000000000000000000000000000000000000000000000000000081526004018080602001828103825260038152602001807f53504c000000000000000000000000000000000000000000000000000000000081525060200191505060405180910390fd5b600080600001601e6101000a81548160ff02191690831515021790555060006040518060c001604052808a6111af5760048460a0015160ff16901c6111c2565b60108460a0015160ff16816111c057fe5b065b60ff168152602001600560009054906101000a90046fffffffffffffffffffffffffffffffff166fffffffffffffffffffffffffffffffff1681526020016112086146df565b63ffffffff168152602001600060060b8152602001600073ffffffffffffffffffffffffffffffffffffffff1681526020016000151581525090506000808913905060006040518060e001604052808b815260200160008152602001856000015173ffffffffffffffffffffffffffffffffffffffff168152602001856020015160020b81526020018c61129e576002546112a2565b6001545b815260200160006fffffffffffffffffffffffffffffffff16815260200184602001516fffffffffffffffffffffffffffffffff1681525090505b600081600001511415801561132257508873ffffffffffffffffffffffffffffffffffffffff16816040015173ffffffffffffffffffffffffffffffffffffffff1614155b156119835761132f618dac565b8160400151816000019073ffffffffffffffffffffffffffffffffffffffff16908173ffffffffffffffffffffffffffffffffffffffff16815250506113a782606001517f00000000000000000000000000000000000000000000000000000000000000008e60076146eb909392919063ffffffff16565b826020018360400182151515158152508260020b60020b81525050507ffffffffffffffffffffffffffffffffffffffffffffffffffffffffffff2761860020b816020015160020b121561142c577ffffffffffffffffffffffffffffffffffffffffffffffffffffffffffff27618816020019060020b908160020b81525050611498565b7ffffffffffffffffffffffffffffffffffffffffffffffffffffffffffff2761860000360020b816020015160020b1315611497577ffffffffffffffffffffffffffffffffffffffffffffffffffffffffffff27618600003816020019060020b908160020b815250505b5b6114a58160200151614843565b816060019073ffffffffffffffffffffffffffffffffffffffff16908173ffffffffffffffffffffffffffffffffffffffff16815250506114e4614c7e565b600360006101000a81548162ffffff021916908362ffffff1602179055506115ac82604001518d611547578b73ffffffffffffffffffffffffffffffffffffffff16836060015173ffffffffffffffffffffffffffffffffffffffff161161157b565b8b73ffffffffffffffffffffffffffffffffffffffff16836060015173ffffffffffffffffffffffffffffffffffffffff16105b61158957826060015161158b565b8b5b8460c001518560000151600360009054906101000a900462ffffff16614d02565b85604001856080018660a0018760c0018481525084815250848152508473ffffffffffffffffffffffffffffffffffffffff1673ffffffffffffffffffffffffffffffffffffffff16815250505050508215611655576116158160c00151826080015101614f5e565b8260000181815103915081815250506116476116348260a00151614f5e565b8360200151614f9490919063ffffffff16565b8260200181815250506116a4565b6116628160a00151614f5e565b82600001818151019150818152505061169a6116878260c00151836080015101614f5e565b8360200151614fb790919063ffffffff16565b8260200181815250505b6000846000015160ff161115611715576000846000015160ff168260c00151816116ca57fe5b049050808260c0018181510391508181525050808360a001818151019150906fffffffffffffffffffffffffffffffff1690816fffffffffffffffffffffffffffffffff1681525050505b60008260c001516fffffffffffffffffffffffffffffffff16111561177a5761176a8160c001517001000000000000000000000000000000008460c001516fffffffffffffffffffffffffffffffff16614fda565b8260800181815101915081815250505b806060015173ffffffffffffffffffffffffffffffffffffffff16826040015173ffffffffffffffffffffffffffffffffffffffff161415611922578060400151156118f4578360a00151611852576117fc846040015160008760200151886040015188602001518a6060015160096150b4909695949392919063ffffffff16565b85606001866080018273ffffffffffffffffffffffffffffffffffffffff1673ffffffffffffffffffffffffffffffffffffffff168152508260060b60060b815250505060018460a00190151590811515815250505b60006118a682602001518e6118695760015461186f565b84608001515b8f61187e578560800151611882565b6002545b886080015189606001518a6040015160066152e7909695949392919063ffffffff16565b90508c156118b5578060000390505b6118c38360c0015182615423565b8360c001906fffffffffffffffffffffffffffffffff1690816fffffffffffffffffffffffffffffffff1681525050505b8b61190357806020015161190c565b60018160200151035b826060019060020b908160020b8152505061197d565b806000015173ffffffffffffffffffffffffffffffffffffffff16826040015173ffffffffffffffffffffffffffffffffffffffff161461197c5761196a826040015161557c565b826060019060020b908160020b815250505b5b506112dd565b836020015160020b816060015160020b14611a99576000806119d186604001518660400151886020015188602001518a606001518b608001516009615978909695949392919063ffffffff16565b915091508260400151836060015183836000800160008060000160146000800160176000800160198891906101000a81548161ffff021916908361ffff1602179055508791906101000a81548161ffff021916908361ffff1602179055508691906101000a81548162ffffff021916908360020b62ffffff1602179055508591906101000a81548173ffffffffffffffffffffffffffffffffffffffff021916908373ffffffffffffffffffffffffffffffffffffffff160217905550505050505050611ae1565b80604001516000800160006101000a81548173ffffffffffffffffffffffffffffffffffffffff021916908373ffffffffffffffffffffffffffffffffffffffff1602179055505b8060c001516fffffffffffffffffffffffffffffffff1683602001516fffffffffffffffffffffffffffffffff1614611b52578060c00151600560006101000a8154816fffffffffffffffffffffffffffffffff02191690836fffffffffffffffffffffffffffffffff1602179055505b8a15611be957806080015160018190555060008160a001516fffffffffffffffffffffffffffffffff161115611be4578060a00151600460000160008282829054906101000a90046fffffffffffffffffffffffffffffffff160192506101000a8154816fffffffffffffffffffffffffffffffff02191690836fffffffffffffffffffffffffffffffff1602179055505b611c76565b806080015160028190555060008160a001516fffffffffffffffffffffffffffffffff161115611c75578060a00151600460000160108282829054906101000a90046fffffffffffffffffffffffffffffffff160192506101000a8154816fffffffffffffffffffffffffffffffff02191690836fffffffffffffffffffffffffffffffff1602179055505b5b8115158b151514611c9257806020015181600001518b03611c9f565b80600001518a0381602001515b80965081975050508a15611e2d576000851215611ce557611ce47f00000000000000000000000000000000000000000000000000000000000000008d87600003615baa565b5b6000611cef615dab565b90503373ffffffffffffffffffffffffffffffffffffffff1663fa461e3388888c8c6040518563ffffffff1660e01b815260040180858152602001848152602001806020018281038252848482818152602001925080828437600081840152601f19601f82011690508083019250505095505050505050600060405180830381600087803b158015611d8057600080fd5b505af1158015611d94573d6000803e3d6000fd5b50505050611da0615dab565b611db38883615f5590919063ffffffff16565b1115611e27576040517f08c379a00000000000000000000000000000000000000000000000000000000081526004018080602001828103825260038152602001807f494941000000000000000000000000000000000000000000000000000000000081525060200191505060405180910390fd5b50611fa9565b6000861215611e6557611e647f00000000000000000000000000000000000000000000000000000000000000008d88600003615baa565b5b6000611e6f615f6f565b90503373ffffffffffffffffffffffffffffffffffffffff1663fa461e3388888c8c6040518563ffffffff1660e01b815260040180858152602001848152602001806020018281038252848482818152602001925080828437600081840152601f19601f82011690508083019250505095505050505050600060405180830381600087803b158015611f0057600080fd5b505af1158015611f14573d6000803e3d6000fd5b50505050611f20615f6f565b611f338783615f5590919063ffffffff16565b1115611fa7576040517f08c379a00000000000000000000000000000000000000000000000000000000081526004018080602001828103825260038152602001807f494941000000000000000000000000000000000000000000000000000000000081525060200191505060405180910390fd5b505b8b73ffffffffffffffffffffffffffffffffffffffff163373ffffffffffffffffffffffffffffffffffffffff167fc42079f94a6350d7e6235f29174924f928cc2ac818eb64fed8004e115fbcca67888885604001518660c001518760600151604051808681526020018581526020018473ffffffffffffffffffffffffffffffffffffffff168152602001836fffffffffffffffffffffffffffffffff1681526020018260020b81526020019550505050505060405180910390a3600160008001601e6101000a81548160ff02191690831515021790555050505050965096945050505050565b620100085481565b600560009054906101000a90046fffffffffffffffffffffffffffffffff1681565b60048060000160009054906101000a90046fffffffffffffffffffffffffffffffff16908060000160109054906101000a90046fffffffffffffffffffffffffffffffff16905082565b60098161ffff811061211657600080fd5b016000915090508060000160009054906101000a900463ffffffff16908060000160049054906101000a900460060b9080600001600b9054906101000a900473ffffffffffffffffffffffffffffffffffffffff169080600001601f9054906101000a900460ff16905084565b60008001601e9054906101000a900460ff16612207576040517f08c379a00000000000000000000000000000000000000000000000000000000081526004018080602001828103825260038152602001807f4c4f4b000000000000000000000000000000000000000000000000000000000081525060200191505060405180910390fd5b600080600001601e6101000a81548160ff02191690831515021790555061222c614685565b600080600001601b9054906101000a900461ffff169050600061225b828460096161199092919063ffffffff16565b90508060008001601b6101000a81548161ffff021916908361ffff1602179055508061ffff168261ffff16146122d3577fac49e518f90a358f652e4400164f05a5d8f7e35e7747279bc3a93dbf584e125a8282604051808361ffff1681526020018261ffff1681526020019250505060405180910390a15b5050600160008001601e6101000a81548160ff02191690831515021790555050565b60008060000160009054906101000a900473ffffffffffffffffffffffffffffffffffffffff16908060000160149054906101000a900460020b908060000160179054906101000a900461ffff16908060000160199054906101000a900461ffff169080600001601b9054906101000a900461ffff169080600001601d9054906101000a900460ff169080600001601e9054906101000a900460ff16905087565b60008060008001601e9054906101000a900460ff1661241d576040517f08c379a00000000000000000000000000000000000000000000000000000000081526004018080602001828103825260038152602001807f4c4f4b000000000000000000000000000000000000000000000000000000000081525060200191505060405180910390fd5b600080600001601e6101000a81548160ff0219169083151502179055506000856fffffffffffffffffffffffffffffffff161161245957600080fd5b6000806124be60405180608001604052808c73ffffffffffffffffffffffffffffffffffffffff1681526020018b60020b81526020018a60020b81526020016124b38a6fffffffffffffffffffffffffffffffff1661620f565b600f0b815250616228565b925092505081935080925060008060008611156124e0576124dd615dab565b91505b60008511156124f4576124f1615f6f565b90505b3373ffffffffffffffffffffffffffffffffffffffff1663d348799787878b8b6040518563ffffffff1660e01b815260040180858152602001848152602001806020018281038252848482818152602001925080828437600081840152601f19601f82011690508083019250505095505050505050600060405180830381600087803b15801561258357600080fd5b505af1158015612597573d6000803e3d6000fd5b505050506000861115612634576125ac615dab565b6125bf8784615f5590919063ffffffff16565b1115612633576040517f08c379a00000000000000000000000000000000000000000000000000000000081526004018080602001828103825260028152602001807f4d3000000000000000000000000000000000000000000000000000000000000081525060200191505060405180910390fd5b5b60008511156126cd57612645615f6f565b6126588683615f5590919063ffffffff16565b11156126cc576040517f08c379a00000000000000000000000000000000000000000000000000000000081526004018080602001828103825260028152602001807f4d3100000000000000000000000000000000000000000000000000000000000081525060200191505060405180910390fd5b5b8960020b8b60020b8d73ffffffffffffffffffffffffffffffffffffffff167f7a53080ba414158be7ec69b987b5fb7d07dee101fe85488f0853ae16239d0bde338d8b8b604051808573ffffffffffffffffffffffffffffffffffffffff168152602001846fffffffffffffffffffffffffffffffff16815260200183815260200182815260200194505050505060405180910390a450505050600160008001601e6101000a81548160ff021916908315150217905550965096945050505050565b60025481565b60008001601e9054906101000a900460ff16612819576040517f08c379a00000000000000000000000000000000000000000000000000000000081526004018080602001828103825260038152602001807f4c4f4b000000000000000000000000000000000000000000000000000000000081525060200191505060405180910390fd5b600080600001601e6101000a81548160ff02191690831515021790555061283e614685565b6000600560009054906101000a90046fffffffffffffffffffffffffffffffff1690506000816fffffffffffffffffffffffffffffffff16116128e9576040517f08c379a00000000000000000000000000000000000000000000000000000000081526004018080602001828103825260018152602001807f4c0000000000000000000000000000000000000000000000000000000000000081525060200191505060405180910390fd5b600061291e867f000000000000000000000000000000000000000000000000000000000000000062ffffff16620f424061654c565b90506000612955867f000000000000000000000000000000000000000000000000000000000000000062ffffff16620f424061654c565b90506000612961615dab565b9050600061296d615f6f565b905060008911156129a4576129a37f00000000000000000000000000000000000000000000000000000000000000008b8b615baa565b5b60008811156129d9576129d87f00000000000000000000000000000000000000000000000000000000000000008b8a615baa565b5b3373ffffffffffffffffffffffffffffffffffffffff1663e9cbafb085858a8a6040518563ffffffff1660e01b815260040180858152602001848152602001806020018281038252848482818152602001925080828437600081840152601f19601f82011690508083019250505095505050505050600060405180830381600087803b158015612a6857600080fd5b505af1158015612a7c573d6000803e3d6000fd5b505050506000612a8a615dab565b90506000612a96615f6f565b905081612aac8786615f5590919063ffffffff16565b1115612b20576040517f08c379a00000000000000000000000000000000000000000000000000000000081526004018080602001828103825260028152602001807f463000000000000000000000000000000000000000000000000000000000000081525060200191505060405180910390fd5b80612b348685615f5590919063ffffffff16565b1115612ba8576040517f08c379a00000000000000000000000000000000000000000000000000000000081526004018080602001828103825260028152602001807f463100000000000000000000000000000000000000000000000000000000000081525060200191505060405180910390fd5b60008483039050600084830390506000821115612cc0576000601060008001601d9054906101000a900460ff1660ff1681612bdf57fe5b0690506000808260ff1614612c00578160ff168481612bfa57fe5b04612c03565b60005b90506000816fffffffffffffffffffffffffffffffff161115612c7e5780600460000160008282829054906101000a90046fffffffffffffffffffffffffffffffff160192506101000a8154816fffffffffffffffffffffffffffffffff02191690836fffffffffffffffffffffffffffffffff1602179055505b612cae8185037001000000000000000000000000000000008d6fffffffffffffffffffffffffffffffff16614fda565b60016000828254019250508190555050505b6000811115612dc4576000600460008001601d9054906101000a900460ff1660ff16901c90506000808260ff1614612d04578160ff168381612cfe57fe5b04612d07565b60005b90506000816fffffffffffffffffffffffffffffffff161115612d825780600460000160108282829054906101000a90046fffffffffffffffffffffffffffffffff160192506101000a8154816fffffffffffffffffffffffffffffffff02191690836fffffffffffffffffffffffffffffffff1602179055505b612db28184037001000000000000000000000000000000008d6fffffffffffffffffffffffffffffffff16614fda565b60026000828254019250508190555050505b8d73ffffffffffffffffffffffffffffffffffffffff163373ffffffffffffffffffffffffffffffffffffffff167fbdbdb71d7860376ba52b25a5028beea23581364a40522f6bcfb86bb1f2dca6338f8f86866040518085815260200184815260200183815260200182815260200194505050505060405180910390a3505050505050505050600160008001601e6101000a81548160ff0219169083151502179055505050505050565b60008060008001601e9054906101000a900460ff16612ef5576040517f08c379a00000000000000000000000000000000000000000000000000000000081526004018080602001828103825260038152602001807f4c4f4b000000000000000000000000000000000000000000000000000000000081525060200191505060405180910390fd5b600080600001601e6101000a81548160ff0219169083151502179055506000612f2c33888860086165aa909392919063ffffffff16565b90508060030160009054906101000a90046fffffffffffffffffffffffffffffffff166fffffffffffffffffffffffffffffffff16856fffffffffffffffffffffffffffffffff1611612f7f5784612fa1565b8060030160009054906101000a90046fffffffffffffffffffffffffffffffff165b92508060030160109054906101000a90046fffffffffffffffffffffffffffffffff166fffffffffffffffffffffffffffffffff16846fffffffffffffffffffffffffffffffff1611612ff45783613016565b8060030160109054906101000a90046fffffffffffffffffffffffffffffffff165b91506000836fffffffffffffffffffffffffffffffff1611156130cd57828160030160008282829054906101000a90046fffffffffffffffffffffffffffffffff160392506101000a8154816fffffffffffffffffffffffffffffffff02191690836fffffffffffffffffffffffffffffffff1602179055506130cc7f000000000000000000000000000000000000000000000000000000000000000089856fffffffffffffffffffffffffffffffff16615baa565b5b6000826fffffffffffffffffffffffffffffffff16111561318257818160030160108282829054906101000a90046fffffffffffffffffffffffffffffffff160392506101000a8154816fffffffffffffffffffffffffffffffff02191690836fffffffffffffffffffffffffffffffff1602179055506131817f000000000000000000000000000000000000000000000000000000000000000089846fffffffffffffffffffffffffffffffff16615baa565b5b8560020b8760020b3373ffffffffffffffffffffffffffffffffffffffff167f70935338e69775456a85ddef226c395fb668b63fa0115f5f20610b388e6ca9c08b8787604051808473ffffffffffffffffffffffffffffffffffffffff168152602001836fffffffffffffffffffffffffffffffff168152602001826fffffffffffffffffffffffffffffffff168152602001935050505060405180910390a450600160008001601e6101000a81548160ff0219169083151502179055509550959350505050565b60086020528060005260406000206000915090508060000160009054906101000a90046fffffffffffffffffffffffffffffffff16908060010154908060020154908060030160009054906101000a90046fffffffffffffffffffffffffffffffff16908060030160109054906101000a90046fffffffffffffffffffffffffffffffff16905085565b60076020528060005260406000206000915090505481565b600360009054906101000a900462ffffff1681565b7f000000000000000000000000000000000000000000000000000000000000000081565b60008001601e9054906101000a900460ff166133a9576040517f08c379a00000000000000000000000000000000000000000000000000000000081526004018080602001828103825260038152602001807f4c4f4b000000000000000000000000000000000000000000000000000000000081525060200191505060405180910390fd5b600080600001601e6101000a81548160ff0219169083151502179055507f000000000000000000000000000000000000000000000000000000000000000073ffffffffffffffffffffffffffffffffffffffff16638da5cb5b6040518163ffffffff1660e01b815260040160206040518083038186803b15801561342c57600080fd5b505afa158015613440573d6000803e3d6000fd5b505050506040513d602081101561345657600080fd5b810190808051906020019092919050505073ffffffffffffffffffffffffffffffffffffffff163373ffffffffffffffffffffffffffffffffffffffff161461349e57600080fd5b60008260ff1614806134c4575060048260ff16101580156134c35750600a8260ff1611155b5b80156134f2575060008160ff1614806134f1575060048160ff16101580156134f05750600a8160ff1611155b5b5b6134fb57600080fd5b600080600001601d9054906101000a900460ff16905060048260ff16901b830160008001601d6101000a81548160ff021916908360ff1602179055507f973d8d92bb299f4af6ce49b52a8adb85ae46b9f214c4c4fc06ac77401237b13360108260ff168161356557fe5b0660048360ff16901c8585604051808560ff1681526020018460ff1681526020018360ff1681526020018260ff16815260200194505050505060405180910390a150600160008001601e6101000a81548160ff0219169083151502179055505050565b60008060008001601e9054906101000a900460ff1661364f576040517f08c379a00000000000000000000000000000000000000000000000000000000081526004018080602001828103825260038152602001807f4c4f4b000000000000000000000000000000000000000000000000000000000081525060200191505060405180910390fd5b600080600001601e6101000a81548160ff0219169083151502179055507f000000000000000000000000000000000000000000000000000000000000000073ffffffffffffffffffffffffffffffffffffffff16638da5cb5b6040518163ffffffff1660e01b815260040160206040518083038186803b1580156136d257600080fd5b505afa1580156136e6573d6000803e3d6000fd5b505050506040513d60208110156136fc57600080fd5b810190808051906020019092919050505073ffffffffffffffffffffffffffffffffffffffff163373ffffffffffffffffffffffffffffffffffffffff161461374457600080fd5b600460000160009054906101000a90046fffffffffffffffffffffffffffffffff166fffffffffffffffffffffffffffffffff16846fffffffffffffffffffffffffffffffff161161379657836137b9565b600460000160009054906101000a90046fffffffffffffffffffffffffffffffff165b9150600460000160109054906101000a90046fffffffffffffffffffffffffffffffff166fffffffffffffffffffffffffffffffff16836fffffffffffffffffffffffffffffffff161161380d5782613830565b600460000160109054906101000a90046fffffffffffffffffffffffffffffffff165b90506000826fffffffffffffffffffffffffffffffff16111561393f57600460000160009054906101000a90046fffffffffffffffffffffffffffffffff166fffffffffffffffffffffffffffffffff16826fffffffffffffffffffffffffffffffff1614156138a4578180600190039250505b81600460000160008282829054906101000a90046fffffffffffffffffffffffffffffffff160392506101000a8154816fffffffffffffffffffffffffffffffff02191690836fffffffffffffffffffffffffffffffff16021790555061393e7f000000000000000000000000000000000000000000000000000000000000000086846fffffffffffffffffffffffffffffffff16615baa565b5b6000816fffffffffffffffffffffffffffffffff161115613a4c57600460000160109054906101000a90046fffffffffffffffffffffffffffffffff166fffffffffffffffffffffffffffffffff16816fffffffffffffffffffffffffffffffff1614156139b1578080600190039150505b80600460000160108282829054906101000a90046fffffffffffffffffffffffffffffffff160392506101000a8154816fffffffffffffffffffffffffffffffff02191690836fffffffffffffffffffffffffffffffff160217905550613a4b7f000000000000000000000000000000000000000000000000000000000000000086836fffffffffffffffffffffffffffffffff16615baa565b5b8473ffffffffffffffffffffffffffffffffffffffff163373ffffffffffffffffffffffffffffffffffffffff167f596b573906218d3411850b26a6b437d6c4522fdb43d2d2386263f86d50b8b151848460405180836fffffffffffffffffffffffffffffffff168152602001826fffffffffffffffffffffffffffffffff1681526020019250505060405180910390a3600160008001601e6101000a81548160ff021916908315150217905550935093915050565b606080613b0d614685565b613bc6613b186146df565b858580806020026020016040519081016040528093929190818152602001838360200280828437600081840152601f19601f820116905080830192505050505050506000800160149054906101000a900460020b6000800160179054906101000a900461ffff16600560009054906101000a90046fffffffffffffffffffffffffffffffff166000800160199054906101000a900461ffff166009616623909695949392919063ffffffff16565b915091509250929050565b60008060008001601e9054906101000a900460ff16613c58576040517f08c379a00000000000000000000000000000000000000000000000000000000081526004018080602001828103825260038152602001807f4c4f4b000000000000000000000000000000000000000000000000000000000081525060200191505060405180910390fd5b600080600001601e6101000a81548160ff0219169083151502179055506000806000613cdf60405180608001604052803373ffffffffffffffffffffffffffffffffffffffff1681526020018a60020b81526020018960020b8152602001613cd1896fffffffffffffffffffffffffffffffff1661620f565b600003600f0b815250616228565b9250925092508160000394508060000393506000851180613d005750600084115b15613dc857848360030160009054906101000a90046fffffffffffffffffffffffffffffffff1601848460030160109054906101000a90046fffffffffffffffffffffffffffffffff16018460030160008660030160108491906101000a8154816fffffffffffffffffffffffffffffffff02191690836fffffffffffffffffffffffffffffffff1602179055508391906101000a8154816fffffffffffffffffffffffffffffffff02191690836fffffffffffffffffffffffffffffffff16021790555050505b8660020b8860020b3373ffffffffffffffffffffffffffffffffffffffff167f0c396cd989a39f4459b5fa1aed6a9a8dcdbc45908acfd67e028cd568da98982c89898960405180846fffffffffffffffffffffffffffffffff168152602001838152602001828152602001935050505060405180910390a4505050600160008001601e6101000a81548160ff021916908315150217905550935093915050565b6000806000613e75614685565b613e7f85856167de565b6000806000806000806000600660008d60020b60020b815260200190815260200160002090506000600660008d60020b60020b8152602001908152602001600020905060008260030160009054906101000a900460060b8360030160079054906101000a900473ffffffffffffffffffffffffffffffffffffffff1684600301601b9054906101000a900463ffffffff1685600301601f9054906101000a900460ff16809450819850829a50839c505050505080613f3c57600080fd5b60008260030160009054906101000a900460060b8360030160079054906101000a900473ffffffffffffffffffffffffffffffffffffffff1684600301601b9054906101000a900463ffffffff1685600301601f9054906101000a900460ff16809450819850829a50839c505050505080613fb657600080fd5b505050506000806040518060e00160405290816000820160009054906101000a900473ffffffffffffffffffffffffffffffffffffffff1673ffffffffffffffffffffffffffffffffffffffff1673ffffffffffffffffffffffffffffffffffffffff1681526020016000820160149054906101000a900460020b60020b60020b81526020016000820160179054906101000a900461ffff1661ffff1661ffff1681526020016000820160199054906101000a900461ffff1661ffff1661ffff16815260200160008201601b9054906101000a900461ffff1661ffff1661ffff16815260200160008201601d9054906101000a900460ff1660ff1660ff16815260200160008201601e9054906101000a900460ff16151515158152505090508b60020b816020015160020b121561410257858703848603838503995099509950505050505050506141ab565b8a60020b816020015160020b121561419457600061411e6146df565b905060008061416c83600086602001518760400151600560009054906101000a90046fffffffffffffffffffffffffffffffff16896060015160096150b4909695949392919063ffffffff16565b91509150888a830303878983030386888603039c509c509c50505050505050505050506141ab565b868603858503848403995099509950505050505050505b9250925092565b7f000000000000000000000000000000000000000000000000000000000000000081565b7f000000000000000000000000000000000000000000000000000000000000000081565b7f000000000000000000000000000000000000000000000000000000000000000081565b8060018190555050565b7f000000000000000000000000000000000000000000000000000000000000000081565b60015481565b60066020528060005260406000206000915090508060000160009054906101000a90046fffffffffffffffffffffffffffffffff16908060000160109054906101000a9004600f0b908060010154908060020154908060030160009054906101000a900460060b908060030160079054906101000a900473ffffffffffffffffffffffffffffffffffffffff169080600301601b9054906101000a900463ffffffff169080600301601f9054906101000a900460ff16905088565b60008060000160009054906101000a900473ffffffffffffffffffffffffffffffffffffffff1673ffffffffffffffffffffffffffffffffffffffff16146143bd576040517f08c379a00000000000000000000000000000000000000000000000000000000081526004018080602001828103825260028152602001807f414900000000000000000000000000000000000000000000000000000000000081525060200191505060405180910390fd5b60006143c88261557c565b90506000806143e86143d86146df565b600961699890919063ffffffff16565b915091506040518060e001604052808573ffffffffffffffffffffffffffffffffffffffff1681526020018460020b8152602001600061ffff1681526020018361ffff1681526020018261ffff168152602001600060ff168152602001600115158152506000808201518160000160006101000a81548173ffffffffffffffffffffffffffffffffffffffff021916908373ffffffffffffffffffffffffffffffffffffffff16021790555060208201518160000160146101000a81548162ffffff021916908360020b62ffffff16021790555060408201518160000160176101000a81548161ffff021916908361ffff16021790555060608201518160000160196101000a81548161ffff021916908361ffff160217905550608082015181600001601b6101000a81548161ffff021916908361ffff16021790555060a082015181600001601d6101000a81548160ff021916908360ff16021790555060c082015181600001601e6101000a81548160ff0219169083151502179055509050507f98636036cb66a9c19a37435efc1e90142190214e8abeb821bdba3f2990dd4c958484604051808373ffffffffffffffffffffffffffffffffffffffff1681526020018260020b81526020019250505060405180910390a150505050565b8060028190555050565b600080828360020b7ffffffffffffffffffffffffffffffffffffffffffffffffffffffffffff2761860020b8161460457fe5b050290506000838460020b7ffffffffffffffffffffffffffffffffffffffffffffffffffffffffffff2761860000360020b8161463d57fe5b05029050600060018560020b84840360020b8161465657fe5b050190508062ffffff166fffffffffffffffffffffffffffffffff80168161467a57fe5b049350505050919050565b7f000000000000000000000000000000000000000000000000000000000000000073ffffffffffffffffffffffffffffffffffffffff163073ffffffffffffffffffffffffffffffffffffffff16146146dd57600080fd5b565b60006201000854905090565b60008060008460020b8660020b816146ff57fe5b05905060008660020b128015614728575060008560020b8760020b8161472157fe5b0760020b14155b15614737578080600190039150505b83156147bb5760008061474983616abe565b9150915060008160ff166001901b60018360ff166001901b030190506000818b60008660010b60010b815260200190815260200160002054169050600081141595508561479d57888360ff168603026147b0565b886147a782616ae1565b840360ff168603025b965050505050614839565b6000806147ca60018401616abe565b91509150600060018260ff166001901b031990506000818b60008660010b60010b815260200190815260200160002054169050600081141595508561481c57888360ff0360ff16600187010102614832565b888361482783616bbc565b0360ff166001870101025b9650505050505b5094509492505050565b60008060008360020b1261485a578260020b614862565b8260020b6000035b90507ffffffffffffffffffffffffffffffffffffffffffffffffffffffffffff2761860000360020b811115614900576040517f08c379a00000000000000000000000000000000000000000000000000000000081526004018080602001828103825260018152602001807f540000000000000000000000000000000000000000000000000000000000000081525060200191505060405180910390fd5b60008060018316141561492457700100000000000000000000000000000000614936565b6ffffcb933bd6fad37aa2d162d1a5940015b70ffffffffffffffffffffffffffffffffff169050600060028316146149705760806ffff97272373d413259a46990580e213a8202901c90505b600060048316146149955760806ffff2e50f5f656932ef12357cf3c7fdcc8202901c90505b600060088316146149ba5760806fffe5caca7e10e4e61c3624eaa0941cd08202901c90505b600060108316146149df5760806fffcb9843d60f6159c9db58835c9266448202901c90505b60006020831614614a045760806fff973b41fa98c081472e6896dfb254c08202901c90505b60006040831614614a295760806fff2ea16466c96a3843ec78b326b528618202901c90505b60006080831614614a4e5760806ffe5dee046a99a2a811c461f1969c30538202901c90505b6000610100831614614a745760806ffcbe86c7900a88aedcffc83b479aa3a48202901c90505b6000610200831614614a9a5760806ff987a7253ac413176f2b074cf7815e548202901c90505b6000610400831614614ac05760806ff3392b0822b70005940c7a398e4b70f38202901c90505b6000610800831614614ae65760806fe7159475a2c29b7443b29c7fa6e889d98202901c90505b6000611000831614614b0c5760806fd097f3bdfd2022b8845ad8f792aa58258202901c90505b6000612000831614614b325760806fa9f746462d870fdf8a65dc1f90e061e58202901c90505b6000614000831614614b585760806f70d869a156d2a1b890bb3df62baf32f78202901c90505b6000618000831614614b7e5760806f31be135f97d08fd981231505542fcfa68202901c90505b600062010000831614614ba55760806f09aa508b5b7a84e1c677de54f3e99bc98202901c90505b600062020000831614614bcb5760806e5d6af8dedb81196699c329225ee6048202901c90505b600062040000831614614bf05760806d2216e584f5fa1ea926041bedfe988202901c90505b600062080000831614614c135760806b048a170391f7dc42444e8fa28202901c90505b60008460020b1315614c4c57807fffffffffffffffffffffffffffffffffffffffffffffffffffffffffffffffff81614c4857fe5b0490505b60006401000000008281614c5c57fe5b0614614c69576001614c6c565b60005b60ff16602082901c0192505050919050565b600080614cae6000800160009054906101000a900473ffffffffffffffffffffffffffffffffffffffff16616ce3565b90506000614cba616d29565b90506000614cc88383616d76565b90506032811015614ce0576101f49350505050614cff565b6096811115614cf6576127109350505050614cff565b610bb893505050505b90565b60008060008060008873ffffffffffffffffffffffffffffffffffffffff168a73ffffffffffffffffffffffffffffffffffffffff161015905060008088121590508015614db1576000614d648989620f42400362ffffff16620f4240614fda565b905082614d7d57614d788c8c8c6001616db8565b614d8b565b614d8a8b8d8c6001616e92565b5b9550858110614d9c578a9650614dab565b614da88c8b8386616fc8565b96505b50614dfd565b81614dc857614dc38b8b8b6000616e92565b614dd6565b614dd58a8c8b6000616db8565b5b9350838860000310614dea57899550614dfc565b614df98b8a8a6000038561703a565b95505b5b60008673ffffffffffffffffffffffffffffffffffffffff168b73ffffffffffffffffffffffffffffffffffffffff161490508215614e8457808015614e405750815b614e5657614e51878d8c6001616e92565b614e58565b855b9550808015614e65575081155b614e7b57614e76878d8c6000616db8565b614e7d565b845b9450614ece565b808015614e8e5750815b614ea457614e9f8c888c6001616db8565b614ea6565b855b9550808015614eb3575081155b614ec957614ec48c888c6000616e92565b614ecb565b845b94505b81158015614ede57508860000385115b15614eea578860000394505b818015614f2357508a73ffffffffffffffffffffffffffffffffffffffff168773ffffffffffffffffffffffffffffffffffffffff1614155b15614f32578589039350614f4f565b614f4c868962ffffff168a620f42400362ffffff1661654c565b93505b50505095509550955095915050565b60007f80000000000000000000000000000000000000000000000000000000000000008210614f8c57600080fd5b819050919050565b6000808212151515838385039250821315151514614fb157600080fd5b92915050565b6000808212151515838385019250821215151514614fd457600080fd5b92915050565b600080600080198587098587029250828110838203039150506000811415615015576000841161500957600080fd5b838204925050506150ad565b80841161502157600080fd5b600084868809905082811182039150808303925060008586600003169050808604955080840493506001818260000304019050808302841793506000600287600302189050808702600203810290508087026002038102905080870260020381029050808702600203810290508087026002038102905080870260020381029050808502955050505050505b9392505050565b60008060008763ffffffff1614156151d5576000898661ffff1661ffff81106150d957fe5b016040518060800160405290816000820160009054906101000a900463ffffffff1663ffffffff1663ffffffff1681526020016000820160049054906101000a900460060b60060b60060b815260200160008201600b9054906101000a900473ffffffffffffffffffffffffffffffffffffffff1673ffffffffffffffffffffffffffffffffffffffff1673ffffffffffffffffffffffffffffffffffffffff16815260200160008201601f9054906101000a900460ff16151515158152505090508863ffffffff16816000015163ffffffff16146151c1576151be818a89886170ac565b90505b8060200151816040015192509250506152db565b600087890390506000806151ee8c8c858c8c8c8c617197565b91509150816000015163ffffffff168363ffffffff1614156152205781602001518260400151945094505050506152db565b806000015163ffffffff168363ffffffff16141561524e5780602001518160400151945094505050506152db565b60008260000151826000015103905060008360000151850390508063ffffffff168263ffffffff16856020015185602001510360060b8161528b57fe5b05028460200151018263ffffffff168263ffffffff16866040015186604001510373ffffffffffffffffffffffffffffffffffffffff1602816152ca57fe5b048560400151019650965050505050505b97509795505050505050565b6000808860008960020b60020b815260200190815260200160002090508060010154870381600101819055508060020154860381600201819055508060030160079054906101000a900473ffffffffffffffffffffffffffffffffffffffff1685038160030160076101000a81548173ffffffffffffffffffffffffffffffffffffffff021916908373ffffffffffffffffffffffffffffffffffffffff1602179055508060030160009054906101000a900460060b84038160030160006101000a81548166ffffffffffffff021916908360060b66ffffffffffffff16021790555080600301601b9054906101000a900463ffffffff16830381600301601b6101000a81548163ffffffff021916908363ffffffff1602179055508060000160109054906101000a9004600f0b915050979650505050505050565b60008082600f0b12156154d657826fffffffffffffffffffffffffffffffff168260000384039150816fffffffffffffffffffffffffffffffff16106154d1576040517f08c379a00000000000000000000000000000000000000000000000000000000081526004018080602001828103825260028152602001807f4c5300000000000000000000000000000000000000000000000000000000000081525060200191505060405180910390fd5b615576565b826fffffffffffffffffffffffffffffffff168284019150816fffffffffffffffffffffffffffffffff161015615575576040517f08c379a00000000000000000000000000000000000000000000000000000000081526004018080602001828103825260028152602001807f4c4100000000000000000000000000000000000000000000000000000000000081525060200191505060405180910390fd5b5b92915050565b60006401000276a373ffffffffffffffffffffffffffffffffffffffff168273ffffffffffffffffffffffffffffffffffffffff16101580156155fe575073fffd8963efd1fc6a506488495d951d5263988d2673ffffffffffffffffffffffffffffffffffffffff168273ffffffffffffffffffffffffffffffffffffffff16105b615670576040517f08c379a00000000000000000000000000000000000000000000000000000000081526004018080602001828103825260018152602001807f520000000000000000000000000000000000000000000000000000000000000081525060200191505060405180910390fd5b600060208373ffffffffffffffffffffffffffffffffffffffff16901b9050600081905060006fffffffffffffffffffffffffffffffff821160071b808217915082811c92505067ffffffffffffffff821160061b808217915082811c92505063ffffffff821160051b808217915082811c92505061ffff821160041b808217915082811c92505060ff821160031b808217915082811c925050600f821160021b808217915082811c9250506003821160011b808217915082811c925050600182118082179150506080811061574e57607f810383901c9150615758565b80607f0383901b91505b6000604060808303901b9050828302607f1c92508260801c80603f1b8217915083811c935050828302607f1c92508260801c80603e1b8217915083811c935050828302607f1c92508260801c80603d1b8217915083811c935050828302607f1c92508260801c80603c1b8217915083811c935050828302607f1c92508260801c80603b1b8217915083811c935050828302607f1c92508260801c80603a1b8217915083811c935050828302607f1c92508260801c8060391b8217915083811c935050828302607f1c92508260801c8060381b8217915083811c935050828302607f1c92508260801c8060371b8217915083811c935050828302607f1c92508260801c8060361b8217915083811c935050828302607f1c92508260801c8060351b8217915083811c935050828302607f1c92508260801c8060341b8217915083811c935050828302607f1c92508260801c8060331b8217915083811c935050828302607f1c92508260801c8060321b82179150506000693627a301d71055774c8582029050600060806f028f6481ab7f045a5af012a19d003aaa8303901d9050600060806fdb2df09e81959a81455e260799a0632f8401901d90508060020b8260020b14615968578873ffffffffffffffffffffffffffffffffffffffff1661593f82614843565b73ffffffffffffffffffffffffffffffffffffffff1611156159615781615963565b805b61596a565b815b975050505050505050919050565b6000806000898961ffff1661ffff811061598e57fe5b016040518060800160405290816000820160009054906101000a900463ffffffff1663ffffffff1663ffffffff1681526020016000820160049054906101000a900460060b60060b60060b815260200160008201600b9054906101000a900473ffffffffffffffffffffffffffffffffffffffff1673ffffffffffffffffffffffffffffffffffffffff1673ffffffffffffffffffffffffffffffffffffffff16815260200160008201601f9054906101000a900460ff16151515158152505090508763ffffffff16816000015163ffffffff161415615a745788859250925050615b9e565b8461ffff168461ffff16118015615a9557506001850361ffff168961ffff16145b15615aa257839150615aa6565b8491505b8161ffff1660018a0161ffff1681615aba57fe5b069250615ac9818989896170ac565b8a8461ffff1661ffff8110615ada57fe5b0160008201518160000160006101000a81548163ffffffff021916908363ffffffff16021790555060208201518160000160046101000a81548166ffffffffffffff021916908360060b66ffffffffffffff160217905550604082015181600001600b6101000a81548173ffffffffffffffffffffffffffffffffffffffff021916908373ffffffffffffffffffffffffffffffffffffffff160217905550606082015181600001601f6101000a81548160ff021916908315150217905550905050505b97509795505050505050565b6000808473ffffffffffffffffffffffffffffffffffffffff1663a9059cbb60e01b8585604051602401808373ffffffffffffffffffffffffffffffffffffffff16815260200182815260200192505050604051602081830303815290604052907bffffffffffffffffffffffffffffffffffffffffffffffffffffffff19166020820180517bffffffffffffffffffffffffffffffffffffffffffffffffffffffff83818316178352505050506040518082805190602001908083835b60208310615c8b5780518252602082019150602081019050602083039250615c68565b6001836020036101000a0380198251168184511680821785525050505050509050019150506000604051808303816000865af19150503d8060008114615ced576040519150601f19603f3d011682016040523d82523d6000602084013e615cf2565b606091505b5091509150818015615d325750600081511480615d315750808060200190516020811015615d1f57600080fd5b81019080805190602001909291905050505b5b615da4576040517f08c379a00000000000000000000000000000000000000000000000000000000081526004018080602001828103825260028152602001807f544600000000000000000000000000000000000000000000000000000000000081525060200191505060405180910390fd5b5050505050565b60008060007f000000000000000000000000000000000000000000000000000000000000000073ffffffffffffffffffffffffffffffffffffffff166370a0823160e01b30604051602401808273ffffffffffffffffffffffffffffffffffffffff168152602001915050604051602081830303815290604052907bffffffffffffffffffffffffffffffffffffffffffffffffffffffff19166020820180517bffffffffffffffffffffffffffffffffffffffffffffffffffffffff83818316178352505050506040518082805190602001908083835b60208310615ea65780518252602082019150602081019050602083039250615e83565b6001836020036101000a038019825116818451168082178552505050505050905001915050600060405180830381855afa9150503d8060008114615f06576040519150601f19603f3d011682016040523d82523d6000602084013e615f0b565b606091505b5091509150818015615f1f57506020815110155b615f2857600080fd5b808060200190516020811015615f3d57600080fd5b81019080805190602001909291905050509250505090565b6000828284019150811015615f6957600080fd5b92915050565b60008060007f000000000000000000000000000000000000000000000000000000000000000073ffffffffffffffffffffffffffffffffffffffff166370a0823160e01b30604051602401808273ffffffffffffffffffffffffffffffffffffffff168152602001915050604051602081830303815290604052907bffffffffffffffffffffffffffffffffffffffffffffffffffffffff19166020820180517bffffffffffffffffffffffffffffffffffffffffffffffffffffffff83818316178352505050506040518082805190602001908083835b6020831061606a5780518252602082019150602081019050602083039250616047565b6001836020036101000a038019825116818451168082178552505050505050905001915050600060405180830381855afa9150503d80600081146160ca576040519150601f19603f3d011682016040523d82523d6000602084013e6160cf565b606091505b50915091508180156160e357506020815110155b6160ec57600080fd5b80806020019051602081101561610157600080fd5b81019080805190602001909291905050509250505090565b6000808361ffff1611616194576040517f08c379a00000000000000000000000000000000000000000000000000000000081526004018080602001828103825260018152602001807f490000000000000000000000000000000000000000000000000000000000000081525060200191505060405180910390fd5b8261ffff168261ffff16116161ab57829050616208565b60008390505b8261ffff168161ffff161015616203576001858261ffff1661ffff81106161d457fe5b0160000160006101000a81548163ffffffff021916908363ffffffff16021790555080806001019150506161b1565b508190505b9392505050565b60008182915081600f0b1461622357600080fd5b919050565b6000806000616235614685565b616247846020015185604001516167de565b6000806040518060e00160405290816000820160009054906101000a900473ffffffffffffffffffffffffffffffffffffffff1673ffffffffffffffffffffffffffffffffffffffff1673ffffffffffffffffffffffffffffffffffffffff1681526020016000820160149054906101000a900460020b60020b60020b81526020016000820160179054906101000a900461ffff1661ffff1661ffff1681526020016000820160199054906101000a900461ffff1661ffff1661ffff16815260200160008201601b9054906101000a900461ffff1661ffff1661ffff16815260200160008201601d9054906101000a900460ff1660ff1660ff16815260200160008201601e9054906101000a900460ff161515151581525050905061638385600001518660200151876040015188606001518560200151617521565b935060008560600151600f0b1461654457846020015160020b816020015160020b12156163d8576163d16163ba8660200151614843565b6163c78760400151614843565b876060015161777a565b9250616543565b846040015160020b816020015160020b1215616518576000600560009054906101000a90046fffffffffffffffffffffffffffffffff16905061644682604001516164216146df565b846020015184866060015187608001516009615978909695949392919063ffffffff16565b6000800160176000800160198491906101000a81548161ffff021916908361ffff1602179055508391906101000a81548161ffff021916908361ffff16021790555050506164a9826000015161649f8860400151614843565b886060015161777a565b93506164ca6164bb8760200151614843565b836000015188606001516177c5565b92506164da818760600151615423565b600560006101000a8154816fffffffffffffffffffffffffffffffff02191690836fffffffffffffffffffffffffffffffff16021790555050616542565b61653f6165288660200151614843565b6165358760400151614843565b87606001516177c5565b91505b5b5b509193909250565b6000616559848484614fda565b90506000828061656557fe5b84860911156165a3577fffffffffffffffffffffffffffffffffffffffffffffffffffffffffffffffff811061659a57600080fd5b80806001019150505b9392505050565b6000846000858585604051602001808473ffffffffffffffffffffffffffffffffffffffff1660601b81526014018360020b60e81b81526003018260020b60e81b815260030193505050506040516020818303038152906040528051906020012081526020019081526020016000209050949350505050565b60608060008361ffff16116166a0576040517f08c379a00000000000000000000000000000000000000000000000000000000081526004018080602001828103825260018152602001807f490000000000000000000000000000000000000000000000000000000000000081525060200191505060405180910390fd5b865167ffffffffffffffff811180156166b857600080fd5b506040519080825280602002602001820160405280156166e75781602001602082028036833780820191505090505b509150865167ffffffffffffffff8111801561670257600080fd5b506040519080825280602002602001820160405280156167315781602001602082028036833780820191505090505b50905060005b87518110156167d1576167628a8a8a848151811061675157fe5b60200260200101518a8a8a8a6150b4565b84838151811061676e57fe5b6020026020010184848151811061678157fe5b602002602001018273ffffffffffffffffffffffffffffffffffffffff1673ffffffffffffffffffffffffffffffffffffffff168152508260060b60060b81525050508080600101915050616737565b5097509795505050505050565b8060020b8260020b12616859576040517f08c379a00000000000000000000000000000000000000000000000000000000081526004018080602001828103825260038152602001807f544c55000000000000000000000000000000000000000000000000000000000081525060200191505060405180910390fd5b7ffffffffffffffffffffffffffffffffffffffffffffffffffffffffffff2761860020b8260020b12156168f5576040517f08c379a00000000000000000000000000000000000000000000000000000000081526004018080602001828103825260038152602001807f544c4d000000000000000000000000000000000000000000000000000000000081525060200191505060405180910390fd5b7ffffffffffffffffffffffffffffffffffffffffffffffffffffffffffff2761860000360020b8160020b1315616994576040517f08c379a00000000000000000000000000000000000000000000000000000000081526004018080602001828103825260038152602001807f54554d000000000000000000000000000000000000000000000000000000000081525060200191505060405180910390fd5b5050565b60008060405180608001604052808463ffffffff168152602001600060060b8152602001600073ffffffffffffffffffffffffffffffffffffffff1681526020016001151581525084600061ffff81106169ee57fe5b0160008201518160000160006101000a81548163ffffffff021916908363ffffffff16021790555060208201518160000160046101000a81548166ffffffffffffff021916908360060b66ffffffffffffff160217905550604082015181600001600b6101000a81548173ffffffffffffffffffffffffffffffffffffffff021916908373ffffffffffffffffffffffffffffffffffffffff160217905550606082015181600001601f6101000a81548160ff021916908315150217905550905050600180915091509250929050565b60008060088360020b901d91506101008360020b81616ad957fe5b079050915091565b6000808211616aef57600080fd5b7001000000000000000000000000000000008210616b1557608082901c91506080810190505b680100000000000000008210616b3357604082901c91506040810190505b6401000000008210616b4d57602082901c91506020810190505b620100008210616b6557601082901c91506010810190505b6101008210616b7c57600882901c91506008810190505b60108210616b9257600482901c91506004810190505b60048210616ba857600282901c91506002810190505b60028210616bb7576001810190505b919050565b6000808211616bca57600080fd5b60ff905060006fffffffffffffffffffffffffffffffff801683161115616bf657608081039050616bfe565b608082901c91505b600067ffffffffffffffff801683161115616c1e57604081039050616c26565b604082901c91505b600063ffffffff801683161115616c4257602081039050616c4a565b602082901c91505b600061ffff801683161115616c6457601081039050616c6c565b601082901c91505b600060ff801683161115616c8557600881039050616c8d565b600882901c91505b6000600f83161115616ca457600481039050616cac565b600482901c91505b6000600383161115616cc357600281039050616ccb565b600282901c91505b6000600183161115616cde576001810390505b919050565b600060c0670de0b6b3a76400008373ffffffffffffffffffffffffffffffffffffffff168473ffffffffffffffffffffffffffffffffffffffff160202901c9050919050565b600080616d3830610258617810565b5060020b9050600061025863ffffffff1660060b8260060b81616d5757fe5b059050616d6f81670de0b6b3a7640000600080617c7d565b9250505090565b600080821415616d895760009050616db2565b6000828411616d9a57838303616d9e565b8284035b905082612710820281616dad57fe5b049150505b92915050565b60008373ffffffffffffffffffffffffffffffffffffffff168573ffffffffffffffffffffffffffffffffffffffff161115616df957838580955081965050505b81616e4557616e40836fffffffffffffffffffffffffffffffff1686860373ffffffffffffffffffffffffffffffffffffffff166c01000000000000000000000000614fda565b616e88565b616e87836fffffffffffffffffffffffffffffffff1686860373ffffffffffffffffffffffffffffffffffffffff166c0100000000000000000000000061654c565b5b9050949350505050565b60008373ffffffffffffffffffffffffffffffffffffffff168573ffffffffffffffffffffffffffffffffffffffff161115616ed357838580955081965050505b6000606060ff16846fffffffffffffffffffffffffffffffff16901b9050600086860373ffffffffffffffffffffffffffffffffffffffff16905060008773ffffffffffffffffffffffffffffffffffffffff1611616f3157600080fd5b83616f7b578673ffffffffffffffffffffffffffffffffffffffff16616f6e83838973ffffffffffffffffffffffffffffffffffffffff16614fda565b81616f7557fe5b04616fbc565b616fbb616f9f83838973ffffffffffffffffffffffffffffffffffffffff1661654c565b8873ffffffffffffffffffffffffffffffffffffffff16617e80565b5b92505050949350505050565b6000808573ffffffffffffffffffffffffffffffffffffffff1611616fec57600080fd5b6000846fffffffffffffffffffffffffffffffff161161700b57600080fd5b816170225761701d8585856001617e93565b617030565b61702f8585856001618005565b5b9050949350505050565b6000808573ffffffffffffffffffffffffffffffffffffffff161161705e57600080fd5b6000846fffffffffffffffffffffffffffffffff161161707d57600080fd5b816170945761708f8585856000618005565b6170a2565b6170a18585856000617e93565b5b9050949350505050565b6170b4618e1a565b600085600001518503905060405180608001604052808663ffffffff1681526020018263ffffffff168660020b0288602001510160060b81526020016000856fffffffffffffffffffffffffffffffff1611617111576001617113565b845b6fffffffffffffffffffffffffffffffff1660808463ffffffff1673ffffffffffffffffffffffffffffffffffffffff16901b73ffffffffffffffffffffffffffffffffffffffff168161716357fe5b0488604001510173ffffffffffffffffffffffffffffffffffffffff16815260200160011515815250915050949350505050565b61719f618e1a565b6171a7618e1a565b888561ffff1661ffff81106171b857fe5b016040518060800160405290816000820160009054906101000a900463ffffffff1663ffffffff1663ffffffff1681526020016000820160049054906101000a900460060b60060b60060b815260200160008201600b9054906101000a900473ffffffffffffffffffffffffffffffffffffffff1673ffffffffffffffffffffffffffffffffffffffff1673ffffffffffffffffffffffffffffffffffffffff16815260200160008201601f9054906101000a900460ff16151515158152505091506172898883600001518961818f565b156172c1578663ffffffff16826000015163ffffffff1614156172ab57617515565b816172b8838989886170ac565b91509150617515565b888361ffff166001870161ffff16816172d657fe5b0661ffff1661ffff81106172e657fe5b016040518060800160405290816000820160009054906101000a900463ffffffff1663ffffffff1663ffffffff1681526020016000820160049054906101000a900460060b60060b60060b815260200160008201600b9054906101000a900473ffffffffffffffffffffffffffffffffffffffff1673ffffffffffffffffffffffffffffffffffffffff1673ffffffffffffffffffffffffffffffffffffffff16815260200160008201601f9054906101000a900460ff161515151581525050915081606001516174825788600061ffff81106173bf57fe5b016040518060800160405290816000820160009054906101000a900463ffffffff1663ffffffff1663ffffffff1681526020016000820160049054906101000a900460060b60060b60060b815260200160008201600b9054906101000a900473ffffffffffffffffffffffffffffffffffffffff1673ffffffffffffffffffffffffffffffffffffffff1673ffffffffffffffffffffffffffffffffffffffff16815260200160008201601f9054906101000a900460ff16151515158152505091505b6174918883600001518961818f565b617503576040517f08c379a00000000000000000000000000000000000000000000000000000000081526004018080602001828103825260038152602001807f4f4c44000000000000000000000000000000000000000000000000000000000081525060200191505060405180910390fd5b6175108989898887618257565b915091505b97509795505050505050565b600061753b86868660086165aa909392919063ffffffff16565b90506000600154905060006002549050600080600087600f0b146176ee5760006175636146df565b90506000806175da8360008060000160149054906101000a900460020b6000800160179054906101000a900461ffff16600560009054906101000a90046fffffffffffffffffffffffffffffffff166000800160199054906101000a900461ffff1660096150b4909695949392919063ffffffff16565b915091506176258c8a8c8a8a86888a60007f000000000000000000000000000000000000000000000000000000000000000060066184da909a9998979695949392919063ffffffff16565b945061766e8b8a8c8a8a86888a60017f000000000000000000000000000000000000000000000000000000000000000060066184da909a9998979695949392919063ffffffff16565b935084156176ad576176ac8c7f000000000000000000000000000000000000000000000000000000000000000060076187dc9092919063ffffffff16565b5b83156176ea576176e98b7f000000000000000000000000000000000000000000000000000000000000000060076187dc9092919063ffffffff16565b5b5050505b60008061770d8b8b8a898960066188549095949392919063ffffffff16565b915091506177288983838a61891b909392919063ffffffff16565b600089600f0b121561776b57831561774f5761774e8b6006618c9f90919063ffffffff16565b5b821561776a576177698a6006618c9f90919063ffffffff16565b5b5b50505050505095945050505050565b60008082600f0b126177a05761779b6177968585856001616e92565b614f5e565b6177bc565b6177b86177b38585856000036000616e92565b614f5e565b6000035b90509392505050565b60008082600f0b126177eb576177e66177e18585856001616db8565b614f5e565b617807565b6178036177fe8585856000036000616db8565b614f5e565b6000035b90509392505050565b60008060008363ffffffff161415617890576040517f08c379a00000000000000000000000000000000000000000000000000000000081526004018080602001828103825260028152602001807f425000000000000000000000000000000000000000000000000000000000000081525060200191505060405180910390fd5b6000600267ffffffffffffffff811180156178aa57600080fd5b506040519080825280602002602001820160405280156178d95781602001602082028036833780820191505090505b50905083816000815181106178ea57fe5b602002602001019063ffffffff16908163ffffffff168152505060008160018151811061791357fe5b602002602001019063ffffffff16908163ffffffff16815250506000808673ffffffffffffffffffffffffffffffffffffffff1663883bdbfd846040518263ffffffff1660e01b81526004018080602001828103825283818151815260200191508051906020019060200280838360005b8381101561799f578082015181840152602081019050617984565b505050509050019250505060006040518083038186803b1580156179c257600080fd5b505afa1580156179d6573d6000803e3d6000fd5b505050506040513d6000823e3d601f19601f820116820180604052506040811015617a0057600080fd5b8101908080516040519392919084640100000000821115617a2057600080fd5b83820191506020820185811115617a3657600080fd5b8251866020820283011164010000000082111715617a5357600080fd5b8083526020830192505050908051906020019060200280838360005b83811015617a8a578082015181840152602081019050617a6f565b5050505090500160405260200180516040519392919084640100000000821115617ab357600080fd5b83820191506020820185811115617ac957600080fd5b8251866020820283011164010000000082111715617ae657600080fd5b8083526020830192505050908051906020019060200280838360005b83811015617b1d578082015181840152602081019050617b02565b5050505090500160405250505091509150600082600081518110617b3d57fe5b602002602001015183600181518110617b5257fe5b6020026020010151039050600082600081518110617b6c57fe5b602002602001015183600181518110617b8157fe5b60200260200101510390508763ffffffff168260060b81617b9e57fe5b05965060008260060b128015617bca575060008863ffffffff168360060b81617bc357fe5b0760060b14155b15617bd9578680600190039750505b600073ffffffffffffffffffffffffffffffffffffffff80168963ffffffff1602905060208273ffffffffffffffffffffffffffffffffffffffff1677ffffffffffffffffffffffffffffffffffffffffffffffff16901b77ffffffffffffffffffffffffffffffffffffffffffffffff168177ffffffffffffffffffffffffffffffffffffffffffffffff1681617c6d57fe5b0496505050505050509250929050565b600080617c8986614843565b90506fffffffffffffffffffffffffffffffff80168173ffffffffffffffffffffffffffffffffffffffff1611617d9a5760008173ffffffffffffffffffffffffffffffffffffffff168273ffffffffffffffffffffffffffffffffffffffff160290508373ffffffffffffffffffffffffffffffffffffffff168573ffffffffffffffffffffffffffffffffffffffff1610617d5b57617d567801000000000000000000000000000000000000000000000000876fffffffffffffffffffffffffffffffff1683614fda565b617d92565b617d9181876fffffffffffffffffffffffffffffffff167801000000000000000000000000000000000000000000000000614fda565b5b925050617e77565b6000617ddc8273ffffffffffffffffffffffffffffffffffffffff168373ffffffffffffffffffffffffffffffffffffffff1668010000000000000000614fda565b90508373ffffffffffffffffffffffffffffffffffffffff168573ffffffffffffffffffffffffffffffffffffffff1610617e4457617e3f700100000000000000000000000000000000876fffffffffffffffffffffffffffffffff1683614fda565b617e73565b617e7281876fffffffffffffffffffffffffffffffff16700100000000000000000000000000000000614fda565b5b9250505b50949350505050565b6000808284061182840401905092915050565b60008115617f4957600073ffffffffffffffffffffffffffffffffffffffff8016841115617eea57617ee5846c01000000000000000000000000876fffffffffffffffffffffffffffffffff16614fda565b617f0e565b846fffffffffffffffffffffffffffffffff16606060ff1685901b81617f0c57fe5b045b9050617f41617f3c828873ffffffffffffffffffffffffffffffffffffffff16615f5590919063ffffffff16565b618d80565b915050617ffd565b600073ffffffffffffffffffffffffffffffffffffffff8016841115617f9857617f93846c01000000000000000000000000876fffffffffffffffffffffffffffffffff1661654c565b617fbc565b617fbb606060ff1685901b866fffffffffffffffffffffffffffffffff16617e80565b5b9050808673ffffffffffffffffffffffffffffffffffffffff1611617fe057600080fd5b808673ffffffffffffffffffffffffffffffffffffffff16039150505b949350505050565b60008083141561801757849050618187565b6000606060ff16856fffffffffffffffffffffffffffffffff16901b905082156180fe5760008673ffffffffffffffffffffffffffffffffffffffff16858873ffffffffffffffffffffffffffffffffffffffff1687029250828161807857fe5b0414156180ba57600081830190508281106180b8576180ae838973ffffffffffffffffffffffffffffffffffffffff168361654c565b9350505050618187565b505b6180f5826180f0878a73ffffffffffffffffffffffffffffffffffffffff1686816180e157fe5b04615f5590919063ffffffff16565b617e80565b92505050618187565b60008673ffffffffffffffffffffffffffffffffffffffff16858873ffffffffffffffffffffffffffffffffffffffff1687029250828161813b57fe5b0414801561814857508082115b61815157600080fd5b6000818303905061818161817c848a73ffffffffffffffffffffffffffffffffffffffff168461654c565b618d80565b93505050505b949350505050565b60008363ffffffff168363ffffffff16111580156181b957508363ffffffff168263ffffffff1611155b156181d5578163ffffffff168363ffffffff1611159050618250565b60008463ffffffff168463ffffffff16116181fd576401000000008463ffffffff1601618205565b8363ffffffff165b64ffffffffff16905060008563ffffffff168463ffffffff1611618236576401000000008463ffffffff160161823e565b8363ffffffff165b64ffffffffff16905080821115925050505b9392505050565b61825f618e1a565b618267618e1a565b60008361ffff166001860161ffff168161827d57fe5b0661ffff169050600060018561ffff16830103905060005b6001156184cd576002828401816182a857fe5b049050898661ffff1682816182b957fe5b0661ffff81106182c557fe5b016040518060800160405290816000820160009054906101000a900463ffffffff1663ffffffff1663ffffffff1681526020016000820160049054906101000a900460060b60060b60060b815260200160008201600b9054906101000a900473ffffffffffffffffffffffffffffffffffffffff1673ffffffffffffffffffffffffffffffffffffffff1673ffffffffffffffffffffffffffffffffffffffff16815260200160008201601f9054906101000a900460ff1615151515815250509450846060015161839b57600181019250618295565b898661ffff1660018301816183ac57fe5b0661ffff81106183b857fe5b016040518060800160405290816000820160009054906101000a900463ffffffff1663ffffffff1663ffffffff1681526020016000820160049054906101000a900460060b60060b60060b815260200160008201600b9054906101000a900473ffffffffffffffffffffffffffffffffffffffff1673ffffffffffffffffffffffffffffffffffffffff1673ffffffffffffffffffffffffffffffffffffffff16815260200160008201601f9054906101000a900460ff1615151515815250509350600061848b8a87600001518b61818f565b90508080156184a557506184a48a8a876000015161818f565b5b156184b057506184cd565b806184c0576001820392506184c7565b6001820193505b50618295565b5050509550959350505050565b6000808c60008d60020b60020b8152602001908152602001600020905060008160000160009054906101000a90046fffffffffffffffffffffffffffffffff1690506000618528828d615423565b9050846fffffffffffffffffffffffffffffffff16816fffffffffffffffffffffffffffffffff1611156185c4576040517f08c379a00000000000000000000000000000000000000000000000000000000081526004018080602001828103825260028152602001807f4c4f00000000000000000000000000000000000000000000000000000000000081525060200191505060405180910390fd5b6000826fffffffffffffffffffffffffffffffff161415156000826fffffffffffffffffffffffffffffffff16141515141593506000826fffffffffffffffffffffffffffffffff1614156186e3578c60020b8e60020b136186c5578a8360010181905550898360020181905550888360030160076101000a81548173ffffffffffffffffffffffffffffffffffffffff021916908373ffffffffffffffffffffffffffffffffffffffff160217905550878360030160006101000a81548166ffffffffffffff021916908360060b66ffffffffffffff1602179055508683600301601b6101000a81548163ffffffff021916908363ffffffff1602179055505b600183600301601f6101000a81548160ff0219169083151502179055505b808360000160006101000a8154816fffffffffffffffffffffffffffffffff02191690836fffffffffffffffffffffffffffffffff1602179055508561875a576187556187508d600f0b8560000160109054906101000a9004600f0b600f0b614fb790919063ffffffff16565b61620f565b61878d565b61878c6187878d600f0b8560000160109054906101000a9004600f0b600f0b614f9490919063ffffffff16565b61620f565b5b8360000160106101000a8154816fffffffffffffffffffffffffffffffff0219169083600f0b6fffffffffffffffffffffffffffffffff1602179055505050509b9a5050505050505050505050565b60008160020b8360020b816187ed57fe5b0760020b146187fb57600080fd5b6000806188168360020b8560020b8161881057fe5b05616abe565b9150915060008160ff166001901b9050808660008560010b60010b815260200190815260200160002060008282541892505081905550505050505050565b60008060008860008960020b60020b8152602001908152602001600020905060008960008960020b60020b815260200190815260200160002090506000808a60020b8960020b126188b25783600101549150836002015490506188c5565b8360010154880391508360020154870390505b6000808b60020b8b60020b12156188e95784600101549150846002015490506188fc565b84600101548a0391508460020154890390505b81848b0303975080838a03039650505050505050965096945050505050565b6000846040518060a00160405290816000820160009054906101000a90046fffffffffffffffffffffffffffffffff166fffffffffffffffffffffffffffffffff166fffffffffffffffffffffffffffffffff16815260200160018201548152602001600282015481526020016003820160009054906101000a90046fffffffffffffffffffffffffffffffff166fffffffffffffffffffffffffffffffff166fffffffffffffffffffffffffffffffff1681526020016003820160109054906101000a90046fffffffffffffffffffffffffffffffff166fffffffffffffffffffffffffffffffff166fffffffffffffffffffffffffffffffff1681525050905060008085600f0b1415618ac257600082600001516fffffffffffffffffffffffffffffffff1611618ab6576040517f08c379a00000000000000000000000000000000000000000000000000000000081526004018080602001828103825260028152602001807f4e5000000000000000000000000000000000000000000000000000000000000081525060200191505060405180910390fd5b81600001519050618ad3565b618ad0826000015186615423565b90505b6000618b0d8360200151860384600001516fffffffffffffffffffffffffffffffff16700100000000000000000000000000000000614fda565b90506000618b498460400151860385600001516fffffffffffffffffffffffffffffffff16700100000000000000000000000000000000614fda565b9050600087600f0b14618b9257828860000160006101000a8154816fffffffffffffffffffffffffffffffff02191690836fffffffffffffffffffffffffffffffff1602179055505b8588600101819055508488600201819055506000826fffffffffffffffffffffffffffffffff161180618bd757506000816fffffffffffffffffffffffffffffffff16115b15618c9557818860030160008282829054906101000a90046fffffffffffffffffffffffffffffffff160192506101000a8154816fffffffffffffffffffffffffffffffff02191690836fffffffffffffffffffffffffffffffff160217905550808860030160108282829054906101000a90046fffffffffffffffffffffffffffffffff160192506101000a8154816fffffffffffffffffffffffffffffffff02191690836fffffffffffffffffffffffffffffffff1602179055505b5050505050505050565b8160008260020b60020b8152602001908152602001600020600080820160006101000a8154906fffffffffffffffffffffffffffffffff02191690556000820160106101000a8154906fffffffffffffffffffffffffffffffff0219169055600182016000905560028201600090556003820160006101000a81549066ffffffffffffff02191690556003820160076101000a81549073ffffffffffffffffffffffffffffffffffffffff021916905560038201601b6101000a81549063ffffffff021916905560038201601f6101000a81549060ff021916905550505050565b6000818291508173ffffffffffffffffffffffffffffffffffffffff1614618da757600080fd5b919050565b6040518060e00160405280600073ffffffffffffffffffffffffffffffffffffffff168152602001600060020b8152602001600015158152602001600073ffffffffffffffffffffffffffffffffffffffff1681526020016000815260200160008152602001600081525090565b6040518060800160405280600063ffffffff168152602001600060060b8152602001600073ffffffffffffffffffffffffffffffffffffffff168152602001600015158152509056fea264697066735822122030b86b4f9d5588768f24ba7f0a647eed9f6111e103b5029206df99a0928a793764736f6c63430007060033a2646970667358221220e310c3e9440c8aed61775c09518ee8a40de349fcfdc6cc8c75dab01715ee092d64736f6c63430007060033","linkReferences":{}},"methodIdentifiers":{"deploy(address,address,address,uint24,int24)":"fad5359f","parameters()":"89035730"},"id":35}