{"abi":[{"type":"function","name":"deploy","inputs":[{"name":"factory","type":"address","internalType":"address"},{"name":"token0","type":"address","internalType":"address"},{"name":"token1","type":"address","internalType":"address"},{"name":"fee","type":"uint24","internalType":"uint24"},{"name":"tickSpacing","type":"int24","internalType":"int24"}],"outputs":[{"name":"pool","type":"address","internalType":"address"}],"stateMutability":"nonpayable"},{"type":"function","name":"parameters","inputs":[],"outputs":[{"name":"factory","type":"address","internalType":"address"},{"name":"token0","type":"address","internalType":"address"},{"name":"token1","type":"address","internalType":"address"},{"name":"fee","type":"uint24","internalType":"uint24"},{"name":"tickSpacing","type":"int24","internalType":"int24"}],"stateMutability":"view"},{"type":"event","name":"PoolDeployed","inputs":[{"name":"pool","type":"address","indexed":false,"internalType":"address"}],"anonymous":false}],"bytecode":{"object":"0x608060405234801561001057600080fd5b50619c7f806100206000396000f3fe608060405234801561001057600080fd5b50600436106100365760003560e01c8063890357301461003b578063fad5359f146100bf575b600080fd5b610043610189565b604051808673ffffffffffffffffffffffffffffffffffffffff1681526020018573ffffffffffffffffffffffffffffffffffffffff1681526020018473ffffffffffffffffffffffffffffffffffffffff1681526020018362ffffff1681526020018260020b81526020019550505050505060405180910390f35b61015d600480360360a08110156100d557600080fd5b81019080803573ffffffffffffffffffffffffffffffffffffffff169060200190929190803573ffffffffffffffffffffffffffffffffffffffff169060200190929190803573ffffffffffffffffffffffffffffffffffffffff169060200190929190803562ffffff169060200190929190803560020b9060200190929190505050610229565b604051808273ffffffffffffffffffffffffffffffffffffffff16815260200191505060405180910390f35b60008060000160009054906101000a900473ffffffffffffffffffffffffffffffffffffffff16908060010160009054906101000a900473ffffffffffffffffffffffffffffffffffffffff16908060020160009054906101000a900473ffffffffffffffffffffffffffffffffffffffff16908060020160149054906101000a900462ffffff16908060020160179054906101000a900460020b905085565b60006040518060a001604052808773ffffffffffffffffffffffffffffffffffffffff1681526020018673ffffffffffffffffffffffffffffffffffffffff1681526020018573ffffffffffffffffffffffffffffffffffffffff1681526020018462ffffff1681526020018360020b8152506000808201518160000160006101000a81548173ffffffffffffffffffffffffffffffffffffffff021916908373ffffffffffffffffffffffffffffffffffffffff16021790555060208201518160010160006101000a81548173ffffffffffffffffffffffffffffffffffffffff021916908373ffffffffffffffffffffffffffffffffffffffff16021790555060408201518160020160006101000a81548173ffffffffffffffffffffffffffffffffffffffff021916908373ffffffffffffffffffffffffffffffffffffffff16021790555060608201518160020160146101000a81548162ffffff021916908362ffffff16021790555060808201518160020160176101000a81548162ffffff021916908360020b62ffffff16021790555090505084848484604051602001808573ffffffffffffffffffffffffffffffffffffffff1660601b81526014018473ffffffffffffffffffffffffffffffffffffffff1660601b81526014018362ffffff1660e81b81526003018260020b60e81b81526003019450505050506040516020818303038152906040528051906020012060405161044d9061056c565b8190604051809103906000f590508015801561046d573d6000803e3d6000fd5b5090507ff0d1eeab175eee2e20b8dc452773bf2257b25724b323b42bc6e5b4616233ae1f81604051808273ffffffffffffffffffffffffffffffffffffffff16815260200191505060405180910390a16000806000820160006101000a81549073ffffffffffffffffffffffffffffffffffffffff02191690556001820160006101000a81549073ffffffffffffffffffffffffffffffffffffffff02191690556002820160006101000a81549073ffffffffffffffffffffffffffffffffffffffff02191690556002820160146101000a81549062ffffff02191690556002820160176101000a81549062ffffff0219169055505095945050505050565b6196d08061057a8339019056fe610160604052635f7b26e062010008553480156200001c57600080fd5b503073ffffffffffffffffffffffffffffffffffffffff1660808173ffffffffffffffffffffffffffffffffffffffff1660601b8152505060003373ffffffffffffffffffffffffffffffffffffffff1663890357306040518163ffffffff1660e01b815260040160a06040518083038186803b1580156200009d57600080fd5b505afa158015620000b2573d6000803e3d6000fd5b505050506040513d60a0811015620000c957600080fd5b8101908080519060200190929190805190602001909291908051906020019092919080519060200190929190805190602001909291905050508095508162ffffff166101009062ffffff1660e81b8152508273ffffffffffffffffffffffffffffffffffffffff1660e09073ffffffffffffffffffffffffffffffffffffffff1660601b8152508373ffffffffffffffffffffffffffffffffffffffff1660c09073ffffffffffffffffffffffffffffffffffffffff1660601b8152508473ffffffffffffffffffffffffffffffffffffffff1660a09073ffffffffffffffffffffffffffffffffffffffff1660601b81525050505050508060020b6101208160020b60e81b81525050620001e9816200021f60201b6200492d1760201c565b6fffffffffffffffffffffffffffffffff16610140816fffffffffffffffffffffffffffffffff1660801b8152505050620002d7565b600080828360020b7ffffffffffffffffffffffffffffffffffffffffffffffffffffffffffff2761860020b816200025357fe5b050290506000838460020b7ffffffffffffffffffffffffffffffffffffffffffffffffffffffffffff2761860000360020b816200028d57fe5b05029050600060018560020b84840360020b81620002a757fe5b050190508062ffffff166fffffffffffffffffffffffffffffffff801681620002cc57fe5b049350505050919050565b60805160601c60a05160601c60c05160601c60e05160601c6101005160e81c6101205160e81c6101405160801c6193316200039f6000398061365f52806180f5528061813e52508061168f5280614534528061818452806181c1525080612c0b5280612c425280614586525080611fd55280612ccc52806134635280613d6f52806145585280616b535250806110e952806121555280612c9752806133ae5280613c62528061698f52508061372452806139ca528061451052508061516d52506193316000f3fe608060405234801561001057600080fd5b50600436106101fb5760003560e01c806355abbe8f1161011a578063c45a0155116100ad578063ddca3f431161007c578063ddca3f4314610cd9578063f305839914610cfc578063f30dba9314610d1a578063f637731d14610dc6578063f6eb760f14610e0a576101fb565b8063c45a015514610c22578063d0c93a7c14610c56578063d21220a714610c77578063d380c67914610cab576101fb565b806385b66729116100e957806385b667291461095d578063883bdbfd14610a18578063a34123a714610b2e578063a38807f214610ba3576101fb565b806355abbe8f1461088057806356ccede7146108cc57806370cf754a146108ef5780638206a4d11461091f576101fb565b806332148f6711610192578063490e6cbc11610161578063490e6cbc146106255780634f1eb3d8146106d2578063514ea4bf146107a75780635339c2961461083b576101fb565b806332148f67146104795780633850c7bd146104ab5780633c8a7d8d1461051d5780634614131914610607576101fb565b806316ada547116101ce57806316ada5471461036a5780631a686502146103885780631ad8b03b146103b8578063252c09d714610401576101fb565b806305ecd0031461020057806307e32f0a1461021e5780630dfe16811461024c578063128acb0814610280575b600080fd5b610208610e38565b6040518082815260200191505060405180910390f35b61024a6004803603602081101561023457600080fd5b81019080803590602001909291905050506110d2565b005b6102546110e7565b604051808273ffffffffffffffffffffffffffffffffffffffff16815260200191505060405180910390f35b61034d600480360360a081101561029657600080fd5b81019080803573ffffffffffffffffffffffffffffffffffffffff16906020019092919080351515906020019092919080359060200190929190803573ffffffffffffffffffffffffffffffffffffffff1690602001909291908035906020019064010000000081111561030957600080fd5b82018360208201111561031b57600080fd5b8035906020019184600183028401116401000000008311171561033d57600080fd5b909192939192939050505061110b565b604051808381526020018281526020019250505060405180910390f35b6103726123ab565b6040518082815260200191505060405180910390f35b6103906123b3565b60405180826fffffffffffffffffffffffffffffffff16815260200191505060405180910390f35b6103c06123d5565b60405180836fffffffffffffffffffffffffffffffff168152602001826fffffffffffffffffffffffffffffffff1681526020019250505060405180910390f35b61042d6004803603602081101561041757600080fd5b810190808035906020019092919050505061241f565b604051808563ffffffff1681526020018460060b81526020018373ffffffffffffffffffffffffffffffffffffffff168152602001821515815260200194505050505060405180910390f35b6104a96004803603602081101561048f57600080fd5b81019080803561ffff16906020019092919050505061249d565b005b6104b361260f565b604051808873ffffffffffffffffffffffffffffffffffffffff1681526020018760020b81526020018661ffff1681526020018561ffff1681526020018461ffff1681526020018360ff168152602001821515815260200197505050505050505060405180910390f35b6105ea600480360360a081101561053357600080fd5b81019080803573ffffffffffffffffffffffffffffffffffffffff169060200190929190803560020b9060200190929190803560020b906020019092919080356fffffffffffffffffffffffffffffffff169060200190929190803590602001906401000000008111156105a657600080fd5b8201836020820111156105b857600080fd5b803590602001918460018302840111640100000000831117156105da57600080fd5b90919293919293905050506126b0565b604051808381526020018281526020019250505060405180910390f35b61060f612aa9565b6040518082815260200191505060405180910390f35b6106d06004803603608081101561063b57600080fd5b81019080803573ffffffffffffffffffffffffffffffffffffffff16906020019092919080359060200190929190803590602001909291908035906020019064010000000081111561068c57600080fd5b82018360208201111561069e57600080fd5b803590602001918460018302840111640100000000831117156106c057600080fd5b9091929391929390505050612aaf565b005b610766600480360360a08110156106e857600080fd5b81019080803573ffffffffffffffffffffffffffffffffffffffff169060200190929190803560020b9060200190929190803560020b906020019092919080356fffffffffffffffffffffffffffffffff16906020019092919080356fffffffffffffffffffffffffffffffff169060200190929190505050613188565b60405180836fffffffffffffffffffffffffffffffff168152602001826fffffffffffffffffffffffffffffffff1681526020019250505060405180910390f35b6107d3600480360360208110156107bd57600080fd5b8101908080359060200190929190505050613564565b60405180866fffffffffffffffffffffffffffffffff168152602001858152602001848152602001836fffffffffffffffffffffffffffffffff168152602001826fffffffffffffffffffffffffffffffff1681526020019550505050505060405180910390f35b61086a6004803603602081101561085157600080fd5b81019080803560010b90602001909291905050506135ee565b6040518082815260200191505060405180910390f35b6108b66004803603604081101561089657600080fd5b810190808035906020019092919080359060200190929190505050613606565b6040518082815260200191505060405180910390f35b6108d4613648565b604051808262ffffff16815260200191505060405180910390f35b6108f761365d565b60405180826fffffffffffffffffffffffffffffffff16815260200191505060405180910390f35b61095b6004803603604081101561093557600080fd5b81019080803560ff169060200190929190803560ff169060200190929190505050613681565b005b6109d76004803603606081101561097357600080fd5b81019080803573ffffffffffffffffffffffffffffffffffffffff16906020019092919080356fffffffffffffffffffffffffffffffff16906020019092919080356fffffffffffffffffffffffffffffffff169060200190929190505050613924565b60405180836fffffffffffffffffffffffffffffffff168152602001826fffffffffffffffffffffffffffffffff1681526020019250505060405180910390f35b610a8f60048036036020811015610a2e57600080fd5b8101908080359060200190640100000000811115610a4b57600080fd5b820183602082011115610a5d57600080fd5b80359060200191846020830284011164010000000083111715610a7f57600080fd5b9091929391929390505050613e5e565b604051808060200180602001838103835285818151815260200191508051906020019060200280838360005b83811015610ad6578082015181840152602081019050610abb565b50505050905001838103825284818151815260200191508051906020019060200280838360005b83811015610b18578082015181840152602081019050610afd565b5050505090500194505050505060405180910390f35b610b8660048036036060811015610b4457600080fd5b81019080803560020b9060200190929190803560020b906020019092919080356fffffffffffffffffffffffffffffffff169060200190929190505050613f2d565b604051808381526020018281526020019250505060405180910390f35b610bdf60048036036040811015610bb957600080fd5b81019080803560020b9060200190929190803560020b90602001909291905050506141c4565b604051808460060b81526020018373ffffffffffffffffffffffffffffffffffffffff1681526020018263ffffffff168152602001935050505060405180910390f35b610c2a61450e565b604051808273ffffffffffffffffffffffffffffffffffffffff16815260200191505060405180910390f35b610c5e614532565b604051808260020b815260200191505060405180910390f35b610c7f614556565b604051808273ffffffffffffffffffffffffffffffffffffffff16815260200191505060405180910390f35b610cd760048036036020811015610cc157600080fd5b810190808035906020019092919050505061457a565b005b610ce1614584565b604051808262ffffff16815260200191505060405180910390f35b610d046145a8565b6040518082815260200191505060405180910390f35b610d4960048036036020811015610d3057600080fd5b81019080803560020b90602001909291905050506145ae565b60405180896fffffffffffffffffffffffffffffffff16815260200188600f0b81526020018781526020018681526020018560060b81526020018473ffffffffffffffffffffffffffffffffffffffff1681526020018363ffffffff16815260200182151581526020019850505050505050505060405180910390f35b610e0860048036036020811015610ddc57600080fd5b81019080803573ffffffffffffffffffffffffffffffffffffffff169060200190929190505050614669565b005b610e3660048036036020811015610e2057600080fd5b8101908080359060200190929190505050614923565b005b600080610e436149e1565b9050600061025882039050600060096000800160199054906101000a900461ffff1661ffff1660016000800160179054906101000a900461ffff160161ffff1681610e8a57fe5b0661ffff1661ffff8110610e9a57fe5b016040518060800160405290816000820160009054906101000a900463ffffffff1663ffffffff1663ffffffff1681526020016000820160049054906101000a900460060b60060b60060b815260200160008201600b9054906101000a900473ffffffffffffffffffffffffffffffffffffffff1673ffffffffffffffffffffffffffffffffffffffff1673ffffffffffffffffffffffffffffffffffffffff16815260200160008201601f9054906101000a900460ff16151515158152505090508060600151611037576009600061ffff8110610f7457fe5b016040518060800160405290816000820160009054906101000a900463ffffffff1663ffffffff1663ffffffff1681526020016000820160049054906101000a900460060b60060b60060b815260200160008201600b9054906101000a900473ffffffffffffffffffffffffffffffffffffffff1673ffffffffffffffffffffffffffffffffffffffff1673ffffffffffffffffffffffffffffffffffffffff16815260200160008201601f9054906101000a900460ff16151515158152505090505b611046838260000151846149ed565b1561109c57600061105930610258614ab5565b5060020b9050600061025863ffffffff1660060b8260060b8161107857fe5b05905061109081670de0b6b3a7640000600080614f22565b955050505050506110cf565b6110c96000800160009054906101000a900473ffffffffffffffffffffffffffffffffffffffff16615125565b93505050505b90565b80620100086000828254019250508190555050565b7f000000000000000000000000000000000000000000000000000000000000000081565b60008061111661516b565b600086141561118d576040517f08c379a00000000000000000000000000000000000000000000000000000000081526004018080602001828103825260028152602001807f415300000000000000000000000000000000000000000000000000000000000081525060200191505060405180910390fd5b6000806040518060e00160405290816000820160009054906101000a900473ffffffffffffffffffffffffffffffffffffffff1673ffffffffffffffffffffffffffffffffffffffff1673ffffffffffffffffffffffffffffffffffffffff1681526020016000820160149054906101000a900460020b60020b60020b81526020016000820160179054906101000a900461ffff1661ffff1661ffff1681526020016000820160199054906101000a900461ffff1661ffff1661ffff16815260200160008201601b9054906101000a900461ffff1661ffff1661ffff16815260200160008201601d9054906101000a900460ff1660ff1660ff16815260200160008201601e9054906101000a900460ff16151515158152505090508060c0015161131f576040517f08c379a00000000000000000000000000000000000000000000000000000000081526004018080602001828103825260038152602001807f4c4f4b000000000000000000000000000000000000000000000000000000000081525060200191505060405180910390fd5b876113a757806000015173ffffffffffffffffffffffffffffffffffffffff168673ffffffffffffffffffffffffffffffffffffffff161180156113a2575073fffd8963efd1fc6a506488495d951d5263988d2673ffffffffffffffffffffffffffffffffffffffff168673ffffffffffffffffffffffffffffffffffffffff16105b611417565b806000015173ffffffffffffffffffffffffffffffffffffffff168673ffffffffffffffffffffffffffffffffffffffff1610801561141657506401000276a373ffffffffffffffffffffffffffffffffffffffff168673ffffffffffffffffffffffffffffffffffffffff16115b5b611489576040517f08c379a00000000000000000000000000000000000000000000000000000000081526004018080602001828103825260038152602001807f53504c000000000000000000000000000000000000000000000000000000000081525060200191505060405180910390fd5b600080600001601e6101000a81548160ff02191690831515021790555060006040518060c001604052808a6114c95760048460a0015160ff16901c6114dc565b60108460a0015160ff16816114da57fe5b065b60ff168152602001600560009054906101000a90046fffffffffffffffffffffffffffffffff166fffffffffffffffffffffffffffffffff1681526020016115226149e1565b63ffffffff168152602001600060060b8152602001600073ffffffffffffffffffffffffffffffffffffffff1681526020016000151581525090506000808913905060006040518060e001604052808b815260200160008152602001856000015173ffffffffffffffffffffffffffffffffffffffff168152602001856020015160020b81526020018c6115b8576002546115bc565b6001545b815260200160006fffffffffffffffffffffffffffffffff16815260200184602001516fffffffffffffffffffffffffffffffff1681525090505b600081600001511415801561163c57508873ffffffffffffffffffffffffffffffffffffffff16816040015173ffffffffffffffffffffffffffffffffffffffff1614155b15611c9d57611649619244565b8160400151816000019073ffffffffffffffffffffffffffffffffffffffff16908173ffffffffffffffffffffffffffffffffffffffff16815250506116c182606001517f00000000000000000000000000000000000000000000000000000000000000008e60076151c5909392919063ffffffff16565b826020018360400182151515158152508260020b60020b81525050507ffffffffffffffffffffffffffffffffffffffffffffffffffffffffffff2761860020b816020015160020b1215611746577ffffffffffffffffffffffffffffffffffffffffffffffffffffffffffff27618816020019060020b908160020b815250506117b2565b7ffffffffffffffffffffffffffffffffffffffffffffffffffffffffffff2761860000360020b816020015160020b13156117b1577ffffffffffffffffffffffffffffffffffffffffffffffffffffffffffff27618600003816020019060020b908160020b815250505b5b6117bf816020015161531d565b816060019073ffffffffffffffffffffffffffffffffffffffff16908173ffffffffffffffffffffffffffffffffffffffff16815250506117fe615758565b600360006101000a81548162ffffff021916908362ffffff1602179055506118c682604001518d611861578b73ffffffffffffffffffffffffffffffffffffffff16836060015173ffffffffffffffffffffffffffffffffffffffff1611611895565b8b73ffffffffffffffffffffffffffffffffffffffff16836060015173ffffffffffffffffffffffffffffffffffffffff16105b6118a35782606001516118a5565b8b5b8460c001518560000151600360009054906101000a900462ffffff166158df565b85604001856080018660a0018760c0018481525084815250848152508473ffffffffffffffffffffffffffffffffffffffff1673ffffffffffffffffffffffffffffffffffffffff1681525050505050821561196f5761192f8160c00151826080015101615b3b565b82600001818151039150818152505061196161194e8260a00151615b3b565b8360200151615b7190919063ffffffff16565b8260200181815250506119be565b61197c8160a00151615b3b565b8260000181815101915081815250506119b46119a18260c00151836080015101615b3b565b8360200151615b9490919063ffffffff16565b8260200181815250505b6000846000015160ff161115611a2f576000846000015160ff168260c00151816119e457fe5b049050808260c0018181510391508181525050808360a001818151019150906fffffffffffffffffffffffffffffffff1690816fffffffffffffffffffffffffffffffff1681525050505b60008260c001516fffffffffffffffffffffffffffffffff161115611a9457611a848160c001517001000000000000000000000000000000008460c001516fffffffffffffffffffffffffffffffff16615bb7565b8260800181815101915081815250505b806060015173ffffffffffffffffffffffffffffffffffffffff16826040015173ffffffffffffffffffffffffffffffffffffffff161415611c3c57806040015115611c0e578360a00151611b6c57611b16846040015160008760200151886040015188602001518a606001516009615c91909695949392919063ffffffff16565b85606001866080018273ffffffffffffffffffffffffffffffffffffffff1673ffffffffffffffffffffffffffffffffffffffff168152508260060b60060b815250505060018460a00190151590811515815250505b6000611bc082602001518e611b8357600154611b89565b84608001515b8f611b98578560800151611b9c565b6002545b886080015189606001518a604001516006615ec4909695949392919063ffffffff16565b90508c15611bcf578060000390505b611bdd8360c0015182616000565b8360c001906fffffffffffffffffffffffffffffffff1690816fffffffffffffffffffffffffffffffff1681525050505b8b611c1d578060200151611c26565b60018160200151035b826060019060020b908160020b81525050611c97565b806000015173ffffffffffffffffffffffffffffffffffffffff16826040015173ffffffffffffffffffffffffffffffffffffffff1614611c9657611c848260400151616159565b826060019060020b908160020b815250505b5b506115f7565b836020015160020b816060015160020b14611db357600080611ceb86604001518660400151886020015188602001518a606001518b608001516009616555909695949392919063ffffffff16565b915091508260400151836060015183836000800160008060000160146000800160176000800160198891906101000a81548161ffff021916908361ffff1602179055508791906101000a81548161ffff021916908361ffff1602179055508691906101000a81548162ffffff021916908360020b62ffffff1602179055508591906101000a81548173ffffffffffffffffffffffffffffffffffffffff021916908373ffffffffffffffffffffffffffffffffffffffff160217905550505050505050611dfb565b80604001516000800160006101000a81548173ffffffffffffffffffffffffffffffffffffffff021916908373ffffffffffffffffffffffffffffffffffffffff1602179055505b8060c001516fffffffffffffffffffffffffffffffff1683602001516fffffffffffffffffffffffffffffffff1614611e6c578060c00151600560006101000a8154816fffffffffffffffffffffffffffffffff02191690836fffffffffffffffffffffffffffffffff1602179055505b8a15611f0357806080015160018190555060008160a001516fffffffffffffffffffffffffffffffff161115611efe578060a00151600460000160008282829054906101000a90046fffffffffffffffffffffffffffffffff160192506101000a8154816fffffffffffffffffffffffffffffffff02191690836fffffffffffffffffffffffffffffffff1602179055505b611f90565b806080015160028190555060008160a001516fffffffffffffffffffffffffffffffff161115611f8f578060a00151600460000160108282829054906101000a90046fffffffffffffffffffffffffffffffff160192506101000a8154816fffffffffffffffffffffffffffffffff02191690836fffffffffffffffffffffffffffffffff1602179055505b5b8115158b151514611fac57806020015181600001518b03611fb9565b80600001518a0381602001515b80965081975050508a15612147576000851215611fff57611ffe7f00000000000000000000000000000000000000000000000000000000000000008d87600003616787565b5b6000612009616988565b90503373ffffffffffffffffffffffffffffffffffffffff1663fa461e3388888c8c6040518563ffffffff1660e01b815260040180858152602001848152602001806020018281038252848482818152602001925080828437600081840152601f19601f82011690508083019250505095505050505050600060405180830381600087803b15801561209a57600080fd5b505af11580156120ae573d6000803e3d6000fd5b505050506120ba616988565b6120cd8883616b3290919063ffffffff16565b1115612141576040517f08c379a00000000000000000000000000000000000000000000000000000000081526004018080602001828103825260038152602001807f494941000000000000000000000000000000000000000000000000000000000081525060200191505060405180910390fd5b506122c3565b600086121561217f5761217e7f00000000000000000000000000000000000000000000000000000000000000008d88600003616787565b5b6000612189616b4c565b90503373ffffffffffffffffffffffffffffffffffffffff1663fa461e3388888c8c6040518563ffffffff1660e01b815260040180858152602001848152602001806020018281038252848482818152602001925080828437600081840152601f19601f82011690508083019250505095505050505050600060405180830381600087803b15801561221a57600080fd5b505af115801561222e573d6000803e3d6000fd5b5050505061223a616b4c565b61224d8783616b3290919063ffffffff16565b11156122c1576040517f08c379a00000000000000000000000000000000000000000000000000000000081526004018080602001828103825260038152602001807f494941000000000000000000000000000000000000000000000000000000000081525060200191505060405180910390fd5b505b8b73ffffffffffffffffffffffffffffffffffffffff163373ffffffffffffffffffffffffffffffffffffffff167fc42079f94a6350d7e6235f29174924f928cc2ac818eb64fed8004e115fbcca67888885604001518660c001518760600151604051808681526020018581526020018473ffffffffffffffffffffffffffffffffffffffff168152602001836fffffffffffffffffffffffffffffffff1681526020018260020b81526020019550505050505060405180910390a3600160008001601e6101000a81548160ff02191690831515021790555050505050965096945050505050565b620100085481565b600560009054906101000a90046fffffffffffffffffffffffffffffffff1681565b60048060000160009054906101000a90046fffffffffffffffffffffffffffffffff16908060000160109054906101000a90046fffffffffffffffffffffffffffffffff16905082565b60098161ffff811061243057600080fd5b016000915090508060000160009054906101000a900463ffffffff16908060000160049054906101000a900460060b9080600001600b9054906101000a900473ffffffffffffffffffffffffffffffffffffffff169080600001601f9054906101000a900460ff16905084565b60008001601e9054906101000a900460ff16612521576040517f08c379a00000000000000000000000000000000000000000000000000000000081526004018080602001828103825260038152602001807f4c4f4b000000000000000000000000000000000000000000000000000000000081525060200191505060405180910390fd5b600080600001601e6101000a81548160ff02191690831515021790555061254661516b565b600080600001601b9054906101000a900461ffff169050600061257582846009616cf69092919063ffffffff16565b90508060008001601b6101000a81548161ffff021916908361ffff1602179055508061ffff168261ffff16146125ed577fac49e518f90a358f652e4400164f05a5d8f7e35e7747279bc3a93dbf584e125a8282604051808361ffff1681526020018261ffff1681526020019250505060405180910390a15b5050600160008001601e6101000a81548160ff02191690831515021790555050565b60008060000160009054906101000a900473ffffffffffffffffffffffffffffffffffffffff16908060000160149054906101000a900460020b908060000160179054906101000a900461ffff16908060000160199054906101000a900461ffff169080600001601b9054906101000a900461ffff169080600001601d9054906101000a900460ff169080600001601e9054906101000a900460ff16905087565b60008060008001601e9054906101000a900460ff16612737576040517f08c379a00000000000000000000000000000000000000000000000000000000081526004018080602001828103825260038152602001807f4c4f4b000000000000000000000000000000000000000000000000000000000081525060200191505060405180910390fd5b600080600001601e6101000a81548160ff0219169083151502179055506000856fffffffffffffffffffffffffffffffff161161277357600080fd5b6000806127d860405180608001604052808c73ffffffffffffffffffffffffffffffffffffffff1681526020018b60020b81526020018a60020b81526020016127cd8a6fffffffffffffffffffffffffffffffff16616dec565b600f0b815250616e05565b925092505081935080925060008060008611156127fa576127f7616988565b91505b600085111561280e5761280b616b4c565b90505b3373ffffffffffffffffffffffffffffffffffffffff1663d348799787878b8b6040518563ffffffff1660e01b815260040180858152602001848152602001806020018281038252848482818152602001925080828437600081840152601f19601f82011690508083019250505095505050505050600060405180830381600087803b15801561289d57600080fd5b505af11580156128b1573d6000803e3d6000fd5b50505050600086111561294e576128c6616988565b6128d98784616b3290919063ffffffff16565b111561294d576040517f08c379a00000000000000000000000000000000000000000000000000000000081526004018080602001828103825260028152602001807f4d3000000000000000000000000000000000000000000000000000000000000081525060200191505060405180910390fd5b5b60008511156129e75761295f616b4c565b6129728683616b3290919063ffffffff16565b11156129e6576040517f08c379a00000000000000000000000000000000000000000000000000000000081526004018080602001828103825260028152602001807f4d3100000000000000000000000000000000000000000000000000000000000081525060200191505060405180910390fd5b5b8960020b8b60020b8d73ffffffffffffffffffffffffffffffffffffffff167f7a53080ba414158be7ec69b987b5fb7d07dee101fe85488f0853ae16239d0bde338d8b8b604051808573ffffffffffffffffffffffffffffffffffffffff168152602001846fffffffffffffffffffffffffffffffff16815260200183815260200182815260200194505050505060405180910390a450505050600160008001601e6101000a81548160ff021916908315150217905550965096945050505050565b60025481565b60008001601e9054906101000a900460ff16612b33576040517f08c379a00000000000000000000000000000000000000000000000000000000081526004018080602001828103825260038152602001807f4c4f4b000000000000000000000000000000000000000000000000000000000081525060200191505060405180910390fd5b600080600001601e6101000a81548160ff021916908315150217905550612b5861516b565b6000600560009054906101000a90046fffffffffffffffffffffffffffffffff1690506000816fffffffffffffffffffffffffffffffff1611612c03576040517f08c379a00000000000000000000000000000000000000000000000000000000081526004018080602001828103825260018152602001807f4c0000000000000000000000000000000000000000000000000000000000000081525060200191505060405180910390fd5b6000612c38867f000000000000000000000000000000000000000000000000000000000000000062ffffff16620f4240617129565b90506000612c6f867f000000000000000000000000000000000000000000000000000000000000000062ffffff16620f4240617129565b90506000612c7b616988565b90506000612c87616b4c565b90506000891115612cbe57612cbd7f00000000000000000000000000000000000000000000000000000000000000008b8b616787565b5b6000881115612cf357612cf27f00000000000000000000000000000000000000000000000000000000000000008b8a616787565b5b3373ffffffffffffffffffffffffffffffffffffffff1663e9cbafb085858a8a6040518563ffffffff1660e01b815260040180858152602001848152602001806020018281038252848482818152602001925080828437600081840152601f19601f82011690508083019250505095505050505050600060405180830381600087803b158015612d8257600080fd5b505af1158015612d96573d6000803e3d6000fd5b505050506000612da4616988565b90506000612db0616b4c565b905081612dc68786616b3290919063ffffffff16565b1115612e3a576040517f08c379a00000000000000000000000000000000000000000000000000000000081526004018080602001828103825260028152602001807f463000000000000000000000000000000000000000000000000000000000000081525060200191505060405180910390fd5b80612e4e8685616b3290919063ffffffff16565b1115612ec2576040517f08c379a00000000000000000000000000000000000000000000000000000000081526004018080602001828103825260028152602001807f463100000000000000000000000000000000000000000000000000000000000081525060200191505060405180910390fd5b60008483039050600084830390506000821115612fda576000601060008001601d9054906101000a900460ff1660ff1681612ef957fe5b0690506000808260ff1614612f1a578160ff168481612f1457fe5b04612f1d565b60005b90506000816fffffffffffffffffffffffffffffffff161115612f985780600460000160008282829054906101000a90046fffffffffffffffffffffffffffffffff160192506101000a8154816fffffffffffffffffffffffffffffffff02191690836fffffffffffffffffffffffffffffffff1602179055505b612fc88185037001000000000000000000000000000000008d6fffffffffffffffffffffffffffffffff16615bb7565b60016000828254019250508190555050505b60008111156130de576000600460008001601d9054906101000a900460ff1660ff16901c90506000808260ff161461301e578160ff16838161301857fe5b04613021565b60005b90506000816fffffffffffffffffffffffffffffffff16111561309c5780600460000160108282829054906101000a90046fffffffffffffffffffffffffffffffff160192506101000a8154816fffffffffffffffffffffffffffffffff02191690836fffffffffffffffffffffffffffffffff1602179055505b6130cc8184037001000000000000000000000000000000008d6fffffffffffffffffffffffffffffffff16615bb7565b60026000828254019250508190555050505b8d73ffffffffffffffffffffffffffffffffffffffff163373ffffffffffffffffffffffffffffffffffffffff167fbdbdb71d7860376ba52b25a5028beea23581364a40522f6bcfb86bb1f2dca6338f8f86866040518085815260200184815260200183815260200182815260200194505050505060405180910390a3505050505050505050600160008001601e6101000a81548160ff0219169083151502179055505050505050565b60008060008001601e9054906101000a900460ff1661320f576040517f08c379a00000000000000000000000000000000000000000000000000000000081526004018080602001828103825260038152602001807f4c4f4b000000000000000000000000000000000000000000000000000000000081525060200191505060405180910390fd5b600080600001601e6101000a81548160ff02191690831515021790555060006132463388886008617187909392919063ffffffff16565b90508060030160009054906101000a90046fffffffffffffffffffffffffffffffff166fffffffffffffffffffffffffffffffff16856fffffffffffffffffffffffffffffffff161161329957846132bb565b8060030160009054906101000a90046fffffffffffffffffffffffffffffffff165b92508060030160109054906101000a90046fffffffffffffffffffffffffffffffff166fffffffffffffffffffffffffffffffff16846fffffffffffffffffffffffffffffffff161161330e5783613330565b8060030160109054906101000a90046fffffffffffffffffffffffffffffffff165b91506000836fffffffffffffffffffffffffffffffff1611156133e757828160030160008282829054906101000a90046fffffffffffffffffffffffffffffffff160392506101000a8154816fffffffffffffffffffffffffffffffff02191690836fffffffffffffffffffffffffffffffff1602179055506133e67f000000000000000000000000000000000000000000000000000000000000000089856fffffffffffffffffffffffffffffffff16616787565b5b6000826fffffffffffffffffffffffffffffffff16111561349c57818160030160108282829054906101000a90046fffffffffffffffffffffffffffffffff160392506101000a8154816fffffffffffffffffffffffffffffffff02191690836fffffffffffffffffffffffffffffffff16021790555061349b7f000000000000000000000000000000000000000000000000000000000000000089846fffffffffffffffffffffffffffffffff16616787565b5b8560020b8760020b3373ffffffffffffffffffffffffffffffffffffffff167f70935338e69775456a85ddef226c395fb668b63fa0115f5f20610b388e6ca9c08b8787604051808473ffffffffffffffffffffffffffffffffffffffff168152602001836fffffffffffffffffffffffffffffffff168152602001826fffffffffffffffffffffffffffffffff168152602001935050505060405180910390a450600160008001601e6101000a81548160ff0219169083151502179055509550959350505050565b60086020528060005260406000206000915090508060000160009054906101000a90046fffffffffffffffffffffffffffffffff16908060010154908060020154908060030160009054906101000a90046fffffffffffffffffffffffffffffffff16908060030160109054906101000a90046fffffffffffffffffffffffffffffffff16905085565b60076020528060005260406000206000915090505481565b6000808214156136195760009050613642565b600082841161362a5783830361362e565b8284035b90508261271082028161363d57fe5b049150505b92915050565b600360009054906101000a900462ffffff1681565b7f000000000000000000000000000000000000000000000000000000000000000081565b60008001601e9054906101000a900460ff16613705576040517f08c379a00000000000000000000000000000000000000000000000000000000081526004018080602001828103825260038152602001807f4c4f4b000000000000000000000000000000000000000000000000000000000081525060200191505060405180910390fd5b600080600001601e6101000a81548160ff0219169083151502179055507f000000000000000000000000000000000000000000000000000000000000000073ffffffffffffffffffffffffffffffffffffffff16638da5cb5b6040518163ffffffff1660e01b815260040160206040518083038186803b15801561378857600080fd5b505afa15801561379c573d6000803e3d6000fd5b505050506040513d60208110156137b257600080fd5b810190808051906020019092919050505073ffffffffffffffffffffffffffffffffffffffff163373ffffffffffffffffffffffffffffffffffffffff16146137fa57600080fd5b60008260ff161480613820575060048260ff161015801561381f5750600a8260ff1611155b5b801561384e575060008160ff16148061384d575060048160ff161015801561384c5750600a8160ff1611155b5b5b61385757600080fd5b600080600001601d9054906101000a900460ff16905060048260ff16901b830160008001601d6101000a81548160ff021916908360ff1602179055507f973d8d92bb299f4af6ce49b52a8adb85ae46b9f214c4c4fc06ac77401237b13360108260ff16816138c157fe5b0660048360ff16901c8585604051808560ff1681526020018460ff1681526020018360ff1681526020018260ff16815260200194505050505060405180910390a150600160008001601e6101000a81548160ff0219169083151502179055505050565b60008060008001601e9054906101000a900460ff166139ab576040517f08c379a00000000000000000000000000000000000000000000000000000000081526004018080602001828103825260038152602001807f4c4f4b000000000000000000000000000000000000000000000000000000000081525060200191505060405180910390fd5b600080600001601e6101000a81548160ff0219169083151502179055507f000000000000000000000000000000000000000000000000000000000000000073ffffffffffffffffffffffffffffffffffffffff16638da5cb5b6040518163ffffffff1660e01b815260040160206040518083038186803b158015613a2e57600080fd5b505afa158015613a42573d6000803e3d6000fd5b505050506040513d6020811015613a5857600080fd5b810190808051906020019092919050505073ffffffffffffffffffffffffffffffffffffffff163373ffffffffffffffffffffffffffffffffffffffff1614613aa057600080fd5b600460000160009054906101000a90046fffffffffffffffffffffffffffffffff166fffffffffffffffffffffffffffffffff16846fffffffffffffffffffffffffffffffff1611613af25783613b15565b600460000160009054906101000a90046fffffffffffffffffffffffffffffffff165b9150600460000160109054906101000a90046fffffffffffffffffffffffffffffffff166fffffffffffffffffffffffffffffffff16836fffffffffffffffffffffffffffffffff1611613b695782613b8c565b600460000160109054906101000a90046fffffffffffffffffffffffffffffffff165b90506000826fffffffffffffffffffffffffffffffff161115613c9b57600460000160009054906101000a90046fffffffffffffffffffffffffffffffff166fffffffffffffffffffffffffffffffff16826fffffffffffffffffffffffffffffffff161415613c00578180600190039250505b81600460000160008282829054906101000a90046fffffffffffffffffffffffffffffffff160392506101000a8154816fffffffffffffffffffffffffffffffff02191690836fffffffffffffffffffffffffffffffff160217905550613c9a7f000000000000000000000000000000000000000000000000000000000000000086846fffffffffffffffffffffffffffffffff16616787565b5b6000816fffffffffffffffffffffffffffffffff161115613da857600460000160109054906101000a90046fffffffffffffffffffffffffffffffff166fffffffffffffffffffffffffffffffff16816fffffffffffffffffffffffffffffffff161415613d0d578080600190039150505b80600460000160108282829054906101000a90046fffffffffffffffffffffffffffffffff160392506101000a8154816fffffffffffffffffffffffffffffffff02191690836fffffffffffffffffffffffffffffffff160217905550613da77f000000000000000000000000000000000000000000000000000000000000000086836fffffffffffffffffffffffffffffffff16616787565b5b8473ffffffffffffffffffffffffffffffffffffffff163373ffffffffffffffffffffffffffffffffffffffff167f596b573906218d3411850b26a6b437d6c4522fdb43d2d2386263f86d50b8b151848460405180836fffffffffffffffffffffffffffffffff168152602001826fffffffffffffffffffffffffffffffff1681526020019250505060405180910390a3600160008001601e6101000a81548160ff021916908315150217905550935093915050565b606080613e6961516b565b613f22613e746149e1565b858580806020026020016040519081016040528093929190818152602001838360200280828437600081840152601f19601f820116905080830192505050505050506000800160149054906101000a900460020b6000800160179054906101000a900461ffff16600560009054906101000a90046fffffffffffffffffffffffffffffffff166000800160199054906101000a900461ffff166009617200909695949392919063ffffffff16565b915091509250929050565b60008060008001601e9054906101000a900460ff16613fb4576040517f08c379a00000000000000000000000000000000000000000000000000000000081526004018080602001828103825260038152602001807f4c4f4b000000000000000000000000000000000000000000000000000000000081525060200191505060405180910390fd5b600080600001601e6101000a81548160ff021916908315150217905550600080600061403b60405180608001604052803373ffffffffffffffffffffffffffffffffffffffff1681526020018a60020b81526020018960020b815260200161402d896fffffffffffffffffffffffffffffffff16616dec565b600003600f0b815250616e05565b925092509250816000039450806000039350600085118061405c5750600084115b1561412457848360030160009054906101000a90046fffffffffffffffffffffffffffffffff1601848460030160109054906101000a90046fffffffffffffffffffffffffffffffff16018460030160008660030160108491906101000a8154816fffffffffffffffffffffffffffffffff02191690836fffffffffffffffffffffffffffffffff1602179055508391906101000a8154816fffffffffffffffffffffffffffffffff02191690836fffffffffffffffffffffffffffffffff16021790555050505b8660020b8860020b3373ffffffffffffffffffffffffffffffffffffffff167f0c396cd989a39f4459b5fa1aed6a9a8dcdbc45908acfd67e028cd568da98982c89898960405180846fffffffffffffffffffffffffffffffff168152602001838152602001828152602001935050505060405180910390a4505050600160008001601e6101000a81548160ff021916908315150217905550935093915050565b60008060006141d161516b565b6141db85856173bb565b6000806000806000806000600660008d60020b60020b815260200190815260200160002090506000600660008d60020b60020b8152602001908152602001600020905060008260030160009054906101000a900460060b8360030160079054906101000a900473ffffffffffffffffffffffffffffffffffffffff1684600301601b9054906101000a900463ffffffff1685600301601f9054906101000a900460ff16809450819850829a50839c50505050508061429857600080fd5b60008260030160009054906101000a900460060b8360030160079054906101000a900473ffffffffffffffffffffffffffffffffffffffff1684600301601b9054906101000a900463ffffffff1685600301601f9054906101000a900460ff16809450819850829a50839c50505050508061431257600080fd5b505050506000806040518060e00160405290816000820160009054906101000a900473ffffffffffffffffffffffffffffffffffffffff1673ffffffffffffffffffffffffffffffffffffffff1673ffffffffffffffffffffffffffffffffffffffff1681526020016000820160149054906101000a900460020b60020b60020b81526020016000820160179054906101000a900461ffff1661ffff1661ffff1681526020016000820160199054906101000a900461ffff1661ffff1661ffff16815260200160008201601b9054906101000a900461ffff1661ffff1661ffff16815260200160008201601d9054906101000a900460ff1660ff1660ff16815260200160008201601e9054906101000a900460ff16151515158152505090508b60020b816020015160020b121561445e5785870384860383850399509950995050505050505050614507565b8a60020b816020015160020b12156144f057600061447a6149e1565b90506000806144c883600086602001518760400151600560009054906101000a90046fffffffffffffffffffffffffffffffff1689606001516009615c91909695949392919063ffffffff16565b91509150888a830303878983030386888603039c509c509c5050505050505050505050614507565b868603858503848403995099509950505050505050505b9250925092565b7f000000000000000000000000000000000000000000000000000000000000000081565b7f000000000000000000000000000000000000000000000000000000000000000081565b7f000000000000000000000000000000000000000000000000000000000000000081565b8060018190555050565b7f000000000000000000000000000000000000000000000000000000000000000081565b60015481565b60066020528060005260406000206000915090508060000160009054906101000a90046fffffffffffffffffffffffffffffffff16908060000160109054906101000a9004600f0b908060010154908060020154908060030160009054906101000a900460060b908060030160079054906101000a900473ffffffffffffffffffffffffffffffffffffffff169080600301601b9054906101000a900463ffffffff169080600301601f9054906101000a900460ff16905088565b60008060000160009054906101000a900473ffffffffffffffffffffffffffffffffffffffff1673ffffffffffffffffffffffffffffffffffffffff1614614719576040517f08c379a00000000000000000000000000000000000000000000000000000000081526004018080602001828103825260028152602001807f414900000000000000000000000000000000000000000000000000000000000081525060200191505060405180910390fd5b600061472482616159565b90506000806147446147346149e1565b600961757590919063ffffffff16565b915091506040518060e001604052808573ffffffffffffffffffffffffffffffffffffffff1681526020018460020b8152602001600061ffff1681526020018361ffff1681526020018261ffff168152602001600060ff168152602001600115158152506000808201518160000160006101000a81548173ffffffffffffffffffffffffffffffffffffffff021916908373ffffffffffffffffffffffffffffffffffffffff16021790555060208201518160000160146101000a81548162ffffff021916908360020b62ffffff16021790555060408201518160000160176101000a81548161ffff021916908361ffff16021790555060608201518160000160196101000a81548161ffff021916908361ffff160217905550608082015181600001601b6101000a81548161ffff021916908361ffff16021790555060a082015181600001601d6101000a81548160ff021916908360ff16021790555060c082015181600001601e6101000a81548160ff0219169083151502179055509050507f98636036cb66a9c19a37435efc1e90142190214e8abeb821bdba3f2990dd4c958484604051808373ffffffffffffffffffffffffffffffffffffffff1681526020018260020b81526020019250505060405180910390a150505050565b8060028190555050565b600080828360020b7ffffffffffffffffffffffffffffffffffffffffffffffffffffffffffff2761860020b8161496057fe5b050290506000838460020b7ffffffffffffffffffffffffffffffffffffffffffffffffffffffffffff2761860000360020b8161499957fe5b05029050600060018560020b84840360020b816149b257fe5b050190508062ffffff166fffffffffffffffffffffffffffffffff8016816149d657fe5b049350505050919050565b60006201000854905090565b60008363ffffffff168363ffffffff1611158015614a1757508363ffffffff168263ffffffff1611155b15614a33578163ffffffff168363ffffffff1611159050614aae565b60008463ffffffff168463ffffffff1611614a5b576401000000008463ffffffff1601614a63565b8363ffffffff165b64ffffffffff16905060008563ffffffff168463ffffffff1611614a94576401000000008463ffffffff1601614a9c565b8363ffffffff165b64ffffffffff16905080821115925050505b9392505050565b60008060008363ffffffff161415614b35576040517f08c379a00000000000000000000000000000000000000000000000000000000081526004018080602001828103825260028152602001807f425000000000000000000000000000000000000000000000000000000000000081525060200191505060405180910390fd5b6000600267ffffffffffffffff81118015614b4f57600080fd5b50604051908082528060200260200182016040528015614b7e5781602001602082028036833780820191505090505b5090508381600081518110614b8f57fe5b602002602001019063ffffffff16908163ffffffff1681525050600081600181518110614bb857fe5b602002602001019063ffffffff16908163ffffffff16815250506000808673ffffffffffffffffffffffffffffffffffffffff1663883bdbfd846040518263ffffffff1660e01b81526004018080602001828103825283818151815260200191508051906020019060200280838360005b83811015614c44578082015181840152602081019050614c29565b505050509050019250505060006040518083038186803b158015614c6757600080fd5b505afa158015614c7b573d6000803e3d6000fd5b505050506040513d6000823e3d601f19601f820116820180604052506040811015614ca557600080fd5b8101908080516040519392919084640100000000821115614cc557600080fd5b83820191506020820185811115614cdb57600080fd5b8251866020820283011164010000000082111715614cf857600080fd5b8083526020830192505050908051906020019060200280838360005b83811015614d2f578082015181840152602081019050614d14565b5050505090500160405260200180516040519392919084640100000000821115614d5857600080fd5b83820191506020820185811115614d6e57600080fd5b8251866020820283011164010000000082111715614d8b57600080fd5b8083526020830192505050908051906020019060200280838360005b83811015614dc2578082015181840152602081019050614da7565b5050505090500160405250505091509150600082600081518110614de257fe5b602002602001015183600181518110614df757fe5b6020026020010151039050600082600081518110614e1157fe5b602002602001015183600181518110614e2657fe5b60200260200101510390508763ffffffff168260060b81614e4357fe5b05965060008260060b128015614e6f575060008863ffffffff168360060b81614e6857fe5b0760060b14155b15614e7e578680600190039750505b600073ffffffffffffffffffffffffffffffffffffffff80168963ffffffff1602905060208273ffffffffffffffffffffffffffffffffffffffff1677ffffffffffffffffffffffffffffffffffffffffffffffff16901b77ffffffffffffffffffffffffffffffffffffffffffffffff168177ffffffffffffffffffffffffffffffffffffffffffffffff1681614f1257fe5b0496505050505050509250929050565b600080614f2e8661531d565b90506fffffffffffffffffffffffffffffffff80168173ffffffffffffffffffffffffffffffffffffffff161161503f5760008173ffffffffffffffffffffffffffffffffffffffff168273ffffffffffffffffffffffffffffffffffffffff160290508373ffffffffffffffffffffffffffffffffffffffff168573ffffffffffffffffffffffffffffffffffffffff161061500057614ffb7801000000000000000000000000000000000000000000000000876fffffffffffffffffffffffffffffffff1683615bb7565b615037565b61503681876fffffffffffffffffffffffffffffffff167801000000000000000000000000000000000000000000000000615bb7565b5b92505061511c565b60006150818273ffffffffffffffffffffffffffffffffffffffff168373ffffffffffffffffffffffffffffffffffffffff1668010000000000000000615bb7565b90508373ffffffffffffffffffffffffffffffffffffffff168573ffffffffffffffffffffffffffffffffffffffff16106150e9576150e4700100000000000000000000000000000000876fffffffffffffffffffffffffffffffff1683615bb7565b615118565b61511781876fffffffffffffffffffffffffffffffff16700100000000000000000000000000000000615bb7565b5b9250505b50949350505050565b600060c0670de0b6b3a76400008373ffffffffffffffffffffffffffffffffffffffff168473ffffffffffffffffffffffffffffffffffffffff160202901c9050919050565b7f000000000000000000000000000000000000000000000000000000000000000073ffffffffffffffffffffffffffffffffffffffff163073ffffffffffffffffffffffffffffffffffffffff16146151c357600080fd5b565b60008060008460020b8660020b816151d957fe5b05905060008660020b128015615202575060008560020b8760020b816151fb57fe5b0760020b14155b15615211578080600190039150505b8315615295576000806152238361769b565b9150915060008160ff166001901b60018360ff166001901b030190506000818b60008660010b60010b815260200190815260200160002054169050600081141595508561527757888360ff1686030261528a565b88615281826176be565b840360ff168603025b965050505050615313565b6000806152a46001840161769b565b91509150600060018260ff166001901b031990506000818b60008660010b60010b81526020019081526020016000205416905060008114159550856152f657888360ff0360ff1660018701010261530c565b888361530183617799565b0360ff166001870101025b9650505050505b5094509492505050565b60008060008360020b12615334578260020b61533c565b8260020b6000035b90507ffffffffffffffffffffffffffffffffffffffffffffffffffffffffffff2761860000360020b8111156153da576040517f08c379a00000000000000000000000000000000000000000000000000000000081526004018080602001828103825260018152602001807f540000000000000000000000000000000000000000000000000000000000000081525060200191505060405180910390fd5b6000806001831614156153fe57700100000000000000000000000000000000615410565b6ffffcb933bd6fad37aa2d162d1a5940015b70ffffffffffffffffffffffffffffffffff1690506000600283161461544a5760806ffff97272373d413259a46990580e213a8202901c90505b6000600483161461546f5760806ffff2e50f5f656932ef12357cf3c7fdcc8202901c90505b600060088316146154945760806fffe5caca7e10e4e61c3624eaa0941cd08202901c90505b600060108316146154b95760806fffcb9843d60f6159c9db58835c9266448202901c90505b600060208316146154de5760806fff973b41fa98c081472e6896dfb254c08202901c90505b600060408316146155035760806fff2ea16466c96a3843ec78b326b528618202901c90505b600060808316146155285760806ffe5dee046a99a2a811c461f1969c30538202901c90505b600061010083161461554e5760806ffcbe86c7900a88aedcffc83b479aa3a48202901c90505b60006102008316146155745760806ff987a7253ac413176f2b074cf7815e548202901c90505b600061040083161461559a5760806ff3392b0822b70005940c7a398e4b70f38202901c90505b60006108008316146155c05760806fe7159475a2c29b7443b29c7fa6e889d98202901c90505b60006110008316146155e65760806fd097f3bdfd2022b8845ad8f792aa58258202901c90505b600061200083161461560c5760806fa9f746462d870fdf8a65dc1f90e061e58202901c90505b60006140008316146156325760806f70d869a156d2a1b890bb3df62baf32f78202901c90505b60006180008316146156585760806f31be135f97d08fd981231505542fcfa68202901c90505b60006201000083161461567f5760806f09aa508b5b7a84e1c677de54f3e99bc98202901c90505b6000620200008316146156a55760806e5d6af8dedb81196699c329225ee6048202901c90505b6000620400008316146156ca5760806d2216e584f5fa1ea926041bedfe988202901c90505b6000620800008316146156ed5760806b048a170391f7dc42444e8fa28202901c90505b60008460020b131561572657807fffffffffffffffffffffffffffffffffffffffffffffffffffffffffffffffff8161572257fe5b0490505b6000640100000000828161573657fe5b0614615743576001615746565b60005b60ff16602082901c0192505050919050565b6000806157886000800160009054906101000a900473ffffffffffffffffffffffffffffffffffffffff16615125565b905060003073ffffffffffffffffffffffffffffffffffffffff166305ecd0036040518163ffffffff1660e01b815260040160206040518083038186803b1580156157d257600080fd5b505afa1580156157e6573d6000803e3d6000fd5b505050506040513d60208110156157fc57600080fd5b8101908080519060200190929190505050905060003073ffffffffffffffffffffffffffffffffffffffff166355abbe8f84846040518363ffffffff1660e01b8152600401808381526020018281526020019250505060206040518083038186803b15801561586a57600080fd5b505afa15801561587e573d6000803e3d6000fd5b505050506040513d602081101561589457600080fd5b8101908080519060200190929190505050905060328110156158bd576101f493505050506158dc565b60968111156158d35761271093505050506158dc565b610bb893505050505b90565b60008060008060008873ffffffffffffffffffffffffffffffffffffffff168a73ffffffffffffffffffffffffffffffffffffffff16101590506000808812159050801561598e5760006159418989620f42400362ffffff16620f4240615bb7565b90508261595a576159558c8c8c60016178c0565b615968565b6159678b8d8c600161799a565b5b9550858110615979578a9650615988565b6159858c8b8386617ad0565b96505b506159da565b816159a5576159a08b8b8b600061799a565b6159b3565b6159b28a8c8b60006178c0565b5b93508388600003106159c7578995506159d9565b6159d68b8a8a60000385617b42565b95505b5b60008673ffffffffffffffffffffffffffffffffffffffff168b73ffffffffffffffffffffffffffffffffffffffff161490508215615a6157808015615a1d5750815b615a3357615a2e878d8c600161799a565b615a35565b855b9550808015615a42575081155b615a5857615a53878d8c60006178c0565b615a5a565b845b9450615aab565b808015615a6b5750815b615a8157615a7c8c888c60016178c0565b615a83565b855b9550808015615a90575081155b615aa657615aa18c888c600061799a565b615aa8565b845b94505b81158015615abb57508860000385115b15615ac7578860000394505b818015615b0057508a73ffffffffffffffffffffffffffffffffffffffff168773ffffffffffffffffffffffffffffffffffffffff1614155b15615b0f578589039350615b2c565b615b29868962ffffff168a620f42400362ffffff16617129565b93505b50505095509550955095915050565b60007f80000000000000000000000000000000000000000000000000000000000000008210615b6957600080fd5b819050919050565b6000808212151515838385039250821315151514615b8e57600080fd5b92915050565b6000808212151515838385019250821215151514615bb157600080fd5b92915050565b600080600080198587098587029250828110838203039150506000811415615bf25760008411615be657600080fd5b83820492505050615c8a565b808411615bfe57600080fd5b600084868809905082811182039150808303925060008586600003169050808604955080840493506001818260000304019050808302841793506000600287600302189050808702600203810290508087026002038102905080870260020381029050808702600203810290508087026002038102905080870260020381029050808502955050505050505b9392505050565b60008060008763ffffffff161415615db2576000898661ffff1661ffff8110615cb657fe5b016040518060800160405290816000820160009054906101000a900463ffffffff1663ffffffff1663ffffffff1681526020016000820160049054906101000a900460060b60060b60060b815260200160008201600b9054906101000a900473ffffffffffffffffffffffffffffffffffffffff1673ffffffffffffffffffffffffffffffffffffffff1673ffffffffffffffffffffffffffffffffffffffff16815260200160008201601f9054906101000a900460ff16151515158152505090508863ffffffff16816000015163ffffffff1614615d9e57615d9b818a8988617bb4565b90505b806020015181604001519250925050615eb8565b60008789039050600080615dcb8c8c858c8c8c8c617c9f565b91509150816000015163ffffffff168363ffffffff161415615dfd578160200151826040015194509450505050615eb8565b806000015163ffffffff168363ffffffff161415615e2b578060200151816040015194509450505050615eb8565b60008260000151826000015103905060008360000151850390508063ffffffff168263ffffffff16856020015185602001510360060b81615e6857fe5b05028460200151018263ffffffff168263ffffffff16866040015186604001510373ffffffffffffffffffffffffffffffffffffffff160281615ea757fe5b048560400151019650965050505050505b97509795505050505050565b6000808860008960020b60020b815260200190815260200160002090508060010154870381600101819055508060020154860381600201819055508060030160079054906101000a900473ffffffffffffffffffffffffffffffffffffffff1685038160030160076101000a81548173ffffffffffffffffffffffffffffffffffffffff021916908373ffffffffffffffffffffffffffffffffffffffff1602179055508060030160009054906101000a900460060b84038160030160006101000a81548166ffffffffffffff021916908360060b66ffffffffffffff16021790555080600301601b9054906101000a900463ffffffff16830381600301601b6101000a81548163ffffffff021916908363ffffffff1602179055508060000160109054906101000a9004600f0b915050979650505050505050565b60008082600f0b12156160b357826fffffffffffffffffffffffffffffffff168260000384039150816fffffffffffffffffffffffffffffffff16106160ae576040517f08c379a00000000000000000000000000000000000000000000000000000000081526004018080602001828103825260028152602001807f4c5300000000000000000000000000000000000000000000000000000000000081525060200191505060405180910390fd5b616153565b826fffffffffffffffffffffffffffffffff168284019150816fffffffffffffffffffffffffffffffff161015616152576040517f08c379a00000000000000000000000000000000000000000000000000000000081526004018080602001828103825260028152602001807f4c4100000000000000000000000000000000000000000000000000000000000081525060200191505060405180910390fd5b5b92915050565b60006401000276a373ffffffffffffffffffffffffffffffffffffffff168273ffffffffffffffffffffffffffffffffffffffff16101580156161db575073fffd8963efd1fc6a506488495d951d5263988d2673ffffffffffffffffffffffffffffffffffffffff168273ffffffffffffffffffffffffffffffffffffffff16105b61624d576040517f08c379a00000000000000000000000000000000000000000000000000000000081526004018080602001828103825260018152602001807f520000000000000000000000000000000000000000000000000000000000000081525060200191505060405180910390fd5b600060208373ffffffffffffffffffffffffffffffffffffffff16901b9050600081905060006fffffffffffffffffffffffffffffffff821160071b808217915082811c92505067ffffffffffffffff821160061b808217915082811c92505063ffffffff821160051b808217915082811c92505061ffff821160041b808217915082811c92505060ff821160031b808217915082811c925050600f821160021b808217915082811c9250506003821160011b808217915082811c925050600182118082179150506080811061632b57607f810383901c9150616335565b80607f0383901b91505b6000604060808303901b9050828302607f1c92508260801c80603f1b8217915083811c935050828302607f1c92508260801c80603e1b8217915083811c935050828302607f1c92508260801c80603d1b8217915083811c935050828302607f1c92508260801c80603c1b8217915083811c935050828302607f1c92508260801c80603b1b8217915083811c935050828302607f1c92508260801c80603a1b8217915083811c935050828302607f1c92508260801c8060391b8217915083811c935050828302607f1c92508260801c8060381b8217915083811c935050828302607f1c92508260801c8060371b8217915083811c935050828302607f1c92508260801c8060361b8217915083811c935050828302607f1c92508260801c8060351b8217915083811c935050828302607f1c92508260801c8060341b8217915083811c935050828302607f1c92508260801c8060331b8217915083811c935050828302607f1c92508260801c8060321b82179150506000693627a301d71055774c8582029050600060806f028f6481ab7f045a5af012a19d003aaa8303901d9050600060806fdb2df09e81959a81455e260799a0632f8401901d90508060020b8260020b14616545578873ffffffffffffffffffffffffffffffffffffffff1661651c8261531d565b73ffffffffffffffffffffffffffffffffffffffff16111561653e5781616540565b805b616547565b815b975050505050505050919050565b6000806000898961ffff1661ffff811061656b57fe5b016040518060800160405290816000820160009054906101000a900463ffffffff1663ffffffff1663ffffffff1681526020016000820160049054906101000a900460060b60060b60060b815260200160008201600b9054906101000a900473ffffffffffffffffffffffffffffffffffffffff1673ffffffffffffffffffffffffffffffffffffffff1673ffffffffffffffffffffffffffffffffffffffff16815260200160008201601f9054906101000a900460ff16151515158152505090508763ffffffff16816000015163ffffffff161415616651578885925092505061677b565b8461ffff168461ffff1611801561667257506001850361ffff168961ffff16145b1561667f57839150616683565b8491505b8161ffff1660018a0161ffff168161669757fe5b0692506166a681898989617bb4565b8a8461ffff1661ffff81106166b757fe5b0160008201518160000160006101000a81548163ffffffff021916908363ffffffff16021790555060208201518160000160046101000a81548166ffffffffffffff021916908360060b66ffffffffffffff160217905550604082015181600001600b6101000a81548173ffffffffffffffffffffffffffffffffffffffff021916908373ffffffffffffffffffffffffffffffffffffffff160217905550606082015181600001601f6101000a81548160ff021916908315150217905550905050505b97509795505050505050565b6000808473ffffffffffffffffffffffffffffffffffffffff1663a9059cbb60e01b8585604051602401808373ffffffffffffffffffffffffffffffffffffffff16815260200182815260200192505050604051602081830303815290604052907bffffffffffffffffffffffffffffffffffffffffffffffffffffffff19166020820180517bffffffffffffffffffffffffffffffffffffffffffffffffffffffff83818316178352505050506040518082805190602001908083835b602083106168685780518252602082019150602081019050602083039250616845565b6001836020036101000a0380198251168184511680821785525050505050509050019150506000604051808303816000865af19150503d80600081146168ca576040519150601f19603f3d011682016040523d82523d6000602084013e6168cf565b606091505b509150915081801561690f575060008151148061690e57508080602001905160208110156168fc57600080fd5b81019080805190602001909291905050505b5b616981576040517f08c379a00000000000000000000000000000000000000000000000000000000081526004018080602001828103825260028152602001807f544600000000000000000000000000000000000000000000000000000000000081525060200191505060405180910390fd5b5050505050565b60008060007f000000000000000000000000000000000000000000000000000000000000000073ffffffffffffffffffffffffffffffffffffffff166370a0823160e01b30604051602401808273ffffffffffffffffffffffffffffffffffffffff168152602001915050604051602081830303815290604052907bffffffffffffffffffffffffffffffffffffffffffffffffffffffff19166020820180517bffffffffffffffffffffffffffffffffffffffffffffffffffffffff83818316178352505050506040518082805190602001908083835b60208310616a835780518252602082019150602081019050602083039250616a60565b6001836020036101000a038019825116818451168082178552505050505050905001915050600060405180830381855afa9150503d8060008114616ae3576040519150601f19603f3d011682016040523d82523d6000602084013e616ae8565b606091505b5091509150818015616afc57506020815110155b616b0557600080fd5b808060200190516020811015616b1a57600080fd5b81019080805190602001909291905050509250505090565b6000828284019150811015616b4657600080fd5b92915050565b60008060007f000000000000000000000000000000000000000000000000000000000000000073ffffffffffffffffffffffffffffffffffffffff166370a0823160e01b30604051602401808273ffffffffffffffffffffffffffffffffffffffff168152602001915050604051602081830303815290604052907bffffffffffffffffffffffffffffffffffffffffffffffffffffffff19166020820180517bffffffffffffffffffffffffffffffffffffffffffffffffffffffff83818316178352505050506040518082805190602001908083835b60208310616c475780518252602082019150602081019050602083039250616c24565b6001836020036101000a038019825116818451168082178552505050505050905001915050600060405180830381855afa9150503d8060008114616ca7576040519150601f19603f3d011682016040523d82523d6000602084013e616cac565b606091505b5091509150818015616cc057506020815110155b616cc957600080fd5b808060200190516020811015616cde57600080fd5b81019080805190602001909291905050509250505090565b6000808361ffff1611616d71576040517f08c379a00000000000000000000000000000000000000000000000000000000081526004018080602001828103825260018152602001807f490000000000000000000000000000000000000000000000000000000000000081525060200191505060405180910390fd5b8261ffff168261ffff1611616d8857829050616de5565b60008390505b8261ffff168161ffff161015616de0576001858261ffff1661ffff8110616db157fe5b0160000160006101000a81548163ffffffff021916908363ffffffff1602179055508080600101915050616d8e565b508190505b9392505050565b60008182915081600f0b14616e0057600080fd5b919050565b6000806000616e1261516b565b616e24846020015185604001516173bb565b6000806040518060e00160405290816000820160009054906101000a900473ffffffffffffffffffffffffffffffffffffffff1673ffffffffffffffffffffffffffffffffffffffff1673ffffffffffffffffffffffffffffffffffffffff1681526020016000820160149054906101000a900460020b60020b60020b81526020016000820160179054906101000a900461ffff1661ffff1661ffff1681526020016000820160199054906101000a900461ffff1661ffff1661ffff16815260200160008201601b9054906101000a900461ffff1661ffff1661ffff16815260200160008201601d9054906101000a900460ff1660ff1660ff16815260200160008201601e9054906101000a900460ff1615151515815250509050616f6085600001518660200151876040015188606001518560200151618029565b935060008560600151600f0b1461712157846020015160020b816020015160020b1215616fb557616fae616f97866020015161531d565b616fa4876040015161531d565b8760600151618282565b9250617120565b846040015160020b816020015160020b12156170f5576000600560009054906101000a90046fffffffffffffffffffffffffffffffff1690506170238260400151616ffe6149e1565b846020015184866060015187608001516009616555909695949392919063ffffffff16565b6000800160176000800160198491906101000a81548161ffff021916908361ffff1602179055508391906101000a81548161ffff021916908361ffff1602179055505050617086826000015161707c886040015161531d565b8860600151618282565b93506170a7617098876020015161531d565b836000015188606001516182cd565b92506170b7818760600151616000565b600560006101000a8154816fffffffffffffffffffffffffffffffff02191690836fffffffffffffffffffffffffffffffff1602179055505061711f565b61711c617105866020015161531d565b617112876040015161531d565b87606001516182cd565b91505b5b5b509193909250565b6000617136848484615bb7565b90506000828061714257fe5b8486091115617180577fffffffffffffffffffffffffffffffffffffffffffffffffffffffffffffffff811061717757600080fd5b80806001019150505b9392505050565b6000846000858585604051602001808473ffffffffffffffffffffffffffffffffffffffff1660601b81526014018360020b60e81b81526003018260020b60e81b815260030193505050506040516020818303038152906040528051906020012081526020019081526020016000209050949350505050565b60608060008361ffff161161727d576040517f08c379a00000000000000000000000000000000000000000000000000000000081526004018080602001828103825260018152602001807f490000000000000000000000000000000000000000000000000000000000000081525060200191505060405180910390fd5b865167ffffffffffffffff8111801561729557600080fd5b506040519080825280602002602001820160405280156172c45781602001602082028036833780820191505090505b509150865167ffffffffffffffff811180156172df57600080fd5b5060405190808252806020026020018201604052801561730e5781602001602082028036833780820191505090505b50905060005b87518110156173ae5761733f8a8a8a848151811061732e57fe5b60200260200101518a8a8a8a615c91565b84838151811061734b57fe5b6020026020010184848151811061735e57fe5b602002602001018273ffffffffffffffffffffffffffffffffffffffff1673ffffffffffffffffffffffffffffffffffffffff168152508260060b60060b81525050508080600101915050617314565b5097509795505050505050565b8060020b8260020b12617436576040517f08c379a00000000000000000000000000000000000000000000000000000000081526004018080602001828103825260038152602001807f544c55000000000000000000000000000000000000000000000000000000000081525060200191505060405180910390fd5b7ffffffffffffffffffffffffffffffffffffffffffffffffffffffffffff2761860020b8260020b12156174d2576040517f08c379a00000000000000000000000000000000000000000000000000000000081526004018080602001828103825260038152602001807f544c4d000000000000000000000000000000000000000000000000000000000081525060200191505060405180910390fd5b7ffffffffffffffffffffffffffffffffffffffffffffffffffffffffffff2761860000360020b8160020b1315617571576040517f08c379a00000000000000000000000000000000000000000000000000000000081526004018080602001828103825260038152602001807f54554d000000000000000000000000000000000000000000000000000000000081525060200191505060405180910390fd5b5050565b60008060405180608001604052808463ffffffff168152602001600060060b8152602001600073ffffffffffffffffffffffffffffffffffffffff1681526020016001151581525084600061ffff81106175cb57fe5b0160008201518160000160006101000a81548163ffffffff021916908363ffffffff16021790555060208201518160000160046101000a81548166ffffffffffffff021916908360060b66ffffffffffffff160217905550604082015181600001600b6101000a81548173ffffffffffffffffffffffffffffffffffffffff021916908373ffffffffffffffffffffffffffffffffffffffff160217905550606082015181600001601f6101000a81548160ff021916908315150217905550905050600180915091509250929050565b60008060088360020b901d91506101008360020b816176b657fe5b079050915091565b60008082116176cc57600080fd5b70010000000000000000000000000000000082106176f257608082901c91506080810190505b68010000000000000000821061771057604082901c91506040810190505b640100000000821061772a57602082901c91506020810190505b62010000821061774257601082901c91506010810190505b610100821061775957600882901c91506008810190505b6010821061776f57600482901c91506004810190505b6004821061778557600282901c91506002810190505b60028210617794576001810190505b919050565b60008082116177a757600080fd5b60ff905060006fffffffffffffffffffffffffffffffff8016831611156177d3576080810390506177db565b608082901c91505b600067ffffffffffffffff8016831611156177fb57604081039050617803565b604082901c91505b600063ffffffff80168316111561781f57602081039050617827565b602082901c91505b600061ffff80168316111561784157601081039050617849565b601082901c91505b600060ff8016831611156178625760088103905061786a565b600882901c91505b6000600f8316111561788157600481039050617889565b600482901c91505b60006003831611156178a0576002810390506178a8565b600282901c91505b60006001831611156178bb576001810390505b919050565b60008373ffffffffffffffffffffffffffffffffffffffff168573ffffffffffffffffffffffffffffffffffffffff16111561790157838580955081965050505b8161794d57617948836fffffffffffffffffffffffffffffffff1686860373ffffffffffffffffffffffffffffffffffffffff166c01000000000000000000000000615bb7565b617990565b61798f836fffffffffffffffffffffffffffffffff1686860373ffffffffffffffffffffffffffffffffffffffff166c01000000000000000000000000617129565b5b9050949350505050565b60008373ffffffffffffffffffffffffffffffffffffffff168573ffffffffffffffffffffffffffffffffffffffff1611156179db57838580955081965050505b6000606060ff16846fffffffffffffffffffffffffffffffff16901b9050600086860373ffffffffffffffffffffffffffffffffffffffff16905060008773ffffffffffffffffffffffffffffffffffffffff1611617a3957600080fd5b83617a83578673ffffffffffffffffffffffffffffffffffffffff16617a7683838973ffffffffffffffffffffffffffffffffffffffff16615bb7565b81617a7d57fe5b04617ac4565b617ac3617aa783838973ffffffffffffffffffffffffffffffffffffffff16617129565b8873ffffffffffffffffffffffffffffffffffffffff16618318565b5b92505050949350505050565b6000808573ffffffffffffffffffffffffffffffffffffffff1611617af457600080fd5b6000846fffffffffffffffffffffffffffffffff1611617b1357600080fd5b81617b2a57617b25858585600161832b565b617b38565b617b37858585600161849d565b5b9050949350505050565b6000808573ffffffffffffffffffffffffffffffffffffffff1611617b6657600080fd5b6000846fffffffffffffffffffffffffffffffff1611617b8557600080fd5b81617b9c57617b97858585600061849d565b617baa565b617ba9858585600061832b565b5b9050949350505050565b617bbc6192b2565b600085600001518503905060405180608001604052808663ffffffff1681526020018263ffffffff168660020b0288602001510160060b81526020016000856fffffffffffffffffffffffffffffffff1611617c19576001617c1b565b845b6fffffffffffffffffffffffffffffffff1660808463ffffffff1673ffffffffffffffffffffffffffffffffffffffff16901b73ffffffffffffffffffffffffffffffffffffffff1681617c6b57fe5b0488604001510173ffffffffffffffffffffffffffffffffffffffff16815260200160011515815250915050949350505050565b617ca76192b2565b617caf6192b2565b888561ffff1661ffff8110617cc057fe5b016040518060800160405290816000820160009054906101000a900463ffffffff1663ffffffff1663ffffffff1681526020016000820160049054906101000a900460060b60060b60060b815260200160008201600b9054906101000a900473ffffffffffffffffffffffffffffffffffffffff1673ffffffffffffffffffffffffffffffffffffffff1673ffffffffffffffffffffffffffffffffffffffff16815260200160008201601f9054906101000a900460ff1615151515815250509150617d9188836000015189618627565b15617dc9578663ffffffff16826000015163ffffffff161415617db35761801d565b81617dc083898988617bb4565b9150915061801d565b888361ffff166001870161ffff1681617dde57fe5b0661ffff1661ffff8110617dee57fe5b016040518060800160405290816000820160009054906101000a900463ffffffff1663ffffffff1663ffffffff1681526020016000820160049054906101000a900460060b60060b60060b815260200160008201600b9054906101000a900473ffffffffffffffffffffffffffffffffffffffff1673ffffffffffffffffffffffffffffffffffffffff1673ffffffffffffffffffffffffffffffffffffffff16815260200160008201601f9054906101000a900460ff16151515158152505091508160600151617f8a5788600061ffff8110617ec757fe5b016040518060800160405290816000820160009054906101000a900463ffffffff1663ffffffff1663ffffffff1681526020016000820160049054906101000a900460060b60060b60060b815260200160008201600b9054906101000a900473ffffffffffffffffffffffffffffffffffffffff1673ffffffffffffffffffffffffffffffffffffffff1673ffffffffffffffffffffffffffffffffffffffff16815260200160008201601f9054906101000a900460ff16151515158152505091505b617f9988836000015189618627565b61800b576040517f08c379a00000000000000000000000000000000000000000000000000000000081526004018080602001828103825260038152602001807f4f4c44000000000000000000000000000000000000000000000000000000000081525060200191505060405180910390fd5b61801889898988876186ef565b915091505b97509795505050505050565b60006180438686866008617187909392919063ffffffff16565b90506000600154905060006002549050600080600087600f0b146181f657600061806b6149e1565b90506000806180e28360008060000160149054906101000a900460020b6000800160179054906101000a900461ffff16600560009054906101000a90046fffffffffffffffffffffffffffffffff166000800160199054906101000a900461ffff166009615c91909695949392919063ffffffff16565b9150915061812d8c8a8c8a8a86888a60007f00000000000000000000000000000000000000000000000000000000000000006006618972909a9998979695949392919063ffffffff16565b94506181768b8a8c8a8a86888a60017f00000000000000000000000000000000000000000000000000000000000000006006618972909a9998979695949392919063ffffffff16565b935084156181b5576181b48c7f00000000000000000000000000000000000000000000000000000000000000006007618c749092919063ffffffff16565b5b83156181f2576181f18b7f00000000000000000000000000000000000000000000000000000000000000006007618c749092919063ffffffff16565b5b5050505b6000806182158b8b8a89896006618cec9095949392919063ffffffff16565b915091506182308983838a618db3909392919063ffffffff16565b600089600f0b1215618273578315618257576182568b600661913790919063ffffffff16565b5b8215618272576182718a600661913790919063ffffffff16565b5b5b50505050505095945050505050565b60008082600f0b126182a8576182a361829e858585600161799a565b615b3b565b6182c4565b6182c06182bb858585600003600061799a565b615b3b565b6000035b90509392505050565b60008082600f0b126182f3576182ee6182e985858560016178c0565b615b3b565b61830f565b61830b61830685858560000360006178c0565b615b3b565b6000035b90509392505050565b6000808284061182840401905092915050565b600081156183e157600073ffffffffffffffffffffffffffffffffffffffff80168411156183825761837d846c01000000000000000000000000876fffffffffffffffffffffffffffffffff16615bb7565b6183a6565b846fffffffffffffffffffffffffffffffff16606060ff1685901b816183a457fe5b045b90506183d96183d4828873ffffffffffffffffffffffffffffffffffffffff16616b3290919063ffffffff16565b619218565b915050618495565b600073ffffffffffffffffffffffffffffffffffffffff80168411156184305761842b846c01000000000000000000000000876fffffffffffffffffffffffffffffffff16617129565b618454565b618453606060ff1685901b866fffffffffffffffffffffffffffffffff16618318565b5b9050808673ffffffffffffffffffffffffffffffffffffffff161161847857600080fd5b808673ffffffffffffffffffffffffffffffffffffffff16039150505b949350505050565b6000808314156184af5784905061861f565b6000606060ff16856fffffffffffffffffffffffffffffffff16901b905082156185965760008673ffffffffffffffffffffffffffffffffffffffff16858873ffffffffffffffffffffffffffffffffffffffff1687029250828161851057fe5b041415618552576000818301905082811061855057618546838973ffffffffffffffffffffffffffffffffffffffff1683617129565b935050505061861f565b505b61858d82618588878a73ffffffffffffffffffffffffffffffffffffffff16868161857957fe5b04616b3290919063ffffffff16565b618318565b9250505061861f565b60008673ffffffffffffffffffffffffffffffffffffffff16858873ffffffffffffffffffffffffffffffffffffffff168702925082816185d357fe5b041480156185e057508082115b6185e957600080fd5b60008183039050618619618614848a73ffffffffffffffffffffffffffffffffffffffff1684617129565b619218565b93505050505b949350505050565b60008363ffffffff168363ffffffff161115801561865157508363ffffffff168263ffffffff1611155b1561866d578163ffffffff168363ffffffff16111590506186e8565b60008463ffffffff168463ffffffff1611618695576401000000008463ffffffff160161869d565b8363ffffffff165b64ffffffffff16905060008563ffffffff168463ffffffff16116186ce576401000000008463ffffffff16016186d6565b8363ffffffff165b64ffffffffff16905080821115925050505b9392505050565b6186f76192b2565b6186ff6192b2565b60008361ffff166001860161ffff168161871557fe5b0661ffff169050600060018561ffff16830103905060005b6001156189655760028284018161874057fe5b049050898661ffff16828161875157fe5b0661ffff811061875d57fe5b016040518060800160405290816000820160009054906101000a900463ffffffff1663ffffffff1663ffffffff1681526020016000820160049054906101000a900460060b60060b60060b815260200160008201600b9054906101000a900473ffffffffffffffffffffffffffffffffffffffff1673ffffffffffffffffffffffffffffffffffffffff1673ffffffffffffffffffffffffffffffffffffffff16815260200160008201601f9054906101000a900460ff161515151581525050945084606001516188335760018101925061872d565b898661ffff16600183018161884457fe5b0661ffff811061885057fe5b016040518060800160405290816000820160009054906101000a900463ffffffff1663ffffffff1663ffffffff1681526020016000820160049054906101000a900460060b60060b60060b815260200160008201600b9054906101000a900473ffffffffffffffffffffffffffffffffffffffff1673ffffffffffffffffffffffffffffffffffffffff1673ffffffffffffffffffffffffffffffffffffffff16815260200160008201601f9054906101000a900460ff161515151581525050935060006189238a87600001518b618627565b905080801561893d575061893c8a8a8760000151618627565b5b156189485750618965565b806189585760018203925061895f565b6001820193505b5061872d565b5050509550959350505050565b6000808c60008d60020b60020b8152602001908152602001600020905060008160000160009054906101000a90046fffffffffffffffffffffffffffffffff16905060006189c0828d616000565b9050846fffffffffffffffffffffffffffffffff16816fffffffffffffffffffffffffffffffff161115618a5c576040517f08c379a00000000000000000000000000000000000000000000000000000000081526004018080602001828103825260028152602001807f4c4f00000000000000000000000000000000000000000000000000000000000081525060200191505060405180910390fd5b6000826fffffffffffffffffffffffffffffffff161415156000826fffffffffffffffffffffffffffffffff16141515141593506000826fffffffffffffffffffffffffffffffff161415618b7b578c60020b8e60020b13618b5d578a8360010181905550898360020181905550888360030160076101000a81548173ffffffffffffffffffffffffffffffffffffffff021916908373ffffffffffffffffffffffffffffffffffffffff160217905550878360030160006101000a81548166ffffffffffffff021916908360060b66ffffffffffffff1602179055508683600301601b6101000a81548163ffffffff021916908363ffffffff1602179055505b600183600301601f6101000a81548160ff0219169083151502179055505b808360000160006101000a8154816fffffffffffffffffffffffffffffffff02191690836fffffffffffffffffffffffffffffffff16021790555085618bf257618bed618be88d600f0b8560000160109054906101000a9004600f0b600f0b615b9490919063ffffffff16565b616dec565b618c25565b618c24618c1f8d600f0b8560000160109054906101000a9004600f0b600f0b615b7190919063ffffffff16565b616dec565b5b8360000160106101000a8154816fffffffffffffffffffffffffffffffff0219169083600f0b6fffffffffffffffffffffffffffffffff1602179055505050509b9a5050505050505050505050565b60008160020b8360020b81618c8557fe5b0760020b14618c9357600080fd5b600080618cae8360020b8560020b81618ca857fe5b0561769b565b9150915060008160ff166001901b9050808660008560010b60010b815260200190815260200160002060008282541892505081905550505050505050565b60008060008860008960020b60020b8152602001908152602001600020905060008960008960020b60020b815260200190815260200160002090506000808a60020b8960020b12618d4a578360010154915083600201549050618d5d565b8360010154880391508360020154870390505b6000808b60020b8b60020b1215618d81578460010154915084600201549050618d94565b84600101548a0391508460020154890390505b81848b0303975080838a03039650505050505050965096945050505050565b6000846040518060a00160405290816000820160009054906101000a90046fffffffffffffffffffffffffffffffff166fffffffffffffffffffffffffffffffff166fffffffffffffffffffffffffffffffff16815260200160018201548152602001600282015481526020016003820160009054906101000a90046fffffffffffffffffffffffffffffffff166fffffffffffffffffffffffffffffffff166fffffffffffffffffffffffffffffffff1681526020016003820160109054906101000a90046fffffffffffffffffffffffffffffffff166fffffffffffffffffffffffffffffffff166fffffffffffffffffffffffffffffffff1681525050905060008085600f0b1415618f5a57600082600001516fffffffffffffffffffffffffffffffff1611618f4e576040517f08c379a00000000000000000000000000000000000000000000000000000000081526004018080602001828103825260028152602001807f4e5000000000000000000000000000000000000000000000000000000000000081525060200191505060405180910390fd5b81600001519050618f6b565b618f68826000015186616000565b90505b6000618fa58360200151860384600001516fffffffffffffffffffffffffffffffff16700100000000000000000000000000000000615bb7565b90506000618fe18460400151860385600001516fffffffffffffffffffffffffffffffff16700100000000000000000000000000000000615bb7565b9050600087600f0b1461902a57828860000160006101000a8154816fffffffffffffffffffffffffffffffff02191690836fffffffffffffffffffffffffffffffff1602179055505b8588600101819055508488600201819055506000826fffffffffffffffffffffffffffffffff16118061906f57506000816fffffffffffffffffffffffffffffffff16115b1561912d57818860030160008282829054906101000a90046fffffffffffffffffffffffffffffffff160192506101000a8154816fffffffffffffffffffffffffffffffff02191690836fffffffffffffffffffffffffffffffff160217905550808860030160108282829054906101000a90046fffffffffffffffffffffffffffffffff160192506101000a8154816fffffffffffffffffffffffffffffffff02191690836fffffffffffffffffffffffffffffffff1602179055505b5050505050505050565b8160008260020b60020b8152602001908152602001600020600080820160006101000a8154906fffffffffffffffffffffffffffffffff02191690556000820160106101000a8154906fffffffffffffffffffffffffffffffff0219169055600182016000905560028201600090556003820160006101000a81549066ffffffffffffff02191690556003820160076101000a81549073ffffffffffffffffffffffffffffffffffffffff021916905560038201601b6101000a81549063ffffffff021916905560038201601f6101000a81549060ff021916905550505050565b6000818291508173ffffffffffffffffffffffffffffffffffffffff161461923f57600080fd5b919050565b6040518060e00160405280600073ffffffffffffffffffffffffffffffffffffffff168152602001600060020b8152602001600015158152602001600073ffffffffffffffffffffffffffffffffffffffff1681526020016000815260200160008152602001600081525090565b6040518060800160405280600063ffffffff168152602001600060060b8152602001600073ffffffffffffffffffffffffffffffffffffffff168152602001600015158152509056fea264697066735822122041198760d48fca48fece6b2a8bd1aacae552b1c16f43e8064faea45ee595ea7f64736f6c63430007060033a26469706673582212209c1b022aa9fa9b38c310f05987c376e2c5a497426a914210b092d5ba9f34e9a764736f6c63430007060033","linkReferences":{}},"methodIdentifiers":{"deploy(address,address,address,uint24,int24)":"fad5359f","parameters()":"89035730"},"id":35}